{
	"contracts/twitter.sol": {
		"twitter": {
			"abi": [
				{
					"inputs": [
						{
							"internalType": "address",
							"name": "_from",
							"type": "address"
						},
						{
							"internalType": "address",
							"name": "_to",
							"type": "address"
						},
						{
							"internalType": "string",
							"name": "_content",
							"type": "string"
						}
					],
					"name": "_message",
					"outputs": [],
					"stateMutability": "nonpayable",
					"type": "function"
				},
				{
					"inputs": [
						{
							"internalType": "address",
							"name": "_user",
							"type": "address"
						}
					],
					"name": "allowaccess",
					"outputs": [],
					"stateMutability": "nonpayable",
					"type": "function"
				},
				{
					"inputs": [
						{
							"internalType": "address",
							"name": "",
							"type": "address"
						},
						{
							"internalType": "uint256",
							"name": "",
							"type": "uint256"
						}
					],
					"name": "conversations",
					"outputs": [
						{
							"internalType": "uint256",
							"name": "id",
							"type": "uint256"
						},
						{
							"internalType": "address",
							"name": "from",
							"type": "address"
						},
						{
							"internalType": "address",
							"name": "to",
							"type": "address"
						},
						{
							"internalType": "string",
							"name": "content",
							"type": "string"
						},
						{
							"internalType": "uint256",
							"name": "createdAt",
							"type": "uint256"
						}
					],
					"stateMutability": "view",
					"type": "function"
				},
				{
					"inputs": [
						{
							"internalType": "address",
							"name": "_tofollow",
							"type": "address"
						}
					],
					"name": "follow",
					"outputs": [],
					"stateMutability": "nonpayable",
					"type": "function"
				},
				{
					"inputs": [
						{
							"internalType": "address",
							"name": "",
							"type": "address"
						},
						{
							"internalType": "uint256",
							"name": "",
							"type": "uint256"
						}
					],
					"name": "following",
					"outputs": [
						{
							"internalType": "address",
							"name": "",
							"type": "address"
						}
					],
					"stateMutability": "view",
					"type": "function"
				},
				{
					"inputs": [
						{
							"internalType": "uint256",
							"name": "count",
							"type": "uint256"
						}
					],
					"name": "getLatesTweets",
					"outputs": [
						{
							"components": [
								{
									"internalType": "uint256",
									"name": "id",
									"type": "uint256"
								},
								{
									"internalType": "address",
									"name": "author",
									"type": "address"
								},
								{
									"internalType": "string",
									"name": "content",
									"type": "string"
								},
								{
									"internalType": "uint256",
									"name": "createdAt",
									"type": "uint256"
								}
							],
							"internalType": "struct twitter.Tweet[]",
							"name": "",
							"type": "tuple[]"
						}
					],
					"stateMutability": "view",
					"type": "function"
				},
				{
					"inputs": [
						{
							"internalType": "address",
							"name": "_user",
							"type": "address"
						},
						{
							"internalType": "uint256",
							"name": "count",
							"type": "uint256"
						}
					],
					"name": "getLatestTweetsOfUser",
					"outputs": [
						{
							"components": [
								{
									"internalType": "uint256",
									"name": "id",
									"type": "uint256"
								},
								{
									"internalType": "address",
									"name": "author",
									"type": "address"
								},
								{
									"internalType": "string",
									"name": "content",
									"type": "string"
								},
								{
									"internalType": "uint256",
									"name": "createdAt",
									"type": "uint256"
								}
							],
							"internalType": "struct twitter.Tweet[]",
							"name": "",
							"type": "tuple[]"
						}
					],
					"stateMutability": "view",
					"type": "function"
				},
				{
					"inputs": [
						{
							"internalType": "address",
							"name": "_to",
							"type": "address"
						},
						{
							"internalType": "string",
							"name": "_content",
							"type": "string"
						}
					],
					"name": "message",
					"outputs": [],
					"stateMutability": "nonpayable",
					"type": "function"
				},
				{
					"inputs": [
						{
							"internalType": "address",
							"name": "_from",
							"type": "address"
						},
						{
							"internalType": "address",
							"name": "_to",
							"type": "address"
						},
						{
							"internalType": "string",
							"name": "_content",
							"type": "string"
						}
					],
					"name": "message",
					"outputs": [],
					"stateMutability": "nonpayable",
					"type": "function"
				},
				{
					"inputs": [
						{
							"internalType": "address",
							"name": "",
							"type": "address"
						},
						{
							"internalType": "address",
							"name": "",
							"type": "address"
						}
					],
					"name": "operators",
					"outputs": [
						{
							"internalType": "bool",
							"name": "",
							"type": "bool"
						}
					],
					"stateMutability": "view",
					"type": "function"
				},
				{
					"inputs": [
						{
							"internalType": "address",
							"name": "_user",
							"type": "address"
						}
					],
					"name": "removeaccess",
					"outputs": [],
					"stateMutability": "nonpayable",
					"type": "function"
				},
				{
					"inputs": [
						{
							"internalType": "string",
							"name": "_content",
							"type": "string"
						}
					],
					"name": "tweet",
					"outputs": [],
					"stateMutability": "nonpayable",
					"type": "function"
				},
				{
					"inputs": [
						{
							"internalType": "uint256",
							"name": "",
							"type": "uint256"
						}
					],
					"name": "tweets",
					"outputs": [
						{
							"internalType": "uint256",
							"name": "id",
							"type": "uint256"
						},
						{
							"internalType": "address",
							"name": "author",
							"type": "address"
						},
						{
							"internalType": "string",
							"name": "content",
							"type": "string"
						},
						{
							"internalType": "uint256",
							"name": "createdAt",
							"type": "uint256"
						}
					],
					"stateMutability": "view",
					"type": "function"
				},
				{
					"inputs": [
						{
							"internalType": "address",
							"name": "",
							"type": "address"
						},
						{
							"internalType": "uint256",
							"name": "",
							"type": "uint256"
						}
					],
					"name": "tweetsof",
					"outputs": [
						{
							"internalType": "uint256",
							"name": "",
							"type": "uint256"
						}
					],
					"stateMutability": "view",
					"type": "function"
				}
			],
			"devdoc": {
				"kind": "dev",
				"methods": {},
				"version": 1
			},
			"evm": {
				"assembly": "    /* \"contracts/twitter.sol\":72:2785  contract twitter{... */\n  mstore(0x40, 0x80)\n  callvalue\n  dup1\n  iszero\n  tag_1\n  jumpi\n  0x00\n  dup1\n  revert\ntag_1:\n  pop\n  dataSize(sub_0)\n  dup1\n  dataOffset(sub_0)\n  0x00\n  codecopy\n  0x00\n  return\nstop\n\nsub_0: assembly {\n        /* \"contracts/twitter.sol\":72:2785  contract twitter{... */\n      mstore(0x40, 0x80)\n      callvalue\n      dup1\n      iszero\n      tag_1\n      jumpi\n      0x00\n      dup1\n      revert\n    tag_1:\n      pop\n      jumpi(tag_2, lt(calldatasize, 0x04))\n      shr(0xe0, calldataload(0x00))\n      dup1\n      0x66ebcabd\n      gt\n      tag_17\n      jumpi\n      dup1\n      0xce336dad\n      gt\n      tag_18\n      jumpi\n      dup1\n      0xce336dad\n      eq\n      tag_13\n      jumpi\n      dup1\n      0xe8d857b0\n      eq\n      tag_14\n      jumpi\n      dup1\n      0xfb46d4c5\n      eq\n      tag_15\n      jumpi\n      dup1\n      0xfd33c98f\n      eq\n      tag_16\n      jumpi\n      jump(tag_2)\n    tag_18:\n      dup1\n      0x66ebcabd\n      eq\n      tag_10\n      jumpi\n      dup1\n      0x9139cda5\n      eq\n      tag_11\n      jumpi\n      dup1\n      0xa83d00ed\n      eq\n      tag_12\n      jumpi\n      jump(tag_2)\n    tag_17:\n      dup1\n      0x4fac1bb3\n      gt\n      tag_19\n      jumpi\n      dup1\n      0x4fac1bb3\n      eq\n      tag_6\n      jumpi\n      dup1\n      0x517223b5\n      eq\n      tag_7\n      jumpi\n      dup1\n      0x5a1692b6\n      eq\n      tag_8\n      jumpi\n      dup1\n      0x6188d3b3\n      eq\n      tag_9\n      jumpi\n      jump(tag_2)\n    tag_19:\n      dup1\n      0x2637588e\n      eq\n      tag_3\n      jumpi\n      dup1\n      0x3befea09\n      eq\n      tag_4\n      jumpi\n      dup1\n      0x4dbf27cc\n      eq\n      tag_5\n      jumpi\n    tag_2:\n      0x00\n      dup1\n      revert\n        /* \"contracts/twitter.sol\":499:556  mapping(address=>mapping(address=>bool)) public operators */\n    tag_3:\n      tag_20\n      0x04\n      dup1\n      calldatasize\n      sub\n      dup2\n      add\n      swap1\n      tag_21\n      swap2\n      swap1\n      tag_22\n      jump\t// in\n    tag_21:\n      tag_23\n      jump\t// in\n    tag_20:\n      mload(0x40)\n      tag_24\n      swap2\n      swap1\n      tag_25\n      jump\t// in\n    tag_24:\n      mload(0x40)\n      dup1\n      swap2\n      sub\n      swap1\n      return\n        /* \"contracts/twitter.sol\":444:492  mapping(address=>Message[]) public conversations */\n    tag_4:\n      tag_26\n      0x04\n      dup1\n      calldatasize\n      sub\n      dup2\n      add\n      swap1\n      tag_27\n      swap2\n      swap1\n      tag_28\n      jump\t// in\n    tag_27:\n      tag_29\n      jump\t// in\n    tag_26:\n      mload(0x40)\n      tag_30\n      swap6\n      swap5\n      swap4\n      swap3\n      swap2\n      swap1\n      tag_31\n      jump\t// in\n    tag_30:\n      mload(0x40)\n      dup1\n      swap2\n      sub\n      swap1\n      return\n        /* \"contracts/twitter.sol\":1685:1783  function follow(address _tofollow) public {... */\n    tag_5:\n      tag_32\n      0x04\n      dup1\n      calldatasize\n      sub\n      dup2\n      add\n      swap1\n      tag_33\n      swap2\n      swap1\n      tag_34\n      jump\t// in\n    tag_33:\n      tag_35\n      jump\t// in\n    tag_32:\n      stop\n        /* \"contracts/twitter.sol\":1432:1548  function message( address _to, string memory _content) public {... */\n    tag_6:\n      tag_36\n      0x04\n      dup1\n      calldatasize\n      sub\n      dup2\n      add\n      swap1\n      tag_37\n      swap2\n      swap1\n      tag_38\n      jump\t// in\n    tag_37:\n      tag_39\n      jump\t// in\n    tag_36:\n      stop\n        /* \"contracts/twitter.sol\":397:437  mapping(address=>uint[]) public tweetsof */\n    tag_7:\n      tag_40\n      0x04\n      dup1\n      calldatasize\n      sub\n      dup2\n      add\n      swap1\n      tag_41\n      swap2\n      swap1\n      tag_28\n      jump\t// in\n    tag_41:\n      tag_42\n      jump\t// in\n    tag_40:\n      mload(0x40)\n      tag_43\n      swap2\n      swap1\n      tag_44\n      jump\t// in\n    tag_43:\n      mload(0x40)\n      dup1\n      swap2\n      sub\n      swap1\n      return\n        /* \"contracts/twitter.sol\":978:1215  function _message(address _from, address _to, string memory _content) public {... */\n    tag_8:\n      tag_45\n      0x04\n      dup1\n      calldatasize\n      sub\n      dup2\n      add\n      swap1\n      tag_46\n      swap2\n      swap1\n      tag_47\n      jump\t// in\n    tag_46:\n      tag_48\n      jump\t// in\n    tag_45:\n      stop\n        /* \"contracts/twitter.sol\":1991:2350  function getLatesTweets(uint count)public view returns(Tweet[] memory) {... */\n    tag_9:\n      tag_49\n      0x04\n      dup1\n      calldatasize\n      sub\n      dup2\n      add\n      swap1\n      tag_50\n      swap2\n      swap1\n      tag_51\n      jump\t// in\n    tag_50:\n      tag_52\n      jump\t// in\n    tag_49:\n      mload(0x40)\n      tag_53\n      swap2\n      swap1\n      tag_54\n      jump\t// in\n    tag_53:\n      mload(0x40)\n      dup1\n      swap2\n      sub\n      swap1\n      return\n        /* \"contracts/twitter.sol\":1889:1985  function removeaccess(address _user) public{... */\n    tag_10:\n      tag_55\n      0x04\n      dup1\n      calldatasize\n      sub\n      dup2\n      add\n      swap1\n      tag_56\n      swap2\n      swap1\n      tag_34\n      jump\t// in\n    tag_56:\n      tag_57\n      jump\t// in\n    tag_55:\n      stop\n        /* \"contracts/twitter.sol\":563:607  mapping(address=>address[]) public following */\n    tag_11:\n      tag_58\n      0x04\n      dup1\n      calldatasize\n      sub\n      dup2\n      add\n      swap1\n      tag_59\n      swap2\n      swap1\n      tag_28\n      jump\t// in\n    tag_59:\n      tag_60\n      jump\t// in\n    tag_58:\n      mload(0x40)\n      tag_61\n      swap2\n      swap1\n      tag_62\n      jump\t// in\n    tag_61:\n      mload(0x40)\n      dup1\n      swap2\n      sub\n      swap1\n      return\n        /* \"contracts/twitter.sol\":1789:1883  function allowaccess(address _user) public{... */\n    tag_12:\n      tag_63\n      0x04\n      dup1\n      calldatasize\n      sub\n      dup2\n      add\n      swap1\n      tag_64\n      swap2\n      swap1\n      tag_34\n      jump\t// in\n    tag_64:\n      tag_65\n      jump\t// in\n    tag_63:\n      stop\n        /* \"contracts/twitter.sol\":2356:2782  function getLatestTweetsOfUser(address _user, uint count) public view returns (Tweet[] memory) {... */\n    tag_13:\n      tag_66\n      0x04\n      dup1\n      calldatasize\n      sub\n      dup2\n      add\n      swap1\n      tag_67\n      swap2\n      swap1\n      tag_28\n      jump\t// in\n    tag_67:\n      tag_68\n      jump\t// in\n    tag_66:\n      mload(0x40)\n      tag_69\n      swap2\n      swap1\n      tag_54\n      jump\t// in\n    tag_69:\n      mload(0x40)\n      dup1\n      swap2\n      sub\n      swap1\n      return\n        /* \"contracts/twitter.sol\":356:390  mapping(uint=>Tweet) public tweets */\n    tag_14:\n      tag_70\n      0x04\n      dup1\n      calldatasize\n      sub\n      dup2\n      add\n      swap1\n      tag_71\n      swap2\n      swap1\n      tag_51\n      jump\t// in\n    tag_71:\n      tag_72\n      jump\t// in\n    tag_70:\n      mload(0x40)\n      tag_73\n      swap5\n      swap4\n      swap3\n      swap2\n      swap1\n      tag_74\n      jump\t// in\n    tag_73:\n      mload(0x40)\n      dup1\n      swap2\n      sub\n      swap1\n      return\n        /* \"contracts/twitter.sol\":1221:1315  function tweet(string memory _content) public  {... */\n    tag_15:\n      tag_75\n      0x04\n      dup1\n      calldatasize\n      sub\n      dup2\n      add\n      swap1\n      tag_76\n      swap2\n      swap1\n      tag_77\n      jump\t// in\n    tag_76:\n      tag_78\n      jump\t// in\n    tag_75:\n      stop\n        /* \"contracts/twitter.sol\":1554:1679  function message(address _from, address _to, string memory _content) public {... */\n    tag_16:\n      tag_79\n      0x04\n      dup1\n      calldatasize\n      sub\n      dup2\n      add\n      swap1\n      tag_80\n      swap2\n      swap1\n      tag_47\n      jump\t// in\n    tag_80:\n      tag_81\n      jump\t// in\n    tag_79:\n      stop\n        /* \"contracts/twitter.sol\":499:556  mapping(address=>mapping(address=>bool)) public operators */\n    tag_23:\n      mstore(0x20, 0x03)\n      dup2\n      0x00\n      mstore\n      mstore(0x20, keccak256(0x00, 0x40))\n      dup1\n      0x00\n      mstore\n      keccak256(0x00, 0x40)\n      0x00\n      swap2\n      pop\n      swap2\n      pop\n      swap1\n      sload\n      swap1\n      0x0100\n      exp\n      swap1\n      div\n      0xff\n      and\n      dup2\n      jump\t// out\n        /* \"contracts/twitter.sol\":444:492  mapping(address=>Message[]) public conversations */\n    tag_29:\n      mstore(0x20, 0x02)\n      dup2\n      0x00\n      mstore\n      keccak256(0x00, 0x40)\n      dup2\n      dup2\n      sload\n      dup2\n      lt\n      tag_82\n      jumpi\n      0x00\n      dup1\n      revert\n    tag_82:\n      swap1\n      0x00\n      mstore\n      keccak256(0x00, 0x20)\n      swap1\n      0x05\n      mul\n      add\n      0x00\n      swap2\n      pop\n      swap2\n      pop\n      pop\n      dup1\n      0x00\n      add\n      sload\n      swap1\n      dup1\n      0x01\n      add\n      0x00\n      swap1\n      sload\n      swap1\n      0x0100\n      exp\n      swap1\n      div\n      0xffffffffffffffffffffffffffffffffffffffff\n      and\n      swap1\n      dup1\n      0x02\n      add\n      0x00\n      swap1\n      sload\n      swap1\n      0x0100\n      exp\n      swap1\n      div\n      0xffffffffffffffffffffffffffffffffffffffff\n      and\n      swap1\n      dup1\n      0x03\n      add\n      dup1\n      sload\n      tag_84\n      swap1\n      tag_85\n      jump\t// in\n    tag_84:\n      dup1\n      0x1f\n      add\n      0x20\n      dup1\n      swap2\n      div\n      mul\n      0x20\n      add\n      mload(0x40)\n      swap1\n      dup2\n      add\n      0x40\n      mstore\n      dup1\n      swap3\n      swap2\n      swap1\n      dup2\n      dup2\n      mstore\n      0x20\n      add\n      dup3\n      dup1\n      sload\n      tag_86\n      swap1\n      tag_85\n      jump\t// in\n    tag_86:\n      dup1\n      iszero\n      tag_87\n      jumpi\n      dup1\n      0x1f\n      lt\n      tag_88\n      jumpi\n      0x0100\n      dup1\n      dup4\n      sload\n      div\n      mul\n      dup4\n      mstore\n      swap2\n      0x20\n      add\n      swap2\n      jump(tag_87)\n    tag_88:\n      dup3\n      add\n      swap2\n      swap1\n      0x00\n      mstore\n      keccak256(0x00, 0x20)\n      swap1\n    tag_89:\n      dup2\n      sload\n      dup2\n      mstore\n      swap1\n      0x01\n      add\n      swap1\n      0x20\n      add\n      dup1\n      dup4\n      gt\n      tag_89\n      jumpi\n      dup3\n      swap1\n      sub\n      0x1f\n      and\n      dup3\n      add\n      swap2\n    tag_87:\n      pop\n      pop\n      pop\n      pop\n      pop\n      swap1\n      dup1\n      0x04\n      add\n      sload\n      swap1\n      pop\n      dup6\n      jump\t// out\n        /* \"contracts/twitter.sol\":1685:1783  function follow(address _tofollow) public {... */\n    tag_35:\n        /* \"contracts/twitter.sol\":1738:1747  following */\n      0x04\n        /* \"contracts/twitter.sol\":1738:1759  following[msg.sender] */\n      0x00\n        /* \"contracts/twitter.sol\":1748:1758  msg.sender */\n      caller\n        /* \"contracts/twitter.sol\":1738:1759  following[msg.sender] */\n      0xffffffffffffffffffffffffffffffffffffffff\n      and\n      0xffffffffffffffffffffffffffffffffffffffff\n      and\n      dup2\n      mstore\n      0x20\n      add\n      swap1\n      dup2\n      mstore\n      0x20\n      add\n      0x00\n      keccak256\n        /* \"contracts/twitter.sol\":1765:1774  _tofollow */\n      dup2\n        /* \"contracts/twitter.sol\":1738:1775  following[msg.sender].push(_tofollow) */\n      swap1\n      dup1\n      0x01\n      dup2\n      sload\n      add\n      dup1\n      dup3\n      sstore\n      dup1\n      swap2\n      pop\n      pop\n      0x01\n      swap1\n      sub\n      swap1\n      0x00\n      mstore\n      keccak256(0x00, 0x20)\n      add\n      0x00\n      swap1\n      swap2\n      swap1\n      swap2\n      swap1\n      swap2\n      0x0100\n      exp\n      dup2\n      sload\n      dup2\n      0xffffffffffffffffffffffffffffffffffffffff\n      mul\n      not\n      and\n      swap1\n      dup4\n      0xffffffffffffffffffffffffffffffffffffffff\n      and\n      mul\n      or\n      swap1\n      sstore\n      pop\n        /* \"contracts/twitter.sol\":1685:1783  function follow(address _tofollow) public {... */\n      pop\n      jump\t// out\n        /* \"contracts/twitter.sol\":1432:1548  function message( address _to, string memory _content) public {... */\n    tag_39:\n        /* \"contracts/twitter.sol\":1505:1540  _message(msg.sender, _to, _content) */\n      tag_93\n        /* \"contracts/twitter.sol\":1514:1524  msg.sender */\n      caller\n        /* \"contracts/twitter.sol\":1526:1529  _to */\n      dup4\n        /* \"contracts/twitter.sol\":1531:1539  _content */\n      dup4\n        /* \"contracts/twitter.sol\":1505:1513  _message */\n      tag_48\n        /* \"contracts/twitter.sol\":1505:1540  _message(msg.sender, _to, _content) */\n      jump\t// in\n    tag_93:\n        /* \"contracts/twitter.sol\":1432:1548  function message( address _to, string memory _content) public {... */\n      pop\n      pop\n      jump\t// out\n        /* \"contracts/twitter.sol\":397:437  mapping(address=>uint[]) public tweetsof */\n    tag_42:\n      mstore(0x20, 0x01)\n      dup2\n      0x00\n      mstore\n      keccak256(0x00, 0x40)\n      dup2\n      dup2\n      sload\n      dup2\n      lt\n      tag_94\n      jumpi\n      0x00\n      dup1\n      revert\n    tag_94:\n      swap1\n      0x00\n      mstore\n      keccak256(0x00, 0x20)\n      add\n      0x00\n      swap2\n      pop\n      swap2\n      pop\n      pop\n      sload\n      dup2\n      jump\t// out\n        /* \"contracts/twitter.sol\":978:1215  function _message(address _from, address _to, string memory _content) public {... */\n    tag_48:\n        /* \"contracts/twitter.sol\":1066:1079  conversations */\n      0x02\n        /* \"contracts/twitter.sol\":1066:1086  conversations[_from] */\n      0x00\n        /* \"contracts/twitter.sol\":1080:1085  _from */\n      dup5\n        /* \"contracts/twitter.sol\":1066:1086  conversations[_from] */\n      0xffffffffffffffffffffffffffffffffffffffff\n      and\n      0xffffffffffffffffffffffffffffffffffffffff\n      and\n      dup2\n      mstore\n      0x20\n      add\n      swap1\n      dup2\n      mstore\n      0x20\n      add\n      0x00\n      keccak256\n        /* \"contracts/twitter.sol\":1092:1180  Message({id:nextMessageId,from:_from,to:_to,content:_content,createdAt:block.timestamp}) */\n      mload(0x40)\n      dup1\n      0xa0\n      add\n      0x40\n      mstore\n      dup1\n        /* \"contracts/twitter.sol\":1104:1117  nextMessageId */\n      sload(0x06)\n        /* \"contracts/twitter.sol\":1092:1180  Message({id:nextMessageId,from:_from,to:_to,content:_content,createdAt:block.timestamp}) */\n      dup2\n      mstore\n      0x20\n      add\n        /* \"contracts/twitter.sol\":1123:1128  _from */\n      dup6\n        /* \"contracts/twitter.sol\":1092:1180  Message({id:nextMessageId,from:_from,to:_to,content:_content,createdAt:block.timestamp}) */\n      0xffffffffffffffffffffffffffffffffffffffff\n      and\n      dup2\n      mstore\n      0x20\n      add\n        /* \"contracts/twitter.sol\":1132:1135  _to */\n      dup5\n        /* \"contracts/twitter.sol\":1092:1180  Message({id:nextMessageId,from:_from,to:_to,content:_content,createdAt:block.timestamp}) */\n      0xffffffffffffffffffffffffffffffffffffffff\n      and\n      dup2\n      mstore\n      0x20\n      add\n        /* \"contracts/twitter.sol\":1144:1152  _content */\n      dup4\n        /* \"contracts/twitter.sol\":1092:1180  Message({id:nextMessageId,from:_from,to:_to,content:_content,createdAt:block.timestamp}) */\n      dup2\n      mstore\n      0x20\n      add\n        /* \"contracts/twitter.sol\":1163:1178  block.timestamp */\n      timestamp\n        /* \"contracts/twitter.sol\":1092:1180  Message({id:nextMessageId,from:_from,to:_to,content:_content,createdAt:block.timestamp}) */\n      dup2\n      mstore\n      pop\n        /* \"contracts/twitter.sol\":1066:1181  conversations[_from].push(Message({id:nextMessageId,from:_from,to:_to,content:_content,createdAt:block.timestamp})) */\n      swap1\n      dup1\n      0x01\n      dup2\n      sload\n      add\n      dup1\n      dup3\n      sstore\n      dup1\n      swap2\n      pop\n      pop\n      0x01\n      swap1\n      sub\n      swap1\n      0x00\n      mstore\n      keccak256(0x00, 0x20)\n      swap1\n      0x05\n      mul\n      add\n      0x00\n      swap1\n      swap2\n      swap1\n      swap2\n      swap1\n      swap2\n      pop\n      0x00\n      dup3\n      add\n      mload\n      dup2\n      0x00\n      add\n      sstore\n      0x20\n      dup3\n      add\n      mload\n      dup2\n      0x01\n      add\n      exp(0x0100, 0x00)\n      dup2\n      sload\n      dup2\n      0xffffffffffffffffffffffffffffffffffffffff\n      mul\n      not\n      and\n      swap1\n      dup4\n      0xffffffffffffffffffffffffffffffffffffffff\n      and\n      mul\n      or\n      swap1\n      sstore\n      pop\n      0x40\n      dup3\n      add\n      mload\n      dup2\n      0x02\n      add\n      exp(0x0100, 0x00)\n      dup2\n      sload\n      dup2\n      0xffffffffffffffffffffffffffffffffffffffff\n      mul\n      not\n      and\n      swap1\n      dup4\n      0xffffffffffffffffffffffffffffffffffffffff\n      and\n      mul\n      or\n      swap1\n      sstore\n      pop\n      0x60\n      dup3\n      add\n      mload\n      dup2\n      0x03\n      add\n      swap1\n      dup2\n      tag_98\n      swap2\n      swap1\n      tag_99\n      jump\t// in\n    tag_98:\n      pop\n      0x80\n      dup3\n      add\n      mload\n      dup2\n      0x04\n      add\n      sstore\n      pop\n      pop\n        /* \"contracts/twitter.sol\":1192:1205  nextMessageId */\n      0x06\n      0x00\n        /* \"contracts/twitter.sol\":1192:1207  nextMessageId++ */\n      dup2\n      sload\n      dup1\n      swap3\n      swap2\n      swap1\n      tag_100\n      swap1\n      tag_101\n      jump\t// in\n    tag_100:\n      swap2\n      swap1\n      pop\n      sstore\n      pop\n        /* \"contracts/twitter.sol\":978:1215  function _message(address _from, address _to, string memory _content) public {... */\n      pop\n      pop\n      pop\n      jump\t// out\n        /* \"contracts/twitter.sol\":1991:2350  function getLatesTweets(uint count)public view returns(Tweet[] memory) {... */\n    tag_52:\n        /* \"contracts/twitter.sol\":2046:2060  Tweet[] memory */\n      0x60\n        /* \"contracts/twitter.sol\":2088:2089  0 */\n      0x00\n        /* \"contracts/twitter.sol\":2081:2086  count */\n      dup3\n        /* \"contracts/twitter.sol\":2081:2089  count >0 */\n      gt\n        /* \"contracts/twitter.sol\":2081:2107  count >0 && count < nextId */\n      dup1\n      iszero\n      tag_103\n      jumpi\n      pop\n        /* \"contracts/twitter.sol\":2101:2107  nextId */\n      sload(0x05)\n        /* \"contracts/twitter.sol\":2093:2098  count */\n      dup3\n        /* \"contracts/twitter.sol\":2093:2107  count < nextId */\n      lt\n        /* \"contracts/twitter.sol\":2081:2107  count >0 && count < nextId */\n    tag_103:\n        /* \"contracts/twitter.sol\":2073:2122  require(count >0 && count < nextId,\"Wrong input\") */\n      tag_104\n      jumpi\n      mload(0x40)\n      0x08c379a000000000000000000000000000000000000000000000000000000000\n      dup2\n      mstore\n      0x04\n      add\n      tag_105\n      swap1\n      tag_106\n      jump\t// in\n    tag_105:\n      mload(0x40)\n      dup1\n      swap2\n      sub\n      swap1\n      revert\n    tag_104:\n        /* \"contracts/twitter.sol\":2133:2155  Tweet[] memory _tweets */\n      0x00\n        /* \"contracts/twitter.sol\":2168:2173  count */\n      dup3\n        /* \"contracts/twitter.sol\":2156:2174  new Tweet[](count) */\n      0xffffffffffffffff\n      dup2\n      gt\n      iszero\n      tag_107\n      jumpi\n      tag_108\n      tag_109\n      jump\t// in\n    tag_108:\n    tag_107:\n      mload(0x40)\n      swap1\n      dup1\n      dup3\n      mstore\n      dup1\n      0x20\n      mul\n      0x20\n      add\n      dup3\n      add\n      0x40\n      mstore\n      dup1\n      iszero\n      tag_110\n      jumpi\n      dup2\n      0x20\n      add\n    tag_111:\n      tag_112\n      tag_113\n      jump\t// in\n    tag_112:\n      dup2\n      mstore\n      0x20\n      add\n      swap1\n      0x01\n      swap1\n      sub\n      swap1\n      dup2\n      tag_111\n      jumpi\n      swap1\n      pop\n    tag_110:\n      pop\n        /* \"contracts/twitter.sol\":2133:2174  Tweet[] memory _tweets=new Tweet[](count) */\n      swap1\n      pop\n        /* \"contracts/twitter.sol\":2185:2191  uint j */\n      0x00\n        /* \"contracts/twitter.sol\":2206:2212  uint i */\n      dup1\n        /* \"contracts/twitter.sol\":2221:2226  count */\n      dup5\n        /* \"contracts/twitter.sol\":2214:2220  nextId */\n      sload(0x05)\n        /* \"contracts/twitter.sol\":2214:2226  nextId-count */\n      tag_117\n      swap2\n      swap1\n      tag_118\n      jump\t// in\n    tag_117:\n        /* \"contracts/twitter.sol\":2206:2226  uint i =nextId-count */\n      swap1\n      pop\n        /* \"contracts/twitter.sol\":2202:2318  for(uint i =nextId-count;i<nextId;i++)... */\n    tag_114:\n        /* \"contracts/twitter.sol\":2229:2235  nextId */\n      sload(0x05)\n        /* \"contracts/twitter.sol\":2227:2228  i */\n      dup2\n        /* \"contracts/twitter.sol\":2227:2235  i<nextId */\n      lt\n        /* \"contracts/twitter.sol\":2202:2318  for(uint i =nextId-count;i<nextId;i++)... */\n      iszero\n      tag_115\n      jumpi\n        /* \"contracts/twitter.sol\":2277:2283  tweets */\n      0x00\n        /* \"contracts/twitter.sol\":2277:2286  tweets[i] */\n      dup1\n        /* \"contracts/twitter.sol\":2284:2285  i */\n      dup3\n        /* \"contracts/twitter.sol\":2277:2286  tweets[i] */\n      dup2\n      mstore\n      0x20\n      add\n      swap1\n      dup2\n      mstore\n      0x20\n      add\n      0x00\n      keccak256\n        /* \"contracts/twitter.sol\":2265:2286  _tweets[j]= tweets[i] */\n      mload(0x40)\n      dup1\n      0x80\n      add\n      0x40\n      mstore\n      swap1\n      dup2\n      0x00\n      dup3\n      add\n      sload\n      dup2\n      mstore\n      0x20\n      add\n      0x01\n      dup3\n      add\n      0x00\n      swap1\n      sload\n      swap1\n      0x0100\n      exp\n      swap1\n      div\n      0xffffffffffffffffffffffffffffffffffffffff\n      and\n      0xffffffffffffffffffffffffffffffffffffffff\n      and\n      0xffffffffffffffffffffffffffffffffffffffff\n      and\n      dup2\n      mstore\n      0x20\n      add\n      0x02\n      dup3\n      add\n      dup1\n      sload\n      tag_119\n      swap1\n      tag_85\n      jump\t// in\n    tag_119:\n      dup1\n      0x1f\n      add\n      0x20\n      dup1\n      swap2\n      div\n      mul\n      0x20\n      add\n      mload(0x40)\n      swap1\n      dup2\n      add\n      0x40\n      mstore\n      dup1\n      swap3\n      swap2\n      swap1\n      dup2\n      dup2\n      mstore\n      0x20\n      add\n      dup3\n      dup1\n      sload\n      tag_120\n      swap1\n      tag_85\n      jump\t// in\n    tag_120:\n      dup1\n      iszero\n      tag_121\n      jumpi\n      dup1\n      0x1f\n      lt\n      tag_122\n      jumpi\n      0x0100\n      dup1\n      dup4\n      sload\n      div\n      mul\n      dup4\n      mstore\n      swap2\n      0x20\n      add\n      swap2\n      jump(tag_121)\n    tag_122:\n      dup3\n      add\n      swap2\n      swap1\n      0x00\n      mstore\n      keccak256(0x00, 0x20)\n      swap1\n    tag_123:\n      dup2\n      sload\n      dup2\n      mstore\n      swap1\n      0x01\n      add\n      swap1\n      0x20\n      add\n      dup1\n      dup4\n      gt\n      tag_123\n      jumpi\n      dup3\n      swap1\n      sub\n      0x1f\n      and\n      dup3\n      add\n      swap2\n    tag_121:\n      pop\n      pop\n      pop\n      pop\n      pop\n      dup2\n      mstore\n      0x20\n      add\n      0x03\n      dup3\n      add\n      sload\n      dup2\n      mstore\n      pop\n      pop\n        /* \"contracts/twitter.sol\":2265:2272  _tweets */\n      dup4\n        /* \"contracts/twitter.sol\":2273:2274  j */\n      dup4\n        /* \"contracts/twitter.sol\":2265:2275  _tweets[j] */\n      dup2\n      mload\n      dup2\n      lt\n      tag_124\n      jumpi\n      tag_125\n      tag_126\n      jump\t// in\n    tag_125:\n    tag_124:\n      0x20\n      mul\n      0x20\n      add\n      add\n        /* \"contracts/twitter.sol\":2265:2286  _tweets[j]= tweets[i] */\n      dup2\n      swap1\n      mstore\n      pop\n        /* \"contracts/twitter.sol\":2301:2305  j ++ */\n      dup2\n      dup1\n      tag_127\n      swap1\n      tag_101\n      jump\t// in\n    tag_127:\n      swap3\n      pop\n      pop\n        /* \"contracts/twitter.sol\":2236:2239  i++ */\n      dup1\n      dup1\n      0x01\n      add\n      swap2\n      pop\n      pop\n        /* \"contracts/twitter.sol\":2202:2318  for(uint i =nextId-count;i<nextId;i++)... */\n      jump(tag_114)\n    tag_115:\n      pop\n        /* \"contracts/twitter.sol\":2335:2342  _tweets */\n      dup2\n        /* \"contracts/twitter.sol\":2328:2342  return _tweets */\n      swap3\n      pop\n      pop\n      pop\n        /* \"contracts/twitter.sol\":1991:2350  function getLatesTweets(uint count)public view returns(Tweet[] memory) {... */\n      swap2\n      swap1\n      pop\n      jump\t// out\n        /* \"contracts/twitter.sol\":1889:1985  function removeaccess(address _user) public{... */\n    tag_57:\n        /* \"contracts/twitter.sol\":1972:1977  false */\n      0x00\n        /* \"contracts/twitter.sol\":1943:1952  operators */\n      0x03\n        /* \"contracts/twitter.sol\":1943:1964  operators[msg.sender] */\n      0x00\n        /* \"contracts/twitter.sol\":1953:1963  msg.sender */\n      caller\n        /* \"contracts/twitter.sol\":1943:1964  operators[msg.sender] */\n      0xffffffffffffffffffffffffffffffffffffffff\n      and\n      0xffffffffffffffffffffffffffffffffffffffff\n      and\n      dup2\n      mstore\n      0x20\n      add\n      swap1\n      dup2\n      mstore\n      0x20\n      add\n      0x00\n      keccak256\n        /* \"contracts/twitter.sol\":1943:1971  operators[msg.sender][_user] */\n      0x00\n        /* \"contracts/twitter.sol\":1965:1970  _user */\n      dup4\n        /* \"contracts/twitter.sol\":1943:1971  operators[msg.sender][_user] */\n      0xffffffffffffffffffffffffffffffffffffffff\n      and\n      0xffffffffffffffffffffffffffffffffffffffff\n      and\n      dup2\n      mstore\n      0x20\n      add\n      swap1\n      dup2\n      mstore\n      0x20\n      add\n      0x00\n      keccak256\n      0x00\n        /* \"contracts/twitter.sol\":1943:1977  operators[msg.sender][_user]=false */\n      0x0100\n      exp\n      dup2\n      sload\n      dup2\n      0xff\n      mul\n      not\n      and\n      swap1\n      dup4\n      iszero\n      iszero\n      mul\n      or\n      swap1\n      sstore\n      pop\n        /* \"contracts/twitter.sol\":1889:1985  function removeaccess(address _user) public{... */\n      pop\n      jump\t// out\n        /* \"contracts/twitter.sol\":563:607  mapping(address=>address[]) public following */\n    tag_60:\n      mstore(0x20, 0x04)\n      dup2\n      0x00\n      mstore\n      keccak256(0x00, 0x40)\n      dup2\n      dup2\n      sload\n      dup2\n      lt\n      tag_129\n      jumpi\n      0x00\n      dup1\n      revert\n    tag_129:\n      swap1\n      0x00\n      mstore\n      keccak256(0x00, 0x20)\n      add\n      0x00\n      swap2\n      pop\n      swap2\n      pop\n      swap1\n      sload\n      swap1\n      0x0100\n      exp\n      swap1\n      div\n      0xffffffffffffffffffffffffffffffffffffffff\n      and\n      dup2\n      jump\t// out\n        /* \"contracts/twitter.sol\":1789:1883  function allowaccess(address _user) public{... */\n    tag_65:\n        /* \"contracts/twitter.sol\":1871:1875  true */\n      0x01\n        /* \"contracts/twitter.sol\":1842:1851  operators */\n      0x03\n        /* \"contracts/twitter.sol\":1842:1863  operators[msg.sender] */\n      0x00\n        /* \"contracts/twitter.sol\":1852:1862  msg.sender */\n      caller\n        /* \"contracts/twitter.sol\":1842:1863  operators[msg.sender] */\n      0xffffffffffffffffffffffffffffffffffffffff\n      and\n      0xffffffffffffffffffffffffffffffffffffffff\n      and\n      dup2\n      mstore\n      0x20\n      add\n      swap1\n      dup2\n      mstore\n      0x20\n      add\n      0x00\n      keccak256\n        /* \"contracts/twitter.sol\":1842:1870  operators[msg.sender][_user] */\n      0x00\n        /* \"contracts/twitter.sol\":1864:1869  _user */\n      dup4\n        /* \"contracts/twitter.sol\":1842:1870  operators[msg.sender][_user] */\n      0xffffffffffffffffffffffffffffffffffffffff\n      and\n      0xffffffffffffffffffffffffffffffffffffffff\n      and\n      dup2\n      mstore\n      0x20\n      add\n      swap1\n      dup2\n      mstore\n      0x20\n      add\n      0x00\n      keccak256\n      0x00\n        /* \"contracts/twitter.sol\":1842:1875  operators[msg.sender][_user]=true */\n      0x0100\n      exp\n      dup2\n      sload\n      dup2\n      0xff\n      mul\n      not\n      and\n      swap1\n      dup4\n      iszero\n      iszero\n      mul\n      or\n      swap1\n      sstore\n      pop\n        /* \"contracts/twitter.sol\":1789:1883  function allowaccess(address _user) public{... */\n      pop\n      jump\t// out\n        /* \"contracts/twitter.sol\":2356:2782  function getLatestTweetsOfUser(address _user, uint count) public view returns (Tweet[] memory) {... */\n    tag_68:\n        /* \"contracts/twitter.sol\":2435:2449  Tweet[] memory */\n      0x60\n        /* \"contracts/twitter.sol\":2458:2479  uint[] memory indexes */\n      0x00\n        /* \"contracts/twitter.sol\":2482:2490  tweetsof */\n      0x01\n        /* \"contracts/twitter.sol\":2482:2497  tweetsof[_user] */\n      0x00\n        /* \"contracts/twitter.sol\":2491:2496  _user */\n      dup6\n        /* \"contracts/twitter.sol\":2482:2497  tweetsof[_user] */\n      0xffffffffffffffffffffffffffffffffffffffff\n      and\n      0xffffffffffffffffffffffffffffffffffffffff\n      and\n      dup2\n      mstore\n      0x20\n      add\n      swap1\n      dup2\n      mstore\n      0x20\n      add\n      0x00\n      keccak256\n        /* \"contracts/twitter.sol\":2458:2497  uint[] memory indexes = tweetsof[_user] */\n      dup1\n      sload\n      dup1\n      0x20\n      mul\n      0x20\n      add\n      mload(0x40)\n      swap1\n      dup2\n      add\n      0x40\n      mstore\n      dup1\n      swap3\n      swap2\n      swap1\n      dup2\n      dup2\n      mstore\n      0x20\n      add\n      dup3\n      dup1\n      sload\n      dup1\n      iszero\n      tag_133\n      jumpi\n      0x20\n      mul\n      dup3\n      add\n      swap2\n      swap1\n      0x00\n      mstore\n      keccak256(0x00, 0x20)\n      swap1\n    tag_134:\n      dup2\n      sload\n      dup2\n      mstore\n      0x20\n      add\n      swap1\n      0x01\n      add\n      swap1\n      dup1\n      dup4\n      gt\n      tag_134\n      jumpi\n    tag_133:\n      pop\n      pop\n      pop\n      pop\n      pop\n      swap1\n      pop\n        /* \"contracts/twitter.sol\":2520:2521  0 */\n      0x00\n        /* \"contracts/twitter.sol\":2512:2517  count */\n      dup4\n        /* \"contracts/twitter.sol\":2512:2521  count > 0 */\n      gt\n        /* \"contracts/twitter.sol\":2512:2548  count > 0 && count <= indexes.length */\n      dup1\n      iszero\n      tag_135\n      jumpi\n      pop\n        /* \"contracts/twitter.sol\":2534:2541  indexes */\n      dup1\n        /* \"contracts/twitter.sol\":2534:2548  indexes.length */\n      mload\n        /* \"contracts/twitter.sol\":2525:2530  count */\n      dup4\n        /* \"contracts/twitter.sol\":2525:2548  count <= indexes.length */\n      gt\n      iszero\n        /* \"contracts/twitter.sol\":2512:2548  count > 0 && count <= indexes.length */\n    tag_135:\n        /* \"contracts/twitter.sol\":2504:2566  require(count > 0 && count <= indexes.length, \"Invalid count\") */\n      tag_136\n      jumpi\n      mload(0x40)\n      0x08c379a000000000000000000000000000000000000000000000000000000000\n      dup2\n      mstore\n      0x04\n      add\n      tag_137\n      swap1\n      tag_138\n      jump\t// in\n    tag_137:\n      mload(0x40)\n      dup1\n      swap2\n      sub\n      swap1\n      revert\n    tag_136:\n        /* \"contracts/twitter.sol\":2575:2597  Tweet[] memory _tweets */\n      0x00\n        /* \"contracts/twitter.sol\":2612:2617  count */\n      dup4\n        /* \"contracts/twitter.sol\":2600:2618  new Tweet[](count) */\n      0xffffffffffffffff\n      dup2\n      gt\n      iszero\n      tag_139\n      jumpi\n      tag_140\n      tag_109\n      jump\t// in\n    tag_140:\n    tag_139:\n      mload(0x40)\n      swap1\n      dup1\n      dup3\n      mstore\n      dup1\n      0x20\n      mul\n      0x20\n      add\n      dup3\n      add\n      0x40\n      mstore\n      dup1\n      iszero\n      tag_141\n      jumpi\n      dup2\n      0x20\n      add\n    tag_142:\n      tag_143\n      tag_113\n      jump\t// in\n    tag_143:\n      dup2\n      mstore\n      0x20\n      add\n      swap1\n      0x01\n      swap1\n      sub\n      swap1\n      dup2\n      tag_142\n      jumpi\n      swap1\n      pop\n    tag_141:\n      pop\n        /* \"contracts/twitter.sol\":2575:2618  Tweet[] memory _tweets = new Tweet[](count) */\n      swap1\n      pop\n        /* \"contracts/twitter.sol\":2625:2635  uint start */\n      0x00\n        /* \"contracts/twitter.sol\":2655:2660  count */\n      dup5\n        /* \"contracts/twitter.sol\":2638:2645  indexes */\n      dup4\n        /* \"contracts/twitter.sol\":2638:2652  indexes.length */\n      mload\n        /* \"contracts/twitter.sol\":2638:2660  indexes.length - count */\n      tag_144\n      swap2\n      swap1\n      tag_118\n      jump\t// in\n    tag_144:\n        /* \"contracts/twitter.sol\":2625:2660  uint start = indexes.length - count */\n      swap1\n      pop\n        /* \"contracts/twitter.sol\":2672:2678  uint i */\n      0x00\n        /* \"contracts/twitter.sol\":2667:2758  for (uint i = 0; i < count; i++) {... */\n    tag_145:\n        /* \"contracts/twitter.sol\":2688:2693  count */\n      dup6\n        /* \"contracts/twitter.sol\":2684:2685  i */\n      dup2\n        /* \"contracts/twitter.sol\":2684:2693  i < count */\n      lt\n        /* \"contracts/twitter.sol\":2667:2758  for (uint i = 0; i < count; i++) {... */\n      iszero\n      tag_146\n      jumpi\n        /* \"contracts/twitter.sol\":2724:2730  tweets */\n      0x00\n        /* \"contracts/twitter.sol\":2724:2750  tweets[indexes[start + i]] */\n      dup1\n        /* \"contracts/twitter.sol\":2731:2738  indexes */\n      dup6\n        /* \"contracts/twitter.sol\":2747:2748  i */\n      dup4\n        /* \"contracts/twitter.sol\":2739:2744  start */\n      dup6\n        /* \"contracts/twitter.sol\":2739:2748  start + i */\n      tag_148\n      swap2\n      swap1\n      tag_149\n      jump\t// in\n    tag_148:\n        /* \"contracts/twitter.sol\":2731:2749  indexes[start + i] */\n      dup2\n      mload\n      dup2\n      lt\n      tag_150\n      jumpi\n      tag_151\n      tag_126\n      jump\t// in\n    tag_151:\n    tag_150:\n      0x20\n      mul\n      0x20\n      add\n      add\n      mload\n        /* \"contracts/twitter.sol\":2724:2750  tweets[indexes[start + i]] */\n      dup2\n      mstore\n      0x20\n      add\n      swap1\n      dup2\n      mstore\n      0x20\n      add\n      0x00\n      keccak256\n        /* \"contracts/twitter.sol\":2711:2750  _tweets[i] = tweets[indexes[start + i]] */\n      mload(0x40)\n      dup1\n      0x80\n      add\n      0x40\n      mstore\n      swap1\n      dup2\n      0x00\n      dup3\n      add\n      sload\n      dup2\n      mstore\n      0x20\n      add\n      0x01\n      dup3\n      add\n      0x00\n      swap1\n      sload\n      swap1\n      0x0100\n      exp\n      swap1\n      div\n      0xffffffffffffffffffffffffffffffffffffffff\n      and\n      0xffffffffffffffffffffffffffffffffffffffff\n      and\n      0xffffffffffffffffffffffffffffffffffffffff\n      and\n      dup2\n      mstore\n      0x20\n      add\n      0x02\n      dup3\n      add\n      dup1\n      sload\n      tag_152\n      swap1\n      tag_85\n      jump\t// in\n    tag_152:\n      dup1\n      0x1f\n      add\n      0x20\n      dup1\n      swap2\n      div\n      mul\n      0x20\n      add\n      mload(0x40)\n      swap1\n      dup2\n      add\n      0x40\n      mstore\n      dup1\n      swap3\n      swap2\n      swap1\n      dup2\n      dup2\n      mstore\n      0x20\n      add\n      dup3\n      dup1\n      sload\n      tag_153\n      swap1\n      tag_85\n      jump\t// in\n    tag_153:\n      dup1\n      iszero\n      tag_154\n      jumpi\n      dup1\n      0x1f\n      lt\n      tag_155\n      jumpi\n      0x0100\n      dup1\n      dup4\n      sload\n      div\n      mul\n      dup4\n      mstore\n      swap2\n      0x20\n      add\n      swap2\n      jump(tag_154)\n    tag_155:\n      dup3\n      add\n      swap2\n      swap1\n      0x00\n      mstore\n      keccak256(0x00, 0x20)\n      swap1\n    tag_156:\n      dup2\n      sload\n      dup2\n      mstore\n      swap1\n      0x01\n      add\n      swap1\n      0x20\n      add\n      dup1\n      dup4\n      gt\n      tag_156\n      jumpi\n      dup3\n      swap1\n      sub\n      0x1f\n      and\n      dup3\n      add\n      swap2\n    tag_154:\n      pop\n      pop\n      pop\n      pop\n      pop\n      dup2\n      mstore\n      0x20\n      add\n      0x03\n      dup3\n      add\n      sload\n      dup2\n      mstore\n      pop\n      pop\n        /* \"contracts/twitter.sol\":2711:2718  _tweets */\n      dup4\n        /* \"contracts/twitter.sol\":2719:2720  i */\n      dup3\n        /* \"contracts/twitter.sol\":2711:2721  _tweets[i] */\n      dup2\n      mload\n      dup2\n      lt\n      tag_157\n      jumpi\n      tag_158\n      tag_126\n      jump\t// in\n    tag_158:\n    tag_157:\n      0x20\n      mul\n      0x20\n      add\n      add\n        /* \"contracts/twitter.sol\":2711:2750  _tweets[i] = tweets[indexes[start + i]] */\n      dup2\n      swap1\n      mstore\n      pop\n        /* \"contracts/twitter.sol\":2695:2698  i++ */\n      dup1\n      dup1\n      0x01\n      add\n      swap2\n      pop\n      pop\n        /* \"contracts/twitter.sol\":2667:2758  for (uint i = 0; i < count; i++) {... */\n      jump(tag_145)\n    tag_146:\n      pop\n        /* \"contracts/twitter.sol\":2771:2778  _tweets */\n      dup2\n        /* \"contracts/twitter.sol\":2764:2778  return _tweets */\n      swap4\n      pop\n      pop\n      pop\n      pop\n        /* \"contracts/twitter.sol\":2356:2782  function getLatestTweetsOfUser(address _user, uint count) public view returns (Tweet[] memory) {... */\n      swap3\n      swap2\n      pop\n      pop\n      jump\t// out\n        /* \"contracts/twitter.sol\":356:390  mapping(uint=>Tweet) public tweets */\n    tag_72:\n      mstore(0x20, 0x00)\n      dup1\n      0x00\n      mstore\n      keccak256(0x00, 0x40)\n      0x00\n      swap2\n      pop\n      swap1\n      pop\n      dup1\n      0x00\n      add\n      sload\n      swap1\n      dup1\n      0x01\n      add\n      0x00\n      swap1\n      sload\n      swap1\n      0x0100\n      exp\n      swap1\n      div\n      0xffffffffffffffffffffffffffffffffffffffff\n      and\n      swap1\n      dup1\n      0x02\n      add\n      dup1\n      sload\n      tag_159\n      swap1\n      tag_85\n      jump\t// in\n    tag_159:\n      dup1\n      0x1f\n      add\n      0x20\n      dup1\n      swap2\n      div\n      mul\n      0x20\n      add\n      mload(0x40)\n      swap1\n      dup2\n      add\n      0x40\n      mstore\n      dup1\n      swap3\n      swap2\n      swap1\n      dup2\n      dup2\n      mstore\n      0x20\n      add\n      dup3\n      dup1\n      sload\n      tag_160\n      swap1\n      tag_85\n      jump\t// in\n    tag_160:\n      dup1\n      iszero\n      tag_161\n      jumpi\n      dup1\n      0x1f\n      lt\n      tag_162\n      jumpi\n      0x0100\n      dup1\n      dup4\n      sload\n      div\n      mul\n      dup4\n      mstore\n      swap2\n      0x20\n      add\n      swap2\n      jump(tag_161)\n    tag_162:\n      dup3\n      add\n      swap2\n      swap1\n      0x00\n      mstore\n      keccak256(0x00, 0x20)\n      swap1\n    tag_163:\n      dup2\n      sload\n      dup2\n      mstore\n      swap1\n      0x01\n      add\n      swap1\n      0x20\n      add\n      dup1\n      dup4\n      gt\n      tag_163\n      jumpi\n      dup3\n      swap1\n      sub\n      0x1f\n      and\n      dup3\n      add\n      swap2\n    tag_161:\n      pop\n      pop\n      pop\n      pop\n      pop\n      swap1\n      dup1\n      0x03\n      add\n      sload\n      swap1\n      pop\n      dup5\n      jump\t// out\n        /* \"contracts/twitter.sol\":1221:1315  function tweet(string memory _content) public  {... */\n    tag_78:\n        /* \"contracts/twitter.sol\":1279:1307  _tweet(msg.sender, _content) */\n      tag_165\n        /* \"contracts/twitter.sol\":1286:1296  msg.sender */\n      caller\n        /* \"contracts/twitter.sol\":1298:1306  _content */\n      dup3\n        /* \"contracts/twitter.sol\":1279:1285  _tweet */\n      tag_166\n        /* \"contracts/twitter.sol\":1279:1307  _tweet(msg.sender, _content) */\n      jump\t// in\n    tag_165:\n        /* \"contracts/twitter.sol\":1221:1315  function tweet(string memory _content) public  {... */\n      pop\n      jump\t// out\n        /* \"contracts/twitter.sol\":1554:1679  function message(address _from, address _to, string memory _content) public {... */\n    tag_81:\n        /* \"contracts/twitter.sol\":1641:1671  _message(_from, _to, _content) */\n      tag_168\n        /* \"contracts/twitter.sol\":1650:1655  _from */\n      dup4\n        /* \"contracts/twitter.sol\":1657:1660  _to */\n      dup4\n        /* \"contracts/twitter.sol\":1662:1670  _content */\n      dup4\n        /* \"contracts/twitter.sol\":1641:1649  _message */\n      tag_48\n        /* \"contracts/twitter.sol\":1641:1671  _message(_from, _to, _content) */\n      jump\t// in\n    tag_168:\n        /* \"contracts/twitter.sol\":1554:1679  function message(address _from, address _to, string memory _content) public {... */\n      pop\n      pop\n      pop\n      jump\t// out\n        /* \"contracts/twitter.sol\":657:972  function _tweet(address _from, string memory _content) internal {... */\n    tag_166:\n        /* \"contracts/twitter.sol\":752:757  _from */\n      dup2\n        /* \"contracts/twitter.sol\":740:757  msg.sender==_from */\n      0xffffffffffffffffffffffffffffffffffffffff\n      and\n        /* \"contracts/twitter.sol\":740:750  msg.sender */\n      caller\n        /* \"contracts/twitter.sol\":740:757  msg.sender==_from */\n      0xffffffffffffffffffffffffffffffffffffffff\n      and\n      eq\n        /* \"contracts/twitter.sol\":740:789  msg.sender==_from || operators[msg.sender][_from] */\n      dup1\n      tag_170\n      jumpi\n      pop\n        /* \"contracts/twitter.sol\":761:770  operators */\n      0x03\n        /* \"contracts/twitter.sol\":761:782  operators[msg.sender] */\n      0x00\n        /* \"contracts/twitter.sol\":771:781  msg.sender */\n      caller\n        /* \"contracts/twitter.sol\":761:782  operators[msg.sender] */\n      0xffffffffffffffffffffffffffffffffffffffff\n      and\n      0xffffffffffffffffffffffffffffffffffffffff\n      and\n      dup2\n      mstore\n      0x20\n      add\n      swap1\n      dup2\n      mstore\n      0x20\n      add\n      0x00\n      keccak256\n        /* \"contracts/twitter.sol\":761:789  operators[msg.sender][_from] */\n      0x00\n        /* \"contracts/twitter.sol\":783:788  _from */\n      dup4\n        /* \"contracts/twitter.sol\":761:789  operators[msg.sender][_from] */\n      0xffffffffffffffffffffffffffffffffffffffff\n      and\n      0xffffffffffffffffffffffffffffffffffffffff\n      and\n      dup2\n      mstore\n      0x20\n      add\n      swap1\n      dup2\n      mstore\n      0x20\n      add\n      0x00\n      keccak256\n      0x00\n      swap1\n      sload\n      swap1\n      0x0100\n      exp\n      swap1\n      div\n      0xff\n      and\n        /* \"contracts/twitter.sol\":740:789  msg.sender==_from || operators[msg.sender][_from] */\n    tag_170:\n        /* \"contracts/twitter.sol\":732:806  require(msg.sender==_from || operators[msg.sender][_from], \"Unauthorized\") */\n      tag_171\n      jumpi\n      mload(0x40)\n      0x08c379a000000000000000000000000000000000000000000000000000000000\n      dup2\n      mstore\n      0x04\n      add\n      tag_172\n      swap1\n      tag_173\n      jump\t// in\n    tag_172:\n      mload(0x40)\n      dup1\n      swap2\n      sub\n      swap1\n      revert\n    tag_171:\n        /* \"contracts/twitter.sol\":832:906  Tweet({id:nextId,author:_from,content:_content,createdAt:block.timestamp}) */\n      mload(0x40)\n      dup1\n      0x80\n      add\n      0x40\n      mstore\n      dup1\n        /* \"contracts/twitter.sol\":842:848  nextId */\n      sload(0x05)\n        /* \"contracts/twitter.sol\":832:906  Tweet({id:nextId,author:_from,content:_content,createdAt:block.timestamp}) */\n      dup2\n      mstore\n      0x20\n      add\n        /* \"contracts/twitter.sol\":856:861  _from */\n      dup4\n        /* \"contracts/twitter.sol\":832:906  Tweet({id:nextId,author:_from,content:_content,createdAt:block.timestamp}) */\n      0xffffffffffffffffffffffffffffffffffffffff\n      and\n      dup2\n      mstore\n      0x20\n      add\n        /* \"contracts/twitter.sol\":870:878  _content */\n      dup3\n        /* \"contracts/twitter.sol\":832:906  Tweet({id:nextId,author:_from,content:_content,createdAt:block.timestamp}) */\n      dup2\n      mstore\n      0x20\n      add\n        /* \"contracts/twitter.sol\":889:904  block.timestamp */\n      timestamp\n        /* \"contracts/twitter.sol\":832:906  Tweet({id:nextId,author:_from,content:_content,createdAt:block.timestamp}) */\n      dup2\n      mstore\n      pop\n        /* \"contracts/twitter.sol\":817:823  tweets */\n      0x00\n        /* \"contracts/twitter.sol\":817:831  tweets[nextId] */\n      dup1\n        /* \"contracts/twitter.sol\":824:830  nextId */\n      sload(0x05)\n        /* \"contracts/twitter.sol\":817:831  tweets[nextId] */\n      dup2\n      mstore\n      0x20\n      add\n      swap1\n      dup2\n      mstore\n      0x20\n      add\n      0x00\n      keccak256\n        /* \"contracts/twitter.sol\":817:906  tweets[nextId]=Tweet({id:nextId,author:_from,content:_content,createdAt:block.timestamp}) */\n      0x00\n      dup3\n      add\n      mload\n      dup2\n      0x00\n      add\n      sstore\n      0x20\n      dup3\n      add\n      mload\n      dup2\n      0x01\n      add\n      exp(0x0100, 0x00)\n      dup2\n      sload\n      dup2\n      0xffffffffffffffffffffffffffffffffffffffff\n      mul\n      not\n      and\n      swap1\n      dup4\n      0xffffffffffffffffffffffffffffffffffffffff\n      and\n      mul\n      or\n      swap1\n      sstore\n      pop\n      0x40\n      dup3\n      add\n      mload\n      dup2\n      0x02\n      add\n      swap1\n      dup2\n      tag_174\n      swap2\n      swap1\n      tag_99\n      jump\t// in\n    tag_174:\n      pop\n      0x60\n      dup3\n      add\n      mload\n      dup2\n      0x03\n      add\n      sstore\n      swap1\n      pop\n      pop\n        /* \"contracts/twitter.sol\":917:925  tweetsof */\n      0x01\n        /* \"contracts/twitter.sol\":917:932  tweetsof[_from] */\n      0x00\n        /* \"contracts/twitter.sol\":926:931  _from */\n      dup4\n        /* \"contracts/twitter.sol\":917:932  tweetsof[_from] */\n      0xffffffffffffffffffffffffffffffffffffffff\n      and\n      0xffffffffffffffffffffffffffffffffffffffff\n      and\n      dup2\n      mstore\n      0x20\n      add\n      swap1\n      dup2\n      mstore\n      0x20\n      add\n      0x00\n      keccak256\n        /* \"contracts/twitter.sol\":938:944  nextId */\n      sload(0x05)\n        /* \"contracts/twitter.sol\":917:945  tweetsof[_from].push(nextId) */\n      swap1\n      dup1\n      0x01\n      dup2\n      sload\n      add\n      dup1\n      dup3\n      sstore\n      dup1\n      swap2\n      pop\n      pop\n      0x01\n      swap1\n      sub\n      swap1\n      0x00\n      mstore\n      keccak256(0x00, 0x20)\n      add\n      0x00\n      swap1\n      swap2\n      swap1\n      swap2\n      swap1\n      swap2\n      pop\n      sstore\n        /* \"contracts/twitter.sol\":956:962  nextId */\n      0x05\n      0x00\n        /* \"contracts/twitter.sol\":956:964  nextId++ */\n      dup2\n      sload\n      dup1\n      swap3\n      swap2\n      swap1\n      tag_176\n      swap1\n      tag_101\n      jump\t// in\n    tag_176:\n      swap2\n      swap1\n      pop\n      sstore\n      pop\n        /* \"contracts/twitter.sol\":657:972  function _tweet(address _from, string memory _content) internal {... */\n      pop\n      pop\n      jump\t// out\n    tag_113:\n      mload(0x40)\n      dup1\n      0x80\n      add\n      0x40\n      mstore\n      dup1\n      0x00\n      dup2\n      mstore\n      0x20\n      add\n      and(0xffffffffffffffffffffffffffffffffffffffff, 0x00)\n      dup2\n      mstore\n      0x20\n      add\n      0x60\n      dup2\n      mstore\n      0x20\n      add\n      0x00\n      dup2\n      mstore\n      pop\n      swap1\n      jump\t// out\n        /* \"#utility.yul\":7:82   */\n    tag_177:\n        /* \"#utility.yul\":40:46   */\n      0x00\n        /* \"#utility.yul\":73:75   */\n      0x40\n        /* \"#utility.yul\":67:76   */\n      mload\n        /* \"#utility.yul\":57:76   */\n      swap1\n      pop\n        /* \"#utility.yul\":7:82   */\n      swap1\n      jump\t// out\n        /* \"#utility.yul\":88:205   */\n    tag_178:\n        /* \"#utility.yul\":197:198   */\n      0x00\n        /* \"#utility.yul\":194:195   */\n      dup1\n        /* \"#utility.yul\":187:199   */\n      revert\n        /* \"#utility.yul\":211:328   */\n    tag_179:\n        /* \"#utility.yul\":320:321   */\n      0x00\n        /* \"#utility.yul\":317:318   */\n      dup1\n        /* \"#utility.yul\":310:322   */\n      revert\n        /* \"#utility.yul\":334:460   */\n    tag_180:\n        /* \"#utility.yul\":371:378   */\n      0x00\n        /* \"#utility.yul\":411:453   */\n      0xffffffffffffffffffffffffffffffffffffffff\n        /* \"#utility.yul\":404:409   */\n      dup3\n        /* \"#utility.yul\":400:454   */\n      and\n        /* \"#utility.yul\":389:454   */\n      swap1\n      pop\n        /* \"#utility.yul\":334:460   */\n      swap2\n      swap1\n      pop\n      jump\t// out\n        /* \"#utility.yul\":466:562   */\n    tag_181:\n        /* \"#utility.yul\":503:510   */\n      0x00\n        /* \"#utility.yul\":532:556   */\n      tag_244\n        /* \"#utility.yul\":550:555   */\n      dup3\n        /* \"#utility.yul\":532:556   */\n      tag_180\n      jump\t// in\n    tag_244:\n        /* \"#utility.yul\":521:556   */\n      swap1\n      pop\n        /* \"#utility.yul\":466:562   */\n      swap2\n      swap1\n      pop\n      jump\t// out\n        /* \"#utility.yul\":568:690   */\n    tag_182:\n        /* \"#utility.yul\":641:665   */\n      tag_246\n        /* \"#utility.yul\":659:664   */\n      dup2\n        /* \"#utility.yul\":641:665   */\n      tag_181\n      jump\t// in\n    tag_246:\n        /* \"#utility.yul\":634:639   */\n      dup2\n        /* \"#utility.yul\":631:666   */\n      eq\n        /* \"#utility.yul\":621:684   */\n      tag_247\n      jumpi\n        /* \"#utility.yul\":680:681   */\n      0x00\n        /* \"#utility.yul\":677:678   */\n      dup1\n        /* \"#utility.yul\":670:682   */\n      revert\n        /* \"#utility.yul\":621:684   */\n    tag_247:\n        /* \"#utility.yul\":568:690   */\n      pop\n      jump\t// out\n        /* \"#utility.yul\":696:835   */\n    tag_183:\n        /* \"#utility.yul\":742:747   */\n      0x00\n        /* \"#utility.yul\":780:786   */\n      dup2\n        /* \"#utility.yul\":767:787   */\n      calldataload\n        /* \"#utility.yul\":758:787   */\n      swap1\n      pop\n        /* \"#utility.yul\":796:829   */\n      tag_249\n        /* \"#utility.yul\":823:828   */\n      dup2\n        /* \"#utility.yul\":796:829   */\n      tag_182\n      jump\t// in\n    tag_249:\n        /* \"#utility.yul\":696:835   */\n      swap3\n      swap2\n      pop\n      pop\n      jump\t// out\n        /* \"#utility.yul\":841:1315   */\n    tag_22:\n        /* \"#utility.yul\":909:915   */\n      0x00\n        /* \"#utility.yul\":917:923   */\n      dup1\n        /* \"#utility.yul\":966:968   */\n      0x40\n        /* \"#utility.yul\":954:963   */\n      dup4\n        /* \"#utility.yul\":945:952   */\n      dup6\n        /* \"#utility.yul\":941:964   */\n      sub\n        /* \"#utility.yul\":937:969   */\n      slt\n        /* \"#utility.yul\":934:1053   */\n      iszero\n      tag_251\n      jumpi\n        /* \"#utility.yul\":972:1051   */\n      tag_252\n      tag_178\n      jump\t// in\n    tag_252:\n        /* \"#utility.yul\":934:1053   */\n    tag_251:\n        /* \"#utility.yul\":1092:1093   */\n      0x00\n        /* \"#utility.yul\":1117:1170   */\n      tag_253\n        /* \"#utility.yul\":1162:1169   */\n      dup6\n        /* \"#utility.yul\":1153:1159   */\n      dup3\n        /* \"#utility.yul\":1142:1151   */\n      dup7\n        /* \"#utility.yul\":1138:1160   */\n      add\n        /* \"#utility.yul\":1117:1170   */\n      tag_183\n      jump\t// in\n    tag_253:\n        /* \"#utility.yul\":1107:1170   */\n      swap3\n      pop\n        /* \"#utility.yul\":1063:1180   */\n      pop\n        /* \"#utility.yul\":1219:1221   */\n      0x20\n        /* \"#utility.yul\":1245:1298   */\n      tag_254\n        /* \"#utility.yul\":1290:1297   */\n      dup6\n        /* \"#utility.yul\":1281:1287   */\n      dup3\n        /* \"#utility.yul\":1270:1279   */\n      dup7\n        /* \"#utility.yul\":1266:1288   */\n      add\n        /* \"#utility.yul\":1245:1298   */\n      tag_183\n      jump\t// in\n    tag_254:\n        /* \"#utility.yul\":1235:1298   */\n      swap2\n      pop\n        /* \"#utility.yul\":1190:1308   */\n      pop\n        /* \"#utility.yul\":841:1315   */\n      swap3\n      pop\n      swap3\n      swap1\n      pop\n      jump\t// out\n        /* \"#utility.yul\":1321:1411   */\n    tag_184:\n        /* \"#utility.yul\":1355:1362   */\n      0x00\n        /* \"#utility.yul\":1398:1403   */\n      dup2\n        /* \"#utility.yul\":1391:1404   */\n      iszero\n        /* \"#utility.yul\":1384:1405   */\n      iszero\n        /* \"#utility.yul\":1373:1405   */\n      swap1\n      pop\n        /* \"#utility.yul\":1321:1411   */\n      swap2\n      swap1\n      pop\n      jump\t// out\n        /* \"#utility.yul\":1417:1526   */\n    tag_185:\n        /* \"#utility.yul\":1498:1519   */\n      tag_257\n        /* \"#utility.yul\":1513:1518   */\n      dup2\n        /* \"#utility.yul\":1498:1519   */\n      tag_184\n      jump\t// in\n    tag_257:\n        /* \"#utility.yul\":1493:1496   */\n      dup3\n        /* \"#utility.yul\":1486:1520   */\n      mstore\n        /* \"#utility.yul\":1417:1526   */\n      pop\n      pop\n      jump\t// out\n        /* \"#utility.yul\":1532:1742   */\n    tag_25:\n        /* \"#utility.yul\":1619:1623   */\n      0x00\n        /* \"#utility.yul\":1657:1659   */\n      0x20\n        /* \"#utility.yul\":1646:1655   */\n      dup3\n        /* \"#utility.yul\":1642:1660   */\n      add\n        /* \"#utility.yul\":1634:1660   */\n      swap1\n      pop\n        /* \"#utility.yul\":1670:1735   */\n      tag_259\n        /* \"#utility.yul\":1732:1733   */\n      0x00\n        /* \"#utility.yul\":1721:1730   */\n      dup4\n        /* \"#utility.yul\":1717:1734   */\n      add\n        /* \"#utility.yul\":1708:1714   */\n      dup5\n        /* \"#utility.yul\":1670:1735   */\n      tag_185\n      jump\t// in\n    tag_259:\n        /* \"#utility.yul\":1532:1742   */\n      swap3\n      swap2\n      pop\n      pop\n      jump\t// out\n        /* \"#utility.yul\":1748:1825   */\n    tag_186:\n        /* \"#utility.yul\":1785:1792   */\n      0x00\n        /* \"#utility.yul\":1814:1819   */\n      dup2\n        /* \"#utility.yul\":1803:1819   */\n      swap1\n      pop\n        /* \"#utility.yul\":1748:1825   */\n      swap2\n      swap1\n      pop\n      jump\t// out\n        /* \"#utility.yul\":1831:1953   */\n    tag_187:\n        /* \"#utility.yul\":1904:1928   */\n      tag_262\n        /* \"#utility.yul\":1922:1927   */\n      dup2\n        /* \"#utility.yul\":1904:1928   */\n      tag_186\n      jump\t// in\n    tag_262:\n        /* \"#utility.yul\":1897:1902   */\n      dup2\n        /* \"#utility.yul\":1894:1929   */\n      eq\n        /* \"#utility.yul\":1884:1947   */\n      tag_263\n      jumpi\n        /* \"#utility.yul\":1943:1944   */\n      0x00\n        /* \"#utility.yul\":1940:1941   */\n      dup1\n        /* \"#utility.yul\":1933:1945   */\n      revert\n        /* \"#utility.yul\":1884:1947   */\n    tag_263:\n        /* \"#utility.yul\":1831:1953   */\n      pop\n      jump\t// out\n        /* \"#utility.yul\":1959:2098   */\n    tag_188:\n        /* \"#utility.yul\":2005:2010   */\n      0x00\n        /* \"#utility.yul\":2043:2049   */\n      dup2\n        /* \"#utility.yul\":2030:2050   */\n      calldataload\n        /* \"#utility.yul\":2021:2050   */\n      swap1\n      pop\n        /* \"#utility.yul\":2059:2092   */\n      tag_265\n        /* \"#utility.yul\":2086:2091   */\n      dup2\n        /* \"#utility.yul\":2059:2092   */\n      tag_187\n      jump\t// in\n    tag_265:\n        /* \"#utility.yul\":1959:2098   */\n      swap3\n      swap2\n      pop\n      pop\n      jump\t// out\n        /* \"#utility.yul\":2104:2578   */\n    tag_28:\n        /* \"#utility.yul\":2172:2178   */\n      0x00\n        /* \"#utility.yul\":2180:2186   */\n      dup1\n        /* \"#utility.yul\":2229:2231   */\n      0x40\n        /* \"#utility.yul\":2217:2226   */\n      dup4\n        /* \"#utility.yul\":2208:2215   */\n      dup6\n        /* \"#utility.yul\":2204:2227   */\n      sub\n        /* \"#utility.yul\":2200:2232   */\n      slt\n        /* \"#utility.yul\":2197:2316   */\n      iszero\n      tag_267\n      jumpi\n        /* \"#utility.yul\":2235:2314   */\n      tag_268\n      tag_178\n      jump\t// in\n    tag_268:\n        /* \"#utility.yul\":2197:2316   */\n    tag_267:\n        /* \"#utility.yul\":2355:2356   */\n      0x00\n        /* \"#utility.yul\":2380:2433   */\n      tag_269\n        /* \"#utility.yul\":2425:2432   */\n      dup6\n        /* \"#utility.yul\":2416:2422   */\n      dup3\n        /* \"#utility.yul\":2405:2414   */\n      dup7\n        /* \"#utility.yul\":2401:2423   */\n      add\n        /* \"#utility.yul\":2380:2433   */\n      tag_183\n      jump\t// in\n    tag_269:\n        /* \"#utility.yul\":2370:2433   */\n      swap3\n      pop\n        /* \"#utility.yul\":2326:2443   */\n      pop\n        /* \"#utility.yul\":2482:2484   */\n      0x20\n        /* \"#utility.yul\":2508:2561   */\n      tag_270\n        /* \"#utility.yul\":2553:2560   */\n      dup6\n        /* \"#utility.yul\":2544:2550   */\n      dup3\n        /* \"#utility.yul\":2533:2542   */\n      dup7\n        /* \"#utility.yul\":2529:2551   */\n      add\n        /* \"#utility.yul\":2508:2561   */\n      tag_188\n      jump\t// in\n    tag_270:\n        /* \"#utility.yul\":2498:2561   */\n      swap2\n      pop\n        /* \"#utility.yul\":2453:2571   */\n      pop\n        /* \"#utility.yul\":2104:2578   */\n      swap3\n      pop\n      swap3\n      swap1\n      pop\n      jump\t// out\n        /* \"#utility.yul\":2584:2702   */\n    tag_189:\n        /* \"#utility.yul\":2671:2695   */\n      tag_272\n        /* \"#utility.yul\":2689:2694   */\n      dup2\n        /* \"#utility.yul\":2671:2695   */\n      tag_186\n      jump\t// in\n    tag_272:\n        /* \"#utility.yul\":2666:2669   */\n      dup3\n        /* \"#utility.yul\":2659:2696   */\n      mstore\n        /* \"#utility.yul\":2584:2702   */\n      pop\n      pop\n      jump\t// out\n        /* \"#utility.yul\":2708:2826   */\n    tag_190:\n        /* \"#utility.yul\":2795:2819   */\n      tag_274\n        /* \"#utility.yul\":2813:2818   */\n      dup2\n        /* \"#utility.yul\":2795:2819   */\n      tag_181\n      jump\t// in\n    tag_274:\n        /* \"#utility.yul\":2790:2793   */\n      dup3\n        /* \"#utility.yul\":2783:2820   */\n      mstore\n        /* \"#utility.yul\":2708:2826   */\n      pop\n      pop\n      jump\t// out\n        /* \"#utility.yul\":2832:2931   */\n    tag_191:\n        /* \"#utility.yul\":2884:2890   */\n      0x00\n        /* \"#utility.yul\":2918:2923   */\n      dup2\n        /* \"#utility.yul\":2912:2924   */\n      mload\n        /* \"#utility.yul\":2902:2924   */\n      swap1\n      pop\n        /* \"#utility.yul\":2832:2931   */\n      swap2\n      swap1\n      pop\n      jump\t// out\n        /* \"#utility.yul\":2937:3106   */\n    tag_192:\n        /* \"#utility.yul\":3021:3032   */\n      0x00\n        /* \"#utility.yul\":3055:3061   */\n      dup3\n        /* \"#utility.yul\":3050:3053   */\n      dup3\n        /* \"#utility.yul\":3043:3062   */\n      mstore\n        /* \"#utility.yul\":3095:3099   */\n      0x20\n        /* \"#utility.yul\":3090:3093   */\n      dup3\n        /* \"#utility.yul\":3086:3100   */\n      add\n        /* \"#utility.yul\":3071:3100   */\n      swap1\n      pop\n        /* \"#utility.yul\":2937:3106   */\n      swap3\n      swap2\n      pop\n      pop\n      jump\t// out\n        /* \"#utility.yul\":3112:3251   */\n    tag_193:\n        /* \"#utility.yul\":3201:3207   */\n      dup3\n        /* \"#utility.yul\":3196:3199   */\n      dup2\n        /* \"#utility.yul\":3191:3194   */\n      dup4\n        /* \"#utility.yul\":3185:3208   */\n      mcopy\n        /* \"#utility.yul\":3242:3243   */\n      0x00\n        /* \"#utility.yul\":3233:3239   */\n      dup4\n        /* \"#utility.yul\":3228:3231   */\n      dup4\n        /* \"#utility.yul\":3224:3240   */\n      add\n        /* \"#utility.yul\":3217:3244   */\n      mstore\n        /* \"#utility.yul\":3112:3251   */\n      pop\n      pop\n      pop\n      jump\t// out\n        /* \"#utility.yul\":3257:3359   */\n    tag_194:\n        /* \"#utility.yul\":3298:3304   */\n      0x00\n        /* \"#utility.yul\":3349:3351   */\n      0x1f\n        /* \"#utility.yul\":3345:3352   */\n      not\n        /* \"#utility.yul\":3340:3342   */\n      0x1f\n        /* \"#utility.yul\":3333:3338   */\n      dup4\n        /* \"#utility.yul\":3329:3343   */\n      add\n        /* \"#utility.yul\":3325:3353   */\n      and\n        /* \"#utility.yul\":3315:3353   */\n      swap1\n      pop\n        /* \"#utility.yul\":3257:3359   */\n      swap2\n      swap1\n      pop\n      jump\t// out\n        /* \"#utility.yul\":3365:3742   */\n    tag_195:\n        /* \"#utility.yul\":3453:3456   */\n      0x00\n        /* \"#utility.yul\":3481:3520   */\n      tag_280\n        /* \"#utility.yul\":3514:3519   */\n      dup3\n        /* \"#utility.yul\":3481:3520   */\n      tag_191\n      jump\t// in\n    tag_280:\n        /* \"#utility.yul\":3536:3607   */\n      tag_281\n        /* \"#utility.yul\":3600:3606   */\n      dup2\n        /* \"#utility.yul\":3595:3598   */\n      dup6\n        /* \"#utility.yul\":3536:3607   */\n      tag_192\n      jump\t// in\n    tag_281:\n        /* \"#utility.yul\":3529:3607   */\n      swap4\n      pop\n        /* \"#utility.yul\":3616:3681   */\n      tag_282\n        /* \"#utility.yul\":3674:3680   */\n      dup2\n        /* \"#utility.yul\":3669:3672   */\n      dup6\n        /* \"#utility.yul\":3662:3666   */\n      0x20\n        /* \"#utility.yul\":3655:3660   */\n      dup7\n        /* \"#utility.yul\":3651:3667   */\n      add\n        /* \"#utility.yul\":3616:3681   */\n      tag_193\n      jump\t// in\n    tag_282:\n        /* \"#utility.yul\":3706:3735   */\n      tag_283\n        /* \"#utility.yul\":3728:3734   */\n      dup2\n        /* \"#utility.yul\":3706:3735   */\n      tag_194\n      jump\t// in\n    tag_283:\n        /* \"#utility.yul\":3701:3704   */\n      dup5\n        /* \"#utility.yul\":3697:3736   */\n      add\n        /* \"#utility.yul\":3690:3736   */\n      swap2\n      pop\n        /* \"#utility.yul\":3457:3742   */\n      pop\n        /* \"#utility.yul\":3365:3742   */\n      swap3\n      swap2\n      pop\n      pop\n      jump\t// out\n        /* \"#utility.yul\":3748:4503   */\n    tag_31:\n        /* \"#utility.yul\":3973:3977   */\n      0x00\n        /* \"#utility.yul\":4011:4014   */\n      0xa0\n        /* \"#utility.yul\":4000:4009   */\n      dup3\n        /* \"#utility.yul\":3996:4015   */\n      add\n        /* \"#utility.yul\":3988:4015   */\n      swap1\n      pop\n        /* \"#utility.yul\":4025:4096   */\n      tag_285\n        /* \"#utility.yul\":4093:4094   */\n      0x00\n        /* \"#utility.yul\":4082:4091   */\n      dup4\n        /* \"#utility.yul\":4078:4095   */\n      add\n        /* \"#utility.yul\":4069:4075   */\n      dup9\n        /* \"#utility.yul\":4025:4096   */\n      tag_189\n      jump\t// in\n    tag_285:\n        /* \"#utility.yul\":4106:4178   */\n      tag_286\n        /* \"#utility.yul\":4174:4176   */\n      0x20\n        /* \"#utility.yul\":4163:4172   */\n      dup4\n        /* \"#utility.yul\":4159:4177   */\n      add\n        /* \"#utility.yul\":4150:4156   */\n      dup8\n        /* \"#utility.yul\":4106:4178   */\n      tag_190\n      jump\t// in\n    tag_286:\n        /* \"#utility.yul\":4188:4260   */\n      tag_287\n        /* \"#utility.yul\":4256:4258   */\n      0x40\n        /* \"#utility.yul\":4245:4254   */\n      dup4\n        /* \"#utility.yul\":4241:4259   */\n      add\n        /* \"#utility.yul\":4232:4238   */\n      dup7\n        /* \"#utility.yul\":4188:4260   */\n      tag_190\n      jump\t// in\n    tag_287:\n        /* \"#utility.yul\":4307:4316   */\n      dup2\n        /* \"#utility.yul\":4301:4305   */\n      dup2\n        /* \"#utility.yul\":4297:4317   */\n      sub\n        /* \"#utility.yul\":4292:4294   */\n      0x60\n        /* \"#utility.yul\":4281:4290   */\n      dup4\n        /* \"#utility.yul\":4277:4295   */\n      add\n        /* \"#utility.yul\":4270:4318   */\n      mstore\n        /* \"#utility.yul\":4335:4413   */\n      tag_288\n        /* \"#utility.yul\":4408:4412   */\n      dup2\n        /* \"#utility.yul\":4399:4405   */\n      dup6\n        /* \"#utility.yul\":4335:4413   */\n      tag_195\n      jump\t// in\n    tag_288:\n        /* \"#utility.yul\":4327:4413   */\n      swap1\n      pop\n        /* \"#utility.yul\":4423:4496   */\n      tag_289\n        /* \"#utility.yul\":4491:4494   */\n      0x80\n        /* \"#utility.yul\":4480:4489   */\n      dup4\n        /* \"#utility.yul\":4476:4495   */\n      add\n        /* \"#utility.yul\":4467:4473   */\n      dup5\n        /* \"#utility.yul\":4423:4496   */\n      tag_189\n      jump\t// in\n    tag_289:\n        /* \"#utility.yul\":3748:4503   */\n      swap7\n      swap6\n      pop\n      pop\n      pop\n      pop\n      pop\n      pop\n      jump\t// out\n        /* \"#utility.yul\":4509:4838   */\n    tag_34:\n        /* \"#utility.yul\":4568:4574   */\n      0x00\n        /* \"#utility.yul\":4617:4619   */\n      0x20\n        /* \"#utility.yul\":4605:4614   */\n      dup3\n        /* \"#utility.yul\":4596:4603   */\n      dup5\n        /* \"#utility.yul\":4592:4615   */\n      sub\n        /* \"#utility.yul\":4588:4620   */\n      slt\n        /* \"#utility.yul\":4585:4704   */\n      iszero\n      tag_291\n      jumpi\n        /* \"#utility.yul\":4623:4702   */\n      tag_292\n      tag_178\n      jump\t// in\n    tag_292:\n        /* \"#utility.yul\":4585:4704   */\n    tag_291:\n        /* \"#utility.yul\":4743:4744   */\n      0x00\n        /* \"#utility.yul\":4768:4821   */\n      tag_293\n        /* \"#utility.yul\":4813:4820   */\n      dup5\n        /* \"#utility.yul\":4804:4810   */\n      dup3\n        /* \"#utility.yul\":4793:4802   */\n      dup6\n        /* \"#utility.yul\":4789:4811   */\n      add\n        /* \"#utility.yul\":4768:4821   */\n      tag_183\n      jump\t// in\n    tag_293:\n        /* \"#utility.yul\":4758:4821   */\n      swap2\n      pop\n        /* \"#utility.yul\":4714:4831   */\n      pop\n        /* \"#utility.yul\":4509:4838   */\n      swap3\n      swap2\n      pop\n      pop\n      jump\t// out\n        /* \"#utility.yul\":4844:4961   */\n    tag_196:\n        /* \"#utility.yul\":4953:4954   */\n      0x00\n        /* \"#utility.yul\":4950:4951   */\n      dup1\n        /* \"#utility.yul\":4943:4955   */\n      revert\n        /* \"#utility.yul\":4967:5084   */\n    tag_197:\n        /* \"#utility.yul\":5076:5077   */\n      0x00\n        /* \"#utility.yul\":5073:5074   */\n      dup1\n        /* \"#utility.yul\":5066:5078   */\n      revert\n        /* \"#utility.yul\":5090:5270   */\n    tag_109:\n        /* \"#utility.yul\":5138:5215   */\n      0x4e487b7100000000000000000000000000000000000000000000000000000000\n        /* \"#utility.yul\":5135:5136   */\n      0x00\n        /* \"#utility.yul\":5128:5216   */\n      mstore\n        /* \"#utility.yul\":5235:5239   */\n      0x41\n        /* \"#utility.yul\":5232:5233   */\n      0x04\n        /* \"#utility.yul\":5225:5240   */\n      mstore\n        /* \"#utility.yul\":5259:5263   */\n      0x24\n        /* \"#utility.yul\":5256:5257   */\n      0x00\n        /* \"#utility.yul\":5249:5264   */\n      revert\n        /* \"#utility.yul\":5276:5557   */\n    tag_198:\n        /* \"#utility.yul\":5359:5386   */\n      tag_298\n        /* \"#utility.yul\":5381:5385   */\n      dup3\n        /* \"#utility.yul\":5359:5386   */\n      tag_194\n      jump\t// in\n    tag_298:\n        /* \"#utility.yul\":5351:5357   */\n      dup2\n        /* \"#utility.yul\":5347:5387   */\n      add\n        /* \"#utility.yul\":5489:5495   */\n      dup2\n        /* \"#utility.yul\":5477:5487   */\n      dup2\n        /* \"#utility.yul\":5474:5496   */\n      lt\n        /* \"#utility.yul\":5453:5471   */\n      0xffffffffffffffff\n        /* \"#utility.yul\":5441:5451   */\n      dup3\n        /* \"#utility.yul\":5438:5472   */\n      gt\n        /* \"#utility.yul\":5435:5497   */\n      or\n        /* \"#utility.yul\":5432:5520   */\n      iszero\n      tag_299\n      jumpi\n        /* \"#utility.yul\":5500:5518   */\n      tag_300\n      tag_109\n      jump\t// in\n    tag_300:\n        /* \"#utility.yul\":5432:5520   */\n    tag_299:\n        /* \"#utility.yul\":5540:5550   */\n      dup1\n        /* \"#utility.yul\":5536:5538   */\n      0x40\n        /* \"#utility.yul\":5529:5551   */\n      mstore\n        /* \"#utility.yul\":5319:5557   */\n      pop\n        /* \"#utility.yul\":5276:5557   */\n      pop\n      pop\n      jump\t// out\n        /* \"#utility.yul\":5563:5692   */\n    tag_199:\n        /* \"#utility.yul\":5597:5603   */\n      0x00\n        /* \"#utility.yul\":5624:5644   */\n      tag_302\n      tag_177\n      jump\t// in\n    tag_302:\n        /* \"#utility.yul\":5614:5644   */\n      swap1\n      pop\n        /* \"#utility.yul\":5653:5686   */\n      tag_303\n        /* \"#utility.yul\":5681:5685   */\n      dup3\n        /* \"#utility.yul\":5673:5679   */\n      dup3\n        /* \"#utility.yul\":5653:5686   */\n      tag_198\n      jump\t// in\n    tag_303:\n        /* \"#utility.yul\":5563:5692   */\n      swap2\n      swap1\n      pop\n      jump\t// out\n        /* \"#utility.yul\":5698:6006   */\n    tag_200:\n        /* \"#utility.yul\":5760:5764   */\n      0x00\n        /* \"#utility.yul\":5850:5868   */\n      0xffffffffffffffff\n        /* \"#utility.yul\":5842:5848   */\n      dup3\n        /* \"#utility.yul\":5839:5869   */\n      gt\n        /* \"#utility.yul\":5836:5892   */\n      iszero\n      tag_305\n      jumpi\n        /* \"#utility.yul\":5872:5890   */\n      tag_306\n      tag_109\n      jump\t// in\n    tag_306:\n        /* \"#utility.yul\":5836:5892   */\n    tag_305:\n        /* \"#utility.yul\":5910:5939   */\n      tag_307\n        /* \"#utility.yul\":5932:5938   */\n      dup3\n        /* \"#utility.yul\":5910:5939   */\n      tag_194\n      jump\t// in\n    tag_307:\n        /* \"#utility.yul\":5902:5939   */\n      swap1\n      pop\n        /* \"#utility.yul\":5994:5998   */\n      0x20\n        /* \"#utility.yul\":5988:5992   */\n      dup2\n        /* \"#utility.yul\":5984:5999   */\n      add\n        /* \"#utility.yul\":5976:5999   */\n      swap1\n      pop\n        /* \"#utility.yul\":5698:6006   */\n      swap2\n      swap1\n      pop\n      jump\t// out\n        /* \"#utility.yul\":6012:6160   */\n    tag_201:\n        /* \"#utility.yul\":6110:6116   */\n      dup3\n        /* \"#utility.yul\":6105:6108   */\n      dup2\n        /* \"#utility.yul\":6100:6103   */\n      dup4\n        /* \"#utility.yul\":6087:6117   */\n      calldatacopy\n        /* \"#utility.yul\":6151:6152   */\n      0x00\n        /* \"#utility.yul\":6142:6148   */\n      dup4\n        /* \"#utility.yul\":6137:6140   */\n      dup4\n        /* \"#utility.yul\":6133:6149   */\n      add\n        /* \"#utility.yul\":6126:6153   */\n      mstore\n        /* \"#utility.yul\":6012:6160   */\n      pop\n      pop\n      pop\n      jump\t// out\n        /* \"#utility.yul\":6166:6591   */\n    tag_202:\n        /* \"#utility.yul\":6244:6249   */\n      0x00\n        /* \"#utility.yul\":6269:6335   */\n      tag_310\n        /* \"#utility.yul\":6285:6334   */\n      tag_311\n        /* \"#utility.yul\":6327:6333   */\n      dup5\n        /* \"#utility.yul\":6285:6334   */\n      tag_200\n      jump\t// in\n    tag_311:\n        /* \"#utility.yul\":6269:6335   */\n      tag_199\n      jump\t// in\n    tag_310:\n        /* \"#utility.yul\":6260:6335   */\n      swap1\n      pop\n        /* \"#utility.yul\":6358:6364   */\n      dup3\n        /* \"#utility.yul\":6351:6356   */\n      dup2\n        /* \"#utility.yul\":6344:6365   */\n      mstore\n        /* \"#utility.yul\":6396:6400   */\n      0x20\n        /* \"#utility.yul\":6389:6394   */\n      dup2\n        /* \"#utility.yul\":6385:6401   */\n      add\n        /* \"#utility.yul\":6434:6437   */\n      dup5\n        /* \"#utility.yul\":6425:6431   */\n      dup5\n        /* \"#utility.yul\":6420:6423   */\n      dup5\n        /* \"#utility.yul\":6416:6432   */\n      add\n        /* \"#utility.yul\":6413:6438   */\n      gt\n        /* \"#utility.yul\":6410:6522   */\n      iszero\n      tag_312\n      jumpi\n        /* \"#utility.yul\":6441:6520   */\n      tag_313\n      tag_197\n      jump\t// in\n    tag_313:\n        /* \"#utility.yul\":6410:6522   */\n    tag_312:\n        /* \"#utility.yul\":6531:6585   */\n      tag_314\n        /* \"#utility.yul\":6578:6584   */\n      dup5\n        /* \"#utility.yul\":6573:6576   */\n      dup3\n        /* \"#utility.yul\":6568:6571   */\n      dup6\n        /* \"#utility.yul\":6531:6585   */\n      tag_201\n      jump\t// in\n    tag_314:\n        /* \"#utility.yul\":6250:6591   */\n      pop\n        /* \"#utility.yul\":6166:6591   */\n      swap4\n      swap3\n      pop\n      pop\n      pop\n      jump\t// out\n        /* \"#utility.yul\":6611:6951   */\n    tag_203:\n        /* \"#utility.yul\":6667:6672   */\n      0x00\n        /* \"#utility.yul\":6716:6719   */\n      dup3\n        /* \"#utility.yul\":6709:6713   */\n      0x1f\n        /* \"#utility.yul\":6701:6707   */\n      dup4\n        /* \"#utility.yul\":6697:6714   */\n      add\n        /* \"#utility.yul\":6693:6720   */\n      slt\n        /* \"#utility.yul\":6683:6805   */\n      tag_316\n      jumpi\n        /* \"#utility.yul\":6724:6803   */\n      tag_317\n      tag_196\n      jump\t// in\n    tag_317:\n        /* \"#utility.yul\":6683:6805   */\n    tag_316:\n        /* \"#utility.yul\":6841:6847   */\n      dup2\n        /* \"#utility.yul\":6828:6848   */\n      calldataload\n        /* \"#utility.yul\":6866:6945   */\n      tag_318\n        /* \"#utility.yul\":6941:6944   */\n      dup5\n        /* \"#utility.yul\":6933:6939   */\n      dup3\n        /* \"#utility.yul\":6926:6930   */\n      0x20\n        /* \"#utility.yul\":6918:6924   */\n      dup7\n        /* \"#utility.yul\":6914:6931   */\n      add\n        /* \"#utility.yul\":6866:6945   */\n      tag_202\n      jump\t// in\n    tag_318:\n        /* \"#utility.yul\":6857:6945   */\n      swap2\n      pop\n        /* \"#utility.yul\":6673:6951   */\n      pop\n        /* \"#utility.yul\":6611:6951   */\n      swap3\n      swap2\n      pop\n      pop\n      jump\t// out\n        /* \"#utility.yul\":6957:7611   */\n    tag_38:\n        /* \"#utility.yul\":7035:7041   */\n      0x00\n        /* \"#utility.yul\":7043:7049   */\n      dup1\n        /* \"#utility.yul\":7092:7094   */\n      0x40\n        /* \"#utility.yul\":7080:7089   */\n      dup4\n        /* \"#utility.yul\":7071:7078   */\n      dup6\n        /* \"#utility.yul\":7067:7090   */\n      sub\n        /* \"#utility.yul\":7063:7095   */\n      slt\n        /* \"#utility.yul\":7060:7179   */\n      iszero\n      tag_320\n      jumpi\n        /* \"#utility.yul\":7098:7177   */\n      tag_321\n      tag_178\n      jump\t// in\n    tag_321:\n        /* \"#utility.yul\":7060:7179   */\n    tag_320:\n        /* \"#utility.yul\":7218:7219   */\n      0x00\n        /* \"#utility.yul\":7243:7296   */\n      tag_322\n        /* \"#utility.yul\":7288:7295   */\n      dup6\n        /* \"#utility.yul\":7279:7285   */\n      dup3\n        /* \"#utility.yul\":7268:7277   */\n      dup7\n        /* \"#utility.yul\":7264:7286   */\n      add\n        /* \"#utility.yul\":7243:7296   */\n      tag_183\n      jump\t// in\n    tag_322:\n        /* \"#utility.yul\":7233:7296   */\n      swap3\n      pop\n        /* \"#utility.yul\":7189:7306   */\n      pop\n        /* \"#utility.yul\":7373:7375   */\n      0x20\n        /* \"#utility.yul\":7362:7371   */\n      dup4\n        /* \"#utility.yul\":7358:7376   */\n      add\n        /* \"#utility.yul\":7345:7377   */\n      calldataload\n        /* \"#utility.yul\":7404:7422   */\n      0xffffffffffffffff\n        /* \"#utility.yul\":7396:7402   */\n      dup2\n        /* \"#utility.yul\":7393:7423   */\n      gt\n        /* \"#utility.yul\":7390:7507   */\n      iszero\n      tag_323\n      jumpi\n        /* \"#utility.yul\":7426:7505   */\n      tag_324\n      tag_179\n      jump\t// in\n    tag_324:\n        /* \"#utility.yul\":7390:7507   */\n    tag_323:\n        /* \"#utility.yul\":7531:7594   */\n      tag_325\n        /* \"#utility.yul\":7586:7593   */\n      dup6\n        /* \"#utility.yul\":7577:7583   */\n      dup3\n        /* \"#utility.yul\":7566:7575   */\n      dup7\n        /* \"#utility.yul\":7562:7584   */\n      add\n        /* \"#utility.yul\":7531:7594   */\n      tag_203\n      jump\t// in\n    tag_325:\n        /* \"#utility.yul\":7521:7594   */\n      swap2\n      pop\n        /* \"#utility.yul\":7316:7604   */\n      pop\n        /* \"#utility.yul\":6957:7611   */\n      swap3\n      pop\n      swap3\n      swap1\n      pop\n      jump\t// out\n        /* \"#utility.yul\":7617:7839   */\n    tag_44:\n        /* \"#utility.yul\":7710:7714   */\n      0x00\n        /* \"#utility.yul\":7748:7750   */\n      0x20\n        /* \"#utility.yul\":7737:7746   */\n      dup3\n        /* \"#utility.yul\":7733:7751   */\n      add\n        /* \"#utility.yul\":7725:7751   */\n      swap1\n      pop\n        /* \"#utility.yul\":7761:7832   */\n      tag_327\n        /* \"#utility.yul\":7829:7830   */\n      0x00\n        /* \"#utility.yul\":7818:7827   */\n      dup4\n        /* \"#utility.yul\":7814:7831   */\n      add\n        /* \"#utility.yul\":7805:7811   */\n      dup5\n        /* \"#utility.yul\":7761:7832   */\n      tag_189\n      jump\t// in\n    tag_327:\n        /* \"#utility.yul\":7617:7839   */\n      swap3\n      swap2\n      pop\n      pop\n      jump\t// out\n        /* \"#utility.yul\":7845:8644   */\n    tag_47:\n        /* \"#utility.yul\":7932:7938   */\n      0x00\n        /* \"#utility.yul\":7940:7946   */\n      dup1\n        /* \"#utility.yul\":7948:7954   */\n      0x00\n        /* \"#utility.yul\":7997:7999   */\n      0x60\n        /* \"#utility.yul\":7985:7994   */\n      dup5\n        /* \"#utility.yul\":7976:7983   */\n      dup7\n        /* \"#utility.yul\":7972:7995   */\n      sub\n        /* \"#utility.yul\":7968:8000   */\n      slt\n        /* \"#utility.yul\":7965:8084   */\n      iszero\n      tag_329\n      jumpi\n        /* \"#utility.yul\":8003:8082   */\n      tag_330\n      tag_178\n      jump\t// in\n    tag_330:\n        /* \"#utility.yul\":7965:8084   */\n    tag_329:\n        /* \"#utility.yul\":8123:8124   */\n      0x00\n        /* \"#utility.yul\":8148:8201   */\n      tag_331\n        /* \"#utility.yul\":8193:8200   */\n      dup7\n        /* \"#utility.yul\":8184:8190   */\n      dup3\n        /* \"#utility.yul\":8173:8182   */\n      dup8\n        /* \"#utility.yul\":8169:8191   */\n      add\n        /* \"#utility.yul\":8148:8201   */\n      tag_183\n      jump\t// in\n    tag_331:\n        /* \"#utility.yul\":8138:8201   */\n      swap4\n      pop\n        /* \"#utility.yul\":8094:8211   */\n      pop\n        /* \"#utility.yul\":8250:8252   */\n      0x20\n        /* \"#utility.yul\":8276:8329   */\n      tag_332\n        /* \"#utility.yul\":8321:8328   */\n      dup7\n        /* \"#utility.yul\":8312:8318   */\n      dup3\n        /* \"#utility.yul\":8301:8310   */\n      dup8\n        /* \"#utility.yul\":8297:8319   */\n      add\n        /* \"#utility.yul\":8276:8329   */\n      tag_183\n      jump\t// in\n    tag_332:\n        /* \"#utility.yul\":8266:8329   */\n      swap3\n      pop\n        /* \"#utility.yul\":8221:8339   */\n      pop\n        /* \"#utility.yul\":8406:8408   */\n      0x40\n        /* \"#utility.yul\":8395:8404   */\n      dup5\n        /* \"#utility.yul\":8391:8409   */\n      add\n        /* \"#utility.yul\":8378:8410   */\n      calldataload\n        /* \"#utility.yul\":8437:8455   */\n      0xffffffffffffffff\n        /* \"#utility.yul\":8429:8435   */\n      dup2\n        /* \"#utility.yul\":8426:8456   */\n      gt\n        /* \"#utility.yul\":8423:8540   */\n      iszero\n      tag_333\n      jumpi\n        /* \"#utility.yul\":8459:8538   */\n      tag_334\n      tag_179\n      jump\t// in\n    tag_334:\n        /* \"#utility.yul\":8423:8540   */\n    tag_333:\n        /* \"#utility.yul\":8564:8627   */\n      tag_335\n        /* \"#utility.yul\":8619:8626   */\n      dup7\n        /* \"#utility.yul\":8610:8616   */\n      dup3\n        /* \"#utility.yul\":8599:8608   */\n      dup8\n        /* \"#utility.yul\":8595:8617   */\n      add\n        /* \"#utility.yul\":8564:8627   */\n      tag_203\n      jump\t// in\n    tag_335:\n        /* \"#utility.yul\":8554:8627   */\n      swap2\n      pop\n        /* \"#utility.yul\":8349:8637   */\n      pop\n        /* \"#utility.yul\":7845:8644   */\n      swap3\n      pop\n      swap3\n      pop\n      swap3\n      jump\t// out\n        /* \"#utility.yul\":8650:8979   */\n    tag_51:\n        /* \"#utility.yul\":8709:8715   */\n      0x00\n        /* \"#utility.yul\":8758:8760   */\n      0x20\n        /* \"#utility.yul\":8746:8755   */\n      dup3\n        /* \"#utility.yul\":8737:8744   */\n      dup5\n        /* \"#utility.yul\":8733:8756   */\n      sub\n        /* \"#utility.yul\":8729:8761   */\n      slt\n        /* \"#utility.yul\":8726:8845   */\n      iszero\n      tag_337\n      jumpi\n        /* \"#utility.yul\":8764:8843   */\n      tag_338\n      tag_178\n      jump\t// in\n    tag_338:\n        /* \"#utility.yul\":8726:8845   */\n    tag_337:\n        /* \"#utility.yul\":8884:8885   */\n      0x00\n        /* \"#utility.yul\":8909:8962   */\n      tag_339\n        /* \"#utility.yul\":8954:8961   */\n      dup5\n        /* \"#utility.yul\":8945:8951   */\n      dup3\n        /* \"#utility.yul\":8934:8943   */\n      dup6\n        /* \"#utility.yul\":8930:8952   */\n      add\n        /* \"#utility.yul\":8909:8962   */\n      tag_188\n      jump\t// in\n    tag_339:\n        /* \"#utility.yul\":8899:8962   */\n      swap2\n      pop\n        /* \"#utility.yul\":8855:8972   */\n      pop\n        /* \"#utility.yul\":8650:8979   */\n      swap3\n      swap2\n      pop\n      pop\n      jump\t// out\n        /* \"#utility.yul\":8985:9120   */\n    tag_204:\n        /* \"#utility.yul\":9073:9079   */\n      0x00\n        /* \"#utility.yul\":9107:9112   */\n      dup2\n        /* \"#utility.yul\":9101:9113   */\n      mload\n        /* \"#utility.yul\":9091:9113   */\n      swap1\n      pop\n        /* \"#utility.yul\":8985:9120   */\n      swap2\n      swap1\n      pop\n      jump\t// out\n        /* \"#utility.yul\":9126:9331   */\n    tag_205:\n        /* \"#utility.yul\":9246:9257   */\n      0x00\n        /* \"#utility.yul\":9280:9286   */\n      dup3\n        /* \"#utility.yul\":9275:9278   */\n      dup3\n        /* \"#utility.yul\":9268:9287   */\n      mstore\n        /* \"#utility.yul\":9320:9324   */\n      0x20\n        /* \"#utility.yul\":9315:9318   */\n      dup3\n        /* \"#utility.yul\":9311:9325   */\n      add\n        /* \"#utility.yul\":9296:9325   */\n      swap1\n      pop\n        /* \"#utility.yul\":9126:9331   */\n      swap3\n      swap2\n      pop\n      pop\n      jump\t// out\n        /* \"#utility.yul\":9337:9490   */\n    tag_206:\n        /* \"#utility.yul\":9425:9429   */\n      0x00\n        /* \"#utility.yul\":9448:9451   */\n      dup2\n        /* \"#utility.yul\":9440:9451   */\n      swap1\n      pop\n        /* \"#utility.yul\":9478:9482   */\n      0x20\n        /* \"#utility.yul\":9473:9476   */\n      dup3\n        /* \"#utility.yul\":9469:9483   */\n      add\n        /* \"#utility.yul\":9461:9483   */\n      swap1\n      pop\n        /* \"#utility.yul\":9337:9490   */\n      swap2\n      swap1\n      pop\n      jump\t// out\n        /* \"#utility.yul\":9496:9604   */\n    tag_207:\n        /* \"#utility.yul\":9573:9597   */\n      tag_344\n        /* \"#utility.yul\":9591:9596   */\n      dup2\n        /* \"#utility.yul\":9573:9597   */\n      tag_186\n      jump\t// in\n    tag_344:\n        /* \"#utility.yul\":9568:9571   */\n      dup3\n        /* \"#utility.yul\":9561:9598   */\n      mstore\n        /* \"#utility.yul\":9496:9604   */\n      pop\n      pop\n      jump\t// out\n        /* \"#utility.yul\":9610:9718   */\n    tag_208:\n        /* \"#utility.yul\":9687:9711   */\n      tag_346\n        /* \"#utility.yul\":9705:9710   */\n      dup2\n        /* \"#utility.yul\":9687:9711   */\n      tag_181\n      jump\t// in\n    tag_346:\n        /* \"#utility.yul\":9682:9685   */\n      dup3\n        /* \"#utility.yul\":9675:9712   */\n      mstore\n        /* \"#utility.yul\":9610:9718   */\n      pop\n      pop\n      jump\t// out\n        /* \"#utility.yul\":9724:9883   */\n    tag_209:\n        /* \"#utility.yul\":9798:9809   */\n      0x00\n        /* \"#utility.yul\":9832:9838   */\n      dup3\n        /* \"#utility.yul\":9827:9830   */\n      dup3\n        /* \"#utility.yul\":9820:9839   */\n      mstore\n        /* \"#utility.yul\":9872:9876   */\n      0x20\n        /* \"#utility.yul\":9867:9870   */\n      dup3\n        /* \"#utility.yul\":9863:9877   */\n      add\n        /* \"#utility.yul\":9848:9877   */\n      swap1\n      pop\n        /* \"#utility.yul\":9724:9883   */\n      swap3\n      swap2\n      pop\n      pop\n      jump\t// out\n        /* \"#utility.yul\":9889:10246   */\n    tag_210:\n        /* \"#utility.yul\":9967:9970   */\n      0x00\n        /* \"#utility.yul\":9995:10034   */\n      tag_349\n        /* \"#utility.yul\":10028:10033   */\n      dup3\n        /* \"#utility.yul\":9995:10034   */\n      tag_191\n      jump\t// in\n    tag_349:\n        /* \"#utility.yul\":10050:10111   */\n      tag_350\n        /* \"#utility.yul\":10104:10110   */\n      dup2\n        /* \"#utility.yul\":10099:10102   */\n      dup6\n        /* \"#utility.yul\":10050:10111   */\n      tag_209\n      jump\t// in\n    tag_350:\n        /* \"#utility.yul\":10043:10111   */\n      swap4\n      pop\n        /* \"#utility.yul\":10120:10185   */\n      tag_351\n        /* \"#utility.yul\":10178:10184   */\n      dup2\n        /* \"#utility.yul\":10173:10176   */\n      dup6\n        /* \"#utility.yul\":10166:10170   */\n      0x20\n        /* \"#utility.yul\":10159:10164   */\n      dup7\n        /* \"#utility.yul\":10155:10171   */\n      add\n        /* \"#utility.yul\":10120:10185   */\n      tag_193\n      jump\t// in\n    tag_351:\n        /* \"#utility.yul\":10210:10239   */\n      tag_352\n        /* \"#utility.yul\":10232:10238   */\n      dup2\n        /* \"#utility.yul\":10210:10239   */\n      tag_194\n      jump\t// in\n    tag_352:\n        /* \"#utility.yul\":10205:10208   */\n      dup5\n        /* \"#utility.yul\":10201:10240   */\n      add\n        /* \"#utility.yul\":10194:10240   */\n      swap2\n      pop\n        /* \"#utility.yul\":9971:10246   */\n      pop\n        /* \"#utility.yul\":9889:10246   */\n      swap3\n      swap2\n      pop\n      pop\n      jump\t// out\n        /* \"#utility.yul\":10304:11248   */\n    tag_211:\n        /* \"#utility.yul\":10405:10408   */\n      0x00\n        /* \"#utility.yul\":10441:10445   */\n      0x80\n        /* \"#utility.yul\":10436:10439   */\n      dup4\n        /* \"#utility.yul\":10432:10446   */\n      add\n        /* \"#utility.yul\":10526:10530   */\n      0x00\n        /* \"#utility.yul\":10519:10524   */\n      dup4\n        /* \"#utility.yul\":10515:10531   */\n      add\n        /* \"#utility.yul\":10509:10532   */\n      mload\n        /* \"#utility.yul\":10545:10608   */\n      tag_354\n        /* \"#utility.yul\":10602:10606   */\n      0x00\n        /* \"#utility.yul\":10597:10600   */\n      dup7\n        /* \"#utility.yul\":10593:10607   */\n      add\n        /* \"#utility.yul\":10579:10591   */\n      dup3\n        /* \"#utility.yul\":10545:10608   */\n      tag_207\n      jump\t// in\n    tag_354:\n        /* \"#utility.yul\":10456:10618   */\n      pop\n        /* \"#utility.yul\":10702:10706   */\n      0x20\n        /* \"#utility.yul\":10695:10700   */\n      dup4\n        /* \"#utility.yul\":10691:10707   */\n      add\n        /* \"#utility.yul\":10685:10708   */\n      mload\n        /* \"#utility.yul\":10721:10784   */\n      tag_355\n        /* \"#utility.yul\":10778:10782   */\n      0x20\n        /* \"#utility.yul\":10773:10776   */\n      dup7\n        /* \"#utility.yul\":10769:10783   */\n      add\n        /* \"#utility.yul\":10755:10767   */\n      dup3\n        /* \"#utility.yul\":10721:10784   */\n      tag_208\n      jump\t// in\n    tag_355:\n        /* \"#utility.yul\":10628:10794   */\n      pop\n        /* \"#utility.yul\":10879:10883   */\n      0x40\n        /* \"#utility.yul\":10872:10877   */\n      dup4\n        /* \"#utility.yul\":10868:10884   */\n      add\n        /* \"#utility.yul\":10862:10885   */\n      mload\n        /* \"#utility.yul\":10932:10935   */\n      dup5\n        /* \"#utility.yul\":10926:10930   */\n      dup3\n        /* \"#utility.yul\":10922:10936   */\n      sub\n        /* \"#utility.yul\":10915:10919   */\n      0x40\n        /* \"#utility.yul\":10910:10913   */\n      dup7\n        /* \"#utility.yul\":10906:10920   */\n      add\n        /* \"#utility.yul\":10899:10937   */\n      mstore\n        /* \"#utility.yul\":10958:11031   */\n      tag_356\n        /* \"#utility.yul\":11026:11030   */\n      dup3\n        /* \"#utility.yul\":11012:11024   */\n      dup3\n        /* \"#utility.yul\":10958:11031   */\n      tag_210\n      jump\t// in\n    tag_356:\n        /* \"#utility.yul\":10950:11031   */\n      swap2\n      pop\n        /* \"#utility.yul\":10804:11042   */\n      pop\n        /* \"#utility.yul\":11129:11133   */\n      0x60\n        /* \"#utility.yul\":11122:11127   */\n      dup4\n        /* \"#utility.yul\":11118:11134   */\n      add\n        /* \"#utility.yul\":11112:11135   */\n      mload\n        /* \"#utility.yul\":11148:11211   */\n      tag_357\n        /* \"#utility.yul\":11205:11209   */\n      0x60\n        /* \"#utility.yul\":11200:11203   */\n      dup7\n        /* \"#utility.yul\":11196:11210   */\n      add\n        /* \"#utility.yul\":11182:11194   */\n      dup3\n        /* \"#utility.yul\":11148:11211   */\n      tag_207\n      jump\t// in\n    tag_357:\n        /* \"#utility.yul\":11052:11221   */\n      pop\n        /* \"#utility.yul\":11238:11242   */\n      dup1\n        /* \"#utility.yul\":11231:11242   */\n      swap2\n      pop\n        /* \"#utility.yul\":10410:11248   */\n      pop\n        /* \"#utility.yul\":10304:11248   */\n      swap3\n      swap2\n      pop\n      pop\n      jump\t// out\n        /* \"#utility.yul\":11254:11494   */\n    tag_212:\n        /* \"#utility.yul\":11365:11375   */\n      0x00\n        /* \"#utility.yul\":11400:11488   */\n      tag_359\n        /* \"#utility.yul\":11484:11487   */\n      dup4\n        /* \"#utility.yul\":11476:11482   */\n      dup4\n        /* \"#utility.yul\":11400:11488   */\n      tag_211\n      jump\t// in\n    tag_359:\n        /* \"#utility.yul\":11386:11488   */\n      swap1\n      pop\n        /* \"#utility.yul\":11254:11494   */\n      swap3\n      swap2\n      pop\n      pop\n      jump\t// out\n        /* \"#utility.yul\":11500:11634   */\n    tag_213:\n        /* \"#utility.yul\":11591:11595   */\n      0x00\n        /* \"#utility.yul\":11623:11627   */\n      0x20\n        /* \"#utility.yul\":11618:11621   */\n      dup3\n        /* \"#utility.yul\":11614:11628   */\n      add\n        /* \"#utility.yul\":11606:11628   */\n      swap1\n      pop\n        /* \"#utility.yul\":11500:11634   */\n      swap2\n      swap1\n      pop\n      jump\t// out\n        /* \"#utility.yul\":11696:12775   */\n    tag_214:\n        /* \"#utility.yul\":11857:11860   */\n      0x00\n        /* \"#utility.yul\":11886:11961   */\n      tag_362\n        /* \"#utility.yul\":11955:11960   */\n      dup3\n        /* \"#utility.yul\":11886:11961   */\n      tag_204\n      jump\t// in\n    tag_362:\n        /* \"#utility.yul\":11977:12084   */\n      tag_363\n        /* \"#utility.yul\":12077:12083   */\n      dup2\n        /* \"#utility.yul\":12072:12075   */\n      dup6\n        /* \"#utility.yul\":11977:12084   */\n      tag_205\n      jump\t// in\n    tag_363:\n        /* \"#utility.yul\":11970:12084   */\n      swap4\n      pop\n        /* \"#utility.yul\":12110:12113   */\n      dup4\n        /* \"#utility.yul\":12155:12159   */\n      0x20\n        /* \"#utility.yul\":12147:12153   */\n      dup3\n        /* \"#utility.yul\":12143:12160   */\n      mul\n        /* \"#utility.yul\":12138:12141   */\n      dup6\n        /* \"#utility.yul\":12134:12161   */\n      add\n        /* \"#utility.yul\":12185:12262   */\n      tag_364\n        /* \"#utility.yul\":12256:12261   */\n      dup6\n        /* \"#utility.yul\":12185:12262   */\n      tag_206\n      jump\t// in\n    tag_364:\n        /* \"#utility.yul\":12285:12292   */\n      dup1\n        /* \"#utility.yul\":12316:12317   */\n      0x00\n        /* \"#utility.yul\":12301:12730   */\n    tag_365:\n        /* \"#utility.yul\":12326:12332   */\n      dup6\n        /* \"#utility.yul\":12323:12324   */\n      dup2\n        /* \"#utility.yul\":12320:12333   */\n      lt\n        /* \"#utility.yul\":12301:12730   */\n      iszero\n      tag_367\n      jumpi\n        /* \"#utility.yul\":12397:12406   */\n      dup5\n        /* \"#utility.yul\":12391:12395   */\n      dup5\n        /* \"#utility.yul\":12387:12407   */\n      sub\n        /* \"#utility.yul\":12382:12385   */\n      dup10\n        /* \"#utility.yul\":12375:12408   */\n      mstore\n        /* \"#utility.yul\":12448:12454   */\n      dup2\n        /* \"#utility.yul\":12442:12455   */\n      mload\n        /* \"#utility.yul\":12476:12582   */\n      tag_368\n        /* \"#utility.yul\":12577:12581   */\n      dup6\n        /* \"#utility.yul\":12562:12575   */\n      dup3\n        /* \"#utility.yul\":12476:12582   */\n      tag_212\n      jump\t// in\n    tag_368:\n        /* \"#utility.yul\":12468:12582   */\n      swap5\n      pop\n        /* \"#utility.yul\":12605:12686   */\n      tag_369\n        /* \"#utility.yul\":12679:12685   */\n      dup4\n        /* \"#utility.yul\":12605:12686   */\n      tag_213\n      jump\t// in\n    tag_369:\n        /* \"#utility.yul\":12595:12686   */\n      swap3\n      pop\n        /* \"#utility.yul\":12715:12719   */\n      0x20\n        /* \"#utility.yul\":12710:12713   */\n      dup11\n        /* \"#utility.yul\":12706:12720   */\n      add\n        /* \"#utility.yul\":12699:12720   */\n      swap10\n      pop\n        /* \"#utility.yul\":12361:12730   */\n      pop\n        /* \"#utility.yul\":12348:12349   */\n      0x01\n        /* \"#utility.yul\":12345:12346   */\n      dup2\n        /* \"#utility.yul\":12341:12350   */\n      add\n        /* \"#utility.yul\":12336:12350   */\n      swap1\n      pop\n        /* \"#utility.yul\":12301:12730   */\n      jump(tag_365)\n    tag_367:\n        /* \"#utility.yul\":12305:12319   */\n      pop\n        /* \"#utility.yul\":12746:12750   */\n      dup3\n        /* \"#utility.yul\":12739:12750   */\n      swap8\n      pop\n        /* \"#utility.yul\":12766:12769   */\n      dup8\n        /* \"#utility.yul\":12759:12769   */\n      swap6\n      pop\n        /* \"#utility.yul\":11862:12775   */\n      pop\n      pop\n      pop\n      pop\n      pop\n        /* \"#utility.yul\":11696:12775   */\n      swap3\n      swap2\n      pop\n      pop\n      jump\t// out\n        /* \"#utility.yul\":12781:13238   */\n    tag_54:\n        /* \"#utility.yul\":12966:12970   */\n      0x00\n        /* \"#utility.yul\":13004:13006   */\n      0x20\n        /* \"#utility.yul\":12993:13002   */\n      dup3\n        /* \"#utility.yul\":12989:13007   */\n      add\n        /* \"#utility.yul\":12981:13007   */\n      swap1\n      pop\n        /* \"#utility.yul\":13053:13062   */\n      dup2\n        /* \"#utility.yul\":13047:13051   */\n      dup2\n        /* \"#utility.yul\":13043:13063   */\n      sub\n        /* \"#utility.yul\":13039:13040   */\n      0x00\n        /* \"#utility.yul\":13028:13037   */\n      dup4\n        /* \"#utility.yul\":13024:13041   */\n      add\n        /* \"#utility.yul\":13017:13064   */\n      mstore\n        /* \"#utility.yul\":13081:13231   */\n      tag_371\n        /* \"#utility.yul\":13226:13230   */\n      dup2\n        /* \"#utility.yul\":13217:13223   */\n      dup5\n        /* \"#utility.yul\":13081:13231   */\n      tag_214\n      jump\t// in\n    tag_371:\n        /* \"#utility.yul\":13073:13231   */\n      swap1\n      pop\n        /* \"#utility.yul\":12781:13238   */\n      swap3\n      swap2\n      pop\n      pop\n      jump\t// out\n        /* \"#utility.yul\":13244:13466   */\n    tag_62:\n        /* \"#utility.yul\":13337:13341   */\n      0x00\n        /* \"#utility.yul\":13375:13377   */\n      0x20\n        /* \"#utility.yul\":13364:13373   */\n      dup3\n        /* \"#utility.yul\":13360:13378   */\n      add\n        /* \"#utility.yul\":13352:13378   */\n      swap1\n      pop\n        /* \"#utility.yul\":13388:13459   */\n      tag_373\n        /* \"#utility.yul\":13456:13457   */\n      0x00\n        /* \"#utility.yul\":13445:13454   */\n      dup4\n        /* \"#utility.yul\":13441:13458   */\n      add\n        /* \"#utility.yul\":13432:13438   */\n      dup5\n        /* \"#utility.yul\":13388:13459   */\n      tag_190\n      jump\t// in\n    tag_373:\n        /* \"#utility.yul\":13244:13466   */\n      swap3\n      swap2\n      pop\n      pop\n      jump\t// out\n        /* \"#utility.yul\":13472:14116   */\n    tag_74:\n        /* \"#utility.yul\":13669:13673   */\n      0x00\n        /* \"#utility.yul\":13707:13710   */\n      0x80\n        /* \"#utility.yul\":13696:13705   */\n      dup3\n        /* \"#utility.yul\":13692:13711   */\n      add\n        /* \"#utility.yul\":13684:13711   */\n      swap1\n      pop\n        /* \"#utility.yul\":13721:13792   */\n      tag_375\n        /* \"#utility.yul\":13789:13790   */\n      0x00\n        /* \"#utility.yul\":13778:13787   */\n      dup4\n        /* \"#utility.yul\":13774:13791   */\n      add\n        /* \"#utility.yul\":13765:13771   */\n      dup8\n        /* \"#utility.yul\":13721:13792   */\n      tag_189\n      jump\t// in\n    tag_375:\n        /* \"#utility.yul\":13802:13874   */\n      tag_376\n        /* \"#utility.yul\":13870:13872   */\n      0x20\n        /* \"#utility.yul\":13859:13868   */\n      dup4\n        /* \"#utility.yul\":13855:13873   */\n      add\n        /* \"#utility.yul\":13846:13852   */\n      dup7\n        /* \"#utility.yul\":13802:13874   */\n      tag_190\n      jump\t// in\n    tag_376:\n        /* \"#utility.yul\":13921:13930   */\n      dup2\n        /* \"#utility.yul\":13915:13919   */\n      dup2\n        /* \"#utility.yul\":13911:13931   */\n      sub\n        /* \"#utility.yul\":13906:13908   */\n      0x40\n        /* \"#utility.yul\":13895:13904   */\n      dup4\n        /* \"#utility.yul\":13891:13909   */\n      add\n        /* \"#utility.yul\":13884:13932   */\n      mstore\n        /* \"#utility.yul\":13949:14027   */\n      tag_377\n        /* \"#utility.yul\":14022:14026   */\n      dup2\n        /* \"#utility.yul\":14013:14019   */\n      dup6\n        /* \"#utility.yul\":13949:14027   */\n      tag_195\n      jump\t// in\n    tag_377:\n        /* \"#utility.yul\":13941:14027   */\n      swap1\n      pop\n        /* \"#utility.yul\":14037:14109   */\n      tag_378\n        /* \"#utility.yul\":14105:14107   */\n      0x60\n        /* \"#utility.yul\":14094:14103   */\n      dup4\n        /* \"#utility.yul\":14090:14108   */\n      add\n        /* \"#utility.yul\":14081:14087   */\n      dup5\n        /* \"#utility.yul\":14037:14109   */\n      tag_189\n      jump\t// in\n    tag_378:\n        /* \"#utility.yul\":13472:14116   */\n      swap6\n      swap5\n      pop\n      pop\n      pop\n      pop\n      pop\n      jump\t// out\n        /* \"#utility.yul\":14122:14631   */\n    tag_77:\n        /* \"#utility.yul\":14191:14197   */\n      0x00\n        /* \"#utility.yul\":14240:14242   */\n      0x20\n        /* \"#utility.yul\":14228:14237   */\n      dup3\n        /* \"#utility.yul\":14219:14226   */\n      dup5\n        /* \"#utility.yul\":14215:14238   */\n      sub\n        /* \"#utility.yul\":14211:14243   */\n      slt\n        /* \"#utility.yul\":14208:14327   */\n      iszero\n      tag_380\n      jumpi\n        /* \"#utility.yul\":14246:14325   */\n      tag_381\n      tag_178\n      jump\t// in\n    tag_381:\n        /* \"#utility.yul\":14208:14327   */\n    tag_380:\n        /* \"#utility.yul\":14394:14395   */\n      0x00\n        /* \"#utility.yul\":14383:14392   */\n      dup3\n        /* \"#utility.yul\":14379:14396   */\n      add\n        /* \"#utility.yul\":14366:14397   */\n      calldataload\n        /* \"#utility.yul\":14424:14442   */\n      0xffffffffffffffff\n        /* \"#utility.yul\":14416:14422   */\n      dup2\n        /* \"#utility.yul\":14413:14443   */\n      gt\n        /* \"#utility.yul\":14410:14527   */\n      iszero\n      tag_382\n      jumpi\n        /* \"#utility.yul\":14446:14525   */\n      tag_383\n      tag_179\n      jump\t// in\n    tag_383:\n        /* \"#utility.yul\":14410:14527   */\n    tag_382:\n        /* \"#utility.yul\":14551:14614   */\n      tag_384\n        /* \"#utility.yul\":14606:14613   */\n      dup5\n        /* \"#utility.yul\":14597:14603   */\n      dup3\n        /* \"#utility.yul\":14586:14595   */\n      dup6\n        /* \"#utility.yul\":14582:14604   */\n      add\n        /* \"#utility.yul\":14551:14614   */\n      tag_203\n      jump\t// in\n    tag_384:\n        /* \"#utility.yul\":14541:14614   */\n      swap2\n      pop\n        /* \"#utility.yul\":14337:14624   */\n      pop\n        /* \"#utility.yul\":14122:14631   */\n      swap3\n      swap2\n      pop\n      pop\n      jump\t// out\n        /* \"#utility.yul\":14637:14817   */\n    tag_215:\n        /* \"#utility.yul\":14685:14762   */\n      0x4e487b7100000000000000000000000000000000000000000000000000000000\n        /* \"#utility.yul\":14682:14683   */\n      0x00\n        /* \"#utility.yul\":14675:14763   */\n      mstore\n        /* \"#utility.yul\":14782:14786   */\n      0x22\n        /* \"#utility.yul\":14779:14780   */\n      0x04\n        /* \"#utility.yul\":14772:14787   */\n      mstore\n        /* \"#utility.yul\":14806:14810   */\n      0x24\n        /* \"#utility.yul\":14803:14804   */\n      0x00\n        /* \"#utility.yul\":14796:14811   */\n      revert\n        /* \"#utility.yul\":14823:15143   */\n    tag_85:\n        /* \"#utility.yul\":14867:14873   */\n      0x00\n        /* \"#utility.yul\":14904:14905   */\n      0x02\n        /* \"#utility.yul\":14898:14902   */\n      dup3\n        /* \"#utility.yul\":14894:14906   */\n      div\n        /* \"#utility.yul\":14884:14906   */\n      swap1\n      pop\n        /* \"#utility.yul\":14951:14952   */\n      0x01\n        /* \"#utility.yul\":14945:14949   */\n      dup3\n        /* \"#utility.yul\":14941:14953   */\n      and\n        /* \"#utility.yul\":14972:14990   */\n      dup1\n        /* \"#utility.yul\":14962:15043   */\n      tag_387\n      jumpi\n        /* \"#utility.yul\":15028:15032   */\n      0x7f\n        /* \"#utility.yul\":15020:15026   */\n      dup3\n        /* \"#utility.yul\":15016:15033   */\n      and\n        /* \"#utility.yul\":15006:15033   */\n      swap2\n      pop\n        /* \"#utility.yul\":14962:15043   */\n    tag_387:\n        /* \"#utility.yul\":15090:15092   */\n      0x20\n        /* \"#utility.yul\":15082:15088   */\n      dup3\n        /* \"#utility.yul\":15079:15093   */\n      lt\n        /* \"#utility.yul\":15059:15077   */\n      dup2\n        /* \"#utility.yul\":15056:15094   */\n      sub\n        /* \"#utility.yul\":15053:15137   */\n      tag_388\n      jumpi\n        /* \"#utility.yul\":15109:15127   */\n      tag_389\n      tag_215\n      jump\t// in\n    tag_389:\n        /* \"#utility.yul\":15053:15137   */\n    tag_388:\n        /* \"#utility.yul\":14874:15143   */\n      pop\n        /* \"#utility.yul\":14823:15143   */\n      swap2\n      swap1\n      pop\n      jump\t// out\n        /* \"#utility.yul\":15149:15290   */\n    tag_216:\n        /* \"#utility.yul\":15198:15202   */\n      0x00\n        /* \"#utility.yul\":15221:15224   */\n      dup2\n        /* \"#utility.yul\":15213:15224   */\n      swap1\n      pop\n        /* \"#utility.yul\":15244:15247   */\n      dup2\n        /* \"#utility.yul\":15241:15242   */\n      0x00\n        /* \"#utility.yul\":15234:15248   */\n      mstore\n        /* \"#utility.yul\":15278:15282   */\n      0x20\n        /* \"#utility.yul\":15275:15276   */\n      0x00\n        /* \"#utility.yul\":15265:15283   */\n      keccak256\n        /* \"#utility.yul\":15257:15283   */\n      swap1\n      pop\n        /* \"#utility.yul\":15149:15290   */\n      swap2\n      swap1\n      pop\n      jump\t// out\n        /* \"#utility.yul\":15296:15389   */\n    tag_217:\n        /* \"#utility.yul\":15333:15339   */\n      0x00\n        /* \"#utility.yul\":15380:15382   */\n      0x20\n        /* \"#utility.yul\":15375:15377   */\n      0x1f\n        /* \"#utility.yul\":15368:15373   */\n      dup4\n        /* \"#utility.yul\":15364:15378   */\n      add\n        /* \"#utility.yul\":15360:15383   */\n      div\n        /* \"#utility.yul\":15350:15383   */\n      swap1\n      pop\n        /* \"#utility.yul\":15296:15389   */\n      swap2\n      swap1\n      pop\n      jump\t// out\n        /* \"#utility.yul\":15395:15502   */\n    tag_218:\n        /* \"#utility.yul\":15439:15447   */\n      0x00\n        /* \"#utility.yul\":15489:15494   */\n      dup3\n        /* \"#utility.yul\":15483:15487   */\n      dup3\n        /* \"#utility.yul\":15479:15495   */\n      shl\n        /* \"#utility.yul\":15458:15495   */\n      swap1\n      pop\n        /* \"#utility.yul\":15395:15502   */\n      swap3\n      swap2\n      pop\n      pop\n      jump\t// out\n        /* \"#utility.yul\":15508:15901   */\n    tag_219:\n        /* \"#utility.yul\":15577:15583   */\n      0x00\n        /* \"#utility.yul\":15627:15628   */\n      0x08\n        /* \"#utility.yul\":15615:15625   */\n      dup4\n        /* \"#utility.yul\":15611:15629   */\n      mul\n        /* \"#utility.yul\":15650:15747   */\n      tag_394\n        /* \"#utility.yul\":15680:15746   */\n      0xffffffffffffffffffffffffffffffffffffffffffffffffffffffffffffffff\n        /* \"#utility.yul\":15669:15678   */\n      dup3\n        /* \"#utility.yul\":15650:15747   */\n      tag_218\n      jump\t// in\n    tag_394:\n        /* \"#utility.yul\":15768:15807   */\n      tag_395\n        /* \"#utility.yul\":15798:15806   */\n      dup7\n        /* \"#utility.yul\":15787:15796   */\n      dup4\n        /* \"#utility.yul\":15768:15807   */\n      tag_218\n      jump\t// in\n    tag_395:\n        /* \"#utility.yul\":15756:15807   */\n      swap6\n      pop\n        /* \"#utility.yul\":15840:15844   */\n      dup1\n        /* \"#utility.yul\":15836:15845   */\n      not\n        /* \"#utility.yul\":15829:15834   */\n      dup5\n        /* \"#utility.yul\":15825:15846   */\n      and\n        /* \"#utility.yul\":15816:15846   */\n      swap4\n      pop\n        /* \"#utility.yul\":15889:15893   */\n      dup1\n        /* \"#utility.yul\":15879:15887   */\n      dup7\n        /* \"#utility.yul\":15875:15894   */\n      and\n        /* \"#utility.yul\":15868:15873   */\n      dup5\n        /* \"#utility.yul\":15865:15895   */\n      or\n        /* \"#utility.yul\":15855:15895   */\n      swap3\n      pop\n        /* \"#utility.yul\":15584:15901   */\n      pop\n      pop\n        /* \"#utility.yul\":15508:15901   */\n      swap4\n      swap3\n      pop\n      pop\n      pop\n      jump\t// out\n        /* \"#utility.yul\":15907:15967   */\n    tag_220:\n        /* \"#utility.yul\":15935:15938   */\n      0x00\n        /* \"#utility.yul\":15956:15961   */\n      dup2\n        /* \"#utility.yul\":15949:15961   */\n      swap1\n      pop\n        /* \"#utility.yul\":15907:15967   */\n      swap2\n      swap1\n      pop\n      jump\t// out\n        /* \"#utility.yul\":15973:16115   */\n    tag_221:\n        /* \"#utility.yul\":16023:16032   */\n      0x00\n        /* \"#utility.yul\":16056:16109   */\n      tag_398\n        /* \"#utility.yul\":16074:16108   */\n      tag_399\n        /* \"#utility.yul\":16083:16107   */\n      tag_400\n        /* \"#utility.yul\":16101:16106   */\n      dup5\n        /* \"#utility.yul\":16083:16107   */\n      tag_186\n      jump\t// in\n    tag_400:\n        /* \"#utility.yul\":16074:16108   */\n      tag_220\n      jump\t// in\n    tag_399:\n        /* \"#utility.yul\":16056:16109   */\n      tag_186\n      jump\t// in\n    tag_398:\n        /* \"#utility.yul\":16043:16109   */\n      swap1\n      pop\n        /* \"#utility.yul\":15973:16115   */\n      swap2\n      swap1\n      pop\n      jump\t// out\n        /* \"#utility.yul\":16121:16196   */\n    tag_222:\n        /* \"#utility.yul\":16164:16167   */\n      0x00\n        /* \"#utility.yul\":16185:16190   */\n      dup2\n        /* \"#utility.yul\":16178:16190   */\n      swap1\n      pop\n        /* \"#utility.yul\":16121:16196   */\n      swap2\n      swap1\n      pop\n      jump\t// out\n        /* \"#utility.yul\":16202:16471   */\n    tag_223:\n        /* \"#utility.yul\":16312:16351   */\n      tag_403\n        /* \"#utility.yul\":16343:16350   */\n      dup4\n        /* \"#utility.yul\":16312:16351   */\n      tag_221\n      jump\t// in\n    tag_403:\n        /* \"#utility.yul\":16373:16464   */\n      tag_404\n        /* \"#utility.yul\":16422:16463   */\n      tag_405\n        /* \"#utility.yul\":16446:16462   */\n      dup3\n        /* \"#utility.yul\":16422:16463   */\n      tag_222\n      jump\t// in\n    tag_405:\n        /* \"#utility.yul\":16414:16420   */\n      dup5\n        /* \"#utility.yul\":16407:16411   */\n      dup5\n        /* \"#utility.yul\":16401:16412   */\n      sload\n        /* \"#utility.yul\":16373:16464   */\n      tag_219\n      jump\t// in\n    tag_404:\n        /* \"#utility.yul\":16367:16371   */\n      dup3\n        /* \"#utility.yul\":16360:16465   */\n      sstore\n        /* \"#utility.yul\":16278:16471   */\n      pop\n        /* \"#utility.yul\":16202:16471   */\n      pop\n      pop\n      pop\n      jump\t// out\n        /* \"#utility.yul\":16477:16550   */\n    tag_224:\n        /* \"#utility.yul\":16522:16525   */\n      0x00\n        /* \"#utility.yul\":16477:16550   */\n      swap1\n      jump\t// out\n        /* \"#utility.yul\":16556:16745   */\n    tag_225:\n        /* \"#utility.yul\":16633:16665   */\n      tag_408\n      tag_224\n      jump\t// in\n    tag_408:\n        /* \"#utility.yul\":16674:16739   */\n      tag_409\n        /* \"#utility.yul\":16732:16738   */\n      dup2\n        /* \"#utility.yul\":16724:16730   */\n      dup5\n        /* \"#utility.yul\":16718:16722   */\n      dup5\n        /* \"#utility.yul\":16674:16739   */\n      tag_223\n      jump\t// in\n    tag_409:\n        /* \"#utility.yul\":16609:16745   */\n      pop\n        /* \"#utility.yul\":16556:16745   */\n      pop\n      pop\n      jump\t// out\n        /* \"#utility.yul\":16751:16937   */\n    tag_226:\n        /* \"#utility.yul\":16811:16931   */\n    tag_411:\n        /* \"#utility.yul\":16828:16831   */\n      dup2\n        /* \"#utility.yul\":16821:16826   */\n      dup2\n        /* \"#utility.yul\":16818:16832   */\n      lt\n        /* \"#utility.yul\":16811:16931   */\n      iszero\n      tag_413\n      jumpi\n        /* \"#utility.yul\":16882:16921   */\n      tag_414\n        /* \"#utility.yul\":16919:16920   */\n      0x00\n        /* \"#utility.yul\":16912:16917   */\n      dup3\n        /* \"#utility.yul\":16882:16921   */\n      tag_225\n      jump\t// in\n    tag_414:\n        /* \"#utility.yul\":16855:16856   */\n      0x01\n        /* \"#utility.yul\":16848:16853   */\n      dup2\n        /* \"#utility.yul\":16844:16857   */\n      add\n        /* \"#utility.yul\":16835:16857   */\n      swap1\n      pop\n        /* \"#utility.yul\":16811:16931   */\n      jump(tag_411)\n    tag_413:\n        /* \"#utility.yul\":16751:16937   */\n      pop\n      pop\n      jump\t// out\n        /* \"#utility.yul\":16943:17486   */\n    tag_227:\n        /* \"#utility.yul\":17044:17046   */\n      0x1f\n        /* \"#utility.yul\":17039:17042   */\n      dup3\n        /* \"#utility.yul\":17036:17047   */\n      gt\n        /* \"#utility.yul\":17033:17479   */\n      iszero\n      tag_416\n      jumpi\n        /* \"#utility.yul\":17078:17116   */\n      tag_417\n        /* \"#utility.yul\":17110:17115   */\n      dup2\n        /* \"#utility.yul\":17078:17116   */\n      tag_216\n      jump\t// in\n    tag_417:\n        /* \"#utility.yul\":17162:17191   */\n      tag_418\n        /* \"#utility.yul\":17180:17190   */\n      dup5\n        /* \"#utility.yul\":17162:17191   */\n      tag_217\n      jump\t// in\n    tag_418:\n        /* \"#utility.yul\":17152:17160   */\n      dup2\n        /* \"#utility.yul\":17148:17192   */\n      add\n        /* \"#utility.yul\":17345:17347   */\n      0x20\n        /* \"#utility.yul\":17333:17343   */\n      dup6\n        /* \"#utility.yul\":17330:17348   */\n      lt\n        /* \"#utility.yul\":17327:17376   */\n      iszero\n      tag_419\n      jumpi\n        /* \"#utility.yul\":17366:17374   */\n      dup2\n        /* \"#utility.yul\":17351:17374   */\n      swap1\n      pop\n        /* \"#utility.yul\":17327:17376   */\n    tag_419:\n        /* \"#utility.yul\":17389:17469   */\n      tag_420\n        /* \"#utility.yul\":17445:17467   */\n      tag_421\n        /* \"#utility.yul\":17463:17466   */\n      dup6\n        /* \"#utility.yul\":17445:17467   */\n      tag_217\n      jump\t// in\n    tag_421:\n        /* \"#utility.yul\":17435:17443   */\n      dup4\n        /* \"#utility.yul\":17431:17468   */\n      add\n        /* \"#utility.yul\":17418:17429   */\n      dup3\n        /* \"#utility.yul\":17389:17469   */\n      tag_226\n      jump\t// in\n    tag_420:\n        /* \"#utility.yul\":17048:17479   */\n      pop\n      pop\n        /* \"#utility.yul\":17033:17479   */\n    tag_416:\n        /* \"#utility.yul\":16943:17486   */\n      pop\n      pop\n      pop\n      jump\t// out\n        /* \"#utility.yul\":17492:17609   */\n    tag_228:\n        /* \"#utility.yul\":17546:17554   */\n      0x00\n        /* \"#utility.yul\":17596:17601   */\n      dup3\n        /* \"#utility.yul\":17590:17594   */\n      dup3\n        /* \"#utility.yul\":17586:17602   */\n      shr\n        /* \"#utility.yul\":17565:17602   */\n      swap1\n      pop\n        /* \"#utility.yul\":17492:17609   */\n      swap3\n      swap2\n      pop\n      pop\n      jump\t// out\n        /* \"#utility.yul\":17615:17784   */\n    tag_229:\n        /* \"#utility.yul\":17659:17665   */\n      0x00\n        /* \"#utility.yul\":17692:17743   */\n      tag_424\n        /* \"#utility.yul\":17740:17741   */\n      0x00\n        /* \"#utility.yul\":17736:17742   */\n      not\n        /* \"#utility.yul\":17728:17733   */\n      dup5\n        /* \"#utility.yul\":17725:17726   */\n      0x08\n        /* \"#utility.yul\":17721:17734   */\n      mul\n        /* \"#utility.yul\":17692:17743   */\n      tag_228\n      jump\t// in\n    tag_424:\n        /* \"#utility.yul\":17688:17744   */\n      not\n        /* \"#utility.yul\":17773:17777   */\n      dup1\n        /* \"#utility.yul\":17767:17771   */\n      dup4\n        /* \"#utility.yul\":17763:17778   */\n      and\n        /* \"#utility.yul\":17753:17778   */\n      swap2\n      pop\n        /* \"#utility.yul\":17666:17784   */\n      pop\n        /* \"#utility.yul\":17615:17784   */\n      swap3\n      swap2\n      pop\n      pop\n      jump\t// out\n        /* \"#utility.yul\":17789:18084   */\n    tag_230:\n        /* \"#utility.yul\":17865:17869   */\n      0x00\n        /* \"#utility.yul\":18011:18040   */\n      tag_426\n        /* \"#utility.yul\":18036:18039   */\n      dup4\n        /* \"#utility.yul\":18030:18034   */\n      dup4\n        /* \"#utility.yul\":18011:18040   */\n      tag_229\n      jump\t// in\n    tag_426:\n        /* \"#utility.yul\":18003:18040   */\n      swap2\n      pop\n        /* \"#utility.yul\":18073:18076   */\n      dup3\n        /* \"#utility.yul\":18070:18071   */\n      0x02\n        /* \"#utility.yul\":18066:18077   */\n      mul\n        /* \"#utility.yul\":18060:18064   */\n      dup3\n        /* \"#utility.yul\":18057:18078   */\n      or\n        /* \"#utility.yul\":18049:18078   */\n      swap1\n      pop\n        /* \"#utility.yul\":17789:18084   */\n      swap3\n      swap2\n      pop\n      pop\n      jump\t// out\n        /* \"#utility.yul\":18089:19484   */\n    tag_99:\n        /* \"#utility.yul\":18206:18243   */\n      tag_428\n        /* \"#utility.yul\":18239:18242   */\n      dup3\n        /* \"#utility.yul\":18206:18243   */\n      tag_191\n      jump\t// in\n    tag_428:\n        /* \"#utility.yul\":18308:18326   */\n      0xffffffffffffffff\n        /* \"#utility.yul\":18300:18306   */\n      dup2\n        /* \"#utility.yul\":18297:18327   */\n      gt\n        /* \"#utility.yul\":18294:18350   */\n      iszero\n      tag_429\n      jumpi\n        /* \"#utility.yul\":18330:18348   */\n      tag_430\n      tag_109\n      jump\t// in\n    tag_430:\n        /* \"#utility.yul\":18294:18350   */\n    tag_429:\n        /* \"#utility.yul\":18374:18412   */\n      tag_431\n        /* \"#utility.yul\":18406:18410   */\n      dup3\n        /* \"#utility.yul\":18400:18411   */\n      sload\n        /* \"#utility.yul\":18374:18412   */\n      tag_85\n      jump\t// in\n    tag_431:\n        /* \"#utility.yul\":18459:18526   */\n      tag_432\n        /* \"#utility.yul\":18519:18525   */\n      dup3\n        /* \"#utility.yul\":18511:18517   */\n      dup3\n        /* \"#utility.yul\":18505:18509   */\n      dup6\n        /* \"#utility.yul\":18459:18526   */\n      tag_227\n      jump\t// in\n    tag_432:\n        /* \"#utility.yul\":18553:18554   */\n      0x00\n        /* \"#utility.yul\":18577:18581   */\n      0x20\n        /* \"#utility.yul\":18564:18581   */\n      swap1\n      pop\n        /* \"#utility.yul\":18609:18611   */\n      0x1f\n        /* \"#utility.yul\":18601:18607   */\n      dup4\n        /* \"#utility.yul\":18598:18612   */\n      gt\n        /* \"#utility.yul\":18626:18627   */\n      0x01\n        /* \"#utility.yul\":18621:19239   */\n      dup2\n      eq\n      tag_434\n      jumpi\n        /* \"#utility.yul\":19283:19284   */\n      0x00\n        /* \"#utility.yul\":19300:19306   */\n      dup5\n        /* \"#utility.yul\":19297:19374   */\n      iszero\n      tag_435\n      jumpi\n        /* \"#utility.yul\":19349:19358   */\n      dup3\n        /* \"#utility.yul\":19344:19347   */\n      dup8\n        /* \"#utility.yul\":19340:19359   */\n      add\n        /* \"#utility.yul\":19334:19360   */\n      mload\n        /* \"#utility.yul\":19325:19360   */\n      swap1\n      pop\n        /* \"#utility.yul\":19297:19374   */\n    tag_435:\n        /* \"#utility.yul\":19400:19467   */\n      tag_436\n        /* \"#utility.yul\":19460:19466   */\n      dup6\n        /* \"#utility.yul\":19453:19458   */\n      dup3\n        /* \"#utility.yul\":19400:19467   */\n      tag_230\n      jump\t// in\n    tag_436:\n        /* \"#utility.yul\":19394:19398   */\n      dup7\n        /* \"#utility.yul\":19387:19468   */\n      sstore\n        /* \"#utility.yul\":19256:19478   */\n      pop\n        /* \"#utility.yul\":18591:19478   */\n      jump(tag_433)\n        /* \"#utility.yul\":18621:19239   */\n    tag_434:\n        /* \"#utility.yul\":18673:18677   */\n      0x1f\n        /* \"#utility.yul\":18669:18678   */\n      not\n        /* \"#utility.yul\":18661:18667   */\n      dup5\n        /* \"#utility.yul\":18657:18679   */\n      and\n        /* \"#utility.yul\":18707:18744   */\n      tag_437\n        /* \"#utility.yul\":18739:18743   */\n      dup7\n        /* \"#utility.yul\":18707:18744   */\n      tag_216\n      jump\t// in\n    tag_437:\n        /* \"#utility.yul\":18766:18767   */\n      0x00\n        /* \"#utility.yul\":18780:18988   */\n    tag_438:\n        /* \"#utility.yul\":18794:18801   */\n      dup3\n        /* \"#utility.yul\":18791:18792   */\n      dup2\n        /* \"#utility.yul\":18788:18802   */\n      lt\n        /* \"#utility.yul\":18780:18988   */\n      iszero\n      tag_440\n      jumpi\n        /* \"#utility.yul\":18873:18882   */\n      dup5\n        /* \"#utility.yul\":18868:18871   */\n      dup10\n        /* \"#utility.yul\":18864:18883   */\n      add\n        /* \"#utility.yul\":18858:18884   */\n      mload\n        /* \"#utility.yul\":18850:18856   */\n      dup3\n        /* \"#utility.yul\":18843:18885   */\n      sstore\n        /* \"#utility.yul\":18924:18925   */\n      0x01\n        /* \"#utility.yul\":18916:18922   */\n      dup3\n        /* \"#utility.yul\":18912:18926   */\n      add\n        /* \"#utility.yul\":18902:18926   */\n      swap2\n      pop\n        /* \"#utility.yul\":18971:18973   */\n      0x20\n        /* \"#utility.yul\":18960:18969   */\n      dup6\n        /* \"#utility.yul\":18956:18974   */\n      add\n        /* \"#utility.yul\":18943:18974   */\n      swap5\n      pop\n        /* \"#utility.yul\":18817:18821   */\n      0x20\n        /* \"#utility.yul\":18814:18815   */\n      dup2\n        /* \"#utility.yul\":18810:18822   */\n      add\n        /* \"#utility.yul\":18805:18822   */\n      swap1\n      pop\n        /* \"#utility.yul\":18780:18988   */\n      jump(tag_438)\n    tag_440:\n        /* \"#utility.yul\":19016:19022   */\n      dup7\n        /* \"#utility.yul\":19007:19014   */\n      dup4\n        /* \"#utility.yul\":19004:19023   */\n      lt\n        /* \"#utility.yul\":19001:19180   */\n      iszero\n      tag_441\n      jumpi\n        /* \"#utility.yul\":19074:19083   */\n      dup5\n        /* \"#utility.yul\":19069:19072   */\n      dup10\n        /* \"#utility.yul\":19065:19084   */\n      add\n        /* \"#utility.yul\":19059:19085   */\n      mload\n        /* \"#utility.yul\":19117:19165   */\n      tag_442\n        /* \"#utility.yul\":19159:19163   */\n      0x1f\n        /* \"#utility.yul\":19151:19157   */\n      dup10\n        /* \"#utility.yul\":19147:19164   */\n      and\n        /* \"#utility.yul\":19136:19145   */\n      dup3\n        /* \"#utility.yul\":19117:19165   */\n      tag_229\n      jump\t// in\n    tag_442:\n        /* \"#utility.yul\":19109:19115   */\n      dup4\n        /* \"#utility.yul\":19102:19166   */\n      sstore\n        /* \"#utility.yul\":19024:19180   */\n      pop\n        /* \"#utility.yul\":19001:19180   */\n    tag_441:\n        /* \"#utility.yul\":19226:19227   */\n      0x01\n        /* \"#utility.yul\":19222:19223   */\n      0x02\n        /* \"#utility.yul\":19214:19220   */\n      dup9\n        /* \"#utility.yul\":19210:19224   */\n      mul\n        /* \"#utility.yul\":19206:19228   */\n      add\n        /* \"#utility.yul\":19200:19204   */\n      dup9\n        /* \"#utility.yul\":19193:19229   */\n      sstore\n        /* \"#utility.yul\":18628:19239   */\n      pop\n      pop\n      pop\n        /* \"#utility.yul\":18591:19478   */\n    tag_433:\n      pop\n        /* \"#utility.yul\":18181:19484   */\n      pop\n      pop\n      pop\n        /* \"#utility.yul\":18089:19484   */\n      pop\n      pop\n      jump\t// out\n        /* \"#utility.yul\":19490:19670   */\n    tag_231:\n        /* \"#utility.yul\":19538:19615   */\n      0x4e487b7100000000000000000000000000000000000000000000000000000000\n        /* \"#utility.yul\":19535:19536   */\n      0x00\n        /* \"#utility.yul\":19528:19616   */\n      mstore\n        /* \"#utility.yul\":19635:19639   */\n      0x11\n        /* \"#utility.yul\":19632:19633   */\n      0x04\n        /* \"#utility.yul\":19625:19640   */\n      mstore\n        /* \"#utility.yul\":19659:19663   */\n      0x24\n        /* \"#utility.yul\":19656:19657   */\n      0x00\n        /* \"#utility.yul\":19649:19664   */\n      revert\n        /* \"#utility.yul\":19676:19909   */\n    tag_101:\n        /* \"#utility.yul\":19715:19718   */\n      0x00\n        /* \"#utility.yul\":19738:19762   */\n      tag_445\n        /* \"#utility.yul\":19756:19761   */\n      dup3\n        /* \"#utility.yul\":19738:19762   */\n      tag_186\n      jump\t// in\n    tag_445:\n        /* \"#utility.yul\":19729:19762   */\n      swap2\n      pop\n        /* \"#utility.yul\":19784:19850   */\n      0xffffffffffffffffffffffffffffffffffffffffffffffffffffffffffffffff\n        /* \"#utility.yul\":19777:19782   */\n      dup3\n        /* \"#utility.yul\":19774:19851   */\n      sub\n        /* \"#utility.yul\":19771:19874   */\n      tag_446\n      jumpi\n        /* \"#utility.yul\":19854:19872   */\n      tag_447\n      tag_231\n      jump\t// in\n    tag_447:\n        /* \"#utility.yul\":19771:19874   */\n    tag_446:\n        /* \"#utility.yul\":19901:19902   */\n      0x01\n        /* \"#utility.yul\":19894:19899   */\n      dup3\n        /* \"#utility.yul\":19890:19903   */\n      add\n        /* \"#utility.yul\":19883:19903   */\n      swap1\n      pop\n        /* \"#utility.yul\":19676:19909   */\n      swap2\n      swap1\n      pop\n      jump\t// out\n        /* \"#utility.yul\":19915:20076   */\n    tag_232:\n        /* \"#utility.yul\":20055:20068   */\n      0x57726f6e6720696e707574000000000000000000000000000000000000000000\n        /* \"#utility.yul\":20051:20052   */\n      0x00\n        /* \"#utility.yul\":20043:20049   */\n      dup3\n        /* \"#utility.yul\":20039:20053   */\n      add\n        /* \"#utility.yul\":20032:20069   */\n      mstore\n        /* \"#utility.yul\":19915:20076   */\n      pop\n      jump\t// out\n        /* \"#utility.yul\":20082:20448   */\n    tag_233:\n        /* \"#utility.yul\":20224:20227   */\n      0x00\n        /* \"#utility.yul\":20245:20312   */\n      tag_450\n        /* \"#utility.yul\":20309:20311   */\n      0x0b\n        /* \"#utility.yul\":20304:20307   */\n      dup4\n        /* \"#utility.yul\":20245:20312   */\n      tag_192\n      jump\t// in\n    tag_450:\n        /* \"#utility.yul\":20238:20312   */\n      swap2\n      pop\n        /* \"#utility.yul\":20321:20414   */\n      tag_451\n        /* \"#utility.yul\":20410:20413   */\n      dup3\n        /* \"#utility.yul\":20321:20414   */\n      tag_232\n      jump\t// in\n    tag_451:\n        /* \"#utility.yul\":20439:20441   */\n      0x20\n        /* \"#utility.yul\":20434:20437   */\n      dup3\n        /* \"#utility.yul\":20430:20442   */\n      add\n        /* \"#utility.yul\":20423:20442   */\n      swap1\n      pop\n        /* \"#utility.yul\":20082:20448   */\n      swap2\n      swap1\n      pop\n      jump\t// out\n        /* \"#utility.yul\":20454:20873   */\n    tag_106:\n        /* \"#utility.yul\":20620:20624   */\n      0x00\n        /* \"#utility.yul\":20658:20660   */\n      0x20\n        /* \"#utility.yul\":20647:20656   */\n      dup3\n        /* \"#utility.yul\":20643:20661   */\n      add\n        /* \"#utility.yul\":20635:20661   */\n      swap1\n      pop\n        /* \"#utility.yul\":20707:20716   */\n      dup2\n        /* \"#utility.yul\":20701:20705   */\n      dup2\n        /* \"#utility.yul\":20697:20717   */\n      sub\n        /* \"#utility.yul\":20693:20694   */\n      0x00\n        /* \"#utility.yul\":20682:20691   */\n      dup4\n        /* \"#utility.yul\":20678:20695   */\n      add\n        /* \"#utility.yul\":20671:20718   */\n      mstore\n        /* \"#utility.yul\":20735:20866   */\n      tag_453\n        /* \"#utility.yul\":20861:20865   */\n      dup2\n        /* \"#utility.yul\":20735:20866   */\n      tag_233\n      jump\t// in\n    tag_453:\n        /* \"#utility.yul\":20727:20866   */\n      swap1\n      pop\n        /* \"#utility.yul\":20454:20873   */\n      swap2\n      swap1\n      pop\n      jump\t// out\n        /* \"#utility.yul\":20879:21073   */\n    tag_118:\n        /* \"#utility.yul\":20919:20923   */\n      0x00\n        /* \"#utility.yul\":20939:20959   */\n      tag_455\n        /* \"#utility.yul\":20957:20958   */\n      dup3\n        /* \"#utility.yul\":20939:20959   */\n      tag_186\n      jump\t// in\n    tag_455:\n        /* \"#utility.yul\":20934:20959   */\n      swap2\n      pop\n        /* \"#utility.yul\":20973:20993   */\n      tag_456\n        /* \"#utility.yul\":20991:20992   */\n      dup4\n        /* \"#utility.yul\":20973:20993   */\n      tag_186\n      jump\t// in\n    tag_456:\n        /* \"#utility.yul\":20968:20993   */\n      swap3\n      pop\n        /* \"#utility.yul\":21017:21018   */\n      dup3\n        /* \"#utility.yul\":21014:21015   */\n      dup3\n        /* \"#utility.yul\":21010:21019   */\n      sub\n        /* \"#utility.yul\":21002:21019   */\n      swap1\n      pop\n        /* \"#utility.yul\":21041:21042   */\n      dup2\n        /* \"#utility.yul\":21035:21039   */\n      dup2\n        /* \"#utility.yul\":21032:21043   */\n      gt\n        /* \"#utility.yul\":21029:21066   */\n      iszero\n      tag_457\n      jumpi\n        /* \"#utility.yul\":21046:21064   */\n      tag_458\n      tag_231\n      jump\t// in\n    tag_458:\n        /* \"#utility.yul\":21029:21066   */\n    tag_457:\n        /* \"#utility.yul\":20879:21073   */\n      swap3\n      swap2\n      pop\n      pop\n      jump\t// out\n        /* \"#utility.yul\":21079:21259   */\n    tag_126:\n        /* \"#utility.yul\":21127:21204   */\n      0x4e487b7100000000000000000000000000000000000000000000000000000000\n        /* \"#utility.yul\":21124:21125   */\n      0x00\n        /* \"#utility.yul\":21117:21205   */\n      mstore\n        /* \"#utility.yul\":21224:21228   */\n      0x32\n        /* \"#utility.yul\":21221:21222   */\n      0x04\n        /* \"#utility.yul\":21214:21229   */\n      mstore\n        /* \"#utility.yul\":21248:21252   */\n      0x24\n        /* \"#utility.yul\":21245:21246   */\n      0x00\n        /* \"#utility.yul\":21238:21253   */\n      revert\n        /* \"#utility.yul\":21265:21428   */\n    tag_234:\n        /* \"#utility.yul\":21405:21420   */\n      0x496e76616c696420636f756e7400000000000000000000000000000000000000\n        /* \"#utility.yul\":21401:21402   */\n      0x00\n        /* \"#utility.yul\":21393:21399   */\n      dup3\n        /* \"#utility.yul\":21389:21403   */\n      add\n        /* \"#utility.yul\":21382:21421   */\n      mstore\n        /* \"#utility.yul\":21265:21428   */\n      pop\n      jump\t// out\n        /* \"#utility.yul\":21434:21800   */\n    tag_235:\n        /* \"#utility.yul\":21576:21579   */\n      0x00\n        /* \"#utility.yul\":21597:21664   */\n      tag_462\n        /* \"#utility.yul\":21661:21663   */\n      0x0d\n        /* \"#utility.yul\":21656:21659   */\n      dup4\n        /* \"#utility.yul\":21597:21664   */\n      tag_192\n      jump\t// in\n    tag_462:\n        /* \"#utility.yul\":21590:21664   */\n      swap2\n      pop\n        /* \"#utility.yul\":21673:21766   */\n      tag_463\n        /* \"#utility.yul\":21762:21765   */\n      dup3\n        /* \"#utility.yul\":21673:21766   */\n      tag_234\n      jump\t// in\n    tag_463:\n        /* \"#utility.yul\":21791:21793   */\n      0x20\n        /* \"#utility.yul\":21786:21789   */\n      dup3\n        /* \"#utility.yul\":21782:21794   */\n      add\n        /* \"#utility.yul\":21775:21794   */\n      swap1\n      pop\n        /* \"#utility.yul\":21434:21800   */\n      swap2\n      swap1\n      pop\n      jump\t// out\n        /* \"#utility.yul\":21806:22225   */\n    tag_138:\n        /* \"#utility.yul\":21972:21976   */\n      0x00\n        /* \"#utility.yul\":22010:22012   */\n      0x20\n        /* \"#utility.yul\":21999:22008   */\n      dup3\n        /* \"#utility.yul\":21995:22013   */\n      add\n        /* \"#utility.yul\":21987:22013   */\n      swap1\n      pop\n        /* \"#utility.yul\":22059:22068   */\n      dup2\n        /* \"#utility.yul\":22053:22057   */\n      dup2\n        /* \"#utility.yul\":22049:22069   */\n      sub\n        /* \"#utility.yul\":22045:22046   */\n      0x00\n        /* \"#utility.yul\":22034:22043   */\n      dup4\n        /* \"#utility.yul\":22030:22047   */\n      add\n        /* \"#utility.yul\":22023:22070   */\n      mstore\n        /* \"#utility.yul\":22087:22218   */\n      tag_465\n        /* \"#utility.yul\":22213:22217   */\n      dup2\n        /* \"#utility.yul\":22087:22218   */\n      tag_235\n      jump\t// in\n    tag_465:\n        /* \"#utility.yul\":22079:22218   */\n      swap1\n      pop\n        /* \"#utility.yul\":21806:22225   */\n      swap2\n      swap1\n      pop\n      jump\t// out\n        /* \"#utility.yul\":22231:22422   */\n    tag_149:\n        /* \"#utility.yul\":22271:22274   */\n      0x00\n        /* \"#utility.yul\":22290:22310   */\n      tag_467\n        /* \"#utility.yul\":22308:22309   */\n      dup3\n        /* \"#utility.yul\":22290:22310   */\n      tag_186\n      jump\t// in\n    tag_467:\n        /* \"#utility.yul\":22285:22310   */\n      swap2\n      pop\n        /* \"#utility.yul\":22324:22344   */\n      tag_468\n        /* \"#utility.yul\":22342:22343   */\n      dup4\n        /* \"#utility.yul\":22324:22344   */\n      tag_186\n      jump\t// in\n    tag_468:\n        /* \"#utility.yul\":22319:22344   */\n      swap3\n      pop\n        /* \"#utility.yul\":22367:22368   */\n      dup3\n        /* \"#utility.yul\":22364:22365   */\n      dup3\n        /* \"#utility.yul\":22360:22369   */\n      add\n        /* \"#utility.yul\":22353:22369   */\n      swap1\n      pop\n        /* \"#utility.yul\":22388:22391   */\n      dup1\n        /* \"#utility.yul\":22385:22386   */\n      dup3\n        /* \"#utility.yul\":22382:22392   */\n      gt\n        /* \"#utility.yul\":22379:22415   */\n      iszero\n      tag_469\n      jumpi\n        /* \"#utility.yul\":22395:22413   */\n      tag_470\n      tag_231\n      jump\t// in\n    tag_470:\n        /* \"#utility.yul\":22379:22415   */\n    tag_469:\n        /* \"#utility.yul\":22231:22422   */\n      swap3\n      swap2\n      pop\n      pop\n      jump\t// out\n        /* \"#utility.yul\":22428:22590   */\n    tag_236:\n        /* \"#utility.yul\":22568:22582   */\n      0x556e617574686f72697a65640000000000000000000000000000000000000000\n        /* \"#utility.yul\":22564:22565   */\n      0x00\n        /* \"#utility.yul\":22556:22562   */\n      dup3\n        /* \"#utility.yul\":22552:22566   */\n      add\n        /* \"#utility.yul\":22545:22583   */\n      mstore\n        /* \"#utility.yul\":22428:22590   */\n      pop\n      jump\t// out\n        /* \"#utility.yul\":22596:22962   */\n    tag_237:\n        /* \"#utility.yul\":22738:22741   */\n      0x00\n        /* \"#utility.yul\":22759:22826   */\n      tag_473\n        /* \"#utility.yul\":22823:22825   */\n      0x0c\n        /* \"#utility.yul\":22818:22821   */\n      dup4\n        /* \"#utility.yul\":22759:22826   */\n      tag_192\n      jump\t// in\n    tag_473:\n        /* \"#utility.yul\":22752:22826   */\n      swap2\n      pop\n        /* \"#utility.yul\":22835:22928   */\n      tag_474\n        /* \"#utility.yul\":22924:22927   */\n      dup3\n        /* \"#utility.yul\":22835:22928   */\n      tag_236\n      jump\t// in\n    tag_474:\n        /* \"#utility.yul\":22953:22955   */\n      0x20\n        /* \"#utility.yul\":22948:22951   */\n      dup3\n        /* \"#utility.yul\":22944:22956   */\n      add\n        /* \"#utility.yul\":22937:22956   */\n      swap1\n      pop\n        /* \"#utility.yul\":22596:22962   */\n      swap2\n      swap1\n      pop\n      jump\t// out\n        /* \"#utility.yul\":22968:23387   */\n    tag_173:\n        /* \"#utility.yul\":23134:23138   */\n      0x00\n        /* \"#utility.yul\":23172:23174   */\n      0x20\n        /* \"#utility.yul\":23161:23170   */\n      dup3\n        /* \"#utility.yul\":23157:23175   */\n      add\n        /* \"#utility.yul\":23149:23175   */\n      swap1\n      pop\n        /* \"#utility.yul\":23221:23230   */\n      dup2\n        /* \"#utility.yul\":23215:23219   */\n      dup2\n        /* \"#utility.yul\":23211:23231   */\n      sub\n        /* \"#utility.yul\":23207:23208   */\n      0x00\n        /* \"#utility.yul\":23196:23205   */\n      dup4\n        /* \"#utility.yul\":23192:23209   */\n      add\n        /* \"#utility.yul\":23185:23232   */\n      mstore\n        /* \"#utility.yul\":23249:23380   */\n      tag_476\n        /* \"#utility.yul\":23375:23379   */\n      dup2\n        /* \"#utility.yul\":23249:23380   */\n      tag_237\n      jump\t// in\n    tag_476:\n        /* \"#utility.yul\":23241:23380   */\n      swap1\n      pop\n        /* \"#utility.yul\":22968:23387   */\n      swap2\n      swap1\n      pop\n      jump\t// out\n\n    auxdata: 0xa26469706673582212209ad3a97c9cc5b62dea8495e274dae57dd9b01d5f96198080e3775c267b2e7ccb64736f6c634300081a0033\n}\n",
				"bytecode": {
					"linkReferences": {},
					"object": "6080604052348015600e575f80fd5b50611c648061001c5f395ff3fe608060405234801561000f575f80fd5b50600436106100e8575f3560e01c806366ebcabd1161008a578063ce336dad11610064578063ce336dad1461026c578063e8d857b01461029c578063fb46d4c5146102cf578063fd33c98f146102eb576100e8565b806366ebcabd146102045780639139cda514610220578063a83d00ed14610250576100e8565b80634fac1bb3116100c65780634fac1bb31461016c578063517223b5146101885780635a1692b6146101b85780636188d3b3146101d4576100e8565b80632637588e146100ec5780633befea091461011c5780634dbf27cc14610150575b5f80fd5b610106600480360381019061010191906110b2565b610307565b604051610113919061110a565b60405180910390f35b61013660048036038101906101319190611156565b610331565b604051610147959493929190611222565b60405180910390f35b61016a6004803603810190610165919061127a565b610441565b005b610186600480360381019061018191906113d1565b6104df565b005b6101a2600480360381019061019d9190611156565b6104ee565b6040516101af919061142b565b60405180910390f35b6101d260048036038101906101cd9190611444565b610519565b005b6101ee60048036038101906101e991906114b0565b6106a3565b6040516101fb919061165c565b60405180910390f35b61021e6004803603810190610219919061127a565b6108bf565b005b61023a60048036038101906102359190611156565b610951565b604051610247919061167c565b60405180910390f35b61026a6004803603810190610265919061127a565b610999565b005b61028660048036038101906102819190611156565b610a2c565b604051610293919061165c565b60405180910390f35b6102b660048036038101906102b191906114b0565b610ceb565b6040516102c69493929190611695565b60405180910390f35b6102e960048036038101906102e491906116df565b610dbb565b005b61030560048036038101906103009190611444565b610dc8565b005b6003602052815f5260405f20602052805f5260405f205f915091509054906101000a900460ff1681565b6002602052815f5260405f20818154811061034a575f80fd5b905f5260205f2090600502015f9150915050805f015490806001015f9054906101000a900473ffffffffffffffffffffffffffffffffffffffff1690806002015f9054906101000a900473ffffffffffffffffffffffffffffffffffffffff16908060030180546103ba90611753565b80601f01602080910402602001604051908101604052809291908181526020018280546103e690611753565b80156104315780601f1061040857610100808354040283529160200191610431565b820191905f5260205f20905b81548152906001019060200180831161041457829003601f168201915b5050505050908060040154905085565b60045f3373ffffffffffffffffffffffffffffffffffffffff1673ffffffffffffffffffffffffffffffffffffffff1681526020019081526020015f2081908060018154018082558091505060019003905f5260205f20015f9091909190916101000a81548173ffffffffffffffffffffffffffffffffffffffff021916908373ffffffffffffffffffffffffffffffffffffffff16021790555050565b6104ea338383610519565b5050565b6001602052815f5260405f208181548110610507575f80fd5b905f5260205f20015f91509150505481565b60025f8473ffffffffffffffffffffffffffffffffffffffff1673ffffffffffffffffffffffffffffffffffffffff1681526020019081526020015f206040518060a0016040528060065481526020018573ffffffffffffffffffffffffffffffffffffffff1681526020018473ffffffffffffffffffffffffffffffffffffffff16815260200183815260200142815250908060018154018082558091505060019003905f5260205f2090600502015f909190919091505f820151815f01556020820151816001015f6101000a81548173ffffffffffffffffffffffffffffffffffffffff021916908373ffffffffffffffffffffffffffffffffffffffff1602179055506040820151816002015f6101000a81548173ffffffffffffffffffffffffffffffffffffffff021916908373ffffffffffffffffffffffffffffffffffffffff160217905550606082015181600301908161067a9190611920565b5060808201518160040155505060065f81548092919061069990611a1c565b9190505550505050565b60605f821180156106b5575060055482105b6106f4576040517f08c379a00000000000000000000000000000000000000000000000000000000081526004016106eb90611aad565b60405180910390fd5b5f8267ffffffffffffffff81111561070f5761070e6112ad565b5b60405190808252806020026020018201604052801561074857816020015b61073561100c565b81526020019060019003908161072d5790505b5090505f808460055461075b9190611acb565b90505b6005548110156108b4575f808281526020019081526020015f206040518060800160405290815f8201548152602001600182015f9054906101000a900473ffffffffffffffffffffffffffffffffffffffff1673ffffffffffffffffffffffffffffffffffffffff1673ffffffffffffffffffffffffffffffffffffffff1681526020016002820180546107f190611753565b80601f016020809104026020016040519081016040528092919081815260200182805461081d90611753565b80156108685780601f1061083f57610100808354040283529160200191610868565b820191905f5260205f20905b81548152906001019060200180831161084b57829003601f168201915b5050505050815260200160038201548152505083838151811061088e5761088d611afe565b5b602002602001018190525081806108a490611a1c565b925050808060010191505061075e565b508192505050919050565b5f60035f3373ffffffffffffffffffffffffffffffffffffffff1673ffffffffffffffffffffffffffffffffffffffff1681526020019081526020015f205f8373ffffffffffffffffffffffffffffffffffffffff1673ffffffffffffffffffffffffffffffffffffffff1681526020019081526020015f205f6101000a81548160ff02191690831515021790555050565b6004602052815f5260405f20818154811061096a575f80fd5b905f5260205f20015f915091509054906101000a900473ffffffffffffffffffffffffffffffffffffffff1681565b600160035f3373ffffffffffffffffffffffffffffffffffffffff1673ffffffffffffffffffffffffffffffffffffffff1681526020019081526020015f205f8373ffffffffffffffffffffffffffffffffffffffff1673ffffffffffffffffffffffffffffffffffffffff1681526020019081526020015f205f6101000a81548160ff02191690831515021790555050565b60605f60015f8573ffffffffffffffffffffffffffffffffffffffff1673ffffffffffffffffffffffffffffffffffffffff1681526020019081526020015f20805480602002602001604051908101604052809291908181526020018280548015610ab457602002820191905f5260205f20905b815481526020019060010190808311610aa0575b505050505090505f83118015610acb575080518311155b610b0a576040517f08c379a0000000000000000000000000000000000000000000000000000000008152600401610b0190611b75565b60405180910390fd5b5f8367ffffffffffffffff811115610b2557610b246112ad565b5b604051908082528060200260200182016040528015610b5e57816020015b610b4b61100c565b815260200190600190039081610b435790505b5090505f848351610b6f9190611acb565b90505f5b85811015610cde575f80858385610b8a9190611b93565b81518110610b9b57610b9a611afe565b5b602002602001015181526020019081526020015f206040518060800160405290815f8201548152602001600182015f9054906101000a900473ffffffffffffffffffffffffffffffffffffffff1673ffffffffffffffffffffffffffffffffffffffff1673ffffffffffffffffffffffffffffffffffffffff168152602001600282018054610c2990611753565b80601f0160208091040260200160405190810160405280929190818152602001828054610c5590611753565b8015610ca05780601f10610c7757610100808354040283529160200191610ca0565b820191905f5260205f20905b815481529060010190602001808311610c8357829003601f168201915b50505050508152602001600382015481525050838281518110610cc657610cc5611afe565b5b60200260200101819052508080600101915050610b73565b5081935050505092915050565b5f602052805f5260405f205f91509050805f015490806001015f9054906101000a900473ffffffffffffffffffffffffffffffffffffffff1690806002018054610d3490611753565b80601f0160208091040260200160405190810160405280929190818152602001828054610d6090611753565b8015610dab5780601f10610d8257610100808354040283529160200191610dab565b820191905f5260205f20905b815481529060010190602001808311610d8e57829003601f168201915b5050505050908060030154905084565b610dc53382610dd8565b50565b610dd3838383610519565b505050565b8173ffffffffffffffffffffffffffffffffffffffff163373ffffffffffffffffffffffffffffffffffffffff161480610e93575060035f3373ffffffffffffffffffffffffffffffffffffffff1673ffffffffffffffffffffffffffffffffffffffff1681526020019081526020015f205f8373ffffffffffffffffffffffffffffffffffffffff1673ffffffffffffffffffffffffffffffffffffffff1681526020019081526020015f205f9054906101000a900460ff165b610ed2576040517f08c379a0000000000000000000000000000000000000000000000000000000008152600401610ec990611c10565b60405180910390fd5b604051806080016040528060055481526020018373ffffffffffffffffffffffffffffffffffffffff168152602001828152602001428152505f8060055481526020019081526020015f205f820151815f01556020820151816001015f6101000a81548173ffffffffffffffffffffffffffffffffffffffff021916908373ffffffffffffffffffffffffffffffffffffffff1602179055506040820151816002019081610f809190611920565b506060820151816003015590505060015f8373ffffffffffffffffffffffffffffffffffffffff1673ffffffffffffffffffffffffffffffffffffffff1681526020019081526020015f20600554908060018154018082558091505060019003905f5260205f20015f909190919091505560055f81548092919061100390611a1c565b91905055505050565b60405180608001604052805f81526020015f73ffffffffffffffffffffffffffffffffffffffff168152602001606081526020015f81525090565b5f604051905090565b5f80fd5b5f80fd5b5f73ffffffffffffffffffffffffffffffffffffffff82169050919050565b5f61108182611058565b9050919050565b61109181611077565b811461109b575f80fd5b50565b5f813590506110ac81611088565b92915050565b5f80604083850312156110c8576110c7611050565b5b5f6110d58582860161109e565b92505060206110e68582860161109e565b9150509250929050565b5f8115159050919050565b611104816110f0565b82525050565b5f60208201905061111d5f8301846110fb565b92915050565b5f819050919050565b61113581611123565b811461113f575f80fd5b50565b5f813590506111508161112c565b92915050565b5f806040838503121561116c5761116b611050565b5b5f6111798582860161109e565b925050602061118a85828601611142565b9150509250929050565b61119d81611123565b82525050565b6111ac81611077565b82525050565b5f81519050919050565b5f82825260208201905092915050565b8281835e5f83830152505050565b5f601f19601f8301169050919050565b5f6111f4826111b2565b6111fe81856111bc565b935061120e8185602086016111cc565b611217816111da565b840191505092915050565b5f60a0820190506112355f830188611194565b61124260208301876111a3565b61124f60408301866111a3565b818103606083015261126181856111ea565b90506112706080830184611194565b9695505050505050565b5f6020828403121561128f5761128e611050565b5b5f61129c8482850161109e565b91505092915050565b5f80fd5b5f80fd5b7f4e487b71000000000000000000000000000000000000000000000000000000005f52604160045260245ffd5b6112e3826111da565b810181811067ffffffffffffffff82111715611302576113016112ad565b5b80604052505050565b5f611314611047565b905061132082826112da565b919050565b5f67ffffffffffffffff82111561133f5761133e6112ad565b5b611348826111da565b9050602081019050919050565b828183375f83830152505050565b5f61137561137084611325565b61130b565b905082815260208101848484011115611391576113906112a9565b5b61139c848285611355565b509392505050565b5f82601f8301126113b8576113b76112a5565b5b81356113c8848260208601611363565b91505092915050565b5f80604083850312156113e7576113e6611050565b5b5f6113f48582860161109e565b925050602083013567ffffffffffffffff81111561141557611414611054565b5b611421858286016113a4565b9150509250929050565b5f60208201905061143e5f830184611194565b92915050565b5f805f6060848603121561145b5761145a611050565b5b5f6114688682870161109e565b93505060206114798682870161109e565b925050604084013567ffffffffffffffff81111561149a57611499611054565b5b6114a6868287016113a4565b9150509250925092565b5f602082840312156114c5576114c4611050565b5b5f6114d284828501611142565b91505092915050565b5f81519050919050565b5f82825260208201905092915050565b5f819050602082019050919050565b61150d81611123565b82525050565b61151c81611077565b82525050565b5f82825260208201905092915050565b5f61153c826111b2565b6115468185611522565b93506115568185602086016111cc565b61155f816111da565b840191505092915050565b5f608083015f83015161157f5f860182611504565b5060208301516115926020860182611513565b50604083015184820360408601526115aa8282611532565b91505060608301516115bf6060860182611504565b508091505092915050565b5f6115d5838361156a565b905092915050565b5f602082019050919050565b5f6115f3826114db565b6115fd81856114e5565b93508360208202850161160f856114f5565b805f5b8581101561164a578484038952815161162b85826115ca565b9450611636836115dd565b925060208a01995050600181019050611612565b50829750879550505050505092915050565b5f6020820190508181035f83015261167481846115e9565b905092915050565b5f60208201905061168f5f8301846111a3565b92915050565b5f6080820190506116a85f830187611194565b6116b560208301866111a3565b81810360408301526116c781856111ea565b90506116d66060830184611194565b95945050505050565b5f602082840312156116f4576116f3611050565b5b5f82013567ffffffffffffffff81111561171157611710611054565b5b61171d848285016113a4565b91505092915050565b7f4e487b71000000000000000000000000000000000000000000000000000000005f52602260045260245ffd5b5f600282049050600182168061176a57607f821691505b60208210810361177d5761177c611726565b5b50919050565b5f819050815f5260205f209050919050565b5f6020601f8301049050919050565b5f82821b905092915050565b5f600883026117df7fffffffffffffffffffffffffffffffffffffffffffffffffffffffffffffffff826117a4565b6117e986836117a4565b95508019841693508086168417925050509392505050565b5f819050919050565b5f61182461181f61181a84611123565b611801565b611123565b9050919050565b5f819050919050565b61183d8361180a565b6118516118498261182b565b8484546117b0565b825550505050565b5f90565b611865611859565b611870818484611834565b505050565b5b81811015611893576118885f8261185d565b600181019050611876565b5050565b601f8211156118d8576118a981611783565b6118b284611795565b810160208510156118c1578190505b6118d56118cd85611795565b830182611875565b50505b505050565b5f82821c905092915050565b5f6118f85f19846008026118dd565b1980831691505092915050565b5f61191083836118e9565b9150826002028217905092915050565b611929826111b2565b67ffffffffffffffff811115611942576119416112ad565b5b61194c8254611753565b611957828285611897565b5f60209050601f831160018114611988575f8415611976578287015190505b6119808582611905565b8655506119e7565b601f19841661199686611783565b5f5b828110156119bd57848901518255600182019150602085019450602081019050611998565b868310156119da57848901516119d6601f8916826118e9565b8355505b6001600288020188555050505b505050505050565b7f4e487b71000000000000000000000000000000000000000000000000000000005f52601160045260245ffd5b5f611a2682611123565b91507fffffffffffffffffffffffffffffffffffffffffffffffffffffffffffffffff8203611a5857611a576119ef565b5b600182019050919050565b7f57726f6e6720696e7075740000000000000000000000000000000000000000005f82015250565b5f611a97600b836111bc565b9150611aa282611a63565b602082019050919050565b5f6020820190508181035f830152611ac481611a8b565b9050919050565b5f611ad582611123565b9150611ae083611123565b9250828203905081811115611af857611af76119ef565b5b92915050565b7f4e487b71000000000000000000000000000000000000000000000000000000005f52603260045260245ffd5b7f496e76616c696420636f756e74000000000000000000000000000000000000005f82015250565b5f611b5f600d836111bc565b9150611b6a82611b2b565b602082019050919050565b5f6020820190508181035f830152611b8c81611b53565b9050919050565b5f611b9d82611123565b9150611ba883611123565b9250828201905080821115611bc057611bbf6119ef565b5b92915050565b7f556e617574686f72697a656400000000000000000000000000000000000000005f82015250565b5f611bfa600c836111bc565b9150611c0582611bc6565b602082019050919050565b5f6020820190508181035f830152611c2781611bee565b905091905056fea26469706673582212209ad3a97c9cc5b62dea8495e274dae57dd9b01d5f96198080e3775c267b2e7ccb64736f6c634300081a0033",
					"opcodes": "PUSH1 0x80 PUSH1 0x40 MSTORE CALLVALUE DUP1 ISZERO PUSH1 0xE JUMPI PUSH0 DUP1 REVERT JUMPDEST POP PUSH2 0x1C64 DUP1 PUSH2 0x1C PUSH0 CODECOPY PUSH0 RETURN INVALID PUSH1 0x80 PUSH1 0x40 MSTORE CALLVALUE DUP1 ISZERO PUSH2 0xF JUMPI PUSH0 DUP1 REVERT JUMPDEST POP PUSH1 0x4 CALLDATASIZE LT PUSH2 0xE8 JUMPI PUSH0 CALLDATALOAD PUSH1 0xE0 SHR DUP1 PUSH4 0x66EBCABD GT PUSH2 0x8A JUMPI DUP1 PUSH4 0xCE336DAD GT PUSH2 0x64 JUMPI DUP1 PUSH4 0xCE336DAD EQ PUSH2 0x26C JUMPI DUP1 PUSH4 0xE8D857B0 EQ PUSH2 0x29C JUMPI DUP1 PUSH4 0xFB46D4C5 EQ PUSH2 0x2CF JUMPI DUP1 PUSH4 0xFD33C98F EQ PUSH2 0x2EB JUMPI PUSH2 0xE8 JUMP JUMPDEST DUP1 PUSH4 0x66EBCABD EQ PUSH2 0x204 JUMPI DUP1 PUSH4 0x9139CDA5 EQ PUSH2 0x220 JUMPI DUP1 PUSH4 0xA83D00ED EQ PUSH2 0x250 JUMPI PUSH2 0xE8 JUMP JUMPDEST DUP1 PUSH4 0x4FAC1BB3 GT PUSH2 0xC6 JUMPI DUP1 PUSH4 0x4FAC1BB3 EQ PUSH2 0x16C JUMPI DUP1 PUSH4 0x517223B5 EQ PUSH2 0x188 JUMPI DUP1 PUSH4 0x5A1692B6 EQ PUSH2 0x1B8 JUMPI DUP1 PUSH4 0x6188D3B3 EQ PUSH2 0x1D4 JUMPI PUSH2 0xE8 JUMP JUMPDEST DUP1 PUSH4 0x2637588E EQ PUSH2 0xEC JUMPI DUP1 PUSH4 0x3BEFEA09 EQ PUSH2 0x11C JUMPI DUP1 PUSH4 0x4DBF27CC EQ PUSH2 0x150 JUMPI JUMPDEST PUSH0 DUP1 REVERT JUMPDEST PUSH2 0x106 PUSH1 0x4 DUP1 CALLDATASIZE SUB DUP2 ADD SWAP1 PUSH2 0x101 SWAP2 SWAP1 PUSH2 0x10B2 JUMP JUMPDEST PUSH2 0x307 JUMP JUMPDEST PUSH1 0x40 MLOAD PUSH2 0x113 SWAP2 SWAP1 PUSH2 0x110A JUMP JUMPDEST PUSH1 0x40 MLOAD DUP1 SWAP2 SUB SWAP1 RETURN JUMPDEST PUSH2 0x136 PUSH1 0x4 DUP1 CALLDATASIZE SUB DUP2 ADD SWAP1 PUSH2 0x131 SWAP2 SWAP1 PUSH2 0x1156 JUMP JUMPDEST PUSH2 0x331 JUMP JUMPDEST PUSH1 0x40 MLOAD PUSH2 0x147 SWAP6 SWAP5 SWAP4 SWAP3 SWAP2 SWAP1 PUSH2 0x1222 JUMP JUMPDEST PUSH1 0x40 MLOAD DUP1 SWAP2 SUB SWAP1 RETURN JUMPDEST PUSH2 0x16A PUSH1 0x4 DUP1 CALLDATASIZE SUB DUP2 ADD SWAP1 PUSH2 0x165 SWAP2 SWAP1 PUSH2 0x127A JUMP JUMPDEST PUSH2 0x441 JUMP JUMPDEST STOP JUMPDEST PUSH2 0x186 PUSH1 0x4 DUP1 CALLDATASIZE SUB DUP2 ADD SWAP1 PUSH2 0x181 SWAP2 SWAP1 PUSH2 0x13D1 JUMP JUMPDEST PUSH2 0x4DF JUMP JUMPDEST STOP JUMPDEST PUSH2 0x1A2 PUSH1 0x4 DUP1 CALLDATASIZE SUB DUP2 ADD SWAP1 PUSH2 0x19D SWAP2 SWAP1 PUSH2 0x1156 JUMP JUMPDEST PUSH2 0x4EE JUMP JUMPDEST PUSH1 0x40 MLOAD PUSH2 0x1AF SWAP2 SWAP1 PUSH2 0x142B JUMP JUMPDEST PUSH1 0x40 MLOAD DUP1 SWAP2 SUB SWAP1 RETURN JUMPDEST PUSH2 0x1D2 PUSH1 0x4 DUP1 CALLDATASIZE SUB DUP2 ADD SWAP1 PUSH2 0x1CD SWAP2 SWAP1 PUSH2 0x1444 JUMP JUMPDEST PUSH2 0x519 JUMP JUMPDEST STOP JUMPDEST PUSH2 0x1EE PUSH1 0x4 DUP1 CALLDATASIZE SUB DUP2 ADD SWAP1 PUSH2 0x1E9 SWAP2 SWAP1 PUSH2 0x14B0 JUMP JUMPDEST PUSH2 0x6A3 JUMP JUMPDEST PUSH1 0x40 MLOAD PUSH2 0x1FB SWAP2 SWAP1 PUSH2 0x165C JUMP JUMPDEST PUSH1 0x40 MLOAD DUP1 SWAP2 SUB SWAP1 RETURN JUMPDEST PUSH2 0x21E PUSH1 0x4 DUP1 CALLDATASIZE SUB DUP2 ADD SWAP1 PUSH2 0x219 SWAP2 SWAP1 PUSH2 0x127A JUMP JUMPDEST PUSH2 0x8BF JUMP JUMPDEST STOP JUMPDEST PUSH2 0x23A PUSH1 0x4 DUP1 CALLDATASIZE SUB DUP2 ADD SWAP1 PUSH2 0x235 SWAP2 SWAP1 PUSH2 0x1156 JUMP JUMPDEST PUSH2 0x951 JUMP JUMPDEST PUSH1 0x40 MLOAD PUSH2 0x247 SWAP2 SWAP1 PUSH2 0x167C JUMP JUMPDEST PUSH1 0x40 MLOAD DUP1 SWAP2 SUB SWAP1 RETURN JUMPDEST PUSH2 0x26A PUSH1 0x4 DUP1 CALLDATASIZE SUB DUP2 ADD SWAP1 PUSH2 0x265 SWAP2 SWAP1 PUSH2 0x127A JUMP JUMPDEST PUSH2 0x999 JUMP JUMPDEST STOP JUMPDEST PUSH2 0x286 PUSH1 0x4 DUP1 CALLDATASIZE SUB DUP2 ADD SWAP1 PUSH2 0x281 SWAP2 SWAP1 PUSH2 0x1156 JUMP JUMPDEST PUSH2 0xA2C JUMP JUMPDEST PUSH1 0x40 MLOAD PUSH2 0x293 SWAP2 SWAP1 PUSH2 0x165C JUMP JUMPDEST PUSH1 0x40 MLOAD DUP1 SWAP2 SUB SWAP1 RETURN JUMPDEST PUSH2 0x2B6 PUSH1 0x4 DUP1 CALLDATASIZE SUB DUP2 ADD SWAP1 PUSH2 0x2B1 SWAP2 SWAP1 PUSH2 0x14B0 JUMP JUMPDEST PUSH2 0xCEB JUMP JUMPDEST PUSH1 0x40 MLOAD PUSH2 0x2C6 SWAP5 SWAP4 SWAP3 SWAP2 SWAP1 PUSH2 0x1695 JUMP JUMPDEST PUSH1 0x40 MLOAD DUP1 SWAP2 SUB SWAP1 RETURN JUMPDEST PUSH2 0x2E9 PUSH1 0x4 DUP1 CALLDATASIZE SUB DUP2 ADD SWAP1 PUSH2 0x2E4 SWAP2 SWAP1 PUSH2 0x16DF JUMP JUMPDEST PUSH2 0xDBB JUMP JUMPDEST STOP JUMPDEST PUSH2 0x305 PUSH1 0x4 DUP1 CALLDATASIZE SUB DUP2 ADD SWAP1 PUSH2 0x300 SWAP2 SWAP1 PUSH2 0x1444 JUMP JUMPDEST PUSH2 0xDC8 JUMP JUMPDEST STOP JUMPDEST PUSH1 0x3 PUSH1 0x20 MSTORE DUP2 PUSH0 MSTORE PUSH1 0x40 PUSH0 KECCAK256 PUSH1 0x20 MSTORE DUP1 PUSH0 MSTORE PUSH1 0x40 PUSH0 KECCAK256 PUSH0 SWAP2 POP SWAP2 POP SWAP1 SLOAD SWAP1 PUSH2 0x100 EXP SWAP1 DIV PUSH1 0xFF AND DUP2 JUMP JUMPDEST PUSH1 0x2 PUSH1 0x20 MSTORE DUP2 PUSH0 MSTORE PUSH1 0x40 PUSH0 KECCAK256 DUP2 DUP2 SLOAD DUP2 LT PUSH2 0x34A JUMPI PUSH0 DUP1 REVERT JUMPDEST SWAP1 PUSH0 MSTORE PUSH1 0x20 PUSH0 KECCAK256 SWAP1 PUSH1 0x5 MUL ADD PUSH0 SWAP2 POP SWAP2 POP POP DUP1 PUSH0 ADD SLOAD SWAP1 DUP1 PUSH1 0x1 ADD PUSH0 SWAP1 SLOAD SWAP1 PUSH2 0x100 EXP SWAP1 DIV PUSH20 0xFFFFFFFFFFFFFFFFFFFFFFFFFFFFFFFFFFFFFFFF AND SWAP1 DUP1 PUSH1 0x2 ADD PUSH0 SWAP1 SLOAD SWAP1 PUSH2 0x100 EXP SWAP1 DIV PUSH20 0xFFFFFFFFFFFFFFFFFFFFFFFFFFFFFFFFFFFFFFFF AND SWAP1 DUP1 PUSH1 0x3 ADD DUP1 SLOAD PUSH2 0x3BA SWAP1 PUSH2 0x1753 JUMP JUMPDEST DUP1 PUSH1 0x1F ADD PUSH1 0x20 DUP1 SWAP2 DIV MUL PUSH1 0x20 ADD PUSH1 0x40 MLOAD SWAP1 DUP2 ADD PUSH1 0x40 MSTORE DUP1 SWAP3 SWAP2 SWAP1 DUP2 DUP2 MSTORE PUSH1 0x20 ADD DUP3 DUP1 SLOAD PUSH2 0x3E6 SWAP1 PUSH2 0x1753 JUMP JUMPDEST DUP1 ISZERO PUSH2 0x431 JUMPI DUP1 PUSH1 0x1F LT PUSH2 0x408 JUMPI PUSH2 0x100 DUP1 DUP4 SLOAD DIV MUL DUP4 MSTORE SWAP2 PUSH1 0x20 ADD SWAP2 PUSH2 0x431 JUMP JUMPDEST DUP3 ADD SWAP2 SWAP1 PUSH0 MSTORE PUSH1 0x20 PUSH0 KECCAK256 SWAP1 JUMPDEST DUP2 SLOAD DUP2 MSTORE SWAP1 PUSH1 0x1 ADD SWAP1 PUSH1 0x20 ADD DUP1 DUP4 GT PUSH2 0x414 JUMPI DUP3 SWAP1 SUB PUSH1 0x1F AND DUP3 ADD SWAP2 JUMPDEST POP POP POP POP POP SWAP1 DUP1 PUSH1 0x4 ADD SLOAD SWAP1 POP DUP6 JUMP JUMPDEST PUSH1 0x4 PUSH0 CALLER PUSH20 0xFFFFFFFFFFFFFFFFFFFFFFFFFFFFFFFFFFFFFFFF AND PUSH20 0xFFFFFFFFFFFFFFFFFFFFFFFFFFFFFFFFFFFFFFFF AND DUP2 MSTORE PUSH1 0x20 ADD SWAP1 DUP2 MSTORE PUSH1 0x20 ADD PUSH0 KECCAK256 DUP2 SWAP1 DUP1 PUSH1 0x1 DUP2 SLOAD ADD DUP1 DUP3 SSTORE DUP1 SWAP2 POP POP PUSH1 0x1 SWAP1 SUB SWAP1 PUSH0 MSTORE PUSH1 0x20 PUSH0 KECCAK256 ADD PUSH0 SWAP1 SWAP2 SWAP1 SWAP2 SWAP1 SWAP2 PUSH2 0x100 EXP DUP2 SLOAD DUP2 PUSH20 0xFFFFFFFFFFFFFFFFFFFFFFFFFFFFFFFFFFFFFFFF MUL NOT AND SWAP1 DUP4 PUSH20 0xFFFFFFFFFFFFFFFFFFFFFFFFFFFFFFFFFFFFFFFF AND MUL OR SWAP1 SSTORE POP POP JUMP JUMPDEST PUSH2 0x4EA CALLER DUP4 DUP4 PUSH2 0x519 JUMP JUMPDEST POP POP JUMP JUMPDEST PUSH1 0x1 PUSH1 0x20 MSTORE DUP2 PUSH0 MSTORE PUSH1 0x40 PUSH0 KECCAK256 DUP2 DUP2 SLOAD DUP2 LT PUSH2 0x507 JUMPI PUSH0 DUP1 REVERT JUMPDEST SWAP1 PUSH0 MSTORE PUSH1 0x20 PUSH0 KECCAK256 ADD PUSH0 SWAP2 POP SWAP2 POP POP SLOAD DUP2 JUMP JUMPDEST PUSH1 0x2 PUSH0 DUP5 PUSH20 0xFFFFFFFFFFFFFFFFFFFFFFFFFFFFFFFFFFFFFFFF AND PUSH20 0xFFFFFFFFFFFFFFFFFFFFFFFFFFFFFFFFFFFFFFFF AND DUP2 MSTORE PUSH1 0x20 ADD SWAP1 DUP2 MSTORE PUSH1 0x20 ADD PUSH0 KECCAK256 PUSH1 0x40 MLOAD DUP1 PUSH1 0xA0 ADD PUSH1 0x40 MSTORE DUP1 PUSH1 0x6 SLOAD DUP2 MSTORE PUSH1 0x20 ADD DUP6 PUSH20 0xFFFFFFFFFFFFFFFFFFFFFFFFFFFFFFFFFFFFFFFF AND DUP2 MSTORE PUSH1 0x20 ADD DUP5 PUSH20 0xFFFFFFFFFFFFFFFFFFFFFFFFFFFFFFFFFFFFFFFF AND DUP2 MSTORE PUSH1 0x20 ADD DUP4 DUP2 MSTORE PUSH1 0x20 ADD TIMESTAMP DUP2 MSTORE POP SWAP1 DUP1 PUSH1 0x1 DUP2 SLOAD ADD DUP1 DUP3 SSTORE DUP1 SWAP2 POP POP PUSH1 0x1 SWAP1 SUB SWAP1 PUSH0 MSTORE PUSH1 0x20 PUSH0 KECCAK256 SWAP1 PUSH1 0x5 MUL ADD PUSH0 SWAP1 SWAP2 SWAP1 SWAP2 SWAP1 SWAP2 POP PUSH0 DUP3 ADD MLOAD DUP2 PUSH0 ADD SSTORE PUSH1 0x20 DUP3 ADD MLOAD DUP2 PUSH1 0x1 ADD PUSH0 PUSH2 0x100 EXP DUP2 SLOAD DUP2 PUSH20 0xFFFFFFFFFFFFFFFFFFFFFFFFFFFFFFFFFFFFFFFF MUL NOT AND SWAP1 DUP4 PUSH20 0xFFFFFFFFFFFFFFFFFFFFFFFFFFFFFFFFFFFFFFFF AND MUL OR SWAP1 SSTORE POP PUSH1 0x40 DUP3 ADD MLOAD DUP2 PUSH1 0x2 ADD PUSH0 PUSH2 0x100 EXP DUP2 SLOAD DUP2 PUSH20 0xFFFFFFFFFFFFFFFFFFFFFFFFFFFFFFFFFFFFFFFF MUL NOT AND SWAP1 DUP4 PUSH20 0xFFFFFFFFFFFFFFFFFFFFFFFFFFFFFFFFFFFFFFFF AND MUL OR SWAP1 SSTORE POP PUSH1 0x60 DUP3 ADD MLOAD DUP2 PUSH1 0x3 ADD SWAP1 DUP2 PUSH2 0x67A SWAP2 SWAP1 PUSH2 0x1920 JUMP JUMPDEST POP PUSH1 0x80 DUP3 ADD MLOAD DUP2 PUSH1 0x4 ADD SSTORE POP POP PUSH1 0x6 PUSH0 DUP2 SLOAD DUP1 SWAP3 SWAP2 SWAP1 PUSH2 0x699 SWAP1 PUSH2 0x1A1C JUMP JUMPDEST SWAP2 SWAP1 POP SSTORE POP POP POP POP JUMP JUMPDEST PUSH1 0x60 PUSH0 DUP3 GT DUP1 ISZERO PUSH2 0x6B5 JUMPI POP PUSH1 0x5 SLOAD DUP3 LT JUMPDEST PUSH2 0x6F4 JUMPI PUSH1 0x40 MLOAD PUSH32 0x8C379A000000000000000000000000000000000000000000000000000000000 DUP2 MSTORE PUSH1 0x4 ADD PUSH2 0x6EB SWAP1 PUSH2 0x1AAD JUMP JUMPDEST PUSH1 0x40 MLOAD DUP1 SWAP2 SUB SWAP1 REVERT JUMPDEST PUSH0 DUP3 PUSH8 0xFFFFFFFFFFFFFFFF DUP2 GT ISZERO PUSH2 0x70F JUMPI PUSH2 0x70E PUSH2 0x12AD JUMP JUMPDEST JUMPDEST PUSH1 0x40 MLOAD SWAP1 DUP1 DUP3 MSTORE DUP1 PUSH1 0x20 MUL PUSH1 0x20 ADD DUP3 ADD PUSH1 0x40 MSTORE DUP1 ISZERO PUSH2 0x748 JUMPI DUP2 PUSH1 0x20 ADD JUMPDEST PUSH2 0x735 PUSH2 0x100C JUMP JUMPDEST DUP2 MSTORE PUSH1 0x20 ADD SWAP1 PUSH1 0x1 SWAP1 SUB SWAP1 DUP2 PUSH2 0x72D JUMPI SWAP1 POP JUMPDEST POP SWAP1 POP PUSH0 DUP1 DUP5 PUSH1 0x5 SLOAD PUSH2 0x75B SWAP2 SWAP1 PUSH2 0x1ACB JUMP JUMPDEST SWAP1 POP JUMPDEST PUSH1 0x5 SLOAD DUP2 LT ISZERO PUSH2 0x8B4 JUMPI PUSH0 DUP1 DUP3 DUP2 MSTORE PUSH1 0x20 ADD SWAP1 DUP2 MSTORE PUSH1 0x20 ADD PUSH0 KECCAK256 PUSH1 0x40 MLOAD DUP1 PUSH1 0x80 ADD PUSH1 0x40 MSTORE SWAP1 DUP2 PUSH0 DUP3 ADD SLOAD DUP2 MSTORE PUSH1 0x20 ADD PUSH1 0x1 DUP3 ADD PUSH0 SWAP1 SLOAD SWAP1 PUSH2 0x100 EXP SWAP1 DIV PUSH20 0xFFFFFFFFFFFFFFFFFFFFFFFFFFFFFFFFFFFFFFFF AND PUSH20 0xFFFFFFFFFFFFFFFFFFFFFFFFFFFFFFFFFFFFFFFF AND PUSH20 0xFFFFFFFFFFFFFFFFFFFFFFFFFFFFFFFFFFFFFFFF AND DUP2 MSTORE PUSH1 0x20 ADD PUSH1 0x2 DUP3 ADD DUP1 SLOAD PUSH2 0x7F1 SWAP1 PUSH2 0x1753 JUMP JUMPDEST DUP1 PUSH1 0x1F ADD PUSH1 0x20 DUP1 SWAP2 DIV MUL PUSH1 0x20 ADD PUSH1 0x40 MLOAD SWAP1 DUP2 ADD PUSH1 0x40 MSTORE DUP1 SWAP3 SWAP2 SWAP1 DUP2 DUP2 MSTORE PUSH1 0x20 ADD DUP3 DUP1 SLOAD PUSH2 0x81D SWAP1 PUSH2 0x1753 JUMP JUMPDEST DUP1 ISZERO PUSH2 0x868 JUMPI DUP1 PUSH1 0x1F LT PUSH2 0x83F JUMPI PUSH2 0x100 DUP1 DUP4 SLOAD DIV MUL DUP4 MSTORE SWAP2 PUSH1 0x20 ADD SWAP2 PUSH2 0x868 JUMP JUMPDEST DUP3 ADD SWAP2 SWAP1 PUSH0 MSTORE PUSH1 0x20 PUSH0 KECCAK256 SWAP1 JUMPDEST DUP2 SLOAD DUP2 MSTORE SWAP1 PUSH1 0x1 ADD SWAP1 PUSH1 0x20 ADD DUP1 DUP4 GT PUSH2 0x84B JUMPI DUP3 SWAP1 SUB PUSH1 0x1F AND DUP3 ADD SWAP2 JUMPDEST POP POP POP POP POP DUP2 MSTORE PUSH1 0x20 ADD PUSH1 0x3 DUP3 ADD SLOAD DUP2 MSTORE POP POP DUP4 DUP4 DUP2 MLOAD DUP2 LT PUSH2 0x88E JUMPI PUSH2 0x88D PUSH2 0x1AFE JUMP JUMPDEST JUMPDEST PUSH1 0x20 MUL PUSH1 0x20 ADD ADD DUP2 SWAP1 MSTORE POP DUP2 DUP1 PUSH2 0x8A4 SWAP1 PUSH2 0x1A1C JUMP JUMPDEST SWAP3 POP POP DUP1 DUP1 PUSH1 0x1 ADD SWAP2 POP POP PUSH2 0x75E JUMP JUMPDEST POP DUP2 SWAP3 POP POP POP SWAP2 SWAP1 POP JUMP JUMPDEST PUSH0 PUSH1 0x3 PUSH0 CALLER PUSH20 0xFFFFFFFFFFFFFFFFFFFFFFFFFFFFFFFFFFFFFFFF AND PUSH20 0xFFFFFFFFFFFFFFFFFFFFFFFFFFFFFFFFFFFFFFFF AND DUP2 MSTORE PUSH1 0x20 ADD SWAP1 DUP2 MSTORE PUSH1 0x20 ADD PUSH0 KECCAK256 PUSH0 DUP4 PUSH20 0xFFFFFFFFFFFFFFFFFFFFFFFFFFFFFFFFFFFFFFFF AND PUSH20 0xFFFFFFFFFFFFFFFFFFFFFFFFFFFFFFFFFFFFFFFF AND DUP2 MSTORE PUSH1 0x20 ADD SWAP1 DUP2 MSTORE PUSH1 0x20 ADD PUSH0 KECCAK256 PUSH0 PUSH2 0x100 EXP DUP2 SLOAD DUP2 PUSH1 0xFF MUL NOT AND SWAP1 DUP4 ISZERO ISZERO MUL OR SWAP1 SSTORE POP POP JUMP JUMPDEST PUSH1 0x4 PUSH1 0x20 MSTORE DUP2 PUSH0 MSTORE PUSH1 0x40 PUSH0 KECCAK256 DUP2 DUP2 SLOAD DUP2 LT PUSH2 0x96A JUMPI PUSH0 DUP1 REVERT JUMPDEST SWAP1 PUSH0 MSTORE PUSH1 0x20 PUSH0 KECCAK256 ADD PUSH0 SWAP2 POP SWAP2 POP SWAP1 SLOAD SWAP1 PUSH2 0x100 EXP SWAP1 DIV PUSH20 0xFFFFFFFFFFFFFFFFFFFFFFFFFFFFFFFFFFFFFFFF AND DUP2 JUMP JUMPDEST PUSH1 0x1 PUSH1 0x3 PUSH0 CALLER PUSH20 0xFFFFFFFFFFFFFFFFFFFFFFFFFFFFFFFFFFFFFFFF AND PUSH20 0xFFFFFFFFFFFFFFFFFFFFFFFFFFFFFFFFFFFFFFFF AND DUP2 MSTORE PUSH1 0x20 ADD SWAP1 DUP2 MSTORE PUSH1 0x20 ADD PUSH0 KECCAK256 PUSH0 DUP4 PUSH20 0xFFFFFFFFFFFFFFFFFFFFFFFFFFFFFFFFFFFFFFFF AND PUSH20 0xFFFFFFFFFFFFFFFFFFFFFFFFFFFFFFFFFFFFFFFF AND DUP2 MSTORE PUSH1 0x20 ADD SWAP1 DUP2 MSTORE PUSH1 0x20 ADD PUSH0 KECCAK256 PUSH0 PUSH2 0x100 EXP DUP2 SLOAD DUP2 PUSH1 0xFF MUL NOT AND SWAP1 DUP4 ISZERO ISZERO MUL OR SWAP1 SSTORE POP POP JUMP JUMPDEST PUSH1 0x60 PUSH0 PUSH1 0x1 PUSH0 DUP6 PUSH20 0xFFFFFFFFFFFFFFFFFFFFFFFFFFFFFFFFFFFFFFFF AND PUSH20 0xFFFFFFFFFFFFFFFFFFFFFFFFFFFFFFFFFFFFFFFF AND DUP2 MSTORE PUSH1 0x20 ADD SWAP1 DUP2 MSTORE PUSH1 0x20 ADD PUSH0 KECCAK256 DUP1 SLOAD DUP1 PUSH1 0x20 MUL PUSH1 0x20 ADD PUSH1 0x40 MLOAD SWAP1 DUP2 ADD PUSH1 0x40 MSTORE DUP1 SWAP3 SWAP2 SWAP1 DUP2 DUP2 MSTORE PUSH1 0x20 ADD DUP3 DUP1 SLOAD DUP1 ISZERO PUSH2 0xAB4 JUMPI PUSH1 0x20 MUL DUP3 ADD SWAP2 SWAP1 PUSH0 MSTORE PUSH1 0x20 PUSH0 KECCAK256 SWAP1 JUMPDEST DUP2 SLOAD DUP2 MSTORE PUSH1 0x20 ADD SWAP1 PUSH1 0x1 ADD SWAP1 DUP1 DUP4 GT PUSH2 0xAA0 JUMPI JUMPDEST POP POP POP POP POP SWAP1 POP PUSH0 DUP4 GT DUP1 ISZERO PUSH2 0xACB JUMPI POP DUP1 MLOAD DUP4 GT ISZERO JUMPDEST PUSH2 0xB0A JUMPI PUSH1 0x40 MLOAD PUSH32 0x8C379A000000000000000000000000000000000000000000000000000000000 DUP2 MSTORE PUSH1 0x4 ADD PUSH2 0xB01 SWAP1 PUSH2 0x1B75 JUMP JUMPDEST PUSH1 0x40 MLOAD DUP1 SWAP2 SUB SWAP1 REVERT JUMPDEST PUSH0 DUP4 PUSH8 0xFFFFFFFFFFFFFFFF DUP2 GT ISZERO PUSH2 0xB25 JUMPI PUSH2 0xB24 PUSH2 0x12AD JUMP JUMPDEST JUMPDEST PUSH1 0x40 MLOAD SWAP1 DUP1 DUP3 MSTORE DUP1 PUSH1 0x20 MUL PUSH1 0x20 ADD DUP3 ADD PUSH1 0x40 MSTORE DUP1 ISZERO PUSH2 0xB5E JUMPI DUP2 PUSH1 0x20 ADD JUMPDEST PUSH2 0xB4B PUSH2 0x100C JUMP JUMPDEST DUP2 MSTORE PUSH1 0x20 ADD SWAP1 PUSH1 0x1 SWAP1 SUB SWAP1 DUP2 PUSH2 0xB43 JUMPI SWAP1 POP JUMPDEST POP SWAP1 POP PUSH0 DUP5 DUP4 MLOAD PUSH2 0xB6F SWAP2 SWAP1 PUSH2 0x1ACB JUMP JUMPDEST SWAP1 POP PUSH0 JUMPDEST DUP6 DUP2 LT ISZERO PUSH2 0xCDE JUMPI PUSH0 DUP1 DUP6 DUP4 DUP6 PUSH2 0xB8A SWAP2 SWAP1 PUSH2 0x1B93 JUMP JUMPDEST DUP2 MLOAD DUP2 LT PUSH2 0xB9B JUMPI PUSH2 0xB9A PUSH2 0x1AFE JUMP JUMPDEST JUMPDEST PUSH1 0x20 MUL PUSH1 0x20 ADD ADD MLOAD DUP2 MSTORE PUSH1 0x20 ADD SWAP1 DUP2 MSTORE PUSH1 0x20 ADD PUSH0 KECCAK256 PUSH1 0x40 MLOAD DUP1 PUSH1 0x80 ADD PUSH1 0x40 MSTORE SWAP1 DUP2 PUSH0 DUP3 ADD SLOAD DUP2 MSTORE PUSH1 0x20 ADD PUSH1 0x1 DUP3 ADD PUSH0 SWAP1 SLOAD SWAP1 PUSH2 0x100 EXP SWAP1 DIV PUSH20 0xFFFFFFFFFFFFFFFFFFFFFFFFFFFFFFFFFFFFFFFF AND PUSH20 0xFFFFFFFFFFFFFFFFFFFFFFFFFFFFFFFFFFFFFFFF AND PUSH20 0xFFFFFFFFFFFFFFFFFFFFFFFFFFFFFFFFFFFFFFFF AND DUP2 MSTORE PUSH1 0x20 ADD PUSH1 0x2 DUP3 ADD DUP1 SLOAD PUSH2 0xC29 SWAP1 PUSH2 0x1753 JUMP JUMPDEST DUP1 PUSH1 0x1F ADD PUSH1 0x20 DUP1 SWAP2 DIV MUL PUSH1 0x20 ADD PUSH1 0x40 MLOAD SWAP1 DUP2 ADD PUSH1 0x40 MSTORE DUP1 SWAP3 SWAP2 SWAP1 DUP2 DUP2 MSTORE PUSH1 0x20 ADD DUP3 DUP1 SLOAD PUSH2 0xC55 SWAP1 PUSH2 0x1753 JUMP JUMPDEST DUP1 ISZERO PUSH2 0xCA0 JUMPI DUP1 PUSH1 0x1F LT PUSH2 0xC77 JUMPI PUSH2 0x100 DUP1 DUP4 SLOAD DIV MUL DUP4 MSTORE SWAP2 PUSH1 0x20 ADD SWAP2 PUSH2 0xCA0 JUMP JUMPDEST DUP3 ADD SWAP2 SWAP1 PUSH0 MSTORE PUSH1 0x20 PUSH0 KECCAK256 SWAP1 JUMPDEST DUP2 SLOAD DUP2 MSTORE SWAP1 PUSH1 0x1 ADD SWAP1 PUSH1 0x20 ADD DUP1 DUP4 GT PUSH2 0xC83 JUMPI DUP3 SWAP1 SUB PUSH1 0x1F AND DUP3 ADD SWAP2 JUMPDEST POP POP POP POP POP DUP2 MSTORE PUSH1 0x20 ADD PUSH1 0x3 DUP3 ADD SLOAD DUP2 MSTORE POP POP DUP4 DUP3 DUP2 MLOAD DUP2 LT PUSH2 0xCC6 JUMPI PUSH2 0xCC5 PUSH2 0x1AFE JUMP JUMPDEST JUMPDEST PUSH1 0x20 MUL PUSH1 0x20 ADD ADD DUP2 SWAP1 MSTORE POP DUP1 DUP1 PUSH1 0x1 ADD SWAP2 POP POP PUSH2 0xB73 JUMP JUMPDEST POP DUP2 SWAP4 POP POP POP POP SWAP3 SWAP2 POP POP JUMP JUMPDEST PUSH0 PUSH1 0x20 MSTORE DUP1 PUSH0 MSTORE PUSH1 0x40 PUSH0 KECCAK256 PUSH0 SWAP2 POP SWAP1 POP DUP1 PUSH0 ADD SLOAD SWAP1 DUP1 PUSH1 0x1 ADD PUSH0 SWAP1 SLOAD SWAP1 PUSH2 0x100 EXP SWAP1 DIV PUSH20 0xFFFFFFFFFFFFFFFFFFFFFFFFFFFFFFFFFFFFFFFF AND SWAP1 DUP1 PUSH1 0x2 ADD DUP1 SLOAD PUSH2 0xD34 SWAP1 PUSH2 0x1753 JUMP JUMPDEST DUP1 PUSH1 0x1F ADD PUSH1 0x20 DUP1 SWAP2 DIV MUL PUSH1 0x20 ADD PUSH1 0x40 MLOAD SWAP1 DUP2 ADD PUSH1 0x40 MSTORE DUP1 SWAP3 SWAP2 SWAP1 DUP2 DUP2 MSTORE PUSH1 0x20 ADD DUP3 DUP1 SLOAD PUSH2 0xD60 SWAP1 PUSH2 0x1753 JUMP JUMPDEST DUP1 ISZERO PUSH2 0xDAB JUMPI DUP1 PUSH1 0x1F LT PUSH2 0xD82 JUMPI PUSH2 0x100 DUP1 DUP4 SLOAD DIV MUL DUP4 MSTORE SWAP2 PUSH1 0x20 ADD SWAP2 PUSH2 0xDAB JUMP JUMPDEST DUP3 ADD SWAP2 SWAP1 PUSH0 MSTORE PUSH1 0x20 PUSH0 KECCAK256 SWAP1 JUMPDEST DUP2 SLOAD DUP2 MSTORE SWAP1 PUSH1 0x1 ADD SWAP1 PUSH1 0x20 ADD DUP1 DUP4 GT PUSH2 0xD8E JUMPI DUP3 SWAP1 SUB PUSH1 0x1F AND DUP3 ADD SWAP2 JUMPDEST POP POP POP POP POP SWAP1 DUP1 PUSH1 0x3 ADD SLOAD SWAP1 POP DUP5 JUMP JUMPDEST PUSH2 0xDC5 CALLER DUP3 PUSH2 0xDD8 JUMP JUMPDEST POP JUMP JUMPDEST PUSH2 0xDD3 DUP4 DUP4 DUP4 PUSH2 0x519 JUMP JUMPDEST POP POP POP JUMP JUMPDEST DUP2 PUSH20 0xFFFFFFFFFFFFFFFFFFFFFFFFFFFFFFFFFFFFFFFF AND CALLER PUSH20 0xFFFFFFFFFFFFFFFFFFFFFFFFFFFFFFFFFFFFFFFF AND EQ DUP1 PUSH2 0xE93 JUMPI POP PUSH1 0x3 PUSH0 CALLER PUSH20 0xFFFFFFFFFFFFFFFFFFFFFFFFFFFFFFFFFFFFFFFF AND PUSH20 0xFFFFFFFFFFFFFFFFFFFFFFFFFFFFFFFFFFFFFFFF AND DUP2 MSTORE PUSH1 0x20 ADD SWAP1 DUP2 MSTORE PUSH1 0x20 ADD PUSH0 KECCAK256 PUSH0 DUP4 PUSH20 0xFFFFFFFFFFFFFFFFFFFFFFFFFFFFFFFFFFFFFFFF AND PUSH20 0xFFFFFFFFFFFFFFFFFFFFFFFFFFFFFFFFFFFFFFFF AND DUP2 MSTORE PUSH1 0x20 ADD SWAP1 DUP2 MSTORE PUSH1 0x20 ADD PUSH0 KECCAK256 PUSH0 SWAP1 SLOAD SWAP1 PUSH2 0x100 EXP SWAP1 DIV PUSH1 0xFF AND JUMPDEST PUSH2 0xED2 JUMPI PUSH1 0x40 MLOAD PUSH32 0x8C379A000000000000000000000000000000000000000000000000000000000 DUP2 MSTORE PUSH1 0x4 ADD PUSH2 0xEC9 SWAP1 PUSH2 0x1C10 JUMP JUMPDEST PUSH1 0x40 MLOAD DUP1 SWAP2 SUB SWAP1 REVERT JUMPDEST PUSH1 0x40 MLOAD DUP1 PUSH1 0x80 ADD PUSH1 0x40 MSTORE DUP1 PUSH1 0x5 SLOAD DUP2 MSTORE PUSH1 0x20 ADD DUP4 PUSH20 0xFFFFFFFFFFFFFFFFFFFFFFFFFFFFFFFFFFFFFFFF AND DUP2 MSTORE PUSH1 0x20 ADD DUP3 DUP2 MSTORE PUSH1 0x20 ADD TIMESTAMP DUP2 MSTORE POP PUSH0 DUP1 PUSH1 0x5 SLOAD DUP2 MSTORE PUSH1 0x20 ADD SWAP1 DUP2 MSTORE PUSH1 0x20 ADD PUSH0 KECCAK256 PUSH0 DUP3 ADD MLOAD DUP2 PUSH0 ADD SSTORE PUSH1 0x20 DUP3 ADD MLOAD DUP2 PUSH1 0x1 ADD PUSH0 PUSH2 0x100 EXP DUP2 SLOAD DUP2 PUSH20 0xFFFFFFFFFFFFFFFFFFFFFFFFFFFFFFFFFFFFFFFF MUL NOT AND SWAP1 DUP4 PUSH20 0xFFFFFFFFFFFFFFFFFFFFFFFFFFFFFFFFFFFFFFFF AND MUL OR SWAP1 SSTORE POP PUSH1 0x40 DUP3 ADD MLOAD DUP2 PUSH1 0x2 ADD SWAP1 DUP2 PUSH2 0xF80 SWAP2 SWAP1 PUSH2 0x1920 JUMP JUMPDEST POP PUSH1 0x60 DUP3 ADD MLOAD DUP2 PUSH1 0x3 ADD SSTORE SWAP1 POP POP PUSH1 0x1 PUSH0 DUP4 PUSH20 0xFFFFFFFFFFFFFFFFFFFFFFFFFFFFFFFFFFFFFFFF AND PUSH20 0xFFFFFFFFFFFFFFFFFFFFFFFFFFFFFFFFFFFFFFFF AND DUP2 MSTORE PUSH1 0x20 ADD SWAP1 DUP2 MSTORE PUSH1 0x20 ADD PUSH0 KECCAK256 PUSH1 0x5 SLOAD SWAP1 DUP1 PUSH1 0x1 DUP2 SLOAD ADD DUP1 DUP3 SSTORE DUP1 SWAP2 POP POP PUSH1 0x1 SWAP1 SUB SWAP1 PUSH0 MSTORE PUSH1 0x20 PUSH0 KECCAK256 ADD PUSH0 SWAP1 SWAP2 SWAP1 SWAP2 SWAP1 SWAP2 POP SSTORE PUSH1 0x5 PUSH0 DUP2 SLOAD DUP1 SWAP3 SWAP2 SWAP1 PUSH2 0x1003 SWAP1 PUSH2 0x1A1C JUMP JUMPDEST SWAP2 SWAP1 POP SSTORE POP POP POP JUMP JUMPDEST PUSH1 0x40 MLOAD DUP1 PUSH1 0x80 ADD PUSH1 0x40 MSTORE DUP1 PUSH0 DUP2 MSTORE PUSH1 0x20 ADD PUSH0 PUSH20 0xFFFFFFFFFFFFFFFFFFFFFFFFFFFFFFFFFFFFFFFF AND DUP2 MSTORE PUSH1 0x20 ADD PUSH1 0x60 DUP2 MSTORE PUSH1 0x20 ADD PUSH0 DUP2 MSTORE POP SWAP1 JUMP JUMPDEST PUSH0 PUSH1 0x40 MLOAD SWAP1 POP SWAP1 JUMP JUMPDEST PUSH0 DUP1 REVERT JUMPDEST PUSH0 DUP1 REVERT JUMPDEST PUSH0 PUSH20 0xFFFFFFFFFFFFFFFFFFFFFFFFFFFFFFFFFFFFFFFF DUP3 AND SWAP1 POP SWAP2 SWAP1 POP JUMP JUMPDEST PUSH0 PUSH2 0x1081 DUP3 PUSH2 0x1058 JUMP JUMPDEST SWAP1 POP SWAP2 SWAP1 POP JUMP JUMPDEST PUSH2 0x1091 DUP2 PUSH2 0x1077 JUMP JUMPDEST DUP2 EQ PUSH2 0x109B JUMPI PUSH0 DUP1 REVERT JUMPDEST POP JUMP JUMPDEST PUSH0 DUP2 CALLDATALOAD SWAP1 POP PUSH2 0x10AC DUP2 PUSH2 0x1088 JUMP JUMPDEST SWAP3 SWAP2 POP POP JUMP JUMPDEST PUSH0 DUP1 PUSH1 0x40 DUP4 DUP6 SUB SLT ISZERO PUSH2 0x10C8 JUMPI PUSH2 0x10C7 PUSH2 0x1050 JUMP JUMPDEST JUMPDEST PUSH0 PUSH2 0x10D5 DUP6 DUP3 DUP7 ADD PUSH2 0x109E JUMP JUMPDEST SWAP3 POP POP PUSH1 0x20 PUSH2 0x10E6 DUP6 DUP3 DUP7 ADD PUSH2 0x109E JUMP JUMPDEST SWAP2 POP POP SWAP3 POP SWAP3 SWAP1 POP JUMP JUMPDEST PUSH0 DUP2 ISZERO ISZERO SWAP1 POP SWAP2 SWAP1 POP JUMP JUMPDEST PUSH2 0x1104 DUP2 PUSH2 0x10F0 JUMP JUMPDEST DUP3 MSTORE POP POP JUMP JUMPDEST PUSH0 PUSH1 0x20 DUP3 ADD SWAP1 POP PUSH2 0x111D PUSH0 DUP4 ADD DUP5 PUSH2 0x10FB JUMP JUMPDEST SWAP3 SWAP2 POP POP JUMP JUMPDEST PUSH0 DUP2 SWAP1 POP SWAP2 SWAP1 POP JUMP JUMPDEST PUSH2 0x1135 DUP2 PUSH2 0x1123 JUMP JUMPDEST DUP2 EQ PUSH2 0x113F JUMPI PUSH0 DUP1 REVERT JUMPDEST POP JUMP JUMPDEST PUSH0 DUP2 CALLDATALOAD SWAP1 POP PUSH2 0x1150 DUP2 PUSH2 0x112C JUMP JUMPDEST SWAP3 SWAP2 POP POP JUMP JUMPDEST PUSH0 DUP1 PUSH1 0x40 DUP4 DUP6 SUB SLT ISZERO PUSH2 0x116C JUMPI PUSH2 0x116B PUSH2 0x1050 JUMP JUMPDEST JUMPDEST PUSH0 PUSH2 0x1179 DUP6 DUP3 DUP7 ADD PUSH2 0x109E JUMP JUMPDEST SWAP3 POP POP PUSH1 0x20 PUSH2 0x118A DUP6 DUP3 DUP7 ADD PUSH2 0x1142 JUMP JUMPDEST SWAP2 POP POP SWAP3 POP SWAP3 SWAP1 POP JUMP JUMPDEST PUSH2 0x119D DUP2 PUSH2 0x1123 JUMP JUMPDEST DUP3 MSTORE POP POP JUMP JUMPDEST PUSH2 0x11AC DUP2 PUSH2 0x1077 JUMP JUMPDEST DUP3 MSTORE POP POP JUMP JUMPDEST PUSH0 DUP2 MLOAD SWAP1 POP SWAP2 SWAP1 POP JUMP JUMPDEST PUSH0 DUP3 DUP3 MSTORE PUSH1 0x20 DUP3 ADD SWAP1 POP SWAP3 SWAP2 POP POP JUMP JUMPDEST DUP3 DUP2 DUP4 MCOPY PUSH0 DUP4 DUP4 ADD MSTORE POP POP POP JUMP JUMPDEST PUSH0 PUSH1 0x1F NOT PUSH1 0x1F DUP4 ADD AND SWAP1 POP SWAP2 SWAP1 POP JUMP JUMPDEST PUSH0 PUSH2 0x11F4 DUP3 PUSH2 0x11B2 JUMP JUMPDEST PUSH2 0x11FE DUP2 DUP6 PUSH2 0x11BC JUMP JUMPDEST SWAP4 POP PUSH2 0x120E DUP2 DUP6 PUSH1 0x20 DUP7 ADD PUSH2 0x11CC JUMP JUMPDEST PUSH2 0x1217 DUP2 PUSH2 0x11DA JUMP JUMPDEST DUP5 ADD SWAP2 POP POP SWAP3 SWAP2 POP POP JUMP JUMPDEST PUSH0 PUSH1 0xA0 DUP3 ADD SWAP1 POP PUSH2 0x1235 PUSH0 DUP4 ADD DUP9 PUSH2 0x1194 JUMP JUMPDEST PUSH2 0x1242 PUSH1 0x20 DUP4 ADD DUP8 PUSH2 0x11A3 JUMP JUMPDEST PUSH2 0x124F PUSH1 0x40 DUP4 ADD DUP7 PUSH2 0x11A3 JUMP JUMPDEST DUP2 DUP2 SUB PUSH1 0x60 DUP4 ADD MSTORE PUSH2 0x1261 DUP2 DUP6 PUSH2 0x11EA JUMP JUMPDEST SWAP1 POP PUSH2 0x1270 PUSH1 0x80 DUP4 ADD DUP5 PUSH2 0x1194 JUMP JUMPDEST SWAP7 SWAP6 POP POP POP POP POP POP JUMP JUMPDEST PUSH0 PUSH1 0x20 DUP3 DUP5 SUB SLT ISZERO PUSH2 0x128F JUMPI PUSH2 0x128E PUSH2 0x1050 JUMP JUMPDEST JUMPDEST PUSH0 PUSH2 0x129C DUP5 DUP3 DUP6 ADD PUSH2 0x109E JUMP JUMPDEST SWAP2 POP POP SWAP3 SWAP2 POP POP JUMP JUMPDEST PUSH0 DUP1 REVERT JUMPDEST PUSH0 DUP1 REVERT JUMPDEST PUSH32 0x4E487B7100000000000000000000000000000000000000000000000000000000 PUSH0 MSTORE PUSH1 0x41 PUSH1 0x4 MSTORE PUSH1 0x24 PUSH0 REVERT JUMPDEST PUSH2 0x12E3 DUP3 PUSH2 0x11DA JUMP JUMPDEST DUP2 ADD DUP2 DUP2 LT PUSH8 0xFFFFFFFFFFFFFFFF DUP3 GT OR ISZERO PUSH2 0x1302 JUMPI PUSH2 0x1301 PUSH2 0x12AD JUMP JUMPDEST JUMPDEST DUP1 PUSH1 0x40 MSTORE POP POP POP JUMP JUMPDEST PUSH0 PUSH2 0x1314 PUSH2 0x1047 JUMP JUMPDEST SWAP1 POP PUSH2 0x1320 DUP3 DUP3 PUSH2 0x12DA JUMP JUMPDEST SWAP2 SWAP1 POP JUMP JUMPDEST PUSH0 PUSH8 0xFFFFFFFFFFFFFFFF DUP3 GT ISZERO PUSH2 0x133F JUMPI PUSH2 0x133E PUSH2 0x12AD JUMP JUMPDEST JUMPDEST PUSH2 0x1348 DUP3 PUSH2 0x11DA JUMP JUMPDEST SWAP1 POP PUSH1 0x20 DUP2 ADD SWAP1 POP SWAP2 SWAP1 POP JUMP JUMPDEST DUP3 DUP2 DUP4 CALLDATACOPY PUSH0 DUP4 DUP4 ADD MSTORE POP POP POP JUMP JUMPDEST PUSH0 PUSH2 0x1375 PUSH2 0x1370 DUP5 PUSH2 0x1325 JUMP JUMPDEST PUSH2 0x130B JUMP JUMPDEST SWAP1 POP DUP3 DUP2 MSTORE PUSH1 0x20 DUP2 ADD DUP5 DUP5 DUP5 ADD GT ISZERO PUSH2 0x1391 JUMPI PUSH2 0x1390 PUSH2 0x12A9 JUMP JUMPDEST JUMPDEST PUSH2 0x139C DUP5 DUP3 DUP6 PUSH2 0x1355 JUMP JUMPDEST POP SWAP4 SWAP3 POP POP POP JUMP JUMPDEST PUSH0 DUP3 PUSH1 0x1F DUP4 ADD SLT PUSH2 0x13B8 JUMPI PUSH2 0x13B7 PUSH2 0x12A5 JUMP JUMPDEST JUMPDEST DUP2 CALLDATALOAD PUSH2 0x13C8 DUP5 DUP3 PUSH1 0x20 DUP7 ADD PUSH2 0x1363 JUMP JUMPDEST SWAP2 POP POP SWAP3 SWAP2 POP POP JUMP JUMPDEST PUSH0 DUP1 PUSH1 0x40 DUP4 DUP6 SUB SLT ISZERO PUSH2 0x13E7 JUMPI PUSH2 0x13E6 PUSH2 0x1050 JUMP JUMPDEST JUMPDEST PUSH0 PUSH2 0x13F4 DUP6 DUP3 DUP7 ADD PUSH2 0x109E JUMP JUMPDEST SWAP3 POP POP PUSH1 0x20 DUP4 ADD CALLDATALOAD PUSH8 0xFFFFFFFFFFFFFFFF DUP2 GT ISZERO PUSH2 0x1415 JUMPI PUSH2 0x1414 PUSH2 0x1054 JUMP JUMPDEST JUMPDEST PUSH2 0x1421 DUP6 DUP3 DUP7 ADD PUSH2 0x13A4 JUMP JUMPDEST SWAP2 POP POP SWAP3 POP SWAP3 SWAP1 POP JUMP JUMPDEST PUSH0 PUSH1 0x20 DUP3 ADD SWAP1 POP PUSH2 0x143E PUSH0 DUP4 ADD DUP5 PUSH2 0x1194 JUMP JUMPDEST SWAP3 SWAP2 POP POP JUMP JUMPDEST PUSH0 DUP1 PUSH0 PUSH1 0x60 DUP5 DUP7 SUB SLT ISZERO PUSH2 0x145B JUMPI PUSH2 0x145A PUSH2 0x1050 JUMP JUMPDEST JUMPDEST PUSH0 PUSH2 0x1468 DUP7 DUP3 DUP8 ADD PUSH2 0x109E JUMP JUMPDEST SWAP4 POP POP PUSH1 0x20 PUSH2 0x1479 DUP7 DUP3 DUP8 ADD PUSH2 0x109E JUMP JUMPDEST SWAP3 POP POP PUSH1 0x40 DUP5 ADD CALLDATALOAD PUSH8 0xFFFFFFFFFFFFFFFF DUP2 GT ISZERO PUSH2 0x149A JUMPI PUSH2 0x1499 PUSH2 0x1054 JUMP JUMPDEST JUMPDEST PUSH2 0x14A6 DUP7 DUP3 DUP8 ADD PUSH2 0x13A4 JUMP JUMPDEST SWAP2 POP POP SWAP3 POP SWAP3 POP SWAP3 JUMP JUMPDEST PUSH0 PUSH1 0x20 DUP3 DUP5 SUB SLT ISZERO PUSH2 0x14C5 JUMPI PUSH2 0x14C4 PUSH2 0x1050 JUMP JUMPDEST JUMPDEST PUSH0 PUSH2 0x14D2 DUP5 DUP3 DUP6 ADD PUSH2 0x1142 JUMP JUMPDEST SWAP2 POP POP SWAP3 SWAP2 POP POP JUMP JUMPDEST PUSH0 DUP2 MLOAD SWAP1 POP SWAP2 SWAP1 POP JUMP JUMPDEST PUSH0 DUP3 DUP3 MSTORE PUSH1 0x20 DUP3 ADD SWAP1 POP SWAP3 SWAP2 POP POP JUMP JUMPDEST PUSH0 DUP2 SWAP1 POP PUSH1 0x20 DUP3 ADD SWAP1 POP SWAP2 SWAP1 POP JUMP JUMPDEST PUSH2 0x150D DUP2 PUSH2 0x1123 JUMP JUMPDEST DUP3 MSTORE POP POP JUMP JUMPDEST PUSH2 0x151C DUP2 PUSH2 0x1077 JUMP JUMPDEST DUP3 MSTORE POP POP JUMP JUMPDEST PUSH0 DUP3 DUP3 MSTORE PUSH1 0x20 DUP3 ADD SWAP1 POP SWAP3 SWAP2 POP POP JUMP JUMPDEST PUSH0 PUSH2 0x153C DUP3 PUSH2 0x11B2 JUMP JUMPDEST PUSH2 0x1546 DUP2 DUP6 PUSH2 0x1522 JUMP JUMPDEST SWAP4 POP PUSH2 0x1556 DUP2 DUP6 PUSH1 0x20 DUP7 ADD PUSH2 0x11CC JUMP JUMPDEST PUSH2 0x155F DUP2 PUSH2 0x11DA JUMP JUMPDEST DUP5 ADD SWAP2 POP POP SWAP3 SWAP2 POP POP JUMP JUMPDEST PUSH0 PUSH1 0x80 DUP4 ADD PUSH0 DUP4 ADD MLOAD PUSH2 0x157F PUSH0 DUP7 ADD DUP3 PUSH2 0x1504 JUMP JUMPDEST POP PUSH1 0x20 DUP4 ADD MLOAD PUSH2 0x1592 PUSH1 0x20 DUP7 ADD DUP3 PUSH2 0x1513 JUMP JUMPDEST POP PUSH1 0x40 DUP4 ADD MLOAD DUP5 DUP3 SUB PUSH1 0x40 DUP7 ADD MSTORE PUSH2 0x15AA DUP3 DUP3 PUSH2 0x1532 JUMP JUMPDEST SWAP2 POP POP PUSH1 0x60 DUP4 ADD MLOAD PUSH2 0x15BF PUSH1 0x60 DUP7 ADD DUP3 PUSH2 0x1504 JUMP JUMPDEST POP DUP1 SWAP2 POP POP SWAP3 SWAP2 POP POP JUMP JUMPDEST PUSH0 PUSH2 0x15D5 DUP4 DUP4 PUSH2 0x156A JUMP JUMPDEST SWAP1 POP SWAP3 SWAP2 POP POP JUMP JUMPDEST PUSH0 PUSH1 0x20 DUP3 ADD SWAP1 POP SWAP2 SWAP1 POP JUMP JUMPDEST PUSH0 PUSH2 0x15F3 DUP3 PUSH2 0x14DB JUMP JUMPDEST PUSH2 0x15FD DUP2 DUP6 PUSH2 0x14E5 JUMP JUMPDEST SWAP4 POP DUP4 PUSH1 0x20 DUP3 MUL DUP6 ADD PUSH2 0x160F DUP6 PUSH2 0x14F5 JUMP JUMPDEST DUP1 PUSH0 JUMPDEST DUP6 DUP2 LT ISZERO PUSH2 0x164A JUMPI DUP5 DUP5 SUB DUP10 MSTORE DUP2 MLOAD PUSH2 0x162B DUP6 DUP3 PUSH2 0x15CA JUMP JUMPDEST SWAP5 POP PUSH2 0x1636 DUP4 PUSH2 0x15DD JUMP JUMPDEST SWAP3 POP PUSH1 0x20 DUP11 ADD SWAP10 POP POP PUSH1 0x1 DUP2 ADD SWAP1 POP PUSH2 0x1612 JUMP JUMPDEST POP DUP3 SWAP8 POP DUP8 SWAP6 POP POP POP POP POP POP SWAP3 SWAP2 POP POP JUMP JUMPDEST PUSH0 PUSH1 0x20 DUP3 ADD SWAP1 POP DUP2 DUP2 SUB PUSH0 DUP4 ADD MSTORE PUSH2 0x1674 DUP2 DUP5 PUSH2 0x15E9 JUMP JUMPDEST SWAP1 POP SWAP3 SWAP2 POP POP JUMP JUMPDEST PUSH0 PUSH1 0x20 DUP3 ADD SWAP1 POP PUSH2 0x168F PUSH0 DUP4 ADD DUP5 PUSH2 0x11A3 JUMP JUMPDEST SWAP3 SWAP2 POP POP JUMP JUMPDEST PUSH0 PUSH1 0x80 DUP3 ADD SWAP1 POP PUSH2 0x16A8 PUSH0 DUP4 ADD DUP8 PUSH2 0x1194 JUMP JUMPDEST PUSH2 0x16B5 PUSH1 0x20 DUP4 ADD DUP7 PUSH2 0x11A3 JUMP JUMPDEST DUP2 DUP2 SUB PUSH1 0x40 DUP4 ADD MSTORE PUSH2 0x16C7 DUP2 DUP6 PUSH2 0x11EA JUMP JUMPDEST SWAP1 POP PUSH2 0x16D6 PUSH1 0x60 DUP4 ADD DUP5 PUSH2 0x1194 JUMP JUMPDEST SWAP6 SWAP5 POP POP POP POP POP JUMP JUMPDEST PUSH0 PUSH1 0x20 DUP3 DUP5 SUB SLT ISZERO PUSH2 0x16F4 JUMPI PUSH2 0x16F3 PUSH2 0x1050 JUMP JUMPDEST JUMPDEST PUSH0 DUP3 ADD CALLDATALOAD PUSH8 0xFFFFFFFFFFFFFFFF DUP2 GT ISZERO PUSH2 0x1711 JUMPI PUSH2 0x1710 PUSH2 0x1054 JUMP JUMPDEST JUMPDEST PUSH2 0x171D DUP5 DUP3 DUP6 ADD PUSH2 0x13A4 JUMP JUMPDEST SWAP2 POP POP SWAP3 SWAP2 POP POP JUMP JUMPDEST PUSH32 0x4E487B7100000000000000000000000000000000000000000000000000000000 PUSH0 MSTORE PUSH1 0x22 PUSH1 0x4 MSTORE PUSH1 0x24 PUSH0 REVERT JUMPDEST PUSH0 PUSH1 0x2 DUP3 DIV SWAP1 POP PUSH1 0x1 DUP3 AND DUP1 PUSH2 0x176A JUMPI PUSH1 0x7F DUP3 AND SWAP2 POP JUMPDEST PUSH1 0x20 DUP3 LT DUP2 SUB PUSH2 0x177D JUMPI PUSH2 0x177C PUSH2 0x1726 JUMP JUMPDEST JUMPDEST POP SWAP2 SWAP1 POP JUMP JUMPDEST PUSH0 DUP2 SWAP1 POP DUP2 PUSH0 MSTORE PUSH1 0x20 PUSH0 KECCAK256 SWAP1 POP SWAP2 SWAP1 POP JUMP JUMPDEST PUSH0 PUSH1 0x20 PUSH1 0x1F DUP4 ADD DIV SWAP1 POP SWAP2 SWAP1 POP JUMP JUMPDEST PUSH0 DUP3 DUP3 SHL SWAP1 POP SWAP3 SWAP2 POP POP JUMP JUMPDEST PUSH0 PUSH1 0x8 DUP4 MUL PUSH2 0x17DF PUSH32 0xFFFFFFFFFFFFFFFFFFFFFFFFFFFFFFFFFFFFFFFFFFFFFFFFFFFFFFFFFFFFFFFF DUP3 PUSH2 0x17A4 JUMP JUMPDEST PUSH2 0x17E9 DUP7 DUP4 PUSH2 0x17A4 JUMP JUMPDEST SWAP6 POP DUP1 NOT DUP5 AND SWAP4 POP DUP1 DUP7 AND DUP5 OR SWAP3 POP POP POP SWAP4 SWAP3 POP POP POP JUMP JUMPDEST PUSH0 DUP2 SWAP1 POP SWAP2 SWAP1 POP JUMP JUMPDEST PUSH0 PUSH2 0x1824 PUSH2 0x181F PUSH2 0x181A DUP5 PUSH2 0x1123 JUMP JUMPDEST PUSH2 0x1801 JUMP JUMPDEST PUSH2 0x1123 JUMP JUMPDEST SWAP1 POP SWAP2 SWAP1 POP JUMP JUMPDEST PUSH0 DUP2 SWAP1 POP SWAP2 SWAP1 POP JUMP JUMPDEST PUSH2 0x183D DUP4 PUSH2 0x180A JUMP JUMPDEST PUSH2 0x1851 PUSH2 0x1849 DUP3 PUSH2 0x182B JUMP JUMPDEST DUP5 DUP5 SLOAD PUSH2 0x17B0 JUMP JUMPDEST DUP3 SSTORE POP POP POP POP JUMP JUMPDEST PUSH0 SWAP1 JUMP JUMPDEST PUSH2 0x1865 PUSH2 0x1859 JUMP JUMPDEST PUSH2 0x1870 DUP2 DUP5 DUP5 PUSH2 0x1834 JUMP JUMPDEST POP POP POP JUMP JUMPDEST JUMPDEST DUP2 DUP2 LT ISZERO PUSH2 0x1893 JUMPI PUSH2 0x1888 PUSH0 DUP3 PUSH2 0x185D JUMP JUMPDEST PUSH1 0x1 DUP2 ADD SWAP1 POP PUSH2 0x1876 JUMP JUMPDEST POP POP JUMP JUMPDEST PUSH1 0x1F DUP3 GT ISZERO PUSH2 0x18D8 JUMPI PUSH2 0x18A9 DUP2 PUSH2 0x1783 JUMP JUMPDEST PUSH2 0x18B2 DUP5 PUSH2 0x1795 JUMP JUMPDEST DUP2 ADD PUSH1 0x20 DUP6 LT ISZERO PUSH2 0x18C1 JUMPI DUP2 SWAP1 POP JUMPDEST PUSH2 0x18D5 PUSH2 0x18CD DUP6 PUSH2 0x1795 JUMP JUMPDEST DUP4 ADD DUP3 PUSH2 0x1875 JUMP JUMPDEST POP POP JUMPDEST POP POP POP JUMP JUMPDEST PUSH0 DUP3 DUP3 SHR SWAP1 POP SWAP3 SWAP2 POP POP JUMP JUMPDEST PUSH0 PUSH2 0x18F8 PUSH0 NOT DUP5 PUSH1 0x8 MUL PUSH2 0x18DD JUMP JUMPDEST NOT DUP1 DUP4 AND SWAP2 POP POP SWAP3 SWAP2 POP POP JUMP JUMPDEST PUSH0 PUSH2 0x1910 DUP4 DUP4 PUSH2 0x18E9 JUMP JUMPDEST SWAP2 POP DUP3 PUSH1 0x2 MUL DUP3 OR SWAP1 POP SWAP3 SWAP2 POP POP JUMP JUMPDEST PUSH2 0x1929 DUP3 PUSH2 0x11B2 JUMP JUMPDEST PUSH8 0xFFFFFFFFFFFFFFFF DUP2 GT ISZERO PUSH2 0x1942 JUMPI PUSH2 0x1941 PUSH2 0x12AD JUMP JUMPDEST JUMPDEST PUSH2 0x194C DUP3 SLOAD PUSH2 0x1753 JUMP JUMPDEST PUSH2 0x1957 DUP3 DUP3 DUP6 PUSH2 0x1897 JUMP JUMPDEST PUSH0 PUSH1 0x20 SWAP1 POP PUSH1 0x1F DUP4 GT PUSH1 0x1 DUP2 EQ PUSH2 0x1988 JUMPI PUSH0 DUP5 ISZERO PUSH2 0x1976 JUMPI DUP3 DUP8 ADD MLOAD SWAP1 POP JUMPDEST PUSH2 0x1980 DUP6 DUP3 PUSH2 0x1905 JUMP JUMPDEST DUP7 SSTORE POP PUSH2 0x19E7 JUMP JUMPDEST PUSH1 0x1F NOT DUP5 AND PUSH2 0x1996 DUP7 PUSH2 0x1783 JUMP JUMPDEST PUSH0 JUMPDEST DUP3 DUP2 LT ISZERO PUSH2 0x19BD JUMPI DUP5 DUP10 ADD MLOAD DUP3 SSTORE PUSH1 0x1 DUP3 ADD SWAP2 POP PUSH1 0x20 DUP6 ADD SWAP5 POP PUSH1 0x20 DUP2 ADD SWAP1 POP PUSH2 0x1998 JUMP JUMPDEST DUP7 DUP4 LT ISZERO PUSH2 0x19DA JUMPI DUP5 DUP10 ADD MLOAD PUSH2 0x19D6 PUSH1 0x1F DUP10 AND DUP3 PUSH2 0x18E9 JUMP JUMPDEST DUP4 SSTORE POP JUMPDEST PUSH1 0x1 PUSH1 0x2 DUP9 MUL ADD DUP9 SSTORE POP POP POP JUMPDEST POP POP POP POP POP POP JUMP JUMPDEST PUSH32 0x4E487B7100000000000000000000000000000000000000000000000000000000 PUSH0 MSTORE PUSH1 0x11 PUSH1 0x4 MSTORE PUSH1 0x24 PUSH0 REVERT JUMPDEST PUSH0 PUSH2 0x1A26 DUP3 PUSH2 0x1123 JUMP JUMPDEST SWAP2 POP PUSH32 0xFFFFFFFFFFFFFFFFFFFFFFFFFFFFFFFFFFFFFFFFFFFFFFFFFFFFFFFFFFFFFFFF DUP3 SUB PUSH2 0x1A58 JUMPI PUSH2 0x1A57 PUSH2 0x19EF JUMP JUMPDEST JUMPDEST PUSH1 0x1 DUP3 ADD SWAP1 POP SWAP2 SWAP1 POP JUMP JUMPDEST PUSH32 0x57726F6E6720696E707574000000000000000000000000000000000000000000 PUSH0 DUP3 ADD MSTORE POP JUMP JUMPDEST PUSH0 PUSH2 0x1A97 PUSH1 0xB DUP4 PUSH2 0x11BC JUMP JUMPDEST SWAP2 POP PUSH2 0x1AA2 DUP3 PUSH2 0x1A63 JUMP JUMPDEST PUSH1 0x20 DUP3 ADD SWAP1 POP SWAP2 SWAP1 POP JUMP JUMPDEST PUSH0 PUSH1 0x20 DUP3 ADD SWAP1 POP DUP2 DUP2 SUB PUSH0 DUP4 ADD MSTORE PUSH2 0x1AC4 DUP2 PUSH2 0x1A8B JUMP JUMPDEST SWAP1 POP SWAP2 SWAP1 POP JUMP JUMPDEST PUSH0 PUSH2 0x1AD5 DUP3 PUSH2 0x1123 JUMP JUMPDEST SWAP2 POP PUSH2 0x1AE0 DUP4 PUSH2 0x1123 JUMP JUMPDEST SWAP3 POP DUP3 DUP3 SUB SWAP1 POP DUP2 DUP2 GT ISZERO PUSH2 0x1AF8 JUMPI PUSH2 0x1AF7 PUSH2 0x19EF JUMP JUMPDEST JUMPDEST SWAP3 SWAP2 POP POP JUMP JUMPDEST PUSH32 0x4E487B7100000000000000000000000000000000000000000000000000000000 PUSH0 MSTORE PUSH1 0x32 PUSH1 0x4 MSTORE PUSH1 0x24 PUSH0 REVERT JUMPDEST PUSH32 0x496E76616C696420636F756E7400000000000000000000000000000000000000 PUSH0 DUP3 ADD MSTORE POP JUMP JUMPDEST PUSH0 PUSH2 0x1B5F PUSH1 0xD DUP4 PUSH2 0x11BC JUMP JUMPDEST SWAP2 POP PUSH2 0x1B6A DUP3 PUSH2 0x1B2B JUMP JUMPDEST PUSH1 0x20 DUP3 ADD SWAP1 POP SWAP2 SWAP1 POP JUMP JUMPDEST PUSH0 PUSH1 0x20 DUP3 ADD SWAP1 POP DUP2 DUP2 SUB PUSH0 DUP4 ADD MSTORE PUSH2 0x1B8C DUP2 PUSH2 0x1B53 JUMP JUMPDEST SWAP1 POP SWAP2 SWAP1 POP JUMP JUMPDEST PUSH0 PUSH2 0x1B9D DUP3 PUSH2 0x1123 JUMP JUMPDEST SWAP2 POP PUSH2 0x1BA8 DUP4 PUSH2 0x1123 JUMP JUMPDEST SWAP3 POP DUP3 DUP3 ADD SWAP1 POP DUP1 DUP3 GT ISZERO PUSH2 0x1BC0 JUMPI PUSH2 0x1BBF PUSH2 0x19EF JUMP JUMPDEST JUMPDEST SWAP3 SWAP2 POP POP JUMP JUMPDEST PUSH32 0x556E617574686F72697A65640000000000000000000000000000000000000000 PUSH0 DUP3 ADD MSTORE POP JUMP JUMPDEST PUSH0 PUSH2 0x1BFA PUSH1 0xC DUP4 PUSH2 0x11BC JUMP JUMPDEST SWAP2 POP PUSH2 0x1C05 DUP3 PUSH2 0x1BC6 JUMP JUMPDEST PUSH1 0x20 DUP3 ADD SWAP1 POP SWAP2 SWAP1 POP JUMP JUMPDEST PUSH0 PUSH1 0x20 DUP3 ADD SWAP1 POP DUP2 DUP2 SUB PUSH0 DUP4 ADD MSTORE PUSH2 0x1C27 DUP2 PUSH2 0x1BEE JUMP JUMPDEST SWAP1 POP SWAP2 SWAP1 POP JUMP INVALID LOG2 PUSH5 0x6970667358 0x22 SLT KECCAK256 SWAP11 0xD3 0xA9 PUSH29 0x9CC5B62DEA8495E274DAE57DD9B01D5F96198080E3775C267B2E7CCB64 PUSH20 0x6F6C634300081A00330000000000000000000000 "
				},
				"gasEstimates": {
					"creation": {
						"codeDepositCost": "1453600",
						"executionCost": "1518",
						"totalCost": "1455118"
					},
					"external": {
						"_message(address,address,string)": "infinite",
						"allowaccess(address)": "24957",
						"conversations(address,uint256)": "infinite",
						"follow(address)": "49180",
						"following(address,uint256)": "infinite",
						"getLatesTweets(uint256)": "infinite",
						"getLatestTweetsOfUser(address,uint256)": "infinite",
						"message(address,address,string)": "infinite",
						"message(address,string)": "infinite",
						"operators(address,address)": "infinite",
						"removeaccess(address)": "24912",
						"tweet(string)": "infinite",
						"tweets(uint256)": "infinite",
						"tweetsof(address,uint256)": "infinite"
					},
					"internal": {
						"_tweet(address,string memory)": "infinite",
						"tweet(address,string memory)": "infinite"
					}
				},
				"methodIdentifiers": {
					"_message(address,address,string)": "5a1692b6",
					"allowaccess(address)": "a83d00ed",
					"conversations(address,uint256)": "3befea09",
					"follow(address)": "4dbf27cc",
					"following(address,uint256)": "9139cda5",
					"getLatesTweets(uint256)": "6188d3b3",
					"getLatestTweetsOfUser(address,uint256)": "ce336dad",
					"message(address,address,string)": "fd33c98f",
					"message(address,string)": "4fac1bb3",
					"operators(address,address)": "2637588e",
					"removeaccess(address)": "66ebcabd",
					"tweet(string)": "fb46d4c5",
					"tweets(uint256)": "e8d857b0",
					"tweetsof(address,uint256)": "517223b5"
				}
			},
			"storageLayout": {
				"storage": [
					{
						"astId": 26,
						"contract": "contracts/twitter.sol:twitter",
						"label": "tweets",
						"offset": 0,
						"slot": "0",
						"type": "t_mapping(t_uint256,t_struct(Tweet)10_storage)"
					},
					{
						"astId": 31,
						"contract": "contracts/twitter.sol:twitter",
						"label": "tweetsof",
						"offset": 0,
						"slot": "1",
						"type": "t_mapping(t_address,t_array(t_uint256)dyn_storage)"
					},
					{
						"astId": 37,
						"contract": "contracts/twitter.sol:twitter",
						"label": "conversations",
						"offset": 0,
						"slot": "2",
						"type": "t_mapping(t_address,t_array(t_struct(Message)21_storage)dyn_storage)"
					},
					{
						"astId": 43,
						"contract": "contracts/twitter.sol:twitter",
						"label": "operators",
						"offset": 0,
						"slot": "3",
						"type": "t_mapping(t_address,t_mapping(t_address,t_bool))"
					},
					{
						"astId": 48,
						"contract": "contracts/twitter.sol:twitter",
						"label": "following",
						"offset": 0,
						"slot": "4",
						"type": "t_mapping(t_address,t_array(t_address)dyn_storage)"
					},
					{
						"astId": 50,
						"contract": "contracts/twitter.sol:twitter",
						"label": "nextId",
						"offset": 0,
						"slot": "5",
						"type": "t_uint256"
					},
					{
						"astId": 52,
						"contract": "contracts/twitter.sol:twitter",
						"label": "nextMessageId",
						"offset": 0,
						"slot": "6",
						"type": "t_uint256"
					}
				],
				"types": {
					"t_address": {
						"encoding": "inplace",
						"label": "address",
						"numberOfBytes": "20"
					},
					"t_array(t_address)dyn_storage": {
						"base": "t_address",
						"encoding": "dynamic_array",
						"label": "address[]",
						"numberOfBytes": "32"
					},
					"t_array(t_struct(Message)21_storage)dyn_storage": {
						"base": "t_struct(Message)21_storage",
						"encoding": "dynamic_array",
						"label": "struct twitter.Message[]",
						"numberOfBytes": "32"
					},
					"t_array(t_uint256)dyn_storage": {
						"base": "t_uint256",
						"encoding": "dynamic_array",
						"label": "uint256[]",
						"numberOfBytes": "32"
					},
					"t_bool": {
						"encoding": "inplace",
						"label": "bool",
						"numberOfBytes": "1"
					},
					"t_mapping(t_address,t_array(t_address)dyn_storage)": {
						"encoding": "mapping",
						"key": "t_address",
						"label": "mapping(address => address[])",
						"numberOfBytes": "32",
						"value": "t_array(t_address)dyn_storage"
					},
					"t_mapping(t_address,t_array(t_struct(Message)21_storage)dyn_storage)": {
						"encoding": "mapping",
						"key": "t_address",
						"label": "mapping(address => struct twitter.Message[])",
						"numberOfBytes": "32",
						"value": "t_array(t_struct(Message)21_storage)dyn_storage"
					},
					"t_mapping(t_address,t_array(t_uint256)dyn_storage)": {
						"encoding": "mapping",
						"key": "t_address",
						"label": "mapping(address => uint256[])",
						"numberOfBytes": "32",
						"value": "t_array(t_uint256)dyn_storage"
					},
					"t_mapping(t_address,t_bool)": {
						"encoding": "mapping",
						"key": "t_address",
						"label": "mapping(address => bool)",
						"numberOfBytes": "32",
						"value": "t_bool"
					},
					"t_mapping(t_address,t_mapping(t_address,t_bool))": {
						"encoding": "mapping",
						"key": "t_address",
						"label": "mapping(address => mapping(address => bool))",
						"numberOfBytes": "32",
						"value": "t_mapping(t_address,t_bool)"
					},
					"t_mapping(t_uint256,t_struct(Tweet)10_storage)": {
						"encoding": "mapping",
						"key": "t_uint256",
						"label": "mapping(uint256 => struct twitter.Tweet)",
						"numberOfBytes": "32",
						"value": "t_struct(Tweet)10_storage"
					},
					"t_string_storage": {
						"encoding": "bytes",
						"label": "string",
						"numberOfBytes": "32"
					},
					"t_struct(Message)21_storage": {
						"encoding": "inplace",
						"label": "struct twitter.Message",
						"members": [
							{
								"astId": 12,
								"contract": "contracts/twitter.sol:twitter",
								"label": "id",
								"offset": 0,
								"slot": "0",
								"type": "t_uint256"
							},
							{
								"astId": 14,
								"contract": "contracts/twitter.sol:twitter",
								"label": "from",
								"offset": 0,
								"slot": "1",
								"type": "t_address"
							},
							{
								"astId": 16,
								"contract": "contracts/twitter.sol:twitter",
								"label": "to",
								"offset": 0,
								"slot": "2",
								"type": "t_address"
							},
							{
								"astId": 18,
								"contract": "contracts/twitter.sol:twitter",
								"label": "content",
								"offset": 0,
								"slot": "3",
								"type": "t_string_storage"
							},
							{
								"astId": 20,
								"contract": "contracts/twitter.sol:twitter",
								"label": "createdAt",
								"offset": 0,
								"slot": "4",
								"type": "t_uint256"
							}
						],
						"numberOfBytes": "160"
					},
					"t_struct(Tweet)10_storage": {
						"encoding": "inplace",
						"label": "struct twitter.Tweet",
						"members": [
							{
								"astId": 3,
								"contract": "contracts/twitter.sol:twitter",
								"label": "id",
								"offset": 0,
								"slot": "0",
								"type": "t_uint256"
							},
							{
								"astId": 5,
								"contract": "contracts/twitter.sol:twitter",
								"label": "author",
								"offset": 0,
								"slot": "1",
								"type": "t_address"
							},
							{
								"astId": 7,
								"contract": "contracts/twitter.sol:twitter",
								"label": "content",
								"offset": 0,
								"slot": "2",
								"type": "t_string_storage"
							},
							{
								"astId": 9,
								"contract": "contracts/twitter.sol:twitter",
								"label": "createdAt",
								"offset": 0,
								"slot": "3",
								"type": "t_uint256"
							}
						],
						"numberOfBytes": "128"
					},
					"t_uint256": {
						"encoding": "inplace",
						"label": "uint256",
						"numberOfBytes": "32"
					}
				}
			},
			"userdoc": {
				"kind": "user",
				"methods": {},
				"version": 1
			}
		}
	}
}