{
	"contracts/dao.sol": {
		"DAO": {
			"abi": [
				{
					"inputs": [
						{
							"internalType": "uint256",
							"name": "_contributionTimeEnd",
							"type": "uint256"
						},
						{
							"internalType": "uint256",
							"name": "_voteTime",
							"type": "uint256"
						},
						{
							"internalType": "uint256",
							"name": "_qorum",
							"type": "uint256"
						}
					],
					"stateMutability": "nonpayable",
					"type": "constructor"
				},
				{
					"inputs": [],
					"name": "Contribution",
					"outputs": [],
					"stateMutability": "payable",
					"type": "function"
				},
				{
					"inputs": [],
					"name": "PoposalList",
					"outputs": [
						{
							"components": [
								{
									"internalType": "uint256",
									"name": "id",
									"type": "uint256"
								},
								{
									"internalType": "string",
									"name": "desc",
									"type": "string"
								},
								{
									"internalType": "uint256",
									"name": "amt",
									"type": "uint256"
								},
								{
									"internalType": "address payable",
									"name": "recepient",
									"type": "address"
								},
								{
									"internalType": "uint256",
									"name": "votes",
									"type": "uint256"
								},
								{
									"internalType": "uint256",
									"name": "end",
									"type": "uint256"
								},
								{
									"internalType": "bool",
									"name": "isExecuted",
									"type": "bool"
								}
							],
							"internalType": "struct DAO.Proposal[]",
							"name": "",
							"type": "tuple[]"
						}
					],
					"stateMutability": "view",
					"type": "function"
				},
				{
					"inputs": [],
					"name": "availableFunds",
					"outputs": [
						{
							"internalType": "uint256",
							"name": "",
							"type": "uint256"
						}
					],
					"stateMutability": "view",
					"type": "function"
				},
				{
					"inputs": [],
					"name": "contributionTimeEnd",
					"outputs": [
						{
							"internalType": "uint256",
							"name": "",
							"type": "uint256"
						}
					],
					"stateMutability": "view",
					"type": "function"
				},
				{
					"inputs": [
						{
							"internalType": "string",
							"name": "_desc",
							"type": "string"
						},
						{
							"internalType": "uint256",
							"name": "_amt",
							"type": "uint256"
						},
						{
							"internalType": "address payable",
							"name": "_recepient",
							"type": "address"
						}
					],
					"name": "createProposal",
					"outputs": [],
					"stateMutability": "nonpayable",
					"type": "function"
				},
				{
					"inputs": [
						{
							"internalType": "uint256",
							"name": "_pid",
							"type": "uint256"
						}
					],
					"name": "executeProposal",
					"outputs": [],
					"stateMutability": "nonpayable",
					"type": "function"
				},
				{
					"inputs": [
						{
							"internalType": "uint256",
							"name": "",
							"type": "uint256"
						}
					],
					"name": "investorList",
					"outputs": [
						{
							"internalType": "address",
							"name": "",
							"type": "address"
						}
					],
					"stateMutability": "view",
					"type": "function"
				},
				{
					"inputs": [
						{
							"internalType": "address",
							"name": "",
							"type": "address"
						},
						{
							"internalType": "uint256",
							"name": "",
							"type": "uint256"
						}
					],
					"name": "isVoted",
					"outputs": [
						{
							"internalType": "bool",
							"name": "",
							"type": "bool"
						}
					],
					"stateMutability": "view",
					"type": "function"
				},
				{
					"inputs": [],
					"name": "manager",
					"outputs": [
						{
							"internalType": "address",
							"name": "",
							"type": "address"
						}
					],
					"stateMutability": "view",
					"type": "function"
				},
				{
					"inputs": [],
					"name": "nextProposalId",
					"outputs": [
						{
							"internalType": "uint256",
							"name": "",
							"type": "uint256"
						}
					],
					"stateMutability": "view",
					"type": "function"
				},
				{
					"inputs": [
						{
							"internalType": "address",
							"name": "",
							"type": "address"
						}
					],
					"name": "numOfShares",
					"outputs": [
						{
							"internalType": "uint256",
							"name": "",
							"type": "uint256"
						}
					],
					"stateMutability": "view",
					"type": "function"
				},
				{
					"inputs": [
						{
							"internalType": "uint256",
							"name": "",
							"type": "uint256"
						}
					],
					"name": "proposals",
					"outputs": [
						{
							"internalType": "uint256",
							"name": "id",
							"type": "uint256"
						},
						{
							"internalType": "string",
							"name": "desc",
							"type": "string"
						},
						{
							"internalType": "uint256",
							"name": "amt",
							"type": "uint256"
						},
						{
							"internalType": "address payable",
							"name": "recepient",
							"type": "address"
						},
						{
							"internalType": "uint256",
							"name": "votes",
							"type": "uint256"
						},
						{
							"internalType": "uint256",
							"name": "end",
							"type": "uint256"
						},
						{
							"internalType": "bool",
							"name": "isExecuted",
							"type": "bool"
						}
					],
					"stateMutability": "view",
					"type": "function"
				},
				{
					"inputs": [],
					"name": "quorum",
					"outputs": [
						{
							"internalType": "uint256",
							"name": "",
							"type": "uint256"
						}
					],
					"stateMutability": "view",
					"type": "function"
				},
				{
					"inputs": [
						{
							"internalType": "uint256",
							"name": "amt",
							"type": "uint256"
						}
					],
					"name": "redeemshare",
					"outputs": [],
					"stateMutability": "nonpayable",
					"type": "function"
				},
				{
					"inputs": [],
					"name": "totalShares",
					"outputs": [
						{
							"internalType": "uint256",
							"name": "",
							"type": "uint256"
						}
					],
					"stateMutability": "view",
					"type": "function"
				},
				{
					"inputs": [
						{
							"internalType": "uint256",
							"name": "amt",
							"type": "uint256"
						},
						{
							"internalType": "address",
							"name": "_to",
							"type": "address"
						}
					],
					"name": "transferShare",
					"outputs": [],
					"stateMutability": "nonpayable",
					"type": "function"
				},
				{
					"inputs": [
						{
							"internalType": "uint256",
							"name": "_pid",
							"type": "uint256"
						}
					],
					"name": "voteProposal",
					"outputs": [],
					"stateMutability": "nonpayable",
					"type": "function"
				},
				{
					"inputs": [],
					"name": "voteTime",
					"outputs": [
						{
							"internalType": "uint256",
							"name": "",
							"type": "uint256"
						}
					],
					"stateMutability": "view",
					"type": "function"
				},
				{
					"inputs": [
						{
							"internalType": "address",
							"name": "",
							"type": "address"
						},
						{
							"internalType": "address",
							"name": "",
							"type": "address"
						}
					],
					"name": "withdrawlStatus",
					"outputs": [
						{
							"internalType": "bool",
							"name": "",
							"type": "bool"
						}
					],
					"stateMutability": "view",
					"type": "function"
				}
			],
			"devdoc": {
				"kind": "dev",
				"methods": {},
				"version": 1
			},
			"evm": {
				"assembly": "    /* \"contracts/dao.sol\":74:4369  contract DAO{... */\n  mstore(0x40, 0x80)\n    /* \"contracts/dao.sol\":811:1105  constructor(uint _contributionTimeEnd, uint _voteTime, uint _qorum){... */\n  callvalue\n  dup1\n  iszero\n  tag_1\n  jumpi\n  0x00\n  dup1\n  revert\ntag_1:\n  pop\n  mload(0x40)\n  sub(codesize, bytecodeSize)\n  dup1\n  bytecodeSize\n  dup4\n  codecopy\n  dup2\n  dup2\n  add\n  0x40\n  mstore\n  dup2\n  add\n  swap1\n  tag_2\n  swap2\n  swap1\n  tag_3\n  jump\t// in\ntag_2:\n    /* \"contracts/dao.sol\":904:905  0 */\n  0x00\n    /* \"contracts/dao.sol\":897:903  _qorum */\n  dup2\n    /* \"contracts/dao.sol\":897:905  _qorum>0 */\n  gt\n    /* \"contracts/dao.sol\":897:921  _qorum>0 && _qorum < 100 */\n  dup1\n  iszero\n  tag_6\n  jumpi\n  pop\n    /* \"contracts/dao.sol\":918:921  100 */\n  0x64\n    /* \"contracts/dao.sol\":909:915  _qorum */\n  dup2\n    /* \"contracts/dao.sol\":909:921  _qorum < 100 */\n  lt\n    /* \"contracts/dao.sol\":897:921  _qorum>0 && _qorum < 100 */\ntag_6:\n    /* \"contracts/dao.sol\":889:938  require(_qorum>0 && _qorum < 100, \"Not a Valid \") */\n  tag_7\n  jumpi\n  mload(0x40)\n  0x08c379a000000000000000000000000000000000000000000000000000000000\n  dup2\n  mstore\n  0x04\n  add\n  tag_8\n  swap1\n  tag_9\n  jump\t// in\ntag_8:\n  mload(0x40)\n  dup1\n  swap2\n  sub\n  swap1\n  revert\ntag_7:\n    /* \"contracts/dao.sol\":989:1009  _contributionTimeEnd */\n  dup3\n    /* \"contracts/dao.sol\":971:986  block.timestamp */\n  timestamp\n    /* \"contracts/dao.sol\":971:1009  block.timestamp + _contributionTimeEnd */\n  tag_10\n  swap2\n  swap1\n  tag_11\n  jump\t// in\ntag_10:\n    /* \"contracts/dao.sol\":949:968  contributionTimeEnd */\n  0x08\n    /* \"contracts/dao.sol\":949:1009  contributionTimeEnd = block.timestamp + _contributionTimeEnd */\n  dup2\n  swap1\n  sstore\n  pop\n    /* \"contracts/dao.sol\":1031:1040  _voteTime */\n  dup2\n    /* \"contracts/dao.sol\":1020:1028  voteTime */\n  0x0a\n    /* \"contracts/dao.sol\":1020:1040  voteTime = _voteTime */\n  dup2\n  swap1\n  sstore\n  pop\n    /* \"contracts/dao.sol\":1060:1066  _qorum */\n  dup1\n    /* \"contracts/dao.sol\":1051:1057  quorum */\n  0x0b\n    /* \"contracts/dao.sol\":1051:1066  quorum = _qorum */\n  dup2\n  swap1\n  sstore\n  pop\n    /* \"contracts/dao.sol\":1087:1097  msg.sender */\n  caller\n    /* \"contracts/dao.sol\":1077:1084  manager */\n  0x0c\n  0x00\n    /* \"contracts/dao.sol\":1077:1097  manager = msg.sender */\n  0x0100\n  exp\n  dup2\n  sload\n  dup2\n  0xffffffffffffffffffffffffffffffffffffffff\n  mul\n  not\n  and\n  swap1\n  dup4\n  0xffffffffffffffffffffffffffffffffffffffff\n  and\n  mul\n  or\n  swap1\n  sstore\n  pop\n    /* \"contracts/dao.sol\":811:1105  constructor(uint _contributionTimeEnd, uint _voteTime, uint _qorum){... */\n  pop\n  pop\n  pop\n    /* \"contracts/dao.sol\":74:4369  contract DAO{... */\n  jump(tag_12)\n    /* \"#utility.yul\":88:205   */\ntag_14:\n    /* \"#utility.yul\":197:198   */\n  0x00\n    /* \"#utility.yul\":194:195   */\n  dup1\n    /* \"#utility.yul\":187:199   */\n  revert\n    /* \"#utility.yul\":334:411   */\ntag_16:\n    /* \"#utility.yul\":371:378   */\n  0x00\n    /* \"#utility.yul\":400:405   */\n  dup2\n    /* \"#utility.yul\":389:405   */\n  swap1\n  pop\n    /* \"#utility.yul\":334:411   */\n  swap2\n  swap1\n  pop\n  jump\t// out\n    /* \"#utility.yul\":417:539   */\ntag_17:\n    /* \"#utility.yul\":490:514   */\n  tag_29\n    /* \"#utility.yul\":508:513   */\n  dup2\n    /* \"#utility.yul\":490:514   */\n  tag_16\n  jump\t// in\ntag_29:\n    /* \"#utility.yul\":483:488   */\n  dup2\n    /* \"#utility.yul\":480:515   */\n  eq\n    /* \"#utility.yul\":470:533   */\n  tag_30\n  jumpi\n    /* \"#utility.yul\":529:530   */\n  0x00\n    /* \"#utility.yul\":526:527   */\n  dup1\n    /* \"#utility.yul\":519:531   */\n  revert\n    /* \"#utility.yul\":470:533   */\ntag_30:\n    /* \"#utility.yul\":417:539   */\n  pop\n  jump\t// out\n    /* \"#utility.yul\":545:688   */\ntag_18:\n    /* \"#utility.yul\":602:607   */\n  0x00\n    /* \"#utility.yul\":633:639   */\n  dup2\n    /* \"#utility.yul\":627:640   */\n  mload\n    /* \"#utility.yul\":618:640   */\n  swap1\n  pop\n    /* \"#utility.yul\":649:682   */\n  tag_32\n    /* \"#utility.yul\":676:681   */\n  dup2\n    /* \"#utility.yul\":649:682   */\n  tag_17\n  jump\t// in\ntag_32:\n    /* \"#utility.yul\":545:688   */\n  swap3\n  swap2\n  pop\n  pop\n  jump\t// out\n    /* \"#utility.yul\":694:1357   */\ntag_3:\n    /* \"#utility.yul\":782:788   */\n  0x00\n    /* \"#utility.yul\":790:796   */\n  dup1\n    /* \"#utility.yul\":798:804   */\n  0x00\n    /* \"#utility.yul\":847:849   */\n  0x60\n    /* \"#utility.yul\":835:844   */\n  dup5\n    /* \"#utility.yul\":826:833   */\n  dup7\n    /* \"#utility.yul\":822:845   */\n  sub\n    /* \"#utility.yul\":818:850   */\n  slt\n    /* \"#utility.yul\":815:934   */\n  iszero\n  tag_34\n  jumpi\n    /* \"#utility.yul\":853:932   */\n  tag_35\n  tag_14\n  jump\t// in\ntag_35:\n    /* \"#utility.yul\":815:934   */\ntag_34:\n    /* \"#utility.yul\":973:974   */\n  0x00\n    /* \"#utility.yul\":998:1062   */\n  tag_36\n    /* \"#utility.yul\":1054:1061   */\n  dup7\n    /* \"#utility.yul\":1045:1051   */\n  dup3\n    /* \"#utility.yul\":1034:1043   */\n  dup8\n    /* \"#utility.yul\":1030:1052   */\n  add\n    /* \"#utility.yul\":998:1062   */\n  tag_18\n  jump\t// in\ntag_36:\n    /* \"#utility.yul\":988:1062   */\n  swap4\n  pop\n    /* \"#utility.yul\":944:1072   */\n  pop\n    /* \"#utility.yul\":1111:1113   */\n  0x20\n    /* \"#utility.yul\":1137:1201   */\n  tag_37\n    /* \"#utility.yul\":1193:1200   */\n  dup7\n    /* \"#utility.yul\":1184:1190   */\n  dup3\n    /* \"#utility.yul\":1173:1182   */\n  dup8\n    /* \"#utility.yul\":1169:1191   */\n  add\n    /* \"#utility.yul\":1137:1201   */\n  tag_18\n  jump\t// in\ntag_37:\n    /* \"#utility.yul\":1127:1201   */\n  swap3\n  pop\n    /* \"#utility.yul\":1082:1211   */\n  pop\n    /* \"#utility.yul\":1250:1252   */\n  0x40\n    /* \"#utility.yul\":1276:1340   */\n  tag_38\n    /* \"#utility.yul\":1332:1339   */\n  dup7\n    /* \"#utility.yul\":1323:1329   */\n  dup3\n    /* \"#utility.yul\":1312:1321   */\n  dup8\n    /* \"#utility.yul\":1308:1330   */\n  add\n    /* \"#utility.yul\":1276:1340   */\n  tag_18\n  jump\t// in\ntag_38:\n    /* \"#utility.yul\":1266:1340   */\n  swap2\n  pop\n    /* \"#utility.yul\":1221:1350   */\n  pop\n    /* \"#utility.yul\":694:1357   */\n  swap3\n  pop\n  swap3\n  pop\n  swap3\n  jump\t// out\n    /* \"#utility.yul\":1363:1532   */\ntag_19:\n    /* \"#utility.yul\":1447:1458   */\n  0x00\n    /* \"#utility.yul\":1481:1487   */\n  dup3\n    /* \"#utility.yul\":1476:1479   */\n  dup3\n    /* \"#utility.yul\":1469:1488   */\n  mstore\n    /* \"#utility.yul\":1521:1525   */\n  0x20\n    /* \"#utility.yul\":1516:1519   */\n  dup3\n    /* \"#utility.yul\":1512:1526   */\n  add\n    /* \"#utility.yul\":1497:1526   */\n  swap1\n  pop\n    /* \"#utility.yul\":1363:1532   */\n  swap3\n  swap2\n  pop\n  pop\n  jump\t// out\n    /* \"#utility.yul\":1538:1700   */\ntag_20:\n    /* \"#utility.yul\":1678:1692   */\n  0x4e6f7420612056616c6964200000000000000000000000000000000000000000\n    /* \"#utility.yul\":1674:1675   */\n  0x00\n    /* \"#utility.yul\":1666:1672   */\n  dup3\n    /* \"#utility.yul\":1662:1676   */\n  add\n    /* \"#utility.yul\":1655:1693   */\n  mstore\n    /* \"#utility.yul\":1538:1700   */\n  pop\n  jump\t// out\n    /* \"#utility.yul\":1706:2072   */\ntag_21:\n    /* \"#utility.yul\":1848:1851   */\n  0x00\n    /* \"#utility.yul\":1869:1936   */\n  tag_42\n    /* \"#utility.yul\":1933:1935   */\n  0x0c\n    /* \"#utility.yul\":1928:1931   */\n  dup4\n    /* \"#utility.yul\":1869:1936   */\n  tag_19\n  jump\t// in\ntag_42:\n    /* \"#utility.yul\":1862:1936   */\n  swap2\n  pop\n    /* \"#utility.yul\":1945:2038   */\n  tag_43\n    /* \"#utility.yul\":2034:2037   */\n  dup3\n    /* \"#utility.yul\":1945:2038   */\n  tag_20\n  jump\t// in\ntag_43:\n    /* \"#utility.yul\":2063:2065   */\n  0x20\n    /* \"#utility.yul\":2058:2061   */\n  dup3\n    /* \"#utility.yul\":2054:2066   */\n  add\n    /* \"#utility.yul\":2047:2066   */\n  swap1\n  pop\n    /* \"#utility.yul\":1706:2072   */\n  swap2\n  swap1\n  pop\n  jump\t// out\n    /* \"#utility.yul\":2078:2497   */\ntag_9:\n    /* \"#utility.yul\":2244:2248   */\n  0x00\n    /* \"#utility.yul\":2282:2284   */\n  0x20\n    /* \"#utility.yul\":2271:2280   */\n  dup3\n    /* \"#utility.yul\":2267:2285   */\n  add\n    /* \"#utility.yul\":2259:2285   */\n  swap1\n  pop\n    /* \"#utility.yul\":2331:2340   */\n  dup2\n    /* \"#utility.yul\":2325:2329   */\n  dup2\n    /* \"#utility.yul\":2321:2341   */\n  sub\n    /* \"#utility.yul\":2317:2318   */\n  0x00\n    /* \"#utility.yul\":2306:2315   */\n  dup4\n    /* \"#utility.yul\":2302:2319   */\n  add\n    /* \"#utility.yul\":2295:2342   */\n  mstore\n    /* \"#utility.yul\":2359:2490   */\n  tag_45\n    /* \"#utility.yul\":2485:2489   */\n  dup2\n    /* \"#utility.yul\":2359:2490   */\n  tag_21\n  jump\t// in\ntag_45:\n    /* \"#utility.yul\":2351:2490   */\n  swap1\n  pop\n    /* \"#utility.yul\":2078:2497   */\n  swap2\n  swap1\n  pop\n  jump\t// out\n    /* \"#utility.yul\":2503:2683   */\ntag_22:\n    /* \"#utility.yul\":2551:2628   */\n  0x4e487b7100000000000000000000000000000000000000000000000000000000\n    /* \"#utility.yul\":2548:2549   */\n  0x00\n    /* \"#utility.yul\":2541:2629   */\n  mstore\n    /* \"#utility.yul\":2648:2652   */\n  0x11\n    /* \"#utility.yul\":2645:2646   */\n  0x04\n    /* \"#utility.yul\":2638:2653   */\n  mstore\n    /* \"#utility.yul\":2672:2676   */\n  0x24\n    /* \"#utility.yul\":2669:2670   */\n  0x00\n    /* \"#utility.yul\":2662:2677   */\n  revert\n    /* \"#utility.yul\":2689:2880   */\ntag_11:\n    /* \"#utility.yul\":2729:2732   */\n  0x00\n    /* \"#utility.yul\":2748:2768   */\n  tag_48\n    /* \"#utility.yul\":2766:2767   */\n  dup3\n    /* \"#utility.yul\":2748:2768   */\n  tag_16\n  jump\t// in\ntag_48:\n    /* \"#utility.yul\":2743:2768   */\n  swap2\n  pop\n    /* \"#utility.yul\":2782:2802   */\n  tag_49\n    /* \"#utility.yul\":2800:2801   */\n  dup4\n    /* \"#utility.yul\":2782:2802   */\n  tag_16\n  jump\t// in\ntag_49:\n    /* \"#utility.yul\":2777:2802   */\n  swap3\n  pop\n    /* \"#utility.yul\":2825:2826   */\n  dup3\n    /* \"#utility.yul\":2822:2823   */\n  dup3\n    /* \"#utility.yul\":2818:2827   */\n  add\n    /* \"#utility.yul\":2811:2827   */\n  swap1\n  pop\n    /* \"#utility.yul\":2846:2849   */\n  dup1\n    /* \"#utility.yul\":2843:2844   */\n  dup3\n    /* \"#utility.yul\":2840:2850   */\n  gt\n    /* \"#utility.yul\":2837:2873   */\n  iszero\n  tag_50\n  jumpi\n    /* \"#utility.yul\":2853:2871   */\n  tag_51\n  tag_22\n  jump\t// in\ntag_51:\n    /* \"#utility.yul\":2837:2873   */\ntag_50:\n    /* \"#utility.yul\":2689:2880   */\n  swap3\n  swap2\n  pop\n  pop\n  jump\t// out\n    /* \"contracts/dao.sol\":74:4369  contract DAO{... */\ntag_12:\n  dataSize(sub_0)\n  dup1\n  dataOffset(sub_0)\n  0x00\n  codecopy\n  0x00\n  return\nstop\n\nsub_0: assembly {\n        /* \"contracts/dao.sol\":74:4369  contract DAO{... */\n      mstore(0x40, 0x80)\n      jumpi(tag_1, lt(calldatasize, 0x04))\n      shr(0xe0, calldataload(0x00))\n      dup1\n      0x46fcff4c\n      gt\n      tag_21\n      jumpi\n      dup1\n      0x8ee36f05\n      gt\n      tag_22\n      jumpi\n      dup1\n      0x8ee36f05\n      eq\n      tag_16\n      jumpi\n      dup1\n      0xafc8275b\n      eq\n      tag_17\n      jumpi\n      dup1\n      0xbcf93dd6\n      eq\n      tag_18\n      jumpi\n      dup1\n      0xdd5fee6f\n      eq\n      tag_19\n      jumpi\n      dup1\n      0xfb65e4b1\n      eq\n      tag_20\n      jumpi\n      jump(tag_1)\n    tag_22:\n      dup1\n      0x46fcff4c\n      eq\n      tag_11\n      jumpi\n      dup1\n      0x481c6a75\n      eq\n      tag_12\n      jumpi\n      dup1\n      0x6a907803\n      eq\n      tag_13\n      jumpi\n      dup1\n      0x6ac1e01f\n      eq\n      tag_14\n      jumpi\n      dup1\n      0x807896d5\n      eq\n      tag_15\n      jumpi\n      jump(tag_1)\n    tag_21:\n      dup1\n      0x1703a018\n      gt\n      tag_23\n      jumpi\n      dup1\n      0x1703a018\n      eq\n      tag_6\n      jumpi\n      dup1\n      0x2ab09d14\n      eq\n      tag_7\n      jumpi\n      dup1\n      0x3551336f\n      eq\n      tag_8\n      jumpi\n      dup1\n      0x39977842\n      eq\n      tag_9\n      jumpi\n      dup1\n      0x3a98ef39\n      eq\n      tag_10\n      jumpi\n      jump(tag_1)\n    tag_23:\n      dup1\n      0x013cf08b\n      eq\n      tag_2\n      jumpi\n      dup1\n      0x039383e6\n      eq\n      tag_3\n      jumpi\n      dup1\n      0x0d61b519\n      eq\n      tag_4\n      jumpi\n      dup1\n      0x12f9b48e\n      eq\n      tag_5\n      jumpi\n    tag_1:\n      0x00\n      dup1\n      revert\n        /* \"contracts/dao.sol\":546:587  mapping (uint=>Proposal) public proposals */\n    tag_2:\n      callvalue\n      dup1\n      iszero\n      tag_24\n      jumpi\n      0x00\n      dup1\n      revert\n    tag_24:\n      pop\n      tag_25\n      0x04\n      dup1\n      calldatasize\n      sub\n      dup2\n      add\n      swap1\n      tag_26\n      swap2\n      swap1\n      tag_27\n      jump\t// in\n    tag_26:\n      tag_28\n      jump\t// in\n    tag_25:\n      mload(0x40)\n      tag_29\n      swap8\n      swap7\n      swap6\n      swap5\n      swap4\n      swap3\n      swap2\n      swap1\n      tag_30\n      jump\t// in\n    tag_29:\n      mload(0x40)\n      dup1\n      swap2\n      sub\n      swap1\n      return\n        /* \"contracts/dao.sol\":2212:2735  function transferShare(uint amt, address _to) public {... */\n    tag_3:\n      callvalue\n      dup1\n      iszero\n      tag_31\n      jumpi\n      0x00\n      dup1\n      revert\n    tag_31:\n      pop\n      tag_32\n      0x04\n      dup1\n      calldatasize\n      sub\n      dup2\n      add\n      swap1\n      tag_33\n      swap2\n      swap1\n      tag_34\n      jump\t// in\n    tag_33:\n      tag_35\n      jump\t// in\n    tag_32:\n      stop\n        /* \"contracts/dao.sol\":3568:4101  function executeProposal(uint _pid) public onlyManager(){... */\n    tag_4:\n      callvalue\n      dup1\n      iszero\n      tag_36\n      jumpi\n      0x00\n      dup1\n      revert\n    tag_36:\n      pop\n      tag_37\n      0x04\n      dup1\n      calldatasize\n      sub\n      dup2\n      add\n      swap1\n      tag_38\n      swap2\n      swap1\n      tag_27\n      jump\t// in\n    tag_38:\n      tag_39\n      jump\t// in\n    tag_37:\n      stop\n        /* \"contracts/dao.sol\":510:539  address[] public investorList */\n    tag_5:\n      callvalue\n      dup1\n      iszero\n      tag_40\n      jumpi\n      0x00\n      dup1\n      revert\n    tag_40:\n      pop\n      tag_41\n      0x04\n      dup1\n      calldatasize\n      sub\n      dup2\n      add\n      swap1\n      tag_42\n      swap2\n      swap1\n      tag_27\n      jump\t// in\n    tag_42:\n      tag_43\n      jump\t// in\n    tag_41:\n      mload(0x40)\n      tag_44\n      swap2\n      swap1\n      tag_45\n      jump\t// in\n    tag_44:\n      mload(0x40)\n      dup1\n      swap2\n      sub\n      swap1\n      return\n        /* \"contracts/dao.sol\":755:773  uint public quorum */\n    tag_6:\n      callvalue\n      dup1\n      iszero\n      tag_46\n      jumpi\n      0x00\n      dup1\n      revert\n    tag_46:\n      pop\n      tag_47\n      tag_48\n      jump\t// in\n    tag_47:\n      mload(0x40)\n      tag_49\n      swap2\n      swap1\n      tag_50\n      jump\t// in\n    tag_49:\n      mload(0x40)\n      dup1\n      swap2\n      sub\n      swap1\n      return\n        /* \"contracts/dao.sol\":695:721  uint public nextProposalId */\n    tag_7:\n      callvalue\n      dup1\n      iszero\n      tag_51\n      jumpi\n      0x00\n      dup1\n      revert\n    tag_51:\n      pop\n      tag_52\n      tag_53\n      jump\t// in\n    tag_52:\n      mload(0x40)\n      tag_54\n      swap2\n      swap1\n      tag_50\n      jump\t// in\n    tag_54:\n      mload(0x40)\n      dup1\n      swap2\n      sub\n      swap1\n      return\n        /* \"contracts/dao.sol\":1703:2206  function redeemshare(uint amt) public onlyInvestor() {... */\n    tag_8:\n      callvalue\n      dup1\n      iszero\n      tag_55\n      jumpi\n      0x00\n      dup1\n      revert\n    tag_55:\n      pop\n      tag_56\n      0x04\n      dup1\n      calldatasize\n      sub\n      dup2\n      add\n      swap1\n      tag_57\n      swap2\n      swap1\n      tag_27\n      jump\t// in\n    tag_57:\n      tag_58\n      jump\t// in\n    tag_56:\n      stop\n        /* \"contracts/dao.sol\":4107:4366  function PoposalList() public view returns(Proposal[] memory){... */\n    tag_9:\n      callvalue\n      dup1\n      iszero\n      tag_59\n      jumpi\n      0x00\n      dup1\n      revert\n    tag_59:\n      pop\n      tag_60\n      tag_61\n      jump\t// in\n    tag_60:\n      mload(0x40)\n      tag_62\n      swap2\n      swap1\n      tag_63\n      jump\t// in\n    tag_62:\n      mload(0x40)\n      dup1\n      swap2\n      sub\n      swap1\n      return\n        /* \"contracts/dao.sol\":594:617  uint public totalShares */\n    tag_10:\n      callvalue\n      dup1\n      iszero\n      tag_64\n      jumpi\n      0x00\n      dup1\n      revert\n    tag_64:\n      pop\n      tag_65\n      tag_66\n      jump\t// in\n    tag_65:\n      mload(0x40)\n      tag_67\n      swap2\n      swap1\n      tag_50\n      jump\t// in\n    tag_67:\n      mload(0x40)\n      dup1\n      swap2\n      sub\n      swap1\n      return\n        /* \"contracts/dao.sol\":624:650  uint public availableFunds */\n    tag_11:\n      callvalue\n      dup1\n      iszero\n      tag_68\n      jumpi\n      0x00\n      dup1\n      revert\n    tag_68:\n      pop\n      tag_69\n      tag_70\n      jump\t// in\n    tag_69:\n      mload(0x40)\n      tag_71\n      swap2\n      swap1\n      tag_50\n      jump\t// in\n    tag_71:\n      mload(0x40)\n      dup1\n      swap2\n      sub\n      swap1\n      return\n        /* \"contracts/dao.sol\":780:802  address public manager */\n    tag_12:\n      callvalue\n      dup1\n      iszero\n      tag_72\n      jumpi\n      0x00\n      dup1\n      revert\n    tag_72:\n      pop\n      tag_73\n      tag_74\n      jump\t// in\n    tag_73:\n      mload(0x40)\n      tag_75\n      swap2\n      swap1\n      tag_45\n      jump\t// in\n    tag_75:\n      mload(0x40)\n      dup1\n      swap2\n      sub\n      swap1\n      return\n        /* \"contracts/dao.sol\":333:374  mapping(address=>uint) public numOfShares */\n    tag_13:\n      callvalue\n      dup1\n      iszero\n      tag_76\n      jumpi\n      0x00\n      dup1\n      revert\n    tag_76:\n      pop\n      tag_77\n      0x04\n      dup1\n      calldatasize\n      sub\n      dup2\n      add\n      swap1\n      tag_78\n      swap2\n      swap1\n      tag_79\n      jump\t// in\n    tag_78:\n      tag_80\n      jump\t// in\n    tag_77:\n      mload(0x40)\n      tag_81\n      swap2\n      swap1\n      tag_50\n      jump\t// in\n    tag_81:\n      mload(0x40)\n      dup1\n      swap2\n      sub\n      swap1\n      return\n        /* \"contracts/dao.sol\":2741:3071  function createProposal(string calldata _desc, uint _amt,address payable _recepient) public onlyManager {... */\n    tag_14:\n      callvalue\n      dup1\n      iszero\n      tag_82\n      jumpi\n      0x00\n      dup1\n      revert\n    tag_82:\n      pop\n      tag_83\n      0x04\n      dup1\n      calldatasize\n      sub\n      dup2\n      add\n      swap1\n      tag_84\n      swap2\n      swap1\n      tag_85\n      jump\t// in\n    tag_84:\n      tag_86\n      jump\t// in\n    tag_83:\n      stop\n        /* \"contracts/dao.sol\":3077:3562  function voteProposal(uint _pid) public onlyInvestor() {... */\n    tag_15:\n      callvalue\n      dup1\n      iszero\n      tag_87\n      jumpi\n      0x00\n      dup1\n      revert\n    tag_87:\n      pop\n      tag_88\n      0x04\n      dup1\n      calldatasize\n      sub\n      dup2\n      add\n      swap1\n      tag_89\n      swap2\n      swap1\n      tag_27\n      jump\t// in\n    tag_89:\n      tag_90\n      jump\t// in\n    tag_88:\n      stop\n        /* \"contracts/dao.sol\":381:433  mapping(address=>mapping(uint=>bool)) public isVoted */\n    tag_16:\n      callvalue\n      dup1\n      iszero\n      tag_91\n      jumpi\n      0x00\n      dup1\n      revert\n    tag_91:\n      pop\n      tag_92\n      0x04\n      dup1\n      calldatasize\n      sub\n      dup2\n      add\n      swap1\n      tag_93\n      swap2\n      swap1\n      tag_94\n      jump\t// in\n    tag_93:\n      tag_95\n      jump\t// in\n    tag_92:\n      mload(0x40)\n      tag_96\n      swap2\n      swap1\n      tag_97\n      jump\t// in\n    tag_96:\n      mload(0x40)\n      dup1\n      swap2\n      sub\n      swap1\n      return\n        /* \"contracts/dao.sol\":657:688  uint public contributionTimeEnd */\n    tag_17:\n      callvalue\n      dup1\n      iszero\n      tag_98\n      jumpi\n      0x00\n      dup1\n      revert\n    tag_98:\n      pop\n      tag_99\n      tag_100\n      jump\t// in\n    tag_99:\n      mload(0x40)\n      tag_101\n      swap2\n      swap1\n      tag_50\n      jump\t// in\n    tag_101:\n      mload(0x40)\n      dup1\n      swap2\n      sub\n      swap1\n      return\n        /* \"contracts/dao.sol\":728:748  uint public voteTime */\n    tag_18:\n      callvalue\n      dup1\n      iszero\n      tag_102\n      jumpi\n      0x00\n      dup1\n      revert\n    tag_102:\n      pop\n      tag_103\n      tag_104\n      jump\t// in\n    tag_103:\n      mload(0x40)\n      tag_105\n      swap2\n      swap1\n      tag_50\n      jump\t// in\n    tag_105:\n      mload(0x40)\n      dup1\n      swap2\n      sub\n      swap1\n      return\n        /* \"contracts/dao.sol\":440:503  mapping(address=>mapping(address=>bool)) public withdrawlStatus */\n    tag_19:\n      callvalue\n      dup1\n      iszero\n      tag_106\n      jumpi\n      0x00\n      dup1\n      revert\n    tag_106:\n      pop\n      tag_107\n      0x04\n      dup1\n      calldatasize\n      sub\n      dup2\n      add\n      swap1\n      tag_108\n      swap2\n      swap1\n      tag_109\n      jump\t// in\n    tag_108:\n      tag_110\n      jump\t// in\n    tag_107:\n      mload(0x40)\n      tag_111\n      swap2\n      swap1\n      tag_97\n      jump\t// in\n    tag_111:\n      mload(0x40)\n      dup1\n      swap2\n      sub\n      swap1\n      return\n        /* \"contracts/dao.sol\":1345:1697  function Contribution() public payable {... */\n    tag_20:\n      tag_112\n      tag_113\n      jump\t// in\n    tag_112:\n      stop\n        /* \"contracts/dao.sol\":546:587  mapping (uint=>Proposal) public proposals */\n    tag_28:\n      mstore(0x20, 0x05)\n      dup1\n      0x00\n      mstore\n      keccak256(0x00, 0x40)\n      0x00\n      swap2\n      pop\n      swap1\n      pop\n      dup1\n      0x00\n      add\n      sload\n      swap1\n      dup1\n      0x01\n      add\n      dup1\n      sload\n      tag_114\n      swap1\n      tag_115\n      jump\t// in\n    tag_114:\n      dup1\n      0x1f\n      add\n      0x20\n      dup1\n      swap2\n      div\n      mul\n      0x20\n      add\n      mload(0x40)\n      swap1\n      dup2\n      add\n      0x40\n      mstore\n      dup1\n      swap3\n      swap2\n      swap1\n      dup2\n      dup2\n      mstore\n      0x20\n      add\n      dup3\n      dup1\n      sload\n      tag_116\n      swap1\n      tag_115\n      jump\t// in\n    tag_116:\n      dup1\n      iszero\n      tag_117\n      jumpi\n      dup1\n      0x1f\n      lt\n      tag_118\n      jumpi\n      0x0100\n      dup1\n      dup4\n      sload\n      div\n      mul\n      dup4\n      mstore\n      swap2\n      0x20\n      add\n      swap2\n      jump(tag_117)\n    tag_118:\n      dup3\n      add\n      swap2\n      swap1\n      0x00\n      mstore\n      keccak256(0x00, 0x20)\n      swap1\n    tag_119:\n      dup2\n      sload\n      dup2\n      mstore\n      swap1\n      0x01\n      add\n      swap1\n      0x20\n      add\n      dup1\n      dup4\n      gt\n      tag_119\n      jumpi\n      dup3\n      swap1\n      sub\n      0x1f\n      and\n      dup3\n      add\n      swap2\n    tag_117:\n      pop\n      pop\n      pop\n      pop\n      pop\n      swap1\n      dup1\n      0x02\n      add\n      sload\n      swap1\n      dup1\n      0x03\n      add\n      0x00\n      swap1\n      sload\n      swap1\n      0x0100\n      exp\n      swap1\n      div\n      0xffffffffffffffffffffffffffffffffffffffff\n      and\n      swap1\n      dup1\n      0x04\n      add\n      sload\n      swap1\n      dup1\n      0x05\n      add\n      sload\n      swap1\n      dup1\n      0x06\n      add\n      0x00\n      swap1\n      sload\n      swap1\n      0x0100\n      exp\n      swap1\n      div\n      0xff\n      and\n      swap1\n      pop\n      dup8\n      jump\t// out\n        /* \"contracts/dao.sol\":2212:2735  function transferShare(uint amt, address _to) public {... */\n    tag_35:\n        /* \"contracts/dao.sol\":2290:2291  0 */\n      0x00\n        /* \"contracts/dao.sol\":2284:2287  amt */\n      dup3\n        /* \"contracts/dao.sol\":2284:2291  amt > 0 */\n      gt\n        /* \"contracts/dao.sol\":2276:2312  require(amt > 0, \"Send more then 0\") */\n      tag_121\n      jumpi\n      mload(0x40)\n      0x08c379a000000000000000000000000000000000000000000000000000000000\n      dup2\n      mstore\n      0x04\n      add\n      tag_122\n      swap1\n      tag_123\n      jump\t// in\n    tag_122:\n      mload(0x40)\n      dup1\n      swap2\n      sub\n      swap1\n      revert\n    tag_121:\n        /* \"contracts/dao.sol\":2349:2352  amt */\n      dup2\n        /* \"contracts/dao.sol\":2331:2345  availableFunds */\n      sload(0x07)\n        /* \"contracts/dao.sol\":2331:2352  availableFunds >= amt */\n      lt\n      iszero\n        /* \"contracts/dao.sol\":2323:2372  require(availableFunds >= amt,\"Not enough funds\") */\n      tag_124\n      jumpi\n      mload(0x40)\n      0x08c379a000000000000000000000000000000000000000000000000000000000\n      dup2\n      mstore\n      0x04\n      add\n      tag_125\n      swap1\n      tag_126\n      jump\t// in\n    tag_125:\n      mload(0x40)\n      dup1\n      swap2\n      sub\n      swap1\n      revert\n    tag_124:\n        /* \"contracts/dao.sol\":2396:2407  numOfShares */\n      0x01\n        /* \"contracts/dao.sol\":2396:2419  numOfShares[msg.sender] */\n      0x00\n        /* \"contracts/dao.sol\":2408:2418  msg.sender */\n      caller\n        /* \"contracts/dao.sol\":2396:2419  numOfShares[msg.sender] */\n      0xffffffffffffffffffffffffffffffffffffffff\n      and\n      0xffffffffffffffffffffffffffffffffffffffff\n      and\n      dup2\n      mstore\n      0x20\n      add\n      swap1\n      dup2\n      mstore\n      0x20\n      add\n      0x00\n      keccak256\n      sload\n        /* \"contracts/dao.sol\":2391:2394  amt */\n      dup3\n        /* \"contracts/dao.sol\":2391:2419  amt<=numOfShares[msg.sender] */\n      gt\n      iszero\n        /* \"contracts/dao.sol\":2383:2458  require(amt<=numOfShares[msg.sender],\"You shares are less than the amount\") */\n      tag_127\n      jumpi\n      mload(0x40)\n      0x08c379a000000000000000000000000000000000000000000000000000000000\n      dup2\n      mstore\n      0x04\n      add\n      tag_128\n      swap1\n      tag_129\n      jump\t// in\n    tag_128:\n      mload(0x40)\n      dup1\n      swap2\n      sub\n      swap1\n      revert\n    tag_127:\n        /* \"contracts/dao.sol\":2484:2487  amt */\n      dup2\n        /* \"contracts/dao.sol\":2469:2480  totalShares */\n      0x06\n      0x00\n        /* \"contracts/dao.sol\":2469:2487  totalShares -= amt */\n      dup3\n      dup3\n      sload\n      tag_130\n      swap2\n      swap1\n      tag_131\n      jump\t// in\n    tag_130:\n      swap3\n      pop\n      pop\n      dup2\n      swap1\n      sstore\n      pop\n        /* \"contracts/dao.sol\":2523:2526  amt */\n      dup2\n        /* \"contracts/dao.sol\":2498:2509  numOfShares */\n      0x01\n        /* \"contracts/dao.sol\":2498:2521  numOfShares[msg.sender] */\n      0x00\n        /* \"contracts/dao.sol\":2510:2520  msg.sender */\n      caller\n        /* \"contracts/dao.sol\":2498:2521  numOfShares[msg.sender] */\n      0xffffffffffffffffffffffffffffffffffffffff\n      and\n      0xffffffffffffffffffffffffffffffffffffffff\n      and\n      dup2\n      mstore\n      0x20\n      add\n      swap1\n      dup2\n      mstore\n      0x20\n      add\n      0x00\n      keccak256\n      0x00\n        /* \"contracts/dao.sol\":2498:2526  numOfShares[msg.sender]-=amt */\n      dup3\n      dup3\n      sload\n      tag_132\n      swap2\n      swap1\n      tag_131\n      jump\t// in\n    tag_132:\n      swap3\n      pop\n      pop\n      dup2\n      swap1\n      sstore\n      pop\n        /* \"contracts/dao.sol\":2555:2558  amt */\n      dup2\n        /* \"contracts/dao.sol\":2537:2548  numOfShares */\n      0x01\n        /* \"contracts/dao.sol\":2537:2553  numOfShares[_to] */\n      0x00\n        /* \"contracts/dao.sol\":2549:2552  _to */\n      dup4\n        /* \"contracts/dao.sol\":2537:2553  numOfShares[_to] */\n      0xffffffffffffffffffffffffffffffffffffffff\n      and\n      0xffffffffffffffffffffffffffffffffffffffff\n      and\n      dup2\n      mstore\n      0x20\n      add\n      swap1\n      dup2\n      mstore\n      0x20\n      add\n      0x00\n      keccak256\n      0x00\n        /* \"contracts/dao.sol\":2537:2558  numOfShares[_to]+=amt */\n      dup3\n      dup3\n      sload\n      tag_133\n      swap2\n      swap1\n      tag_134\n      jump\t// in\n    tag_133:\n      swap3\n      pop\n      pop\n      dup2\n      swap1\n      sstore\n      pop\n        /* \"contracts/dao.sol\":2597:2598  0 */\n      0x00\n        /* \"contracts/dao.sol\":2572:2583  numOfShares */\n      0x01\n        /* \"contracts/dao.sol\":2572:2595  numOfShares[msg.sender] */\n      0x00\n        /* \"contracts/dao.sol\":2584:2594  msg.sender */\n      caller\n        /* \"contracts/dao.sol\":2572:2595  numOfShares[msg.sender] */\n      0xffffffffffffffffffffffffffffffffffffffff\n      and\n      0xffffffffffffffffffffffffffffffffffffffff\n      and\n      dup2\n      mstore\n      0x20\n      add\n      swap1\n      dup2\n      mstore\n      0x20\n      add\n      0x00\n      keccak256\n      sload\n        /* \"contracts/dao.sol\":2572:2598  numOfShares[msg.sender]==0 */\n      sub\n        /* \"contracts/dao.sol\":2569:2664  if(numOfShares[msg.sender]==0)... */\n      tag_135\n      jumpi\n        /* \"contracts/dao.sol\":2647:2652  false */\n      0x00\n        /* \"contracts/dao.sol\":2624:2634  isInvestor */\n      dup1\n        /* \"contracts/dao.sol\":2624:2646  isInvestor[msg.sender] */\n      0x00\n        /* \"contracts/dao.sol\":2635:2645  msg.sender */\n      caller\n        /* \"contracts/dao.sol\":2624:2646  isInvestor[msg.sender] */\n      0xffffffffffffffffffffffffffffffffffffffff\n      and\n      0xffffffffffffffffffffffffffffffffffffffff\n      and\n      dup2\n      mstore\n      0x20\n      add\n      swap1\n      dup2\n      mstore\n      0x20\n      add\n      0x00\n      keccak256\n      0x00\n        /* \"contracts/dao.sol\":2624:2652  isInvestor[msg.sender]=false */\n      0x0100\n      exp\n      dup2\n      sload\n      dup2\n      0xff\n      mul\n      not\n      and\n      swap1\n      dup4\n      iszero\n      iszero\n      mul\n      or\n      swap1\n      sstore\n      pop\n        /* \"contracts/dao.sol\":2569:2664  if(numOfShares[msg.sender]==0)... */\n    tag_135:\n        /* \"contracts/dao.sol\":2690:2694  true */\n      0x01\n        /* \"contracts/dao.sol\":2674:2684  isInvestor */\n      0x00\n        /* \"contracts/dao.sol\":2674:2689  isInvestor[_to] */\n      dup1\n        /* \"contracts/dao.sol\":2685:2688  _to */\n      dup4\n        /* \"contracts/dao.sol\":2674:2689  isInvestor[_to] */\n      0xffffffffffffffffffffffffffffffffffffffff\n      and\n      0xffffffffffffffffffffffffffffffffffffffff\n      and\n      dup2\n      mstore\n      0x20\n      add\n      swap1\n      dup2\n      mstore\n      0x20\n      add\n      0x00\n      keccak256\n      0x00\n        /* \"contracts/dao.sol\":2674:2694  isInvestor[_to]=true */\n      0x0100\n      exp\n      dup2\n      sload\n      dup2\n      0xff\n      mul\n      not\n      and\n      swap1\n      dup4\n      iszero\n      iszero\n      mul\n      or\n      swap1\n      sstore\n      pop\n        /* \"contracts/dao.sol\":2705:2717  investorList */\n      0x04\n        /* \"contracts/dao.sol\":2723:2726  _to */\n      dup2\n        /* \"contracts/dao.sol\":2705:2727  investorList.push(_to) */\n      swap1\n      dup1\n      0x01\n      dup2\n      sload\n      add\n      dup1\n      dup3\n      sstore\n      dup1\n      swap2\n      pop\n      pop\n      0x01\n      swap1\n      sub\n      swap1\n      0x00\n      mstore\n      keccak256(0x00, 0x20)\n      add\n      0x00\n      swap1\n      swap2\n      swap1\n      swap2\n      swap1\n      swap2\n      0x0100\n      exp\n      dup2\n      sload\n      dup2\n      0xffffffffffffffffffffffffffffffffffffffff\n      mul\n      not\n      and\n      swap1\n      dup4\n      0xffffffffffffffffffffffffffffffffffffffff\n      and\n      mul\n      or\n      swap1\n      sstore\n      pop\n        /* \"contracts/dao.sol\":2212:2735  function transferShare(uint amt, address _to) public {... */\n      pop\n      pop\n      jump\t// out\n        /* \"contracts/dao.sol\":3568:4101  function executeProposal(uint _pid) public onlyManager(){... */\n    tag_39:\n        /* \"contracts/dao.sol\":1287:1294  manager */\n      0x0c\n      0x00\n      swap1\n      sload\n      swap1\n      0x0100\n      exp\n      swap1\n      div\n      0xffffffffffffffffffffffffffffffffffffffff\n      and\n        /* \"contracts/dao.sol\":1275:1294  msg.sender==manager */\n      0xffffffffffffffffffffffffffffffffffffffff\n      and\n        /* \"contracts/dao.sol\":1275:1285  msg.sender */\n      caller\n        /* \"contracts/dao.sol\":1275:1294  msg.sender==manager */\n      0xffffffffffffffffffffffffffffffffffffffff\n      and\n      eq\n        /* \"contracts/dao.sol\":1267:1319  require(msg.sender==manager,\"You are not a manager\") */\n      tag_138\n      jumpi\n      mload(0x40)\n      0x08c379a000000000000000000000000000000000000000000000000000000000\n      dup2\n      mstore\n      0x04\n      add\n      tag_139\n      swap1\n      tag_140\n      jump\t// in\n    tag_139:\n      mload(0x40)\n      dup1\n      swap2\n      sub\n      swap1\n      revert\n    tag_138:\n        /* \"contracts/dao.sol\":3651:3652  0 */\n      0x00\n        /* \"contracts/dao.sol\":3643:3647  _pid */\n      dup2\n        /* \"contracts/dao.sol\":3643:3652  _pid >= 0 */\n      lt\n      iszero\n        /* \"contracts/dao.sol\":3643:3677  _pid >= 0 && _pid < nextProposalId */\n      dup1\n      iszero\n      tag_142\n      jumpi\n      pop\n        /* \"contracts/dao.sol\":3663:3677  nextProposalId */\n      sload(0x09)\n        /* \"contracts/dao.sol\":3656:3660  _pid */\n      dup2\n        /* \"contracts/dao.sol\":3656:3677  _pid < nextProposalId */\n      lt\n        /* \"contracts/dao.sol\":3643:3677  _pid >= 0 && _pid < nextProposalId */\n    tag_142:\n        /* \"contracts/dao.sol\":3635:3700  require(_pid >= 0 && _pid < nextProposalId,\"Invalid Proposal id\") */\n      tag_143\n      jumpi\n      mload(0x40)\n      0x08c379a000000000000000000000000000000000000000000000000000000000\n      dup2\n      mstore\n      0x04\n      add\n      tag_144\n      swap1\n      tag_145\n      jump\t// in\n    tag_144:\n      mload(0x40)\n      dup1\n      swap2\n      sub\n      swap1\n      revert\n    tag_143:\n        /* \"contracts/dao.sol\":3711:3735  Proposal storage propsal */\n      0x00\n        /* \"contracts/dao.sol\":3738:3747  proposals */\n      0x05\n        /* \"contracts/dao.sol\":3738:3753  proposals[_pid] */\n      0x00\n        /* \"contracts/dao.sol\":3748:3752  _pid */\n      dup4\n        /* \"contracts/dao.sol\":3738:3753  proposals[_pid] */\n      dup2\n      mstore\n      0x20\n      add\n      swap1\n      dup2\n      mstore\n      0x20\n      add\n      0x00\n      keccak256\n        /* \"contracts/dao.sol\":3711:3753  Proposal storage propsal = proposals[_pid] */\n      swap1\n      pop\n        /* \"contracts/dao.sol\":3805:3807  51 */\n      0x33\n        /* \"contracts/dao.sol\":3791:3802  totalShares */\n      sload(0x06)\n        /* \"contracts/dao.sol\":3787:3790  100 */\n      0x64\n        /* \"contracts/dao.sol\":3773:3780  propsal */\n      dup4\n        /* \"contracts/dao.sol\":3773:3786  propsal.votes */\n      0x04\n      add\n      sload\n        /* \"contracts/dao.sol\":3773:3790  propsal.votes*100 */\n      tag_146\n      swap2\n      swap1\n      tag_147\n      jump\t// in\n    tag_146:\n        /* \"contracts/dao.sol\":3773:3802  propsal.votes*100/totalShares */\n      tag_148\n      swap2\n      swap1\n      tag_149\n      jump\t// in\n    tag_148:\n        /* \"contracts/dao.sol\":3772:3807  (propsal.votes*100/totalShares)>=51 */\n      lt\n      iszero\n        /* \"contracts/dao.sol\":3764:3828  require((propsal.votes*100/totalShares)>=51,\"No Majority votes\") */\n      tag_150\n      jumpi\n      mload(0x40)\n      0x08c379a000000000000000000000000000000000000000000000000000000000\n      dup2\n      mstore\n      0x04\n      add\n      tag_151\n      swap1\n      tag_152\n      jump\t// in\n    tag_151:\n      mload(0x40)\n      dup1\n      swap2\n      sub\n      swap1\n      revert\n    tag_150:\n        /* \"contracts/dao.sol\":3867:3872  false */\n      0x00\n        /* \"contracts/dao.sol\":3847:3872  propsal.isExecuted==false */\n      iszero\n      iszero\n        /* \"contracts/dao.sol\":3847:3854  propsal */\n      dup2\n        /* \"contracts/dao.sol\":3847:3865  propsal.isExecuted */\n      0x06\n      add\n      0x00\n      swap1\n      sload\n      swap1\n      0x0100\n      exp\n      swap1\n      div\n      0xff\n      and\n        /* \"contracts/dao.sol\":3847:3872  propsal.isExecuted==false */\n      iszero\n      iszero\n      eq\n        /* \"contracts/dao.sol\":3839:3892  require(propsal.isExecuted==false,\"Already Executed\") */\n      tag_153\n      jumpi\n      mload(0x40)\n      0x08c379a000000000000000000000000000000000000000000000000000000000\n      dup2\n      mstore\n      0x04\n      add\n      tag_154\n      swap1\n      tag_155\n      jump\t// in\n    tag_154:\n      mload(0x40)\n      dup1\n      swap2\n      sub\n      swap1\n      revert\n    tag_153:\n        /* \"contracts/dao.sol\":3929:3936  propsal */\n      dup1\n        /* \"contracts/dao.sol\":3929:3940  propsal.amt */\n      0x02\n      add\n      sload\n        /* \"contracts/dao.sol\":3911:3925  availableFunds */\n      sload(0x07)\n        /* \"contracts/dao.sol\":3911:3940  availableFunds >= propsal.amt */\n      lt\n      iszero\n        /* \"contracts/dao.sol\":3903:3970  require(availableFunds >= propsal.amt,\"Not enough funds currently\") */\n      tag_156\n      jumpi\n      mload(0x40)\n      0x08c379a000000000000000000000000000000000000000000000000000000000\n      dup2\n      mstore\n      0x04\n      add\n      tag_157\n      swap1\n      tag_158\n      jump\t// in\n    tag_157:\n      mload(0x40)\n      dup1\n      swap2\n      sub\n      swap1\n      revert\n    tag_156:\n        /* \"contracts/dao.sol\":3981:3988  propsal */\n      dup1\n        /* \"contracts/dao.sol\":3981:3998  propsal.recepient */\n      0x03\n      add\n      0x00\n      swap1\n      sload\n      swap1\n      0x0100\n      exp\n      swap1\n      div\n      0xffffffffffffffffffffffffffffffffffffffff\n      and\n        /* \"contracts/dao.sol\":3981:4007  propsal.recepient.transfer */\n      0xffffffffffffffffffffffffffffffffffffffff\n      and\n        /* \"contracts/dao.sol\":3981:4020  propsal.recepient.transfer(propsal.amt) */\n      0x08fc\n        /* \"contracts/dao.sol\":4008:4015  propsal */\n      dup3\n        /* \"contracts/dao.sol\":4008:4019  propsal.amt */\n      0x02\n      add\n      sload\n        /* \"contracts/dao.sol\":3981:4020  propsal.recepient.transfer(propsal.amt) */\n      swap1\n      dup2\n      iszero\n      mul\n      swap1\n      mload(0x40)\n      0x00\n      mload(0x40)\n      dup1\n      dup4\n      sub\n      dup2\n      dup6\n      dup9\n      dup9\n      call\n      swap4\n      pop\n      pop\n      pop\n      pop\n      iszero\n      dup1\n      iszero\n      tag_160\n      jumpi\n      returndatasize\n      0x00\n      dup1\n      returndatacopy\n      revert(0x00, returndatasize)\n    tag_160:\n      pop\n        /* \"contracts/dao.sol\":4051:4055  true */\n      0x01\n        /* \"contracts/dao.sol\":4031:4055  propsal.isExecuted==true */\n      iszero\n      iszero\n        /* \"contracts/dao.sol\":4031:4038  propsal */\n      dup2\n        /* \"contracts/dao.sol\":4031:4049  propsal.isExecuted */\n      0x06\n      add\n      0x00\n      swap1\n      sload\n      swap1\n      0x0100\n      exp\n      swap1\n      pop\n      pop\n        /* \"contracts/dao.sol\":4031:4055  propsal.isExecuted==true */\n      pop\n        /* \"contracts/dao.sol\":4082:4089  propsal */\n      dup1\n        /* \"contracts/dao.sol\":4082:4093  propsal.amt */\n      0x02\n      add\n      sload\n        /* \"contracts/dao.sol\":4066:4080  availableFunds */\n      0x07\n      0x00\n        /* \"contracts/dao.sol\":4066:4093  availableFunds-=propsal.amt */\n      dup3\n      dup3\n      sload\n      tag_161\n      swap2\n      swap1\n      tag_131\n      jump\t// in\n    tag_161:\n      swap3\n      pop\n      pop\n      dup2\n      swap1\n      sstore\n      pop\n        /* \"contracts/dao.sol\":3624:4101  {... */\n      pop\n        /* \"contracts/dao.sol\":3568:4101  function executeProposal(uint _pid) public onlyManager(){... */\n      pop\n      jump\t// out\n        /* \"contracts/dao.sol\":510:539  address[] public investorList */\n    tag_43:\n      0x04\n      dup2\n      dup2\n      sload\n      dup2\n      lt\n      tag_162\n      jumpi\n      0x00\n      dup1\n      revert\n    tag_162:\n      swap1\n      0x00\n      mstore\n      keccak256(0x00, 0x20)\n      add\n      0x00\n      swap2\n      pop\n      sload\n      swap1\n      0x0100\n      exp\n      swap1\n      div\n      0xffffffffffffffffffffffffffffffffffffffff\n      and\n      dup2\n      jump\t// out\n        /* \"contracts/dao.sol\":755:773  uint public quorum */\n    tag_48:\n      sload(0x0b)\n      dup2\n      jump\t// out\n        /* \"contracts/dao.sol\":695:721  uint public nextProposalId */\n    tag_53:\n      sload(0x09)\n      dup2\n      jump\t// out\n        /* \"contracts/dao.sol\":1703:2206  function redeemshare(uint amt) public onlyInvestor() {... */\n    tag_58:\n        /* \"contracts/dao.sol\":1179:1183  true */\n      0x01\n        /* \"contracts/dao.sol\":1155:1183  isInvestor[msg.sender]==true */\n      iszero\n      iszero\n        /* \"contracts/dao.sol\":1155:1165  isInvestor */\n      0x00\n        /* \"contracts/dao.sol\":1155:1177  isInvestor[msg.sender] */\n      dup1\n        /* \"contracts/dao.sol\":1166:1176  msg.sender */\n      caller\n        /* \"contracts/dao.sol\":1155:1177  isInvestor[msg.sender] */\n      0xffffffffffffffffffffffffffffffffffffffff\n      and\n      0xffffffffffffffffffffffffffffffffffffffff\n      and\n      dup2\n      mstore\n      0x20\n      add\n      swap1\n      dup2\n      mstore\n      0x20\n      add\n      0x00\n      keccak256\n      0x00\n      swap1\n      sload\n      swap1\n      0x0100\n      exp\n      swap1\n      div\n      0xff\n      and\n        /* \"contracts/dao.sol\":1155:1183  isInvestor[msg.sender]==true */\n      iszero\n      iszero\n      eq\n        /* \"contracts/dao.sol\":1147:1212  require(isInvestor[msg.sender]==true, \"You are not an Investor!\") */\n      tag_165\n      jumpi\n      mload(0x40)\n      0x08c379a000000000000000000000000000000000000000000000000000000000\n      dup2\n      mstore\n      0x04\n      add\n      tag_166\n      swap1\n      tag_167\n      jump\t// in\n    tag_166:\n      mload(0x40)\n      dup1\n      swap2\n      sub\n      swap1\n      revert\n    tag_165:\n        /* \"contracts/dao.sol\":1780:1791  numOfShares */\n      0x01\n        /* \"contracts/dao.sol\":1780:1803  numOfShares[msg.sender] */\n      0x00\n        /* \"contracts/dao.sol\":1792:1802  msg.sender */\n      caller\n        /* \"contracts/dao.sol\":1780:1803  numOfShares[msg.sender] */\n      0xffffffffffffffffffffffffffffffffffffffff\n      and\n      0xffffffffffffffffffffffffffffffffffffffff\n      and\n      dup2\n      mstore\n      0x20\n      add\n      swap1\n      dup2\n      mstore\n      0x20\n      add\n      0x00\n      keccak256\n      sload\n        /* \"contracts/dao.sol\":1775:1778  amt */\n      dup2\n        /* \"contracts/dao.sol\":1775:1803  amt<=numOfShares[msg.sender] */\n      gt\n      iszero\n        /* \"contracts/dao.sol\":1767:1842  require(amt<=numOfShares[msg.sender],\"You shares are less than the amount\") */\n      tag_169\n      jumpi\n      mload(0x40)\n      0x08c379a000000000000000000000000000000000000000000000000000000000\n      dup2\n      mstore\n      0x04\n      add\n      tag_170\n      swap1\n      tag_129\n      jump\t// in\n    tag_170:\n      mload(0x40)\n      dup1\n      swap2\n      sub\n      swap1\n      revert\n    tag_169:\n        /* \"contracts/dao.sol\":1867:1868  0 */\n      0x00\n        /* \"contracts/dao.sol\":1861:1864  amt */\n      dup2\n        /* \"contracts/dao.sol\":1861:1868  amt > 0 */\n      gt\n        /* \"contracts/dao.sol\":1853:1889  require(amt > 0, \"Send more then 0\") */\n      tag_171\n      jumpi\n      mload(0x40)\n      0x08c379a000000000000000000000000000000000000000000000000000000000\n      dup2\n      mstore\n      0x04\n      add\n      tag_172\n      swap1\n      tag_123\n      jump\t// in\n    tag_172:\n      mload(0x40)\n      dup1\n      swap2\n      sub\n      swap1\n      revert\n    tag_171:\n        /* \"contracts/dao.sol\":1926:1929  amt */\n      dup1\n        /* \"contracts/dao.sol\":1908:1922  availableFunds */\n      sload(0x07)\n        /* \"contracts/dao.sol\":1908:1929  availableFunds >= amt */\n      lt\n      iszero\n        /* \"contracts/dao.sol\":1900:1949  require(availableFunds >= amt,\"Not enough funds\") */\n      tag_173\n      jumpi\n      mload(0x40)\n      0x08c379a000000000000000000000000000000000000000000000000000000000\n      dup2\n      mstore\n      0x04\n      add\n      tag_174\n      swap1\n      tag_126\n      jump\t// in\n    tag_174:\n      mload(0x40)\n      dup1\n      swap2\n      sub\n      swap1\n      revert\n    tag_173:\n        /* \"contracts/dao.sol\":1975:1978  amt */\n      dup1\n        /* \"contracts/dao.sol\":1960:1971  totalShares */\n      0x06\n      0x00\n        /* \"contracts/dao.sol\":1960:1978  totalShares -= amt */\n      dup3\n      dup3\n      sload\n      tag_175\n      swap2\n      swap1\n      tag_131\n      jump\t// in\n    tag_175:\n      swap3\n      pop\n      pop\n      dup2\n      swap1\n      sstore\n      pop\n        /* \"contracts/dao.sol\":2014:2017  amt */\n      dup1\n        /* \"contracts/dao.sol\":1989:2000  numOfShares */\n      0x01\n        /* \"contracts/dao.sol\":1989:2012  numOfShares[msg.sender] */\n      0x00\n        /* \"contracts/dao.sol\":2001:2011  msg.sender */\n      caller\n        /* \"contracts/dao.sol\":1989:2012  numOfShares[msg.sender] */\n      0xffffffffffffffffffffffffffffffffffffffff\n      and\n      0xffffffffffffffffffffffffffffffffffffffff\n      and\n      dup2\n      mstore\n      0x20\n      add\n      swap1\n      dup2\n      mstore\n      0x20\n      add\n      0x00\n      keccak256\n      0x00\n        /* \"contracts/dao.sol\":1989:2017  numOfShares[msg.sender]-=amt */\n      dup3\n      dup3\n      sload\n      tag_176\n      swap2\n      swap1\n      tag_131\n      jump\t// in\n    tag_176:\n      swap3\n      pop\n      pop\n      dup2\n      swap1\n      sstore\n      pop\n        /* \"contracts/dao.sol\":2056:2057  0 */\n      0x00\n        /* \"contracts/dao.sol\":2031:2042  numOfShares */\n      0x01\n        /* \"contracts/dao.sol\":2031:2054  numOfShares[msg.sender] */\n      0x00\n        /* \"contracts/dao.sol\":2043:2053  msg.sender */\n      caller\n        /* \"contracts/dao.sol\":2031:2054  numOfShares[msg.sender] */\n      0xffffffffffffffffffffffffffffffffffffffff\n      and\n      0xffffffffffffffffffffffffffffffffffffffff\n      and\n      dup2\n      mstore\n      0x20\n      add\n      swap1\n      dup2\n      mstore\n      0x20\n      add\n      0x00\n      keccak256\n      sload\n        /* \"contracts/dao.sol\":2031:2057  numOfShares[msg.sender]==0 */\n      sub\n        /* \"contracts/dao.sol\":2028:2123  if(numOfShares[msg.sender]==0)... */\n      tag_177\n      jumpi\n        /* \"contracts/dao.sol\":2106:2111  false */\n      0x00\n        /* \"contracts/dao.sol\":2083:2093  isInvestor */\n      dup1\n        /* \"contracts/dao.sol\":2083:2105  isInvestor[msg.sender] */\n      0x00\n        /* \"contracts/dao.sol\":2094:2104  msg.sender */\n      caller\n        /* \"contracts/dao.sol\":2083:2105  isInvestor[msg.sender] */\n      0xffffffffffffffffffffffffffffffffffffffff\n      and\n      0xffffffffffffffffffffffffffffffffffffffff\n      and\n      dup2\n      mstore\n      0x20\n      add\n      swap1\n      dup2\n      mstore\n      0x20\n      add\n      0x00\n      keccak256\n      0x00\n        /* \"contracts/dao.sol\":2083:2111  isInvestor[msg.sender]=false */\n      0x0100\n      exp\n      dup2\n      sload\n      dup2\n      0xff\n      mul\n      not\n      and\n      swap1\n      dup4\n      iszero\n      iszero\n      mul\n      or\n      swap1\n      sstore\n      pop\n        /* \"contracts/dao.sol\":2028:2123  if(numOfShares[msg.sender]==0)... */\n    tag_177:\n        /* \"contracts/dao.sol\":2151:2154  amt */\n      dup1\n        /* \"contracts/dao.sol\":2133:2147  availableFunds */\n      0x07\n      0x00\n        /* \"contracts/dao.sol\":2133:2154  availableFunds -= amt */\n      dup3\n      dup3\n      sload\n      tag_178\n      swap2\n      swap1\n      tag_131\n      jump\t// in\n    tag_178:\n      swap3\n      pop\n      pop\n      dup2\n      swap1\n      sstore\n      pop\n        /* \"contracts/dao.sol\":2173:2183  msg.sender */\n      caller\n        /* \"contracts/dao.sol\":2165:2193  payable(msg.sender).transfer */\n      0xffffffffffffffffffffffffffffffffffffffff\n      and\n        /* \"contracts/dao.sol\":2165:2198  payable(msg.sender).transfer(amt) */\n      0x08fc\n        /* \"contracts/dao.sol\":2194:2197  amt */\n      dup3\n        /* \"contracts/dao.sol\":2165:2198  payable(msg.sender).transfer(amt) */\n      swap1\n      dup2\n      iszero\n      mul\n      swap1\n      mload(0x40)\n      0x00\n      mload(0x40)\n      dup1\n      dup4\n      sub\n      dup2\n      dup6\n      dup9\n      dup9\n      call\n      swap4\n      pop\n      pop\n      pop\n      pop\n      iszero\n      dup1\n      iszero\n      tag_180\n      jumpi\n      returndatasize\n      0x00\n      dup1\n      returndatacopy\n      revert(0x00, returndatasize)\n    tag_180:\n      pop\n        /* \"contracts/dao.sol\":1703:2206  function redeemshare(uint amt) public onlyInvestor() {... */\n      pop\n      jump\t// out\n        /* \"contracts/dao.sol\":4107:4366  function PoposalList() public view returns(Proposal[] memory){... */\n    tag_61:\n        /* \"contracts/dao.sol\":4150:4167  Proposal[] memory */\n      0x60\n        /* \"contracts/dao.sol\":4179:4200  Proposal[] memory arr */\n      0x00\n        /* \"contracts/dao.sol\":4233:4234  1 */\n      0x01\n        /* \"contracts/dao.sol\":4218:4232  nextProposalId */\n      sload(0x09)\n        /* \"contracts/dao.sol\":4218:4234  nextProposalId-1 */\n      tag_182\n      swap2\n      swap1\n      tag_131\n      jump\t// in\n    tag_182:\n        /* \"contracts/dao.sol\":4203:4235  new Proposal[](nextProposalId-1) */\n      0xffffffffffffffff\n      dup2\n      gt\n      iszero\n      tag_183\n      jumpi\n      tag_184\n      tag_185\n      jump\t// in\n    tag_184:\n    tag_183:\n      mload(0x40)\n      swap1\n      dup1\n      dup3\n      mstore\n      dup1\n      0x20\n      mul\n      0x20\n      add\n      dup3\n      add\n      0x40\n      mstore\n      dup1\n      iszero\n      tag_186\n      jumpi\n      dup2\n      0x20\n      add\n    tag_187:\n      tag_188\n      tag_189\n      jump\t// in\n    tag_188:\n      dup2\n      mstore\n      0x20\n      add\n      swap1\n      0x01\n      swap1\n      sub\n      swap1\n      dup2\n      tag_187\n      jumpi\n      swap1\n      pop\n    tag_186:\n      pop\n        /* \"contracts/dao.sol\":4179:4235  Proposal[] memory arr = new Proposal[](nextProposalId-1) */\n      swap1\n      pop\n        /* \"contracts/dao.sol\":4250:4256  uint i */\n      0x00\n        /* \"contracts/dao.sol\":4246:4338  for(uint i=0;i<nextProposalId;i++)... */\n    tag_190:\n        /* \"contracts/dao.sol\":4261:4275  nextProposalId */\n      sload(0x09)\n        /* \"contracts/dao.sol\":4259:4260  i */\n      dup2\n        /* \"contracts/dao.sol\":4259:4275  i<nextProposalId */\n      lt\n        /* \"contracts/dao.sol\":4246:4338  for(uint i=0;i<nextProposalId;i++)... */\n      iszero\n      tag_191\n      jumpi\n        /* \"contracts/dao.sol\":4313:4322  proposals */\n      0x05\n        /* \"contracts/dao.sol\":4313:4325  proposals[i] */\n      0x00\n        /* \"contracts/dao.sol\":4323:4324  i */\n      dup3\n        /* \"contracts/dao.sol\":4313:4325  proposals[i] */\n      dup2\n      mstore\n      0x20\n      add\n      swap1\n      dup2\n      mstore\n      0x20\n      add\n      0x00\n      keccak256\n        /* \"contracts/dao.sol\":4305:4326  arr[i]=(proposals[i]) */\n      mload(0x40)\n      dup1\n      0xe0\n      add\n      0x40\n      mstore\n      swap1\n      dup2\n      0x00\n      dup3\n      add\n      sload\n      dup2\n      mstore\n      0x20\n      add\n      0x01\n      dup3\n      add\n      dup1\n      sload\n      tag_193\n      swap1\n      tag_115\n      jump\t// in\n    tag_193:\n      dup1\n      0x1f\n      add\n      0x20\n      dup1\n      swap2\n      div\n      mul\n      0x20\n      add\n      mload(0x40)\n      swap1\n      dup2\n      add\n      0x40\n      mstore\n      dup1\n      swap3\n      swap2\n      swap1\n      dup2\n      dup2\n      mstore\n      0x20\n      add\n      dup3\n      dup1\n      sload\n      tag_194\n      swap1\n      tag_115\n      jump\t// in\n    tag_194:\n      dup1\n      iszero\n      tag_195\n      jumpi\n      dup1\n      0x1f\n      lt\n      tag_196\n      jumpi\n      0x0100\n      dup1\n      dup4\n      sload\n      div\n      mul\n      dup4\n      mstore\n      swap2\n      0x20\n      add\n      swap2\n      jump(tag_195)\n    tag_196:\n      dup3\n      add\n      swap2\n      swap1\n      0x00\n      mstore\n      keccak256(0x00, 0x20)\n      swap1\n    tag_197:\n      dup2\n      sload\n      dup2\n      mstore\n      swap1\n      0x01\n      add\n      swap1\n      0x20\n      add\n      dup1\n      dup4\n      gt\n      tag_197\n      jumpi\n      dup3\n      swap1\n      sub\n      0x1f\n      and\n      dup3\n      add\n      swap2\n    tag_195:\n      pop\n      pop\n      pop\n      pop\n      pop\n      dup2\n      mstore\n      0x20\n      add\n      0x02\n      dup3\n      add\n      sload\n      dup2\n      mstore\n      0x20\n      add\n      0x03\n      dup3\n      add\n      0x00\n      swap1\n      sload\n      swap1\n      0x0100\n      exp\n      swap1\n      div\n      0xffffffffffffffffffffffffffffffffffffffff\n      and\n      0xffffffffffffffffffffffffffffffffffffffff\n      and\n      0xffffffffffffffffffffffffffffffffffffffff\n      and\n      dup2\n      mstore\n      0x20\n      add\n      0x04\n      dup3\n      add\n      sload\n      dup2\n      mstore\n      0x20\n      add\n      0x05\n      dup3\n      add\n      sload\n      dup2\n      mstore\n      0x20\n      add\n      0x06\n      dup3\n      add\n      0x00\n      swap1\n      sload\n      swap1\n      0x0100\n      exp\n      swap1\n      div\n      0xff\n      and\n      iszero\n      iszero\n      iszero\n      iszero\n      dup2\n      mstore\n      pop\n      pop\n        /* \"contracts/dao.sol\":4305:4308  arr */\n      dup3\n        /* \"contracts/dao.sol\":4309:4310  i */\n      dup3\n        /* \"contracts/dao.sol\":4305:4311  arr[i] */\n      dup2\n      mload\n      dup2\n      lt\n      tag_198\n      jumpi\n      tag_199\n      tag_200\n      jump\t// in\n    tag_199:\n    tag_198:\n      0x20\n      mul\n      0x20\n      add\n      add\n        /* \"contracts/dao.sol\":4305:4326  arr[i]=(proposals[i]) */\n      dup2\n      swap1\n      mstore\n      pop\n        /* \"contracts/dao.sol\":4276:4279  i++ */\n      dup1\n      dup1\n      0x01\n      add\n      swap2\n      pop\n      pop\n        /* \"contracts/dao.sol\":4246:4338  for(uint i=0;i<nextProposalId;i++)... */\n      jump(tag_190)\n    tag_191:\n      pop\n        /* \"contracts/dao.sol\":4355:4358  arr */\n      dup1\n        /* \"contracts/dao.sol\":4348:4358  return arr */\n      swap2\n      pop\n      pop\n        /* \"contracts/dao.sol\":4107:4366  function PoposalList() public view returns(Proposal[] memory){... */\n      swap1\n      jump\t// out\n        /* \"contracts/dao.sol\":594:617  uint public totalShares */\n    tag_66:\n      sload(0x06)\n      dup2\n      jump\t// out\n        /* \"contracts/dao.sol\":624:650  uint public availableFunds */\n    tag_70:\n      sload(0x07)\n      dup2\n      jump\t// out\n        /* \"contracts/dao.sol\":780:802  address public manager */\n    tag_74:\n      0x0c\n      0x00\n      swap1\n      sload\n      swap1\n      0x0100\n      exp\n      swap1\n      div\n      0xffffffffffffffffffffffffffffffffffffffff\n      and\n      dup2\n      jump\t// out\n        /* \"contracts/dao.sol\":333:374  mapping(address=>uint) public numOfShares */\n    tag_80:\n      mstore(0x20, 0x01)\n      dup1\n      0x00\n      mstore\n      keccak256(0x00, 0x40)\n      0x00\n      swap2\n      pop\n      swap1\n      pop\n      sload\n      dup2\n      jump\t// out\n        /* \"contracts/dao.sol\":2741:3071  function createProposal(string calldata _desc, uint _amt,address payable _recepient) public onlyManager {... */\n    tag_86:\n        /* \"contracts/dao.sol\":1287:1294  manager */\n      0x0c\n      0x00\n      swap1\n      sload\n      swap1\n      0x0100\n      exp\n      swap1\n      div\n      0xffffffffffffffffffffffffffffffffffffffff\n      and\n        /* \"contracts/dao.sol\":1275:1294  msg.sender==manager */\n      0xffffffffffffffffffffffffffffffffffffffff\n      and\n        /* \"contracts/dao.sol\":1275:1285  msg.sender */\n      caller\n        /* \"contracts/dao.sol\":1275:1294  msg.sender==manager */\n      0xffffffffffffffffffffffffffffffffffffffff\n      and\n      eq\n        /* \"contracts/dao.sol\":1267:1319  require(msg.sender==manager,\"You are not a manager\") */\n      tag_202\n      jumpi\n      mload(0x40)\n      0x08c379a000000000000000000000000000000000000000000000000000000000\n      dup2\n      mstore\n      0x04\n      add\n      tag_203\n      swap1\n      tag_140\n      jump\t// in\n    tag_203:\n      mload(0x40)\n      dup1\n      swap2\n      sub\n      swap1\n      revert\n    tag_202:\n        /* \"contracts/dao.sol\":2882:2886  _amt */\n      dup2\n        /* \"contracts/dao.sol\":2864:2878  availableFunds */\n      sload(0x07)\n        /* \"contracts/dao.sol\":2864:2886  availableFunds >= _amt */\n      lt\n      iszero\n        /* \"contracts/dao.sol\":2856:2916  require(availableFunds >= _amt,\"Not enough funds currently\") */\n      tag_205\n      jumpi\n      mload(0x40)\n      0x08c379a000000000000000000000000000000000000000000000000000000000\n      dup2\n      mstore\n      0x04\n      add\n      tag_206\n      swap1\n      tag_158\n      jump\t// in\n    tag_206:\n      mload(0x40)\n      dup1\n      swap2\n      sub\n      swap1\n      revert\n    tag_205:\n        /* \"contracts/dao.sol\":2955:3036  Proposal(nextProposalId,_desc,_amt,_recepient,0,block.timestamp + voteTime,false) */\n      mload(0x40)\n      dup1\n      0xe0\n      add\n      0x40\n      mstore\n      dup1\n        /* \"contracts/dao.sol\":2964:2978  nextProposalId */\n      sload(0x09)\n        /* \"contracts/dao.sol\":2955:3036  Proposal(nextProposalId,_desc,_amt,_recepient,0,block.timestamp + voteTime,false) */\n      dup2\n      mstore\n      0x20\n      add\n        /* \"contracts/dao.sol\":2979:2984  _desc */\n      dup6\n      dup6\n        /* \"contracts/dao.sol\":2955:3036  Proposal(nextProposalId,_desc,_amt,_recepient,0,block.timestamp + voteTime,false) */\n      dup1\n      dup1\n      0x1f\n      add\n      0x20\n      dup1\n      swap2\n      div\n      mul\n      0x20\n      add\n      mload(0x40)\n      swap1\n      dup2\n      add\n      0x40\n      mstore\n      dup1\n      swap4\n      swap3\n      swap2\n      swap1\n      dup2\n      dup2\n      mstore\n      0x20\n      add\n      dup4\n      dup4\n      dup1\n      dup3\n      dup5\n      calldatacopy\n      0x00\n      dup2\n      dup5\n      add\n      mstore\n      not(0x1f)\n      0x1f\n      dup3\n      add\n      and\n      swap1\n      pop\n      dup1\n      dup4\n      add\n      swap3\n      pop\n      pop\n      pop\n      pop\n      pop\n      pop\n      pop\n      dup2\n      mstore\n      0x20\n      add\n        /* \"contracts/dao.sol\":2985:2989  _amt */\n      dup4\n        /* \"contracts/dao.sol\":2955:3036  Proposal(nextProposalId,_desc,_amt,_recepient,0,block.timestamp + voteTime,false) */\n      dup2\n      mstore\n      0x20\n      add\n        /* \"contracts/dao.sol\":2990:3000  _recepient */\n      dup3\n        /* \"contracts/dao.sol\":2955:3036  Proposal(nextProposalId,_desc,_amt,_recepient,0,block.timestamp + voteTime,false) */\n      0xffffffffffffffffffffffffffffffffffffffff\n      and\n      dup2\n      mstore\n      0x20\n      add\n        /* \"contracts/dao.sol\":3001:3002  0 */\n      0x00\n        /* \"contracts/dao.sol\":2955:3036  Proposal(nextProposalId,_desc,_amt,_recepient,0,block.timestamp + voteTime,false) */\n      dup2\n      mstore\n      0x20\n      add\n        /* \"contracts/dao.sol\":3021:3029  voteTime */\n      sload(0x0a)\n        /* \"contracts/dao.sol\":3003:3018  block.timestamp */\n      timestamp\n        /* \"contracts/dao.sol\":3003:3029  block.timestamp + voteTime */\n      tag_207\n      swap2\n      swap1\n      tag_134\n      jump\t// in\n    tag_207:\n        /* \"contracts/dao.sol\":2955:3036  Proposal(nextProposalId,_desc,_amt,_recepient,0,block.timestamp + voteTime,false) */\n      dup2\n      mstore\n      0x20\n      add\n        /* \"contracts/dao.sol\":3030:3035  false */\n      0x00\n        /* \"contracts/dao.sol\":2955:3036  Proposal(nextProposalId,_desc,_amt,_recepient,0,block.timestamp + voteTime,false) */\n      iszero\n      iszero\n      dup2\n      mstore\n      pop\n        /* \"contracts/dao.sol\":2927:2936  proposals */\n      0x05\n        /* \"contracts/dao.sol\":2927:2952  proposals[nextProposalId] */\n      0x00\n        /* \"contracts/dao.sol\":2937:2951  nextProposalId */\n      sload(0x09)\n        /* \"contracts/dao.sol\":2927:2952  proposals[nextProposalId] */\n      dup2\n      mstore\n      0x20\n      add\n      swap1\n      dup2\n      mstore\n      0x20\n      add\n      0x00\n      keccak256\n        /* \"contracts/dao.sol\":2927:3036  proposals[nextProposalId] = Proposal(nextProposalId,_desc,_amt,_recepient,0,block.timestamp + voteTime,false) */\n      0x00\n      dup3\n      add\n      mload\n      dup2\n      0x00\n      add\n      sstore\n      0x20\n      dup3\n      add\n      mload\n      dup2\n      0x01\n      add\n      swap1\n      dup2\n      tag_208\n      swap2\n      swap1\n      tag_209\n      jump\t// in\n    tag_208:\n      pop\n      0x40\n      dup3\n      add\n      mload\n      dup2\n      0x02\n      add\n      sstore\n      0x60\n      dup3\n      add\n      mload\n      dup2\n      0x03\n      add\n      exp(0x0100, 0x00)\n      dup2\n      sload\n      dup2\n      0xffffffffffffffffffffffffffffffffffffffff\n      mul\n      not\n      and\n      swap1\n      dup4\n      0xffffffffffffffffffffffffffffffffffffffff\n      and\n      mul\n      or\n      swap1\n      sstore\n      pop\n      0x80\n      dup3\n      add\n      mload\n      dup2\n      0x04\n      add\n      sstore\n      0xa0\n      dup3\n      add\n      mload\n      dup2\n      0x05\n      add\n      sstore\n      0xc0\n      dup3\n      add\n      mload\n      dup2\n      0x06\n      add\n      exp(0x0100, 0x00)\n      dup2\n      sload\n      dup2\n      0xff\n      mul\n      not\n      and\n      swap1\n      dup4\n      iszero\n      iszero\n      mul\n      or\n      swap1\n      sstore\n      pop\n      swap1\n      pop\n      pop\n        /* \"contracts/dao.sol\":3047:3061  nextProposalId */\n      0x09\n      0x00\n        /* \"contracts/dao.sol\":3047:3063  nextProposalId++ */\n      dup2\n      sload\n      dup1\n      swap3\n      swap2\n      swap1\n      tag_210\n      swap1\n      tag_211\n      jump\t// in\n    tag_210:\n      swap2\n      swap1\n      pop\n      sstore\n      pop\n        /* \"contracts/dao.sol\":2741:3071  function createProposal(string calldata _desc, uint _amt,address payable _recepient) public onlyManager {... */\n      pop\n      pop\n      pop\n      pop\n      jump\t// out\n        /* \"contracts/dao.sol\":3077:3562  function voteProposal(uint _pid) public onlyInvestor() {... */\n    tag_90:\n        /* \"contracts/dao.sol\":1179:1183  true */\n      0x01\n        /* \"contracts/dao.sol\":1155:1183  isInvestor[msg.sender]==true */\n      iszero\n      iszero\n        /* \"contracts/dao.sol\":1155:1165  isInvestor */\n      0x00\n        /* \"contracts/dao.sol\":1155:1177  isInvestor[msg.sender] */\n      dup1\n        /* \"contracts/dao.sol\":1166:1176  msg.sender */\n      caller\n        /* \"contracts/dao.sol\":1155:1177  isInvestor[msg.sender] */\n      0xffffffffffffffffffffffffffffffffffffffff\n      and\n      0xffffffffffffffffffffffffffffffffffffffff\n      and\n      dup2\n      mstore\n      0x20\n      add\n      swap1\n      dup2\n      mstore\n      0x20\n      add\n      0x00\n      keccak256\n      0x00\n      swap1\n      sload\n      swap1\n      0x0100\n      exp\n      swap1\n      div\n      0xff\n      and\n        /* \"contracts/dao.sol\":1155:1183  isInvestor[msg.sender]==true */\n      iszero\n      iszero\n      eq\n        /* \"contracts/dao.sol\":1147:1212  require(isInvestor[msg.sender]==true, \"You are not an Investor!\") */\n      tag_213\n      jumpi\n      mload(0x40)\n      0x08c379a000000000000000000000000000000000000000000000000000000000\n      dup2\n      mstore\n      0x04\n      add\n      tag_214\n      swap1\n      tag_167\n      jump\t// in\n    tag_214:\n      mload(0x40)\n      dup1\n      swap2\n      sub\n      swap1\n      revert\n    tag_213:\n        /* \"contracts/dao.sol\":3159:3160  0 */\n      0x00\n        /* \"contracts/dao.sol\":3151:3155  _pid */\n      dup2\n        /* \"contracts/dao.sol\":3151:3160  _pid >= 0 */\n      lt\n      iszero\n        /* \"contracts/dao.sol\":3151:3185  _pid >= 0 && _pid < nextProposalId */\n      dup1\n      iszero\n      tag_216\n      jumpi\n      pop\n        /* \"contracts/dao.sol\":3171:3185  nextProposalId */\n      sload(0x09)\n        /* \"contracts/dao.sol\":3164:3168  _pid */\n      dup2\n        /* \"contracts/dao.sol\":3164:3185  _pid < nextProposalId */\n      lt\n        /* \"contracts/dao.sol\":3151:3185  _pid >= 0 && _pid < nextProposalId */\n    tag_216:\n        /* \"contracts/dao.sol\":3143:3208  require(_pid >= 0 && _pid < nextProposalId,\"Invalid Proposal id\") */\n      tag_217\n      jumpi\n      mload(0x40)\n      0x08c379a000000000000000000000000000000000000000000000000000000000\n      dup2\n      mstore\n      0x04\n      add\n      tag_218\n      swap1\n      tag_145\n      jump\t// in\n    tag_218:\n      mload(0x40)\n      dup1\n      swap2\n      sub\n      swap1\n      revert\n    tag_217:\n        /* \"contracts/dao.sol\":3254:3259  false */\n      0x00\n        /* \"contracts/dao.sol\":3227:3259  isVoted[msg.sender][_pid]==false */\n      iszero\n      iszero\n        /* \"contracts/dao.sol\":3227:3234  isVoted */\n      0x02\n        /* \"contracts/dao.sol\":3227:3246  isVoted[msg.sender] */\n      0x00\n        /* \"contracts/dao.sol\":3235:3245  msg.sender */\n      caller\n        /* \"contracts/dao.sol\":3227:3246  isVoted[msg.sender] */\n      0xffffffffffffffffffffffffffffffffffffffff\n      and\n      0xffffffffffffffffffffffffffffffffffffffff\n      and\n      dup2\n      mstore\n      0x20\n      add\n      swap1\n      dup2\n      mstore\n      0x20\n      add\n      0x00\n      keccak256\n        /* \"contracts/dao.sol\":3227:3252  isVoted[msg.sender][_pid] */\n      0x00\n        /* \"contracts/dao.sol\":3247:3251  _pid */\n      dup4\n        /* \"contracts/dao.sol\":3227:3252  isVoted[msg.sender][_pid] */\n      dup2\n      mstore\n      0x20\n      add\n      swap1\n      dup2\n      mstore\n      0x20\n      add\n      0x00\n      keccak256\n      0x00\n      swap1\n      sload\n      swap1\n      0x0100\n      exp\n      swap1\n      div\n      0xff\n      and\n        /* \"contracts/dao.sol\":3227:3259  isVoted[msg.sender][_pid]==false */\n      iszero\n      iszero\n      eq\n        /* \"contracts/dao.sol\":3219:3276  require(isVoted[msg.sender][_pid]==false,\"Already Voted\") */\n      tag_219\n      jumpi\n      mload(0x40)\n      0x08c379a000000000000000000000000000000000000000000000000000000000\n      dup2\n      mstore\n      0x04\n      add\n      tag_220\n      swap1\n      tag_221\n      jump\t// in\n    tag_220:\n      mload(0x40)\n      dup1\n      swap2\n      sub\n      swap1\n      revert\n    tag_219:\n        /* \"contracts/dao.sol\":3287:3311  Proposal storage propsal */\n      0x00\n        /* \"contracts/dao.sol\":3314:3323  proposals */\n      0x05\n        /* \"contracts/dao.sol\":3314:3329  proposals[_pid] */\n      0x00\n        /* \"contracts/dao.sol\":3324:3328  _pid */\n      dup4\n        /* \"contracts/dao.sol\":3314:3329  proposals[_pid] */\n      dup2\n      mstore\n      0x20\n      add\n      swap1\n      dup2\n      mstore\n      0x20\n      add\n      0x00\n      keccak256\n        /* \"contracts/dao.sol\":3287:3329  Proposal storage propsal = proposals[_pid] */\n      swap1\n      pop\n        /* \"contracts/dao.sol\":3363:3378  block.timestamp */\n      timestamp\n        /* \"contracts/dao.sol\":3348:3355  propsal */\n      dup2\n        /* \"contracts/dao.sol\":3348:3359  propsal.end */\n      0x05\n      add\n      sload\n        /* \"contracts/dao.sol\":3348:3378  propsal.end >= block.timestamp */\n      lt\n      iszero\n        /* \"contracts/dao.sol\":3340:3400  require(propsal.end >= block.timestamp,\"Voting period Over\") */\n      tag_222\n      jumpi\n      mload(0x40)\n      0x08c379a000000000000000000000000000000000000000000000000000000000\n      dup2\n      mstore\n      0x04\n      add\n      tag_223\n      swap1\n      tag_224\n      jump\t// in\n    tag_223:\n      mload(0x40)\n      dup1\n      swap2\n      sub\n      swap1\n      revert\n    tag_222:\n        /* \"contracts/dao.sol\":3439:3444  false */\n      0x00\n        /* \"contracts/dao.sol\":3419:3444  propsal.isExecuted==false */\n      iszero\n      iszero\n        /* \"contracts/dao.sol\":3419:3426  propsal */\n      dup2\n        /* \"contracts/dao.sol\":3419:3437  propsal.isExecuted */\n      0x06\n      add\n      0x00\n      swap1\n      sload\n      swap1\n      0x0100\n      exp\n      swap1\n      div\n      0xff\n      and\n        /* \"contracts/dao.sol\":3419:3444  propsal.isExecuted==false */\n      iszero\n      iszero\n      eq\n        /* \"contracts/dao.sol\":3411:3464  require(propsal.isExecuted==false,\"Already Executed\") */\n      tag_225\n      jumpi\n      mload(0x40)\n      0x08c379a000000000000000000000000000000000000000000000000000000000\n      dup2\n      mstore\n      0x04\n      add\n      tag_226\n      swap1\n      tag_155\n      jump\t// in\n    tag_226:\n      mload(0x40)\n      dup1\n      swap2\n      sub\n      swap1\n      revert\n    tag_225:\n        /* \"contracts/dao.sol\":3490:3501  numOfShares */\n      0x01\n        /* \"contracts/dao.sol\":3490:3513  numOfShares[msg.sender] */\n      0x00\n        /* \"contracts/dao.sol\":3502:3512  msg.sender */\n      caller\n        /* \"contracts/dao.sol\":3490:3513  numOfShares[msg.sender] */\n      0xffffffffffffffffffffffffffffffffffffffff\n      and\n      0xffffffffffffffffffffffffffffffffffffffff\n      and\n      dup2\n      mstore\n      0x20\n      add\n      swap1\n      dup2\n      mstore\n      0x20\n      add\n      0x00\n      keccak256\n      sload\n        /* \"contracts/dao.sol\":3475:3482  propsal */\n      dup2\n        /* \"contracts/dao.sol\":3475:3488  propsal.votes */\n      0x04\n      add\n      0x00\n        /* \"contracts/dao.sol\":3475:3513  propsal.votes+=numOfShares[msg.sender] */\n      dup3\n      dup3\n      sload\n      tag_227\n      swap2\n      swap1\n      tag_134\n      jump\t// in\n    tag_227:\n      swap3\n      pop\n      pop\n      dup2\n      swap1\n      sstore\n      pop\n        /* \"contracts/dao.sol\":3550:3554  true */\n      0x01\n        /* \"contracts/dao.sol\":3524:3531  isVoted */\n      0x02\n        /* \"contracts/dao.sol\":3524:3543  isVoted[msg.sender] */\n      0x00\n        /* \"contracts/dao.sol\":3532:3542  msg.sender */\n      caller\n        /* \"contracts/dao.sol\":3524:3543  isVoted[msg.sender] */\n      0xffffffffffffffffffffffffffffffffffffffff\n      and\n      0xffffffffffffffffffffffffffffffffffffffff\n      and\n      dup2\n      mstore\n      0x20\n      add\n      swap1\n      dup2\n      mstore\n      0x20\n      add\n      0x00\n      keccak256\n        /* \"contracts/dao.sol\":3524:3549  isVoted[msg.sender][_pid] */\n      0x00\n        /* \"contracts/dao.sol\":3544:3548  _pid */\n      dup5\n        /* \"contracts/dao.sol\":3524:3549  isVoted[msg.sender][_pid] */\n      dup2\n      mstore\n      0x20\n      add\n      swap1\n      dup2\n      mstore\n      0x20\n      add\n      0x00\n      keccak256\n      0x00\n        /* \"contracts/dao.sol\":3524:3554  isVoted[msg.sender][_pid]=true */\n      0x0100\n      exp\n      dup2\n      sload\n      dup2\n      0xff\n      mul\n      not\n      and\n      swap1\n      dup4\n      iszero\n      iszero\n      mul\n      or\n      swap1\n      sstore\n      pop\n        /* \"contracts/dao.sol\":3132:3562  {... */\n      pop\n        /* \"contracts/dao.sol\":3077:3562  function voteProposal(uint _pid) public onlyInvestor() {... */\n      pop\n      jump\t// out\n        /* \"contracts/dao.sol\":381:433  mapping(address=>mapping(uint=>bool)) public isVoted */\n    tag_95:\n      mstore(0x20, 0x02)\n      dup2\n      0x00\n      mstore\n      mstore(0x20, keccak256(0x00, 0x40))\n      dup1\n      0x00\n      mstore\n      keccak256(0x00, 0x40)\n      0x00\n      swap2\n      pop\n      swap2\n      pop\n      swap1\n      sload\n      swap1\n      0x0100\n      exp\n      swap1\n      div\n      0xff\n      and\n      dup2\n      jump\t// out\n        /* \"contracts/dao.sol\":657:688  uint public contributionTimeEnd */\n    tag_100:\n      sload(0x08)\n      dup2\n      jump\t// out\n        /* \"contracts/dao.sol\":728:748  uint public voteTime */\n    tag_104:\n      sload(0x0a)\n      dup2\n      jump\t// out\n        /* \"contracts/dao.sol\":440:503  mapping(address=>mapping(address=>bool)) public withdrawlStatus */\n    tag_110:\n      mstore(0x20, 0x03)\n      dup2\n      0x00\n      mstore\n      mstore(0x20, keccak256(0x00, 0x40))\n      dup1\n      0x00\n      mstore\n      keccak256(0x00, 0x40)\n      0x00\n      swap2\n      pop\n      swap2\n      pop\n      swap1\n      sload\n      swap1\n      0x0100\n      exp\n      swap1\n      div\n      0xff\n      and\n      dup2\n      jump\t// out\n        /* \"contracts/dao.sol\":1345:1697  function Contribution() public payable {... */\n    tag_113:\n        /* \"contracts/dao.sol\":1418:1437  contributionTimeEnd */\n      sload(0x08)\n        /* \"contracts/dao.sol\":1399:1414  block.timestamp */\n      timestamp\n        /* \"contracts/dao.sol\":1399:1437  block.timestamp <= contributionTimeEnd */\n      gt\n      iszero\n        /* \"contracts/dao.sol\":1391:1464  require(block.timestamp <= contributionTimeEnd,\"Contribution Time ended\") */\n      tag_229\n      jumpi\n      mload(0x40)\n      0x08c379a000000000000000000000000000000000000000000000000000000000\n      dup2\n      mstore\n      0x04\n      add\n      tag_230\n      swap1\n      tag_231\n      jump\t// in\n    tag_230:\n      mload(0x40)\n      dup1\n      swap2\n      sub\n      swap1\n      revert\n    tag_229:\n        /* \"contracts/dao.sol\":1491:1492  0 */\n      0x00\n        /* \"contracts/dao.sol\":1479:1488  msg.value */\n      callvalue\n        /* \"contracts/dao.sol\":1479:1492  msg.value > 0 */\n      gt\n        /* \"contracts/dao.sol\":1471:1513  require(msg.value > 0, \"Send more then 0\") */\n      tag_232\n      jumpi\n      mload(0x40)\n      0x08c379a000000000000000000000000000000000000000000000000000000000\n      dup2\n      mstore\n      0x04\n      add\n      tag_233\n      swap1\n      tag_123\n      jump\t// in\n    tag_233:\n      mload(0x40)\n      dup1\n      swap2\n      sub\n      swap1\n      revert\n    tag_232:\n        /* \"contracts/dao.sol\":1543:1547  true */\n      0x01\n        /* \"contracts/dao.sol\":1520:1530  isInvestor */\n      0x00\n        /* \"contracts/dao.sol\":1520:1542  isInvestor[msg.sender] */\n      dup1\n        /* \"contracts/dao.sol\":1531:1541  msg.sender */\n      caller\n        /* \"contracts/dao.sol\":1520:1542  isInvestor[msg.sender] */\n      0xffffffffffffffffffffffffffffffffffffffff\n      and\n      0xffffffffffffffffffffffffffffffffffffffff\n      and\n      dup2\n      mstore\n      0x20\n      add\n      swap1\n      dup2\n      mstore\n      0x20\n      add\n      0x00\n      keccak256\n      0x00\n        /* \"contracts/dao.sol\":1520:1547  isInvestor[msg.sender]=true */\n      0x0100\n      exp\n      dup2\n      sload\n      dup2\n      0xff\n      mul\n      not\n      and\n      swap1\n      dup4\n      iszero\n      iszero\n      mul\n      or\n      swap1\n      sstore\n      pop\n        /* \"contracts/dao.sol\":1581:1590  msg.value */\n      callvalue\n        /* \"contracts/dao.sol\":1554:1565  numOfShares */\n      0x01\n        /* \"contracts/dao.sol\":1554:1577  numOfShares[msg.sender] */\n      0x00\n        /* \"contracts/dao.sol\":1566:1576  msg.sender */\n      caller\n        /* \"contracts/dao.sol\":1554:1577  numOfShares[msg.sender] */\n      0xffffffffffffffffffffffffffffffffffffffff\n      and\n      0xffffffffffffffffffffffffffffffffffffffff\n      and\n      dup2\n      mstore\n      0x20\n      add\n      swap1\n      dup2\n      mstore\n      0x20\n      add\n      0x00\n      keccak256\n      0x00\n        /* \"contracts/dao.sol\":1554:1590  numOfShares[msg.sender] += msg.value */\n      dup3\n      dup3\n      sload\n      tag_234\n      swap2\n      swap1\n      tag_134\n      jump\t// in\n    tag_234:\n      swap3\n      pop\n      pop\n      dup2\n      swap1\n      sstore\n      pop\n        /* \"contracts/dao.sol\":1612:1621  msg.value */\n      callvalue\n        /* \"contracts/dao.sol\":1597:1608  totalShares */\n      0x06\n      0x00\n        /* \"contracts/dao.sol\":1597:1621  totalShares += msg.value */\n      dup3\n      dup3\n      sload\n      tag_235\n      swap2\n      swap1\n      tag_134\n      jump\t// in\n    tag_235:\n      swap3\n      pop\n      pop\n      dup2\n      swap1\n      sstore\n      pop\n        /* \"contracts/dao.sol\":1644:1653  msg.value */\n      callvalue\n        /* \"contracts/dao.sol\":1628:1642  availableFunds */\n      0x07\n      0x00\n        /* \"contracts/dao.sol\":1628:1653  availableFunds+=msg.value */\n      dup3\n      dup3\n      sload\n      tag_236\n      swap2\n      swap1\n      tag_134\n      jump\t// in\n    tag_236:\n      swap3\n      pop\n      pop\n      dup2\n      swap1\n      sstore\n      pop\n        /* \"contracts/dao.sol\":1660:1672  investorList */\n      0x04\n        /* \"contracts/dao.sol\":1678:1688  msg.sender */\n      caller\n        /* \"contracts/dao.sol\":1660:1689  investorList.push(msg.sender) */\n      swap1\n      dup1\n      0x01\n      dup2\n      sload\n      add\n      dup1\n      dup3\n      sstore\n      dup1\n      swap2\n      pop\n      pop\n      0x01\n      swap1\n      sub\n      swap1\n      0x00\n      mstore\n      keccak256(0x00, 0x20)\n      add\n      0x00\n      swap1\n      swap2\n      swap1\n      swap2\n      swap1\n      swap2\n      0x0100\n      exp\n      dup2\n      sload\n      dup2\n      0xffffffffffffffffffffffffffffffffffffffff\n      mul\n      not\n      and\n      swap1\n      dup4\n      0xffffffffffffffffffffffffffffffffffffffff\n      and\n      mul\n      or\n      swap1\n      sstore\n      pop\n        /* \"contracts/dao.sol\":1345:1697  function Contribution() public payable {... */\n      jump\t// out\n    tag_189:\n      mload(0x40)\n      dup1\n      0xe0\n      add\n      0x40\n      mstore\n      dup1\n      0x00\n      dup2\n      mstore\n      0x20\n      add\n      0x60\n      dup2\n      mstore\n      0x20\n      add\n      0x00\n      dup2\n      mstore\n      0x20\n      add\n      and(0xffffffffffffffffffffffffffffffffffffffff, 0x00)\n      dup2\n      mstore\n      0x20\n      add\n      0x00\n      dup2\n      mstore\n      0x20\n      add\n      0x00\n      dup2\n      mstore\n      0x20\n      add\n      iszero(iszero(0x00))\n      dup2\n      mstore\n      pop\n      swap1\n      jump\t// out\n        /* \"#utility.yul\":88:205   */\n    tag_239:\n        /* \"#utility.yul\":197:198   */\n      0x00\n        /* \"#utility.yul\":194:195   */\n      dup1\n        /* \"#utility.yul\":187:199   */\n      revert\n        /* \"#utility.yul\":211:328   */\n    tag_240:\n        /* \"#utility.yul\":320:321   */\n      0x00\n        /* \"#utility.yul\":317:318   */\n      dup1\n        /* \"#utility.yul\":310:322   */\n      revert\n        /* \"#utility.yul\":334:411   */\n    tag_241:\n        /* \"#utility.yul\":371:378   */\n      0x00\n        /* \"#utility.yul\":400:405   */\n      dup2\n        /* \"#utility.yul\":389:405   */\n      swap1\n      pop\n        /* \"#utility.yul\":334:411   */\n      swap2\n      swap1\n      pop\n      jump\t// out\n        /* \"#utility.yul\":417:539   */\n    tag_242:\n        /* \"#utility.yul\":490:514   */\n      tag_325\n        /* \"#utility.yul\":508:513   */\n      dup2\n        /* \"#utility.yul\":490:514   */\n      tag_241\n      jump\t// in\n    tag_325:\n        /* \"#utility.yul\":483:488   */\n      dup2\n        /* \"#utility.yul\":480:515   */\n      eq\n        /* \"#utility.yul\":470:533   */\n      tag_326\n      jumpi\n        /* \"#utility.yul\":529:530   */\n      0x00\n        /* \"#utility.yul\":526:527   */\n      dup1\n        /* \"#utility.yul\":519:531   */\n      revert\n        /* \"#utility.yul\":470:533   */\n    tag_326:\n        /* \"#utility.yul\":417:539   */\n      pop\n      jump\t// out\n        /* \"#utility.yul\":545:684   */\n    tag_243:\n        /* \"#utility.yul\":591:596   */\n      0x00\n        /* \"#utility.yul\":629:635   */\n      dup2\n        /* \"#utility.yul\":616:636   */\n      calldataload\n        /* \"#utility.yul\":607:636   */\n      swap1\n      pop\n        /* \"#utility.yul\":645:678   */\n      tag_328\n        /* \"#utility.yul\":672:677   */\n      dup2\n        /* \"#utility.yul\":645:678   */\n      tag_242\n      jump\t// in\n    tag_328:\n        /* \"#utility.yul\":545:684   */\n      swap3\n      swap2\n      pop\n      pop\n      jump\t// out\n        /* \"#utility.yul\":690:1019   */\n    tag_27:\n        /* \"#utility.yul\":749:755   */\n      0x00\n        /* \"#utility.yul\":798:800   */\n      0x20\n        /* \"#utility.yul\":786:795   */\n      dup3\n        /* \"#utility.yul\":777:784   */\n      dup5\n        /* \"#utility.yul\":773:796   */\n      sub\n        /* \"#utility.yul\":769:801   */\n      slt\n        /* \"#utility.yul\":766:885   */\n      iszero\n      tag_330\n      jumpi\n        /* \"#utility.yul\":804:883   */\n      tag_331\n      tag_239\n      jump\t// in\n    tag_331:\n        /* \"#utility.yul\":766:885   */\n    tag_330:\n        /* \"#utility.yul\":924:925   */\n      0x00\n        /* \"#utility.yul\":949:1002   */\n      tag_332\n        /* \"#utility.yul\":994:1001   */\n      dup5\n        /* \"#utility.yul\":985:991   */\n      dup3\n        /* \"#utility.yul\":974:983   */\n      dup6\n        /* \"#utility.yul\":970:992   */\n      add\n        /* \"#utility.yul\":949:1002   */\n      tag_243\n      jump\t// in\n    tag_332:\n        /* \"#utility.yul\":939:1002   */\n      swap2\n      pop\n        /* \"#utility.yul\":895:1012   */\n      pop\n        /* \"#utility.yul\":690:1019   */\n      swap3\n      swap2\n      pop\n      pop\n      jump\t// out\n        /* \"#utility.yul\":1025:1143   */\n    tag_244:\n        /* \"#utility.yul\":1112:1136   */\n      tag_334\n        /* \"#utility.yul\":1130:1135   */\n      dup2\n        /* \"#utility.yul\":1112:1136   */\n      tag_241\n      jump\t// in\n    tag_334:\n        /* \"#utility.yul\":1107:1110   */\n      dup3\n        /* \"#utility.yul\":1100:1137   */\n      mstore\n        /* \"#utility.yul\":1025:1143   */\n      pop\n      pop\n      jump\t// out\n        /* \"#utility.yul\":1149:1248   */\n    tag_245:\n        /* \"#utility.yul\":1201:1207   */\n      0x00\n        /* \"#utility.yul\":1235:1240   */\n      dup2\n        /* \"#utility.yul\":1229:1241   */\n      mload\n        /* \"#utility.yul\":1219:1241   */\n      swap1\n      pop\n        /* \"#utility.yul\":1149:1248   */\n      swap2\n      swap1\n      pop\n      jump\t// out\n        /* \"#utility.yul\":1254:1423   */\n    tag_246:\n        /* \"#utility.yul\":1338:1349   */\n      0x00\n        /* \"#utility.yul\":1372:1378   */\n      dup3\n        /* \"#utility.yul\":1367:1370   */\n      dup3\n        /* \"#utility.yul\":1360:1379   */\n      mstore\n        /* \"#utility.yul\":1412:1416   */\n      0x20\n        /* \"#utility.yul\":1407:1410   */\n      dup3\n        /* \"#utility.yul\":1403:1417   */\n      add\n        /* \"#utility.yul\":1388:1417   */\n      swap1\n      pop\n        /* \"#utility.yul\":1254:1423   */\n      swap3\n      swap2\n      pop\n      pop\n      jump\t// out\n        /* \"#utility.yul\":1429:1568   */\n    tag_247:\n        /* \"#utility.yul\":1518:1524   */\n      dup3\n        /* \"#utility.yul\":1513:1516   */\n      dup2\n        /* \"#utility.yul\":1508:1511   */\n      dup4\n        /* \"#utility.yul\":1502:1525   */\n      mcopy\n        /* \"#utility.yul\":1559:1560   */\n      0x00\n        /* \"#utility.yul\":1550:1556   */\n      dup4\n        /* \"#utility.yul\":1545:1548   */\n      dup4\n        /* \"#utility.yul\":1541:1557   */\n      add\n        /* \"#utility.yul\":1534:1561   */\n      mstore\n        /* \"#utility.yul\":1429:1568   */\n      pop\n      pop\n      pop\n      jump\t// out\n        /* \"#utility.yul\":1574:1676   */\n    tag_248:\n        /* \"#utility.yul\":1615:1621   */\n      0x00\n        /* \"#utility.yul\":1666:1668   */\n      0x1f\n        /* \"#utility.yul\":1662:1669   */\n      not\n        /* \"#utility.yul\":1657:1659   */\n      0x1f\n        /* \"#utility.yul\":1650:1655   */\n      dup4\n        /* \"#utility.yul\":1646:1660   */\n      add\n        /* \"#utility.yul\":1642:1670   */\n      and\n        /* \"#utility.yul\":1632:1670   */\n      swap1\n      pop\n        /* \"#utility.yul\":1574:1676   */\n      swap2\n      swap1\n      pop\n      jump\t// out\n        /* \"#utility.yul\":1682:2059   */\n    tag_249:\n        /* \"#utility.yul\":1770:1773   */\n      0x00\n        /* \"#utility.yul\":1798:1837   */\n      tag_340\n        /* \"#utility.yul\":1831:1836   */\n      dup3\n        /* \"#utility.yul\":1798:1837   */\n      tag_245\n      jump\t// in\n    tag_340:\n        /* \"#utility.yul\":1853:1924   */\n      tag_341\n        /* \"#utility.yul\":1917:1923   */\n      dup2\n        /* \"#utility.yul\":1912:1915   */\n      dup6\n        /* \"#utility.yul\":1853:1924   */\n      tag_246\n      jump\t// in\n    tag_341:\n        /* \"#utility.yul\":1846:1924   */\n      swap4\n      pop\n        /* \"#utility.yul\":1933:1998   */\n      tag_342\n        /* \"#utility.yul\":1991:1997   */\n      dup2\n        /* \"#utility.yul\":1986:1989   */\n      dup6\n        /* \"#utility.yul\":1979:1983   */\n      0x20\n        /* \"#utility.yul\":1972:1977   */\n      dup7\n        /* \"#utility.yul\":1968:1984   */\n      add\n        /* \"#utility.yul\":1933:1998   */\n      tag_247\n      jump\t// in\n    tag_342:\n        /* \"#utility.yul\":2023:2052   */\n      tag_343\n        /* \"#utility.yul\":2045:2051   */\n      dup2\n        /* \"#utility.yul\":2023:2052   */\n      tag_248\n      jump\t// in\n    tag_343:\n        /* \"#utility.yul\":2018:2021   */\n      dup5\n        /* \"#utility.yul\":2014:2053   */\n      add\n        /* \"#utility.yul\":2007:2053   */\n      swap2\n      pop\n        /* \"#utility.yul\":1774:2059   */\n      pop\n        /* \"#utility.yul\":1682:2059   */\n      swap3\n      swap2\n      pop\n      pop\n      jump\t// out\n        /* \"#utility.yul\":2065:2191   */\n    tag_250:\n        /* \"#utility.yul\":2102:2109   */\n      0x00\n        /* \"#utility.yul\":2142:2184   */\n      0xffffffffffffffffffffffffffffffffffffffff\n        /* \"#utility.yul\":2135:2140   */\n      dup3\n        /* \"#utility.yul\":2131:2185   */\n      and\n        /* \"#utility.yul\":2120:2185   */\n      swap1\n      pop\n        /* \"#utility.yul\":2065:2191   */\n      swap2\n      swap1\n      pop\n      jump\t// out\n        /* \"#utility.yul\":2197:2301   */\n    tag_251:\n        /* \"#utility.yul\":2242:2249   */\n      0x00\n        /* \"#utility.yul\":2271:2295   */\n      tag_346\n        /* \"#utility.yul\":2289:2294   */\n      dup3\n        /* \"#utility.yul\":2271:2295   */\n      tag_250\n      jump\t// in\n    tag_346:\n        /* \"#utility.yul\":2260:2295   */\n      swap1\n      pop\n        /* \"#utility.yul\":2197:2301   */\n      swap2\n      swap1\n      pop\n      jump\t// out\n        /* \"#utility.yul\":2307:2449   */\n    tag_252:\n        /* \"#utility.yul\":2410:2442   */\n      tag_348\n        /* \"#utility.yul\":2436:2441   */\n      dup2\n        /* \"#utility.yul\":2410:2442   */\n      tag_251\n      jump\t// in\n    tag_348:\n        /* \"#utility.yul\":2405:2408   */\n      dup3\n        /* \"#utility.yul\":2398:2443   */\n      mstore\n        /* \"#utility.yul\":2307:2449   */\n      pop\n      pop\n      jump\t// out\n        /* \"#utility.yul\":2455:2545   */\n    tag_253:\n        /* \"#utility.yul\":2489:2496   */\n      0x00\n        /* \"#utility.yul\":2532:2537   */\n      dup2\n        /* \"#utility.yul\":2525:2538   */\n      iszero\n        /* \"#utility.yul\":2518:2539   */\n      iszero\n        /* \"#utility.yul\":2507:2539   */\n      swap1\n      pop\n        /* \"#utility.yul\":2455:2545   */\n      swap2\n      swap1\n      pop\n      jump\t// out\n        /* \"#utility.yul\":2551:2660   */\n    tag_254:\n        /* \"#utility.yul\":2632:2653   */\n      tag_351\n        /* \"#utility.yul\":2647:2652   */\n      dup2\n        /* \"#utility.yul\":2632:2653   */\n      tag_253\n      jump\t// in\n    tag_351:\n        /* \"#utility.yul\":2627:2630   */\n      dup3\n        /* \"#utility.yul\":2620:2654   */\n      mstore\n        /* \"#utility.yul\":2551:2660   */\n      pop\n      pop\n      jump\t// out\n        /* \"#utility.yul\":2666:3663   */\n    tag_30:\n        /* \"#utility.yul\":2957:2961   */\n      0x00\n        /* \"#utility.yul\":2995:2998   */\n      0xe0\n        /* \"#utility.yul\":2984:2993   */\n      dup3\n        /* \"#utility.yul\":2980:2999   */\n      add\n        /* \"#utility.yul\":2972:2999   */\n      swap1\n      pop\n        /* \"#utility.yul\":3009:3080   */\n      tag_353\n        /* \"#utility.yul\":3077:3078   */\n      0x00\n        /* \"#utility.yul\":3066:3075   */\n      dup4\n        /* \"#utility.yul\":3062:3079   */\n      add\n        /* \"#utility.yul\":3053:3059   */\n      dup11\n        /* \"#utility.yul\":3009:3080   */\n      tag_244\n      jump\t// in\n    tag_353:\n        /* \"#utility.yul\":3127:3136   */\n      dup2\n        /* \"#utility.yul\":3121:3125   */\n      dup2\n        /* \"#utility.yul\":3117:3137   */\n      sub\n        /* \"#utility.yul\":3112:3114   */\n      0x20\n        /* \"#utility.yul\":3101:3110   */\n      dup4\n        /* \"#utility.yul\":3097:3115   */\n      add\n        /* \"#utility.yul\":3090:3138   */\n      mstore\n        /* \"#utility.yul\":3155:3233   */\n      tag_354\n        /* \"#utility.yul\":3228:3232   */\n      dup2\n        /* \"#utility.yul\":3219:3225   */\n      dup10\n        /* \"#utility.yul\":3155:3233   */\n      tag_249\n      jump\t// in\n    tag_354:\n        /* \"#utility.yul\":3147:3233   */\n      swap1\n      pop\n        /* \"#utility.yul\":3243:3315   */\n      tag_355\n        /* \"#utility.yul\":3311:3313   */\n      0x40\n        /* \"#utility.yul\":3300:3309   */\n      dup4\n        /* \"#utility.yul\":3296:3314   */\n      add\n        /* \"#utility.yul\":3287:3293   */\n      dup9\n        /* \"#utility.yul\":3243:3315   */\n      tag_244\n      jump\t// in\n    tag_355:\n        /* \"#utility.yul\":3325:3413   */\n      tag_356\n        /* \"#utility.yul\":3409:3411   */\n      0x60\n        /* \"#utility.yul\":3398:3407   */\n      dup4\n        /* \"#utility.yul\":3394:3412   */\n      add\n        /* \"#utility.yul\":3385:3391   */\n      dup8\n        /* \"#utility.yul\":3325:3413   */\n      tag_252\n      jump\t// in\n    tag_356:\n        /* \"#utility.yul\":3423:3496   */\n      tag_357\n        /* \"#utility.yul\":3491:3494   */\n      0x80\n        /* \"#utility.yul\":3480:3489   */\n      dup4\n        /* \"#utility.yul\":3476:3495   */\n      add\n        /* \"#utility.yul\":3467:3473   */\n      dup7\n        /* \"#utility.yul\":3423:3496   */\n      tag_244\n      jump\t// in\n    tag_357:\n        /* \"#utility.yul\":3506:3579   */\n      tag_358\n        /* \"#utility.yul\":3574:3577   */\n      0xa0\n        /* \"#utility.yul\":3563:3572   */\n      dup4\n        /* \"#utility.yul\":3559:3578   */\n      add\n        /* \"#utility.yul\":3550:3556   */\n      dup6\n        /* \"#utility.yul\":3506:3579   */\n      tag_244\n      jump\t// in\n    tag_358:\n        /* \"#utility.yul\":3589:3656   */\n      tag_359\n        /* \"#utility.yul\":3651:3654   */\n      0xc0\n        /* \"#utility.yul\":3640:3649   */\n      dup4\n        /* \"#utility.yul\":3636:3655   */\n      add\n        /* \"#utility.yul\":3627:3633   */\n      dup5\n        /* \"#utility.yul\":3589:3656   */\n      tag_254\n      jump\t// in\n    tag_359:\n        /* \"#utility.yul\":2666:3663   */\n      swap9\n      swap8\n      pop\n      pop\n      pop\n      pop\n      pop\n      pop\n      pop\n      pop\n      jump\t// out\n        /* \"#utility.yul\":3669:3765   */\n    tag_255:\n        /* \"#utility.yul\":3706:3713   */\n      0x00\n        /* \"#utility.yul\":3735:3759   */\n      tag_361\n        /* \"#utility.yul\":3753:3758   */\n      dup3\n        /* \"#utility.yul\":3735:3759   */\n      tag_250\n      jump\t// in\n    tag_361:\n        /* \"#utility.yul\":3724:3759   */\n      swap1\n      pop\n        /* \"#utility.yul\":3669:3765   */\n      swap2\n      swap1\n      pop\n      jump\t// out\n        /* \"#utility.yul\":3771:3893   */\n    tag_256:\n        /* \"#utility.yul\":3844:3868   */\n      tag_363\n        /* \"#utility.yul\":3862:3867   */\n      dup2\n        /* \"#utility.yul\":3844:3868   */\n      tag_255\n      jump\t// in\n    tag_363:\n        /* \"#utility.yul\":3837:3842   */\n      dup2\n        /* \"#utility.yul\":3834:3869   */\n      eq\n        /* \"#utility.yul\":3824:3887   */\n      tag_364\n      jumpi\n        /* \"#utility.yul\":3883:3884   */\n      0x00\n        /* \"#utility.yul\":3880:3881   */\n      dup1\n        /* \"#utility.yul\":3873:3885   */\n      revert\n        /* \"#utility.yul\":3824:3887   */\n    tag_364:\n        /* \"#utility.yul\":3771:3893   */\n      pop\n      jump\t// out\n        /* \"#utility.yul\":3899:4038   */\n    tag_257:\n        /* \"#utility.yul\":3945:3950   */\n      0x00\n        /* \"#utility.yul\":3983:3989   */\n      dup2\n        /* \"#utility.yul\":3970:3990   */\n      calldataload\n        /* \"#utility.yul\":3961:3990   */\n      swap1\n      pop\n        /* \"#utility.yul\":3999:4032   */\n      tag_366\n        /* \"#utility.yul\":4026:4031   */\n      dup2\n        /* \"#utility.yul\":3999:4032   */\n      tag_256\n      jump\t// in\n    tag_366:\n        /* \"#utility.yul\":3899:4038   */\n      swap3\n      swap2\n      pop\n      pop\n      jump\t// out\n        /* \"#utility.yul\":4044:4518   */\n    tag_34:\n        /* \"#utility.yul\":4112:4118   */\n      0x00\n        /* \"#utility.yul\":4120:4126   */\n      dup1\n        /* \"#utility.yul\":4169:4171   */\n      0x40\n        /* \"#utility.yul\":4157:4166   */\n      dup4\n        /* \"#utility.yul\":4148:4155   */\n      dup6\n        /* \"#utility.yul\":4144:4167   */\n      sub\n        /* \"#utility.yul\":4140:4172   */\n      slt\n        /* \"#utility.yul\":4137:4256   */\n      iszero\n      tag_368\n      jumpi\n        /* \"#utility.yul\":4175:4254   */\n      tag_369\n      tag_239\n      jump\t// in\n    tag_369:\n        /* \"#utility.yul\":4137:4256   */\n    tag_368:\n        /* \"#utility.yul\":4295:4296   */\n      0x00\n        /* \"#utility.yul\":4320:4373   */\n      tag_370\n        /* \"#utility.yul\":4365:4372   */\n      dup6\n        /* \"#utility.yul\":4356:4362   */\n      dup3\n        /* \"#utility.yul\":4345:4354   */\n      dup7\n        /* \"#utility.yul\":4341:4363   */\n      add\n        /* \"#utility.yul\":4320:4373   */\n      tag_243\n      jump\t// in\n    tag_370:\n        /* \"#utility.yul\":4310:4373   */\n      swap3\n      pop\n        /* \"#utility.yul\":4266:4383   */\n      pop\n        /* \"#utility.yul\":4422:4424   */\n      0x20\n        /* \"#utility.yul\":4448:4501   */\n      tag_371\n        /* \"#utility.yul\":4493:4500   */\n      dup6\n        /* \"#utility.yul\":4484:4490   */\n      dup3\n        /* \"#utility.yul\":4473:4482   */\n      dup7\n        /* \"#utility.yul\":4469:4491   */\n      add\n        /* \"#utility.yul\":4448:4501   */\n      tag_257\n      jump\t// in\n    tag_371:\n        /* \"#utility.yul\":4438:4501   */\n      swap2\n      pop\n        /* \"#utility.yul\":4393:4511   */\n      pop\n        /* \"#utility.yul\":4044:4518   */\n      swap3\n      pop\n      swap3\n      swap1\n      pop\n      jump\t// out\n        /* \"#utility.yul\":4524:4642   */\n    tag_258:\n        /* \"#utility.yul\":4611:4635   */\n      tag_373\n        /* \"#utility.yul\":4629:4634   */\n      dup2\n        /* \"#utility.yul\":4611:4635   */\n      tag_255\n      jump\t// in\n    tag_373:\n        /* \"#utility.yul\":4606:4609   */\n      dup3\n        /* \"#utility.yul\":4599:4636   */\n      mstore\n        /* \"#utility.yul\":4524:4642   */\n      pop\n      pop\n      jump\t// out\n        /* \"#utility.yul\":4648:4870   */\n    tag_45:\n        /* \"#utility.yul\":4741:4745   */\n      0x00\n        /* \"#utility.yul\":4779:4781   */\n      0x20\n        /* \"#utility.yul\":4768:4777   */\n      dup3\n        /* \"#utility.yul\":4764:4782   */\n      add\n        /* \"#utility.yul\":4756:4782   */\n      swap1\n      pop\n        /* \"#utility.yul\":4792:4863   */\n      tag_375\n        /* \"#utility.yul\":4860:4861   */\n      0x00\n        /* \"#utility.yul\":4849:4858   */\n      dup4\n        /* \"#utility.yul\":4845:4862   */\n      add\n        /* \"#utility.yul\":4836:4842   */\n      dup5\n        /* \"#utility.yul\":4792:4863   */\n      tag_258\n      jump\t// in\n    tag_375:\n        /* \"#utility.yul\":4648:4870   */\n      swap3\n      swap2\n      pop\n      pop\n      jump\t// out\n        /* \"#utility.yul\":4876:5098   */\n    tag_50:\n        /* \"#utility.yul\":4969:4973   */\n      0x00\n        /* \"#utility.yul\":5007:5009   */\n      0x20\n        /* \"#utility.yul\":4996:5005   */\n      dup3\n        /* \"#utility.yul\":4992:5010   */\n      add\n        /* \"#utility.yul\":4984:5010   */\n      swap1\n      pop\n        /* \"#utility.yul\":5020:5091   */\n      tag_377\n        /* \"#utility.yul\":5088:5089   */\n      0x00\n        /* \"#utility.yul\":5077:5086   */\n      dup4\n        /* \"#utility.yul\":5073:5090   */\n      add\n        /* \"#utility.yul\":5064:5070   */\n      dup5\n        /* \"#utility.yul\":5020:5091   */\n      tag_244\n      jump\t// in\n    tag_377:\n        /* \"#utility.yul\":4876:5098   */\n      swap3\n      swap2\n      pop\n      pop\n      jump\t// out\n        /* \"#utility.yul\":5104:5242   */\n    tag_259:\n        /* \"#utility.yul\":5195:5201   */\n      0x00\n        /* \"#utility.yul\":5229:5234   */\n      dup2\n        /* \"#utility.yul\":5223:5235   */\n      mload\n        /* \"#utility.yul\":5213:5235   */\n      swap1\n      pop\n        /* \"#utility.yul\":5104:5242   */\n      swap2\n      swap1\n      pop\n      jump\t// out\n        /* \"#utility.yul\":5248:5456   */\n    tag_260:\n        /* \"#utility.yul\":5371:5382   */\n      0x00\n        /* \"#utility.yul\":5405:5411   */\n      dup3\n        /* \"#utility.yul\":5400:5403   */\n      dup3\n        /* \"#utility.yul\":5393:5412   */\n      mstore\n        /* \"#utility.yul\":5445:5449   */\n      0x20\n        /* \"#utility.yul\":5440:5443   */\n      dup3\n        /* \"#utility.yul\":5436:5450   */\n      add\n        /* \"#utility.yul\":5421:5450   */\n      swap1\n      pop\n        /* \"#utility.yul\":5248:5456   */\n      swap3\n      swap2\n      pop\n      pop\n      jump\t// out\n        /* \"#utility.yul\":5462:5618   */\n    tag_261:\n        /* \"#utility.yul\":5553:5557   */\n      0x00\n        /* \"#utility.yul\":5576:5579   */\n      dup2\n        /* \"#utility.yul\":5568:5579   */\n      swap1\n      pop\n        /* \"#utility.yul\":5606:5610   */\n      0x20\n        /* \"#utility.yul\":5601:5604   */\n      dup3\n        /* \"#utility.yul\":5597:5611   */\n      add\n        /* \"#utility.yul\":5589:5611   */\n      swap1\n      pop\n        /* \"#utility.yul\":5462:5618   */\n      swap2\n      swap1\n      pop\n      jump\t// out\n        /* \"#utility.yul\":5624:5732   */\n    tag_262:\n        /* \"#utility.yul\":5701:5725   */\n      tag_382\n        /* \"#utility.yul\":5719:5724   */\n      dup2\n        /* \"#utility.yul\":5701:5725   */\n      tag_241\n      jump\t// in\n    tag_382:\n        /* \"#utility.yul\":5696:5699   */\n      dup3\n        /* \"#utility.yul\":5689:5726   */\n      mstore\n        /* \"#utility.yul\":5624:5732   */\n      pop\n      pop\n      jump\t// out\n        /* \"#utility.yul\":5738:5897   */\n    tag_263:\n        /* \"#utility.yul\":5812:5823   */\n      0x00\n        /* \"#utility.yul\":5846:5852   */\n      dup3\n        /* \"#utility.yul\":5841:5844   */\n      dup3\n        /* \"#utility.yul\":5834:5853   */\n      mstore\n        /* \"#utility.yul\":5886:5890   */\n      0x20\n        /* \"#utility.yul\":5881:5884   */\n      dup3\n        /* \"#utility.yul\":5877:5891   */\n      add\n        /* \"#utility.yul\":5862:5891   */\n      swap1\n      pop\n        /* \"#utility.yul\":5738:5897   */\n      swap3\n      swap2\n      pop\n      pop\n      jump\t// out\n        /* \"#utility.yul\":5903:6260   */\n    tag_264:\n        /* \"#utility.yul\":5981:5984   */\n      0x00\n        /* \"#utility.yul\":6009:6048   */\n      tag_385\n        /* \"#utility.yul\":6042:6047   */\n      dup3\n        /* \"#utility.yul\":6009:6048   */\n      tag_245\n      jump\t// in\n    tag_385:\n        /* \"#utility.yul\":6064:6125   */\n      tag_386\n        /* \"#utility.yul\":6118:6124   */\n      dup2\n        /* \"#utility.yul\":6113:6116   */\n      dup6\n        /* \"#utility.yul\":6064:6125   */\n      tag_263\n      jump\t// in\n    tag_386:\n        /* \"#utility.yul\":6057:6125   */\n      swap4\n      pop\n        /* \"#utility.yul\":6134:6199   */\n      tag_387\n        /* \"#utility.yul\":6192:6198   */\n      dup2\n        /* \"#utility.yul\":6187:6190   */\n      dup6\n        /* \"#utility.yul\":6180:6184   */\n      0x20\n        /* \"#utility.yul\":6173:6178   */\n      dup7\n        /* \"#utility.yul\":6169:6185   */\n      add\n        /* \"#utility.yul\":6134:6199   */\n      tag_247\n      jump\t// in\n    tag_387:\n        /* \"#utility.yul\":6224:6253   */\n      tag_388\n        /* \"#utility.yul\":6246:6252   */\n      dup2\n        /* \"#utility.yul\":6224:6253   */\n      tag_248\n      jump\t// in\n    tag_388:\n        /* \"#utility.yul\":6219:6222   */\n      dup5\n        /* \"#utility.yul\":6215:6254   */\n      add\n        /* \"#utility.yul\":6208:6254   */\n      swap2\n      pop\n        /* \"#utility.yul\":5985:6260   */\n      pop\n        /* \"#utility.yul\":5903:6260   */\n      swap3\n      swap2\n      pop\n      pop\n      jump\t// out\n        /* \"#utility.yul\":6266:6398   */\n    tag_265:\n        /* \"#utility.yul\":6359:6391   */\n      tag_390\n        /* \"#utility.yul\":6385:6390   */\n      dup2\n        /* \"#utility.yul\":6359:6391   */\n      tag_251\n      jump\t// in\n    tag_390:\n        /* \"#utility.yul\":6354:6357   */\n      dup3\n        /* \"#utility.yul\":6347:6392   */\n      mstore\n        /* \"#utility.yul\":6266:6398   */\n      pop\n      pop\n      jump\t// out\n        /* \"#utility.yul\":6404:6503   */\n    tag_266:\n        /* \"#utility.yul\":6475:6496   */\n      tag_392\n        /* \"#utility.yul\":6490:6495   */\n      dup2\n        /* \"#utility.yul\":6475:6496   */\n      tag_253\n      jump\t// in\n    tag_392:\n        /* \"#utility.yul\":6470:6473   */\n      dup3\n        /* \"#utility.yul\":6463:6497   */\n      mstore\n        /* \"#utility.yul\":6404:6503   */\n      pop\n      pop\n      jump\t// out\n        /* \"#utility.yul\":6559:8041   */\n    tag_267:\n        /* \"#utility.yul\":6666:6669   */\n      0x00\n        /* \"#utility.yul\":6702:6706   */\n      0xe0\n        /* \"#utility.yul\":6697:6700   */\n      dup4\n        /* \"#utility.yul\":6693:6707   */\n      add\n        /* \"#utility.yul\":6787:6791   */\n      0x00\n        /* \"#utility.yul\":6780:6785   */\n      dup4\n        /* \"#utility.yul\":6776:6792   */\n      add\n        /* \"#utility.yul\":6770:6793   */\n      mload\n        /* \"#utility.yul\":6806:6869   */\n      tag_394\n        /* \"#utility.yul\":6863:6867   */\n      0x00\n        /* \"#utility.yul\":6858:6861   */\n      dup7\n        /* \"#utility.yul\":6854:6868   */\n      add\n        /* \"#utility.yul\":6840:6852   */\n      dup3\n        /* \"#utility.yul\":6806:6869   */\n      tag_262\n      jump\t// in\n    tag_394:\n        /* \"#utility.yul\":6717:6879   */\n      pop\n        /* \"#utility.yul\":6961:6965   */\n      0x20\n        /* \"#utility.yul\":6954:6959   */\n      dup4\n        /* \"#utility.yul\":6950:6966   */\n      add\n        /* \"#utility.yul\":6944:6967   */\n      mload\n        /* \"#utility.yul\":7014:7017   */\n      dup5\n        /* \"#utility.yul\":7008:7012   */\n      dup3\n        /* \"#utility.yul\":7004:7018   */\n      sub\n        /* \"#utility.yul\":6997:7001   */\n      0x20\n        /* \"#utility.yul\":6992:6995   */\n      dup7\n        /* \"#utility.yul\":6988:7002   */\n      add\n        /* \"#utility.yul\":6981:7019   */\n      mstore\n        /* \"#utility.yul\":7040:7113   */\n      tag_395\n        /* \"#utility.yul\":7108:7112   */\n      dup3\n        /* \"#utility.yul\":7094:7106   */\n      dup3\n        /* \"#utility.yul\":7040:7113   */\n      tag_264\n      jump\t// in\n    tag_395:\n        /* \"#utility.yul\":7032:7113   */\n      swap2\n      pop\n        /* \"#utility.yul\":6889:7124   */\n      pop\n        /* \"#utility.yul\":7205:7209   */\n      0x40\n        /* \"#utility.yul\":7198:7203   */\n      dup4\n        /* \"#utility.yul\":7194:7210   */\n      add\n        /* \"#utility.yul\":7188:7211   */\n      mload\n        /* \"#utility.yul\":7224:7287   */\n      tag_396\n        /* \"#utility.yul\":7281:7285   */\n      0x40\n        /* \"#utility.yul\":7276:7279   */\n      dup7\n        /* \"#utility.yul\":7272:7286   */\n      add\n        /* \"#utility.yul\":7258:7270   */\n      dup3\n        /* \"#utility.yul\":7224:7287   */\n      tag_262\n      jump\t// in\n    tag_396:\n        /* \"#utility.yul\":7134:7297   */\n      pop\n        /* \"#utility.yul\":7384:7388   */\n      0x60\n        /* \"#utility.yul\":7377:7382   */\n      dup4\n        /* \"#utility.yul\":7373:7389   */\n      add\n        /* \"#utility.yul\":7367:7390   */\n      mload\n        /* \"#utility.yul\":7403:7482   */\n      tag_397\n        /* \"#utility.yul\":7476:7480   */\n      0x60\n        /* \"#utility.yul\":7471:7474   */\n      dup7\n        /* \"#utility.yul\":7467:7481   */\n      add\n        /* \"#utility.yul\":7453:7465   */\n      dup3\n        /* \"#utility.yul\":7403:7482   */\n      tag_265\n      jump\t// in\n    tag_397:\n        /* \"#utility.yul\":7307:7492   */\n      pop\n        /* \"#utility.yul\":7575:7579   */\n      0x80\n        /* \"#utility.yul\":7568:7573   */\n      dup4\n        /* \"#utility.yul\":7564:7580   */\n      add\n        /* \"#utility.yul\":7558:7581   */\n      mload\n        /* \"#utility.yul\":7594:7657   */\n      tag_398\n        /* \"#utility.yul\":7651:7655   */\n      0x80\n        /* \"#utility.yul\":7646:7649   */\n      dup7\n        /* \"#utility.yul\":7642:7656   */\n      add\n        /* \"#utility.yul\":7628:7640   */\n      dup3\n        /* \"#utility.yul\":7594:7657   */\n      tag_262\n      jump\t// in\n    tag_398:\n        /* \"#utility.yul\":7502:7667   */\n      pop\n        /* \"#utility.yul\":7748:7752   */\n      0xa0\n        /* \"#utility.yul\":7741:7746   */\n      dup4\n        /* \"#utility.yul\":7737:7753   */\n      add\n        /* \"#utility.yul\":7731:7754   */\n      mload\n        /* \"#utility.yul\":7767:7830   */\n      tag_399\n        /* \"#utility.yul\":7824:7828   */\n      0xa0\n        /* \"#utility.yul\":7819:7822   */\n      dup7\n        /* \"#utility.yul\":7815:7829   */\n      add\n        /* \"#utility.yul\":7801:7813   */\n      dup3\n        /* \"#utility.yul\":7767:7830   */\n      tag_262\n      jump\t// in\n    tag_399:\n        /* \"#utility.yul\":7677:7840   */\n      pop\n        /* \"#utility.yul\":7928:7932   */\n      0xc0\n        /* \"#utility.yul\":7921:7926   */\n      dup4\n        /* \"#utility.yul\":7917:7933   */\n      add\n        /* \"#utility.yul\":7911:7934   */\n      mload\n        /* \"#utility.yul\":7947:8004   */\n      tag_400\n        /* \"#utility.yul\":7998:8002   */\n      0xc0\n        /* \"#utility.yul\":7993:7996   */\n      dup7\n        /* \"#utility.yul\":7989:8003   */\n      add\n        /* \"#utility.yul\":7975:7987   */\n      dup3\n        /* \"#utility.yul\":7947:8004   */\n      tag_266\n      jump\t// in\n    tag_400:\n        /* \"#utility.yul\":7850:8014   */\n      pop\n        /* \"#utility.yul\":8031:8035   */\n      dup1\n        /* \"#utility.yul\":8024:8035   */\n      swap2\n      pop\n        /* \"#utility.yul\":6671:8041   */\n      pop\n        /* \"#utility.yul\":6559:8041   */\n      swap3\n      swap2\n      pop\n      pop\n      jump\t// out\n        /* \"#utility.yul\":8047:8299   */\n    tag_268:\n        /* \"#utility.yul\":8164:8174   */\n      0x00\n        /* \"#utility.yul\":8199:8293   */\n      tag_402\n        /* \"#utility.yul\":8289:8292   */\n      dup4\n        /* \"#utility.yul\":8281:8287   */\n      dup4\n        /* \"#utility.yul\":8199:8293   */\n      tag_267\n      jump\t// in\n    tag_402:\n        /* \"#utility.yul\":8185:8293   */\n      swap1\n      pop\n        /* \"#utility.yul\":8047:8299   */\n      swap3\n      swap2\n      pop\n      pop\n      jump\t// out\n        /* \"#utility.yul\":8305:8442   */\n    tag_269:\n        /* \"#utility.yul\":8399:8403   */\n      0x00\n        /* \"#utility.yul\":8431:8435   */\n      0x20\n        /* \"#utility.yul\":8426:8429   */\n      dup3\n        /* \"#utility.yul\":8422:8436   */\n      add\n        /* \"#utility.yul\":8414:8436   */\n      swap1\n      pop\n        /* \"#utility.yul\":8305:8442   */\n      swap2\n      swap1\n      pop\n      jump\t// out\n        /* \"#utility.yul\":8502:9605   */\n    tag_270:\n        /* \"#utility.yul\":8669:8672   */\n      0x00\n        /* \"#utility.yul\":8698:8776   */\n      tag_405\n        /* \"#utility.yul\":8770:8775   */\n      dup3\n        /* \"#utility.yul\":8698:8776   */\n      tag_259\n      jump\t// in\n    tag_405:\n        /* \"#utility.yul\":8792:8902   */\n      tag_406\n        /* \"#utility.yul\":8895:8901   */\n      dup2\n        /* \"#utility.yul\":8890:8893   */\n      dup6\n        /* \"#utility.yul\":8792:8902   */\n      tag_260\n      jump\t// in\n    tag_406:\n        /* \"#utility.yul\":8785:8902   */\n      swap4\n      pop\n        /* \"#utility.yul\":8928:8931   */\n      dup4\n        /* \"#utility.yul\":8973:8977   */\n      0x20\n        /* \"#utility.yul\":8965:8971   */\n      dup3\n        /* \"#utility.yul\":8961:8978   */\n      mul\n        /* \"#utility.yul\":8956:8959   */\n      dup6\n        /* \"#utility.yul\":8952:8979   */\n      add\n        /* \"#utility.yul\":9003:9083   */\n      tag_407\n        /* \"#utility.yul\":9077:9082   */\n      dup6\n        /* \"#utility.yul\":9003:9083   */\n      tag_261\n      jump\t// in\n    tag_407:\n        /* \"#utility.yul\":9106:9113   */\n      dup1\n        /* \"#utility.yul\":9137:9138   */\n      0x00\n        /* \"#utility.yul\":9122:9560   */\n    tag_408:\n        /* \"#utility.yul\":9147:9153   */\n      dup6\n        /* \"#utility.yul\":9144:9145   */\n      dup2\n        /* \"#utility.yul\":9141:9154   */\n      lt\n        /* \"#utility.yul\":9122:9560   */\n      iszero\n      tag_410\n      jumpi\n        /* \"#utility.yul\":9218:9227   */\n      dup5\n        /* \"#utility.yul\":9212:9216   */\n      dup5\n        /* \"#utility.yul\":9208:9228   */\n      sub\n        /* \"#utility.yul\":9203:9206   */\n      dup10\n        /* \"#utility.yul\":9196:9229   */\n      mstore\n        /* \"#utility.yul\":9269:9275   */\n      dup2\n        /* \"#utility.yul\":9263:9276   */\n      mload\n        /* \"#utility.yul\":9297:9409   */\n      tag_411\n        /* \"#utility.yul\":9404:9408   */\n      dup6\n        /* \"#utility.yul\":9389:9402   */\n      dup3\n        /* \"#utility.yul\":9297:9409   */\n      tag_268\n      jump\t// in\n    tag_411:\n        /* \"#utility.yul\":9289:9409   */\n      swap5\n      pop\n        /* \"#utility.yul\":9432:9516   */\n      tag_412\n        /* \"#utility.yul\":9509:9515   */\n      dup4\n        /* \"#utility.yul\":9432:9516   */\n      tag_269\n      jump\t// in\n    tag_412:\n        /* \"#utility.yul\":9422:9516   */\n      swap3\n      pop\n        /* \"#utility.yul\":9545:9549   */\n      0x20\n        /* \"#utility.yul\":9540:9543   */\n      dup11\n        /* \"#utility.yul\":9536:9550   */\n      add\n        /* \"#utility.yul\":9529:9550   */\n      swap10\n      pop\n        /* \"#utility.yul\":9182:9560   */\n      pop\n        /* \"#utility.yul\":9169:9170   */\n      0x01\n        /* \"#utility.yul\":9166:9167   */\n      dup2\n        /* \"#utility.yul\":9162:9171   */\n      add\n        /* \"#utility.yul\":9157:9171   */\n      swap1\n      pop\n        /* \"#utility.yul\":9122:9560   */\n      jump(tag_408)\n    tag_410:\n        /* \"#utility.yul\":9126:9140   */\n      pop\n        /* \"#utility.yul\":9576:9580   */\n      dup3\n        /* \"#utility.yul\":9569:9580   */\n      swap8\n      pop\n        /* \"#utility.yul\":9596:9599   */\n      dup8\n        /* \"#utility.yul\":9589:9599   */\n      swap6\n      pop\n        /* \"#utility.yul\":8674:9605   */\n      pop\n      pop\n      pop\n      pop\n      pop\n        /* \"#utility.yul\":8502:9605   */\n      swap3\n      swap2\n      pop\n      pop\n      jump\t// out\n        /* \"#utility.yul\":9611:10080   */\n    tag_63:\n        /* \"#utility.yul\":9802:9806   */\n      0x00\n        /* \"#utility.yul\":9840:9842   */\n      0x20\n        /* \"#utility.yul\":9829:9838   */\n      dup3\n        /* \"#utility.yul\":9825:9843   */\n      add\n        /* \"#utility.yul\":9817:9843   */\n      swap1\n      pop\n        /* \"#utility.yul\":9889:9898   */\n      dup2\n        /* \"#utility.yul\":9883:9887   */\n      dup2\n        /* \"#utility.yul\":9879:9899   */\n      sub\n        /* \"#utility.yul\":9875:9876   */\n      0x00\n        /* \"#utility.yul\":9864:9873   */\n      dup4\n        /* \"#utility.yul\":9860:9877   */\n      add\n        /* \"#utility.yul\":9853:9900   */\n      mstore\n        /* \"#utility.yul\":9917:10073   */\n      tag_414\n        /* \"#utility.yul\":10068:10072   */\n      dup2\n        /* \"#utility.yul\":10059:10065   */\n      dup5\n        /* \"#utility.yul\":9917:10073   */\n      tag_270\n      jump\t// in\n    tag_414:\n        /* \"#utility.yul\":9909:10073   */\n      swap1\n      pop\n        /* \"#utility.yul\":9611:10080   */\n      swap3\n      swap2\n      pop\n      pop\n      jump\t// out\n        /* \"#utility.yul\":10086:10415   */\n    tag_79:\n        /* \"#utility.yul\":10145:10151   */\n      0x00\n        /* \"#utility.yul\":10194:10196   */\n      0x20\n        /* \"#utility.yul\":10182:10191   */\n      dup3\n        /* \"#utility.yul\":10173:10180   */\n      dup5\n        /* \"#utility.yul\":10169:10192   */\n      sub\n        /* \"#utility.yul\":10165:10197   */\n      slt\n        /* \"#utility.yul\":10162:10281   */\n      iszero\n      tag_416\n      jumpi\n        /* \"#utility.yul\":10200:10279   */\n      tag_417\n      tag_239\n      jump\t// in\n    tag_417:\n        /* \"#utility.yul\":10162:10281   */\n    tag_416:\n        /* \"#utility.yul\":10320:10321   */\n      0x00\n        /* \"#utility.yul\":10345:10398   */\n      tag_418\n        /* \"#utility.yul\":10390:10397   */\n      dup5\n        /* \"#utility.yul\":10381:10387   */\n      dup3\n        /* \"#utility.yul\":10370:10379   */\n      dup6\n        /* \"#utility.yul\":10366:10388   */\n      add\n        /* \"#utility.yul\":10345:10398   */\n      tag_257\n      jump\t// in\n    tag_418:\n        /* \"#utility.yul\":10335:10398   */\n      swap2\n      pop\n        /* \"#utility.yul\":10291:10408   */\n      pop\n        /* \"#utility.yul\":10086:10415   */\n      swap3\n      swap2\n      pop\n      pop\n      jump\t// out\n        /* \"#utility.yul\":10421:10538   */\n    tag_271:\n        /* \"#utility.yul\":10530:10531   */\n      0x00\n        /* \"#utility.yul\":10527:10528   */\n      dup1\n        /* \"#utility.yul\":10520:10532   */\n      revert\n        /* \"#utility.yul\":10544:10661   */\n    tag_272:\n        /* \"#utility.yul\":10653:10654   */\n      0x00\n        /* \"#utility.yul\":10650:10651   */\n      dup1\n        /* \"#utility.yul\":10643:10655   */\n      revert\n        /* \"#utility.yul\":10667:10784   */\n    tag_273:\n        /* \"#utility.yul\":10776:10777   */\n      0x00\n        /* \"#utility.yul\":10773:10774   */\n      dup1\n        /* \"#utility.yul\":10766:10778   */\n      revert\n        /* \"#utility.yul\":10804:11357   */\n    tag_274:\n        /* \"#utility.yul\":10862:10870   */\n      0x00\n        /* \"#utility.yul\":10872:10878   */\n      dup1\n        /* \"#utility.yul\":10922:10925   */\n      dup4\n        /* \"#utility.yul\":10915:10919   */\n      0x1f\n        /* \"#utility.yul\":10907:10913   */\n      dup5\n        /* \"#utility.yul\":10903:10920   */\n      add\n        /* \"#utility.yul\":10899:10926   */\n      slt\n        /* \"#utility.yul\":10889:11011   */\n      tag_423\n      jumpi\n        /* \"#utility.yul\":10930:11009   */\n      tag_424\n      tag_271\n      jump\t// in\n    tag_424:\n        /* \"#utility.yul\":10889:11011   */\n    tag_423:\n        /* \"#utility.yul\":11043:11049   */\n      dup3\n        /* \"#utility.yul\":11030:11050   */\n      calldataload\n        /* \"#utility.yul\":11020:11050   */\n      swap1\n      pop\n        /* \"#utility.yul\":11073:11091   */\n      0xffffffffffffffff\n        /* \"#utility.yul\":11065:11071   */\n      dup2\n        /* \"#utility.yul\":11062:11092   */\n      gt\n        /* \"#utility.yul\":11059:11176   */\n      iszero\n      tag_425\n      jumpi\n        /* \"#utility.yul\":11095:11174   */\n      tag_426\n      tag_272\n      jump\t// in\n    tag_426:\n        /* \"#utility.yul\":11059:11176   */\n    tag_425:\n        /* \"#utility.yul\":11209:11213   */\n      0x20\n        /* \"#utility.yul\":11201:11207   */\n      dup4\n        /* \"#utility.yul\":11197:11214   */\n      add\n        /* \"#utility.yul\":11185:11214   */\n      swap2\n      pop\n        /* \"#utility.yul\":11263:11266   */\n      dup4\n        /* \"#utility.yul\":11255:11259   */\n      0x01\n        /* \"#utility.yul\":11247:11253   */\n      dup3\n        /* \"#utility.yul\":11243:11260   */\n      mul\n        /* \"#utility.yul\":11233:11241   */\n      dup4\n        /* \"#utility.yul\":11229:11261   */\n      add\n        /* \"#utility.yul\":11226:11267   */\n      gt\n        /* \"#utility.yul\":11223:11351   */\n      iszero\n      tag_427\n      jumpi\n        /* \"#utility.yul\":11270:11349   */\n      tag_428\n      tag_273\n      jump\t// in\n    tag_428:\n        /* \"#utility.yul\":11223:11351   */\n    tag_427:\n        /* \"#utility.yul\":10804:11357   */\n      swap3\n      pop\n      swap3\n      swap1\n      pop\n      jump\t// out\n        /* \"#utility.yul\":11363:11501   */\n    tag_275:\n        /* \"#utility.yul\":11444:11476   */\n      tag_430\n        /* \"#utility.yul\":11470:11475   */\n      dup2\n        /* \"#utility.yul\":11444:11476   */\n      tag_251\n      jump\t// in\n    tag_430:\n        /* \"#utility.yul\":11437:11442   */\n      dup2\n        /* \"#utility.yul\":11434:11477   */\n      eq\n        /* \"#utility.yul\":11424:11495   */\n      tag_431\n      jumpi\n        /* \"#utility.yul\":11491:11492   */\n      0x00\n        /* \"#utility.yul\":11488:11489   */\n      dup1\n        /* \"#utility.yul\":11481:11493   */\n      revert\n        /* \"#utility.yul\":11424:11495   */\n    tag_431:\n        /* \"#utility.yul\":11363:11501   */\n      pop\n      jump\t// out\n        /* \"#utility.yul\":11507:11662   */\n    tag_276:\n        /* \"#utility.yul\":11561:11566   */\n      0x00\n        /* \"#utility.yul\":11599:11605   */\n      dup2\n        /* \"#utility.yul\":11586:11606   */\n      calldataload\n        /* \"#utility.yul\":11577:11606   */\n      swap1\n      pop\n        /* \"#utility.yul\":11615:11656   */\n      tag_433\n        /* \"#utility.yul\":11650:11655   */\n      dup2\n        /* \"#utility.yul\":11615:11656   */\n      tag_275\n      jump\t// in\n    tag_433:\n        /* \"#utility.yul\":11507:11662   */\n      swap3\n      swap2\n      pop\n      pop\n      jump\t// out\n        /* \"#utility.yul\":11668:12503   */\n    tag_85:\n        /* \"#utility.yul\":11765:11771   */\n      0x00\n        /* \"#utility.yul\":11773:11779   */\n      dup1\n        /* \"#utility.yul\":11781:11787   */\n      0x00\n        /* \"#utility.yul\":11789:11795   */\n      dup1\n        /* \"#utility.yul\":11838:11840   */\n      0x60\n        /* \"#utility.yul\":11826:11835   */\n      dup6\n        /* \"#utility.yul\":11817:11824   */\n      dup8\n        /* \"#utility.yul\":11813:11836   */\n      sub\n        /* \"#utility.yul\":11809:11841   */\n      slt\n        /* \"#utility.yul\":11806:11925   */\n      iszero\n      tag_435\n      jumpi\n        /* \"#utility.yul\":11844:11923   */\n      tag_436\n      tag_239\n      jump\t// in\n    tag_436:\n        /* \"#utility.yul\":11806:11925   */\n    tag_435:\n        /* \"#utility.yul\":11992:11993   */\n      0x00\n        /* \"#utility.yul\":11981:11990   */\n      dup6\n        /* \"#utility.yul\":11977:11994   */\n      add\n        /* \"#utility.yul\":11964:11995   */\n      calldataload\n        /* \"#utility.yul\":12022:12040   */\n      0xffffffffffffffff\n        /* \"#utility.yul\":12014:12020   */\n      dup2\n        /* \"#utility.yul\":12011:12041   */\n      gt\n        /* \"#utility.yul\":12008:12125   */\n      iszero\n      tag_437\n      jumpi\n        /* \"#utility.yul\":12044:12123   */\n      tag_438\n      tag_240\n      jump\t// in\n    tag_438:\n        /* \"#utility.yul\":12008:12125   */\n    tag_437:\n        /* \"#utility.yul\":12157:12222   */\n      tag_439\n        /* \"#utility.yul\":12214:12221   */\n      dup8\n        /* \"#utility.yul\":12205:12211   */\n      dup3\n        /* \"#utility.yul\":12194:12203   */\n      dup9\n        /* \"#utility.yul\":12190:12212   */\n      add\n        /* \"#utility.yul\":12157:12222   */\n      tag_274\n      jump\t// in\n    tag_439:\n        /* \"#utility.yul\":12139:12222   */\n      swap5\n      pop\n      swap5\n      pop\n        /* \"#utility.yul\":11935:12232   */\n      pop\n        /* \"#utility.yul\":12271:12273   */\n      0x20\n        /* \"#utility.yul\":12297:12350   */\n      tag_440\n        /* \"#utility.yul\":12342:12349   */\n      dup8\n        /* \"#utility.yul\":12333:12339   */\n      dup3\n        /* \"#utility.yul\":12322:12331   */\n      dup9\n        /* \"#utility.yul\":12318:12340   */\n      add\n        /* \"#utility.yul\":12297:12350   */\n      tag_243\n      jump\t// in\n    tag_440:\n        /* \"#utility.yul\":12287:12350   */\n      swap3\n      pop\n        /* \"#utility.yul\":12242:12360   */\n      pop\n        /* \"#utility.yul\":12399:12401   */\n      0x40\n        /* \"#utility.yul\":12425:12486   */\n      tag_441\n        /* \"#utility.yul\":12478:12485   */\n      dup8\n        /* \"#utility.yul\":12469:12475   */\n      dup3\n        /* \"#utility.yul\":12458:12467   */\n      dup9\n        /* \"#utility.yul\":12454:12476   */\n      add\n        /* \"#utility.yul\":12425:12486   */\n      tag_276\n      jump\t// in\n    tag_441:\n        /* \"#utility.yul\":12415:12486   */\n      swap2\n      pop\n        /* \"#utility.yul\":12370:12496   */\n      pop\n        /* \"#utility.yul\":11668:12503   */\n      swap3\n      swap6\n      swap2\n      swap5\n      pop\n      swap3\n      pop\n      jump\t// out\n        /* \"#utility.yul\":12509:12983   */\n    tag_94:\n        /* \"#utility.yul\":12577:12583   */\n      0x00\n        /* \"#utility.yul\":12585:12591   */\n      dup1\n        /* \"#utility.yul\":12634:12636   */\n      0x40\n        /* \"#utility.yul\":12622:12631   */\n      dup4\n        /* \"#utility.yul\":12613:12620   */\n      dup6\n        /* \"#utility.yul\":12609:12632   */\n      sub\n        /* \"#utility.yul\":12605:12637   */\n      slt\n        /* \"#utility.yul\":12602:12721   */\n      iszero\n      tag_443\n      jumpi\n        /* \"#utility.yul\":12640:12719   */\n      tag_444\n      tag_239\n      jump\t// in\n    tag_444:\n        /* \"#utility.yul\":12602:12721   */\n    tag_443:\n        /* \"#utility.yul\":12760:12761   */\n      0x00\n        /* \"#utility.yul\":12785:12838   */\n      tag_445\n        /* \"#utility.yul\":12830:12837   */\n      dup6\n        /* \"#utility.yul\":12821:12827   */\n      dup3\n        /* \"#utility.yul\":12810:12819   */\n      dup7\n        /* \"#utility.yul\":12806:12828   */\n      add\n        /* \"#utility.yul\":12785:12838   */\n      tag_257\n      jump\t// in\n    tag_445:\n        /* \"#utility.yul\":12775:12838   */\n      swap3\n      pop\n        /* \"#utility.yul\":12731:12848   */\n      pop\n        /* \"#utility.yul\":12887:12889   */\n      0x20\n        /* \"#utility.yul\":12913:12966   */\n      tag_446\n        /* \"#utility.yul\":12958:12965   */\n      dup6\n        /* \"#utility.yul\":12949:12955   */\n      dup3\n        /* \"#utility.yul\":12938:12947   */\n      dup7\n        /* \"#utility.yul\":12934:12956   */\n      add\n        /* \"#utility.yul\":12913:12966   */\n      tag_243\n      jump\t// in\n    tag_446:\n        /* \"#utility.yul\":12903:12966   */\n      swap2\n      pop\n        /* \"#utility.yul\":12858:12976   */\n      pop\n        /* \"#utility.yul\":12509:12983   */\n      swap3\n      pop\n      swap3\n      swap1\n      pop\n      jump\t// out\n        /* \"#utility.yul\":12989:13199   */\n    tag_97:\n        /* \"#utility.yul\":13076:13080   */\n      0x00\n        /* \"#utility.yul\":13114:13116   */\n      0x20\n        /* \"#utility.yul\":13103:13112   */\n      dup3\n        /* \"#utility.yul\":13099:13117   */\n      add\n        /* \"#utility.yul\":13091:13117   */\n      swap1\n      pop\n        /* \"#utility.yul\":13127:13192   */\n      tag_448\n        /* \"#utility.yul\":13189:13190   */\n      0x00\n        /* \"#utility.yul\":13178:13187   */\n      dup4\n        /* \"#utility.yul\":13174:13191   */\n      add\n        /* \"#utility.yul\":13165:13171   */\n      dup5\n        /* \"#utility.yul\":13127:13192   */\n      tag_254\n      jump\t// in\n    tag_448:\n        /* \"#utility.yul\":12989:13199   */\n      swap3\n      swap2\n      pop\n      pop\n      jump\t// out\n        /* \"#utility.yul\":13205:13679   */\n    tag_109:\n        /* \"#utility.yul\":13273:13279   */\n      0x00\n        /* \"#utility.yul\":13281:13287   */\n      dup1\n        /* \"#utility.yul\":13330:13332   */\n      0x40\n        /* \"#utility.yul\":13318:13327   */\n      dup4\n        /* \"#utility.yul\":13309:13316   */\n      dup6\n        /* \"#utility.yul\":13305:13328   */\n      sub\n        /* \"#utility.yul\":13301:13333   */\n      slt\n        /* \"#utility.yul\":13298:13417   */\n      iszero\n      tag_450\n      jumpi\n        /* \"#utility.yul\":13336:13415   */\n      tag_451\n      tag_239\n      jump\t// in\n    tag_451:\n        /* \"#utility.yul\":13298:13417   */\n    tag_450:\n        /* \"#utility.yul\":13456:13457   */\n      0x00\n        /* \"#utility.yul\":13481:13534   */\n      tag_452\n        /* \"#utility.yul\":13526:13533   */\n      dup6\n        /* \"#utility.yul\":13517:13523   */\n      dup3\n        /* \"#utility.yul\":13506:13515   */\n      dup7\n        /* \"#utility.yul\":13502:13524   */\n      add\n        /* \"#utility.yul\":13481:13534   */\n      tag_257\n      jump\t// in\n    tag_452:\n        /* \"#utility.yul\":13471:13534   */\n      swap3\n      pop\n        /* \"#utility.yul\":13427:13544   */\n      pop\n        /* \"#utility.yul\":13583:13585   */\n      0x20\n        /* \"#utility.yul\":13609:13662   */\n      tag_453\n        /* \"#utility.yul\":13654:13661   */\n      dup6\n        /* \"#utility.yul\":13645:13651   */\n      dup3\n        /* \"#utility.yul\":13634:13643   */\n      dup7\n        /* \"#utility.yul\":13630:13652   */\n      add\n        /* \"#utility.yul\":13609:13662   */\n      tag_257\n      jump\t// in\n    tag_453:\n        /* \"#utility.yul\":13599:13662   */\n      swap2\n      pop\n        /* \"#utility.yul\":13554:13672   */\n      pop\n        /* \"#utility.yul\":13205:13679   */\n      swap3\n      pop\n      swap3\n      swap1\n      pop\n      jump\t// out\n        /* \"#utility.yul\":13685:13865   */\n    tag_277:\n        /* \"#utility.yul\":13733:13810   */\n      0x4e487b7100000000000000000000000000000000000000000000000000000000\n        /* \"#utility.yul\":13730:13731   */\n      0x00\n        /* \"#utility.yul\":13723:13811   */\n      mstore\n        /* \"#utility.yul\":13830:13834   */\n      0x22\n        /* \"#utility.yul\":13827:13828   */\n      0x04\n        /* \"#utility.yul\":13820:13835   */\n      mstore\n        /* \"#utility.yul\":13854:13858   */\n      0x24\n        /* \"#utility.yul\":13851:13852   */\n      0x00\n        /* \"#utility.yul\":13844:13859   */\n      revert\n        /* \"#utility.yul\":13871:14191   */\n    tag_115:\n        /* \"#utility.yul\":13915:13921   */\n      0x00\n        /* \"#utility.yul\":13952:13953   */\n      0x02\n        /* \"#utility.yul\":13946:13950   */\n      dup3\n        /* \"#utility.yul\":13942:13954   */\n      div\n        /* \"#utility.yul\":13932:13954   */\n      swap1\n      pop\n        /* \"#utility.yul\":13999:14000   */\n      0x01\n        /* \"#utility.yul\":13993:13997   */\n      dup3\n        /* \"#utility.yul\":13989:14001   */\n      and\n        /* \"#utility.yul\":14020:14038   */\n      dup1\n        /* \"#utility.yul\":14010:14091   */\n      tag_456\n      jumpi\n        /* \"#utility.yul\":14076:14080   */\n      0x7f\n        /* \"#utility.yul\":14068:14074   */\n      dup3\n        /* \"#utility.yul\":14064:14081   */\n      and\n        /* \"#utility.yul\":14054:14081   */\n      swap2\n      pop\n        /* \"#utility.yul\":14010:14091   */\n    tag_456:\n        /* \"#utility.yul\":14138:14140   */\n      0x20\n        /* \"#utility.yul\":14130:14136   */\n      dup3\n        /* \"#utility.yul\":14127:14141   */\n      lt\n        /* \"#utility.yul\":14107:14125   */\n      dup2\n        /* \"#utility.yul\":14104:14142   */\n      sub\n        /* \"#utility.yul\":14101:14185   */\n      tag_457\n      jumpi\n        /* \"#utility.yul\":14157:14175   */\n      tag_458\n      tag_277\n      jump\t// in\n    tag_458:\n        /* \"#utility.yul\":14101:14185   */\n    tag_457:\n        /* \"#utility.yul\":13922:14191   */\n      pop\n        /* \"#utility.yul\":13871:14191   */\n      swap2\n      swap1\n      pop\n      jump\t// out\n        /* \"#utility.yul\":14197:14363   */\n    tag_278:\n        /* \"#utility.yul\":14337:14355   */\n      0x53656e64206d6f7265207468656e203000000000000000000000000000000000\n        /* \"#utility.yul\":14333:14334   */\n      0x00\n        /* \"#utility.yul\":14325:14331   */\n      dup3\n        /* \"#utility.yul\":14321:14335   */\n      add\n        /* \"#utility.yul\":14314:14356   */\n      mstore\n        /* \"#utility.yul\":14197:14363   */\n      pop\n      jump\t// out\n        /* \"#utility.yul\":14369:14735   */\n    tag_279:\n        /* \"#utility.yul\":14511:14514   */\n      0x00\n        /* \"#utility.yul\":14532:14599   */\n      tag_461\n        /* \"#utility.yul\":14596:14598   */\n      0x10\n        /* \"#utility.yul\":14591:14594   */\n      dup4\n        /* \"#utility.yul\":14532:14599   */\n      tag_246\n      jump\t// in\n    tag_461:\n        /* \"#utility.yul\":14525:14599   */\n      swap2\n      pop\n        /* \"#utility.yul\":14608:14701   */\n      tag_462\n        /* \"#utility.yul\":14697:14700   */\n      dup3\n        /* \"#utility.yul\":14608:14701   */\n      tag_278\n      jump\t// in\n    tag_462:\n        /* \"#utility.yul\":14726:14728   */\n      0x20\n        /* \"#utility.yul\":14721:14724   */\n      dup3\n        /* \"#utility.yul\":14717:14729   */\n      add\n        /* \"#utility.yul\":14710:14729   */\n      swap1\n      pop\n        /* \"#utility.yul\":14369:14735   */\n      swap2\n      swap1\n      pop\n      jump\t// out\n        /* \"#utility.yul\":14741:15160   */\n    tag_123:\n        /* \"#utility.yul\":14907:14911   */\n      0x00\n        /* \"#utility.yul\":14945:14947   */\n      0x20\n        /* \"#utility.yul\":14934:14943   */\n      dup3\n        /* \"#utility.yul\":14930:14948   */\n      add\n        /* \"#utility.yul\":14922:14948   */\n      swap1\n      pop\n        /* \"#utility.yul\":14994:15003   */\n      dup2\n        /* \"#utility.yul\":14988:14992   */\n      dup2\n        /* \"#utility.yul\":14984:15004   */\n      sub\n        /* \"#utility.yul\":14980:14981   */\n      0x00\n        /* \"#utility.yul\":14969:14978   */\n      dup4\n        /* \"#utility.yul\":14965:14982   */\n      add\n        /* \"#utility.yul\":14958:15005   */\n      mstore\n        /* \"#utility.yul\":15022:15153   */\n      tag_464\n        /* \"#utility.yul\":15148:15152   */\n      dup2\n        /* \"#utility.yul\":15022:15153   */\n      tag_279\n      jump\t// in\n    tag_464:\n        /* \"#utility.yul\":15014:15153   */\n      swap1\n      pop\n        /* \"#utility.yul\":14741:15160   */\n      swap2\n      swap1\n      pop\n      jump\t// out\n        /* \"#utility.yul\":15166:15332   */\n    tag_280:\n        /* \"#utility.yul\":15306:15324   */\n      0x4e6f7420656e6f7567682066756e647300000000000000000000000000000000\n        /* \"#utility.yul\":15302:15303   */\n      0x00\n        /* \"#utility.yul\":15294:15300   */\n      dup3\n        /* \"#utility.yul\":15290:15304   */\n      add\n        /* \"#utility.yul\":15283:15325   */\n      mstore\n        /* \"#utility.yul\":15166:15332   */\n      pop\n      jump\t// out\n        /* \"#utility.yul\":15338:15704   */\n    tag_281:\n        /* \"#utility.yul\":15480:15483   */\n      0x00\n        /* \"#utility.yul\":15501:15568   */\n      tag_467\n        /* \"#utility.yul\":15565:15567   */\n      0x10\n        /* \"#utility.yul\":15560:15563   */\n      dup4\n        /* \"#utility.yul\":15501:15568   */\n      tag_246\n      jump\t// in\n    tag_467:\n        /* \"#utility.yul\":15494:15568   */\n      swap2\n      pop\n        /* \"#utility.yul\":15577:15670   */\n      tag_468\n        /* \"#utility.yul\":15666:15669   */\n      dup3\n        /* \"#utility.yul\":15577:15670   */\n      tag_280\n      jump\t// in\n    tag_468:\n        /* \"#utility.yul\":15695:15697   */\n      0x20\n        /* \"#utility.yul\":15690:15693   */\n      dup3\n        /* \"#utility.yul\":15686:15698   */\n      add\n        /* \"#utility.yul\":15679:15698   */\n      swap1\n      pop\n        /* \"#utility.yul\":15338:15704   */\n      swap2\n      swap1\n      pop\n      jump\t// out\n        /* \"#utility.yul\":15710:16129   */\n    tag_126:\n        /* \"#utility.yul\":15876:15880   */\n      0x00\n        /* \"#utility.yul\":15914:15916   */\n      0x20\n        /* \"#utility.yul\":15903:15912   */\n      dup3\n        /* \"#utility.yul\":15899:15917   */\n      add\n        /* \"#utility.yul\":15891:15917   */\n      swap1\n      pop\n        /* \"#utility.yul\":15963:15972   */\n      dup2\n        /* \"#utility.yul\":15957:15961   */\n      dup2\n        /* \"#utility.yul\":15953:15973   */\n      sub\n        /* \"#utility.yul\":15949:15950   */\n      0x00\n        /* \"#utility.yul\":15938:15947   */\n      dup4\n        /* \"#utility.yul\":15934:15951   */\n      add\n        /* \"#utility.yul\":15927:15974   */\n      mstore\n        /* \"#utility.yul\":15991:16122   */\n      tag_470\n        /* \"#utility.yul\":16117:16121   */\n      dup2\n        /* \"#utility.yul\":15991:16122   */\n      tag_281\n      jump\t// in\n    tag_470:\n        /* \"#utility.yul\":15983:16122   */\n      swap1\n      pop\n        /* \"#utility.yul\":15710:16129   */\n      swap2\n      swap1\n      pop\n      jump\t// out\n        /* \"#utility.yul\":16135:16357   */\n    tag_282:\n        /* \"#utility.yul\":16275:16309   */\n      0x596f752073686172657320617265206c657373207468616e2074686520616d6f\n        /* \"#utility.yul\":16271:16272   */\n      0x00\n        /* \"#utility.yul\":16263:16269   */\n      dup3\n        /* \"#utility.yul\":16259:16273   */\n      add\n        /* \"#utility.yul\":16252:16310   */\n      mstore\n        /* \"#utility.yul\":16344:16349   */\n      0x756e740000000000000000000000000000000000000000000000000000000000\n        /* \"#utility.yul\":16339:16341   */\n      0x20\n        /* \"#utility.yul\":16331:16337   */\n      dup3\n        /* \"#utility.yul\":16327:16342   */\n      add\n        /* \"#utility.yul\":16320:16350   */\n      mstore\n        /* \"#utility.yul\":16135:16357   */\n      pop\n      jump\t// out\n        /* \"#utility.yul\":16363:16729   */\n    tag_283:\n        /* \"#utility.yul\":16505:16508   */\n      0x00\n        /* \"#utility.yul\":16526:16593   */\n      tag_473\n        /* \"#utility.yul\":16590:16592   */\n      0x23\n        /* \"#utility.yul\":16585:16588   */\n      dup4\n        /* \"#utility.yul\":16526:16593   */\n      tag_246\n      jump\t// in\n    tag_473:\n        /* \"#utility.yul\":16519:16593   */\n      swap2\n      pop\n        /* \"#utility.yul\":16602:16695   */\n      tag_474\n        /* \"#utility.yul\":16691:16694   */\n      dup3\n        /* \"#utility.yul\":16602:16695   */\n      tag_282\n      jump\t// in\n    tag_474:\n        /* \"#utility.yul\":16720:16722   */\n      0x40\n        /* \"#utility.yul\":16715:16718   */\n      dup3\n        /* \"#utility.yul\":16711:16723   */\n      add\n        /* \"#utility.yul\":16704:16723   */\n      swap1\n      pop\n        /* \"#utility.yul\":16363:16729   */\n      swap2\n      swap1\n      pop\n      jump\t// out\n        /* \"#utility.yul\":16735:17154   */\n    tag_129:\n        /* \"#utility.yul\":16901:16905   */\n      0x00\n        /* \"#utility.yul\":16939:16941   */\n      0x20\n        /* \"#utility.yul\":16928:16937   */\n      dup3\n        /* \"#utility.yul\":16924:16942   */\n      add\n        /* \"#utility.yul\":16916:16942   */\n      swap1\n      pop\n        /* \"#utility.yul\":16988:16997   */\n      dup2\n        /* \"#utility.yul\":16982:16986   */\n      dup2\n        /* \"#utility.yul\":16978:16998   */\n      sub\n        /* \"#utility.yul\":16974:16975   */\n      0x00\n        /* \"#utility.yul\":16963:16972   */\n      dup4\n        /* \"#utility.yul\":16959:16976   */\n      add\n        /* \"#utility.yul\":16952:16999   */\n      mstore\n        /* \"#utility.yul\":17016:17147   */\n      tag_476\n        /* \"#utility.yul\":17142:17146   */\n      dup2\n        /* \"#utility.yul\":17016:17147   */\n      tag_283\n      jump\t// in\n    tag_476:\n        /* \"#utility.yul\":17008:17147   */\n      swap1\n      pop\n        /* \"#utility.yul\":16735:17154   */\n      swap2\n      swap1\n      pop\n      jump\t// out\n        /* \"#utility.yul\":17160:17340   */\n    tag_284:\n        /* \"#utility.yul\":17208:17285   */\n      0x4e487b7100000000000000000000000000000000000000000000000000000000\n        /* \"#utility.yul\":17205:17206   */\n      0x00\n        /* \"#utility.yul\":17198:17286   */\n      mstore\n        /* \"#utility.yul\":17305:17309   */\n      0x11\n        /* \"#utility.yul\":17302:17303   */\n      0x04\n        /* \"#utility.yul\":17295:17310   */\n      mstore\n        /* \"#utility.yul\":17329:17333   */\n      0x24\n        /* \"#utility.yul\":17326:17327   */\n      0x00\n        /* \"#utility.yul\":17319:17334   */\n      revert\n        /* \"#utility.yul\":17346:17540   */\n    tag_131:\n        /* \"#utility.yul\":17386:17390   */\n      0x00\n        /* \"#utility.yul\":17406:17426   */\n      tag_479\n        /* \"#utility.yul\":17424:17425   */\n      dup3\n        /* \"#utility.yul\":17406:17426   */\n      tag_241\n      jump\t// in\n    tag_479:\n        /* \"#utility.yul\":17401:17426   */\n      swap2\n      pop\n        /* \"#utility.yul\":17440:17460   */\n      tag_480\n        /* \"#utility.yul\":17458:17459   */\n      dup4\n        /* \"#utility.yul\":17440:17460   */\n      tag_241\n      jump\t// in\n    tag_480:\n        /* \"#utility.yul\":17435:17460   */\n      swap3\n      pop\n        /* \"#utility.yul\":17484:17485   */\n      dup3\n        /* \"#utility.yul\":17481:17482   */\n      dup3\n        /* \"#utility.yul\":17477:17486   */\n      sub\n        /* \"#utility.yul\":17469:17486   */\n      swap1\n      pop\n        /* \"#utility.yul\":17508:17509   */\n      dup2\n        /* \"#utility.yul\":17502:17506   */\n      dup2\n        /* \"#utility.yul\":17499:17510   */\n      gt\n        /* \"#utility.yul\":17496:17533   */\n      iszero\n      tag_481\n      jumpi\n        /* \"#utility.yul\":17513:17531   */\n      tag_482\n      tag_284\n      jump\t// in\n    tag_482:\n        /* \"#utility.yul\":17496:17533   */\n    tag_481:\n        /* \"#utility.yul\":17346:17540   */\n      swap3\n      swap2\n      pop\n      pop\n      jump\t// out\n        /* \"#utility.yul\":17546:17737   */\n    tag_134:\n        /* \"#utility.yul\":17586:17589   */\n      0x00\n        /* \"#utility.yul\":17605:17625   */\n      tag_484\n        /* \"#utility.yul\":17623:17624   */\n      dup3\n        /* \"#utility.yul\":17605:17625   */\n      tag_241\n      jump\t// in\n    tag_484:\n        /* \"#utility.yul\":17600:17625   */\n      swap2\n      pop\n        /* \"#utility.yul\":17639:17659   */\n      tag_485\n        /* \"#utility.yul\":17657:17658   */\n      dup4\n        /* \"#utility.yul\":17639:17659   */\n      tag_241\n      jump\t// in\n    tag_485:\n        /* \"#utility.yul\":17634:17659   */\n      swap3\n      pop\n        /* \"#utility.yul\":17682:17683   */\n      dup3\n        /* \"#utility.yul\":17679:17680   */\n      dup3\n        /* \"#utility.yul\":17675:17684   */\n      add\n        /* \"#utility.yul\":17668:17684   */\n      swap1\n      pop\n        /* \"#utility.yul\":17703:17706   */\n      dup1\n        /* \"#utility.yul\":17700:17701   */\n      dup3\n        /* \"#utility.yul\":17697:17707   */\n      gt\n        /* \"#utility.yul\":17694:17730   */\n      iszero\n      tag_486\n      jumpi\n        /* \"#utility.yul\":17710:17728   */\n      tag_487\n      tag_284\n      jump\t// in\n    tag_487:\n        /* \"#utility.yul\":17694:17730   */\n    tag_486:\n        /* \"#utility.yul\":17546:17737   */\n      swap3\n      swap2\n      pop\n      pop\n      jump\t// out\n        /* \"#utility.yul\":17743:17914   */\n    tag_285:\n        /* \"#utility.yul\":17883:17906   */\n      0x596f7520617265206e6f742061206d616e616765720000000000000000000000\n        /* \"#utility.yul\":17879:17880   */\n      0x00\n        /* \"#utility.yul\":17871:17877   */\n      dup3\n        /* \"#utility.yul\":17867:17881   */\n      add\n        /* \"#utility.yul\":17860:17907   */\n      mstore\n        /* \"#utility.yul\":17743:17914   */\n      pop\n      jump\t// out\n        /* \"#utility.yul\":17920:18286   */\n    tag_286:\n        /* \"#utility.yul\":18062:18065   */\n      0x00\n        /* \"#utility.yul\":18083:18150   */\n      tag_490\n        /* \"#utility.yul\":18147:18149   */\n      0x15\n        /* \"#utility.yul\":18142:18145   */\n      dup4\n        /* \"#utility.yul\":18083:18150   */\n      tag_246\n      jump\t// in\n    tag_490:\n        /* \"#utility.yul\":18076:18150   */\n      swap2\n      pop\n        /* \"#utility.yul\":18159:18252   */\n      tag_491\n        /* \"#utility.yul\":18248:18251   */\n      dup3\n        /* \"#utility.yul\":18159:18252   */\n      tag_285\n      jump\t// in\n    tag_491:\n        /* \"#utility.yul\":18277:18279   */\n      0x20\n        /* \"#utility.yul\":18272:18275   */\n      dup3\n        /* \"#utility.yul\":18268:18280   */\n      add\n        /* \"#utility.yul\":18261:18280   */\n      swap1\n      pop\n        /* \"#utility.yul\":17920:18286   */\n      swap2\n      swap1\n      pop\n      jump\t// out\n        /* \"#utility.yul\":18292:18711   */\n    tag_140:\n        /* \"#utility.yul\":18458:18462   */\n      0x00\n        /* \"#utility.yul\":18496:18498   */\n      0x20\n        /* \"#utility.yul\":18485:18494   */\n      dup3\n        /* \"#utility.yul\":18481:18499   */\n      add\n        /* \"#utility.yul\":18473:18499   */\n      swap1\n      pop\n        /* \"#utility.yul\":18545:18554   */\n      dup2\n        /* \"#utility.yul\":18539:18543   */\n      dup2\n        /* \"#utility.yul\":18535:18555   */\n      sub\n        /* \"#utility.yul\":18531:18532   */\n      0x00\n        /* \"#utility.yul\":18520:18529   */\n      dup4\n        /* \"#utility.yul\":18516:18533   */\n      add\n        /* \"#utility.yul\":18509:18556   */\n      mstore\n        /* \"#utility.yul\":18573:18704   */\n      tag_493\n        /* \"#utility.yul\":18699:18703   */\n      dup2\n        /* \"#utility.yul\":18573:18704   */\n      tag_286\n      jump\t// in\n    tag_493:\n        /* \"#utility.yul\":18565:18704   */\n      swap1\n      pop\n        /* \"#utility.yul\":18292:18711   */\n      swap2\n      swap1\n      pop\n      jump\t// out\n        /* \"#utility.yul\":18717:18886   */\n    tag_287:\n        /* \"#utility.yul\":18857:18878   */\n      0x496e76616c69642050726f706f73616c20696400000000000000000000000000\n        /* \"#utility.yul\":18853:18854   */\n      0x00\n        /* \"#utility.yul\":18845:18851   */\n      dup3\n        /* \"#utility.yul\":18841:18855   */\n      add\n        /* \"#utility.yul\":18834:18879   */\n      mstore\n        /* \"#utility.yul\":18717:18886   */\n      pop\n      jump\t// out\n        /* \"#utility.yul\":18892:19258   */\n    tag_288:\n        /* \"#utility.yul\":19034:19037   */\n      0x00\n        /* \"#utility.yul\":19055:19122   */\n      tag_496\n        /* \"#utility.yul\":19119:19121   */\n      0x13\n        /* \"#utility.yul\":19114:19117   */\n      dup4\n        /* \"#utility.yul\":19055:19122   */\n      tag_246\n      jump\t// in\n    tag_496:\n        /* \"#utility.yul\":19048:19122   */\n      swap2\n      pop\n        /* \"#utility.yul\":19131:19224   */\n      tag_497\n        /* \"#utility.yul\":19220:19223   */\n      dup3\n        /* \"#utility.yul\":19131:19224   */\n      tag_287\n      jump\t// in\n    tag_497:\n        /* \"#utility.yul\":19249:19251   */\n      0x20\n        /* \"#utility.yul\":19244:19247   */\n      dup3\n        /* \"#utility.yul\":19240:19252   */\n      add\n        /* \"#utility.yul\":19233:19252   */\n      swap1\n      pop\n        /* \"#utility.yul\":18892:19258   */\n      swap2\n      swap1\n      pop\n      jump\t// out\n        /* \"#utility.yul\":19264:19683   */\n    tag_145:\n        /* \"#utility.yul\":19430:19434   */\n      0x00\n        /* \"#utility.yul\":19468:19470   */\n      0x20\n        /* \"#utility.yul\":19457:19466   */\n      dup3\n        /* \"#utility.yul\":19453:19471   */\n      add\n        /* \"#utility.yul\":19445:19471   */\n      swap1\n      pop\n        /* \"#utility.yul\":19517:19526   */\n      dup2\n        /* \"#utility.yul\":19511:19515   */\n      dup2\n        /* \"#utility.yul\":19507:19527   */\n      sub\n        /* \"#utility.yul\":19503:19504   */\n      0x00\n        /* \"#utility.yul\":19492:19501   */\n      dup4\n        /* \"#utility.yul\":19488:19505   */\n      add\n        /* \"#utility.yul\":19481:19528   */\n      mstore\n        /* \"#utility.yul\":19545:19676   */\n      tag_499\n        /* \"#utility.yul\":19671:19675   */\n      dup2\n        /* \"#utility.yul\":19545:19676   */\n      tag_288\n      jump\t// in\n    tag_499:\n        /* \"#utility.yul\":19537:19676   */\n      swap1\n      pop\n        /* \"#utility.yul\":19264:19683   */\n      swap2\n      swap1\n      pop\n      jump\t// out\n        /* \"#utility.yul\":19689:20099   */\n    tag_147:\n        /* \"#utility.yul\":19729:19736   */\n      0x00\n        /* \"#utility.yul\":19752:19772   */\n      tag_501\n        /* \"#utility.yul\":19770:19771   */\n      dup3\n        /* \"#utility.yul\":19752:19772   */\n      tag_241\n      jump\t// in\n    tag_501:\n        /* \"#utility.yul\":19747:19772   */\n      swap2\n      pop\n        /* \"#utility.yul\":19786:19806   */\n      tag_502\n        /* \"#utility.yul\":19804:19805   */\n      dup4\n        /* \"#utility.yul\":19786:19806   */\n      tag_241\n      jump\t// in\n    tag_502:\n        /* \"#utility.yul\":19781:19806   */\n      swap3\n      pop\n        /* \"#utility.yul\":19841:19842   */\n      dup3\n        /* \"#utility.yul\":19838:19839   */\n      dup3\n        /* \"#utility.yul\":19834:19843   */\n      mul\n        /* \"#utility.yul\":19863:19893   */\n      tag_503\n        /* \"#utility.yul\":19881:19892   */\n      dup2\n        /* \"#utility.yul\":19863:19893   */\n      tag_241\n      jump\t// in\n    tag_503:\n        /* \"#utility.yul\":19852:19893   */\n      swap2\n      pop\n        /* \"#utility.yul\":20042:20043   */\n      dup3\n        /* \"#utility.yul\":20033:20040   */\n      dup3\n        /* \"#utility.yul\":20029:20044   */\n      div\n        /* \"#utility.yul\":20026:20027   */\n      dup5\n        /* \"#utility.yul\":20023:20045   */\n      eq\n        /* \"#utility.yul\":20003:20004   */\n      dup4\n        /* \"#utility.yul\":19996:20005   */\n      iszero\n        /* \"#utility.yul\":19976:20059   */\n      or\n        /* \"#utility.yul\":19953:20092   */\n      tag_504\n      jumpi\n        /* \"#utility.yul\":20072:20090   */\n      tag_505\n      tag_284\n      jump\t// in\n    tag_505:\n        /* \"#utility.yul\":19953:20092   */\n    tag_504:\n        /* \"#utility.yul\":19737:20099   */\n      pop\n        /* \"#utility.yul\":19689:20099   */\n      swap3\n      swap2\n      pop\n      pop\n      jump\t// out\n        /* \"#utility.yul\":20105:20285   */\n    tag_289:\n        /* \"#utility.yul\":20153:20230   */\n      0x4e487b7100000000000000000000000000000000000000000000000000000000\n        /* \"#utility.yul\":20150:20151   */\n      0x00\n        /* \"#utility.yul\":20143:20231   */\n      mstore\n        /* \"#utility.yul\":20250:20254   */\n      0x12\n        /* \"#utility.yul\":20247:20248   */\n      0x04\n        /* \"#utility.yul\":20240:20255   */\n      mstore\n        /* \"#utility.yul\":20274:20278   */\n      0x24\n        /* \"#utility.yul\":20271:20272   */\n      0x00\n        /* \"#utility.yul\":20264:20279   */\n      revert\n        /* \"#utility.yul\":20291:20476   */\n    tag_149:\n        /* \"#utility.yul\":20331:20332   */\n      0x00\n        /* \"#utility.yul\":20348:20368   */\n      tag_508\n        /* \"#utility.yul\":20366:20367   */\n      dup3\n        /* \"#utility.yul\":20348:20368   */\n      tag_241\n      jump\t// in\n    tag_508:\n        /* \"#utility.yul\":20343:20368   */\n      swap2\n      pop\n        /* \"#utility.yul\":20382:20402   */\n      tag_509\n        /* \"#utility.yul\":20400:20401   */\n      dup4\n        /* \"#utility.yul\":20382:20402   */\n      tag_241\n      jump\t// in\n    tag_509:\n        /* \"#utility.yul\":20377:20402   */\n      swap3\n      pop\n        /* \"#utility.yul\":20421:20422   */\n      dup3\n        /* \"#utility.yul\":20411:20446   */\n      tag_510\n      jumpi\n        /* \"#utility.yul\":20426:20444   */\n      tag_511\n      tag_289\n      jump\t// in\n    tag_511:\n        /* \"#utility.yul\":20411:20446   */\n    tag_510:\n        /* \"#utility.yul\":20468:20469   */\n      dup3\n        /* \"#utility.yul\":20465:20466   */\n      dup3\n        /* \"#utility.yul\":20461:20470   */\n      div\n        /* \"#utility.yul\":20456:20470   */\n      swap1\n      pop\n        /* \"#utility.yul\":20291:20476   */\n      swap3\n      swap2\n      pop\n      pop\n      jump\t// out\n        /* \"#utility.yul\":20482:20649   */\n    tag_290:\n        /* \"#utility.yul\":20622:20641   */\n      0x4e6f204d616a6f7269747920766f746573000000000000000000000000000000\n        /* \"#utility.yul\":20618:20619   */\n      0x00\n        /* \"#utility.yul\":20610:20616   */\n      dup3\n        /* \"#utility.yul\":20606:20620   */\n      add\n        /* \"#utility.yul\":20599:20642   */\n      mstore\n        /* \"#utility.yul\":20482:20649   */\n      pop\n      jump\t// out\n        /* \"#utility.yul\":20655:21021   */\n    tag_291:\n        /* \"#utility.yul\":20797:20800   */\n      0x00\n        /* \"#utility.yul\":20818:20885   */\n      tag_514\n        /* \"#utility.yul\":20882:20884   */\n      0x11\n        /* \"#utility.yul\":20877:20880   */\n      dup4\n        /* \"#utility.yul\":20818:20885   */\n      tag_246\n      jump\t// in\n    tag_514:\n        /* \"#utility.yul\":20811:20885   */\n      swap2\n      pop\n        /* \"#utility.yul\":20894:20987   */\n      tag_515\n        /* \"#utility.yul\":20983:20986   */\n      dup3\n        /* \"#utility.yul\":20894:20987   */\n      tag_290\n      jump\t// in\n    tag_515:\n        /* \"#utility.yul\":21012:21014   */\n      0x20\n        /* \"#utility.yul\":21007:21010   */\n      dup3\n        /* \"#utility.yul\":21003:21015   */\n      add\n        /* \"#utility.yul\":20996:21015   */\n      swap1\n      pop\n        /* \"#utility.yul\":20655:21021   */\n      swap2\n      swap1\n      pop\n      jump\t// out\n        /* \"#utility.yul\":21027:21446   */\n    tag_152:\n        /* \"#utility.yul\":21193:21197   */\n      0x00\n        /* \"#utility.yul\":21231:21233   */\n      0x20\n        /* \"#utility.yul\":21220:21229   */\n      dup3\n        /* \"#utility.yul\":21216:21234   */\n      add\n        /* \"#utility.yul\":21208:21234   */\n      swap1\n      pop\n        /* \"#utility.yul\":21280:21289   */\n      dup2\n        /* \"#utility.yul\":21274:21278   */\n      dup2\n        /* \"#utility.yul\":21270:21290   */\n      sub\n        /* \"#utility.yul\":21266:21267   */\n      0x00\n        /* \"#utility.yul\":21255:21264   */\n      dup4\n        /* \"#utility.yul\":21251:21268   */\n      add\n        /* \"#utility.yul\":21244:21291   */\n      mstore\n        /* \"#utility.yul\":21308:21439   */\n      tag_517\n        /* \"#utility.yul\":21434:21438   */\n      dup2\n        /* \"#utility.yul\":21308:21439   */\n      tag_291\n      jump\t// in\n    tag_517:\n        /* \"#utility.yul\":21300:21439   */\n      swap1\n      pop\n        /* \"#utility.yul\":21027:21446   */\n      swap2\n      swap1\n      pop\n      jump\t// out\n        /* \"#utility.yul\":21452:21618   */\n    tag_292:\n        /* \"#utility.yul\":21592:21610   */\n      0x416c726561647920457865637574656400000000000000000000000000000000\n        /* \"#utility.yul\":21588:21589   */\n      0x00\n        /* \"#utility.yul\":21580:21586   */\n      dup3\n        /* \"#utility.yul\":21576:21590   */\n      add\n        /* \"#utility.yul\":21569:21611   */\n      mstore\n        /* \"#utility.yul\":21452:21618   */\n      pop\n      jump\t// out\n        /* \"#utility.yul\":21624:21990   */\n    tag_293:\n        /* \"#utility.yul\":21766:21769   */\n      0x00\n        /* \"#utility.yul\":21787:21854   */\n      tag_520\n        /* \"#utility.yul\":21851:21853   */\n      0x10\n        /* \"#utility.yul\":21846:21849   */\n      dup4\n        /* \"#utility.yul\":21787:21854   */\n      tag_246\n      jump\t// in\n    tag_520:\n        /* \"#utility.yul\":21780:21854   */\n      swap2\n      pop\n        /* \"#utility.yul\":21863:21956   */\n      tag_521\n        /* \"#utility.yul\":21952:21955   */\n      dup3\n        /* \"#utility.yul\":21863:21956   */\n      tag_292\n      jump\t// in\n    tag_521:\n        /* \"#utility.yul\":21981:21983   */\n      0x20\n        /* \"#utility.yul\":21976:21979   */\n      dup3\n        /* \"#utility.yul\":21972:21984   */\n      add\n        /* \"#utility.yul\":21965:21984   */\n      swap1\n      pop\n        /* \"#utility.yul\":21624:21990   */\n      swap2\n      swap1\n      pop\n      jump\t// out\n        /* \"#utility.yul\":21996:22415   */\n    tag_155:\n        /* \"#utility.yul\":22162:22166   */\n      0x00\n        /* \"#utility.yul\":22200:22202   */\n      0x20\n        /* \"#utility.yul\":22189:22198   */\n      dup3\n        /* \"#utility.yul\":22185:22203   */\n      add\n        /* \"#utility.yul\":22177:22203   */\n      swap1\n      pop\n        /* \"#utility.yul\":22249:22258   */\n      dup2\n        /* \"#utility.yul\":22243:22247   */\n      dup2\n        /* \"#utility.yul\":22239:22259   */\n      sub\n        /* \"#utility.yul\":22235:22236   */\n      0x00\n        /* \"#utility.yul\":22224:22233   */\n      dup4\n        /* \"#utility.yul\":22220:22237   */\n      add\n        /* \"#utility.yul\":22213:22260   */\n      mstore\n        /* \"#utility.yul\":22277:22408   */\n      tag_523\n        /* \"#utility.yul\":22403:22407   */\n      dup2\n        /* \"#utility.yul\":22277:22408   */\n      tag_293\n      jump\t// in\n    tag_523:\n        /* \"#utility.yul\":22269:22408   */\n      swap1\n      pop\n        /* \"#utility.yul\":21996:22415   */\n      swap2\n      swap1\n      pop\n      jump\t// out\n        /* \"#utility.yul\":22421:22597   */\n    tag_294:\n        /* \"#utility.yul\":22561:22589   */\n      0x4e6f7420656e6f7567682066756e64732063757272656e746c79000000000000\n        /* \"#utility.yul\":22557:22558   */\n      0x00\n        /* \"#utility.yul\":22549:22555   */\n      dup3\n        /* \"#utility.yul\":22545:22559   */\n      add\n        /* \"#utility.yul\":22538:22590   */\n      mstore\n        /* \"#utility.yul\":22421:22597   */\n      pop\n      jump\t// out\n        /* \"#utility.yul\":22603:22969   */\n    tag_295:\n        /* \"#utility.yul\":22745:22748   */\n      0x00\n        /* \"#utility.yul\":22766:22833   */\n      tag_526\n        /* \"#utility.yul\":22830:22832   */\n      0x1a\n        /* \"#utility.yul\":22825:22828   */\n      dup4\n        /* \"#utility.yul\":22766:22833   */\n      tag_246\n      jump\t// in\n    tag_526:\n        /* \"#utility.yul\":22759:22833   */\n      swap2\n      pop\n        /* \"#utility.yul\":22842:22935   */\n      tag_527\n        /* \"#utility.yul\":22931:22934   */\n      dup3\n        /* \"#utility.yul\":22842:22935   */\n      tag_294\n      jump\t// in\n    tag_527:\n        /* \"#utility.yul\":22960:22962   */\n      0x20\n        /* \"#utility.yul\":22955:22958   */\n      dup3\n        /* \"#utility.yul\":22951:22963   */\n      add\n        /* \"#utility.yul\":22944:22963   */\n      swap1\n      pop\n        /* \"#utility.yul\":22603:22969   */\n      swap2\n      swap1\n      pop\n      jump\t// out\n        /* \"#utility.yul\":22975:23394   */\n    tag_158:\n        /* \"#utility.yul\":23141:23145   */\n      0x00\n        /* \"#utility.yul\":23179:23181   */\n      0x20\n        /* \"#utility.yul\":23168:23177   */\n      dup3\n        /* \"#utility.yul\":23164:23182   */\n      add\n        /* \"#utility.yul\":23156:23182   */\n      swap1\n      pop\n        /* \"#utility.yul\":23228:23237   */\n      dup2\n        /* \"#utility.yul\":23222:23226   */\n      dup2\n        /* \"#utility.yul\":23218:23238   */\n      sub\n        /* \"#utility.yul\":23214:23215   */\n      0x00\n        /* \"#utility.yul\":23203:23212   */\n      dup4\n        /* \"#utility.yul\":23199:23216   */\n      add\n        /* \"#utility.yul\":23192:23239   */\n      mstore\n        /* \"#utility.yul\":23256:23387   */\n      tag_529\n        /* \"#utility.yul\":23382:23386   */\n      dup2\n        /* \"#utility.yul\":23256:23387   */\n      tag_295\n      jump\t// in\n    tag_529:\n        /* \"#utility.yul\":23248:23387   */\n      swap1\n      pop\n        /* \"#utility.yul\":22975:23394   */\n      swap2\n      swap1\n      pop\n      jump\t// out\n        /* \"#utility.yul\":23400:23574   */\n    tag_296:\n        /* \"#utility.yul\":23540:23566   */\n      0x596f7520617265206e6f7420616e20496e766573746f72210000000000000000\n        /* \"#utility.yul\":23536:23537   */\n      0x00\n        /* \"#utility.yul\":23528:23534   */\n      dup3\n        /* \"#utility.yul\":23524:23538   */\n      add\n        /* \"#utility.yul\":23517:23567   */\n      mstore\n        /* \"#utility.yul\":23400:23574   */\n      pop\n      jump\t// out\n        /* \"#utility.yul\":23580:23946   */\n    tag_297:\n        /* \"#utility.yul\":23722:23725   */\n      0x00\n        /* \"#utility.yul\":23743:23810   */\n      tag_532\n        /* \"#utility.yul\":23807:23809   */\n      0x18\n        /* \"#utility.yul\":23802:23805   */\n      dup4\n        /* \"#utility.yul\":23743:23810   */\n      tag_246\n      jump\t// in\n    tag_532:\n        /* \"#utility.yul\":23736:23810   */\n      swap2\n      pop\n        /* \"#utility.yul\":23819:23912   */\n      tag_533\n        /* \"#utility.yul\":23908:23911   */\n      dup3\n        /* \"#utility.yul\":23819:23912   */\n      tag_296\n      jump\t// in\n    tag_533:\n        /* \"#utility.yul\":23937:23939   */\n      0x20\n        /* \"#utility.yul\":23932:23935   */\n      dup3\n        /* \"#utility.yul\":23928:23940   */\n      add\n        /* \"#utility.yul\":23921:23940   */\n      swap1\n      pop\n        /* \"#utility.yul\":23580:23946   */\n      swap2\n      swap1\n      pop\n      jump\t// out\n        /* \"#utility.yul\":23952:24371   */\n    tag_167:\n        /* \"#utility.yul\":24118:24122   */\n      0x00\n        /* \"#utility.yul\":24156:24158   */\n      0x20\n        /* \"#utility.yul\":24145:24154   */\n      dup3\n        /* \"#utility.yul\":24141:24159   */\n      add\n        /* \"#utility.yul\":24133:24159   */\n      swap1\n      pop\n        /* \"#utility.yul\":24205:24214   */\n      dup2\n        /* \"#utility.yul\":24199:24203   */\n      dup2\n        /* \"#utility.yul\":24195:24215   */\n      sub\n        /* \"#utility.yul\":24191:24192   */\n      0x00\n        /* \"#utility.yul\":24180:24189   */\n      dup4\n        /* \"#utility.yul\":24176:24193   */\n      add\n        /* \"#utility.yul\":24169:24216   */\n      mstore\n        /* \"#utility.yul\":24233:24364   */\n      tag_535\n        /* \"#utility.yul\":24359:24363   */\n      dup2\n        /* \"#utility.yul\":24233:24364   */\n      tag_297\n      jump\t// in\n    tag_535:\n        /* \"#utility.yul\":24225:24364   */\n      swap1\n      pop\n        /* \"#utility.yul\":23952:24371   */\n      swap2\n      swap1\n      pop\n      jump\t// out\n        /* \"#utility.yul\":24377:24557   */\n    tag_185:\n        /* \"#utility.yul\":24425:24502   */\n      0x4e487b7100000000000000000000000000000000000000000000000000000000\n        /* \"#utility.yul\":24422:24423   */\n      0x00\n        /* \"#utility.yul\":24415:24503   */\n      mstore\n        /* \"#utility.yul\":24522:24526   */\n      0x41\n        /* \"#utility.yul\":24519:24520   */\n      0x04\n        /* \"#utility.yul\":24512:24527   */\n      mstore\n        /* \"#utility.yul\":24546:24550   */\n      0x24\n        /* \"#utility.yul\":24543:24544   */\n      0x00\n        /* \"#utility.yul\":24536:24551   */\n      revert\n        /* \"#utility.yul\":24563:24743   */\n    tag_200:\n        /* \"#utility.yul\":24611:24688   */\n      0x4e487b7100000000000000000000000000000000000000000000000000000000\n        /* \"#utility.yul\":24608:24609   */\n      0x00\n        /* \"#utility.yul\":24601:24689   */\n      mstore\n        /* \"#utility.yul\":24708:24712   */\n      0x32\n        /* \"#utility.yul\":24705:24706   */\n      0x04\n        /* \"#utility.yul\":24698:24713   */\n      mstore\n        /* \"#utility.yul\":24732:24736   */\n      0x24\n        /* \"#utility.yul\":24729:24730   */\n      0x00\n        /* \"#utility.yul\":24722:24737   */\n      revert\n        /* \"#utility.yul\":24749:24890   */\n    tag_298:\n        /* \"#utility.yul\":24798:24802   */\n      0x00\n        /* \"#utility.yul\":24821:24824   */\n      dup2\n        /* \"#utility.yul\":24813:24824   */\n      swap1\n      pop\n        /* \"#utility.yul\":24844:24847   */\n      dup2\n        /* \"#utility.yul\":24841:24842   */\n      0x00\n        /* \"#utility.yul\":24834:24848   */\n      mstore\n        /* \"#utility.yul\":24878:24882   */\n      0x20\n        /* \"#utility.yul\":24875:24876   */\n      0x00\n        /* \"#utility.yul\":24865:24883   */\n      keccak256\n        /* \"#utility.yul\":24857:24883   */\n      swap1\n      pop\n        /* \"#utility.yul\":24749:24890   */\n      swap2\n      swap1\n      pop\n      jump\t// out\n        /* \"#utility.yul\":24896:24989   */\n    tag_299:\n        /* \"#utility.yul\":24933:24939   */\n      0x00\n        /* \"#utility.yul\":24980:24982   */\n      0x20\n        /* \"#utility.yul\":24975:24977   */\n      0x1f\n        /* \"#utility.yul\":24968:24973   */\n      dup4\n        /* \"#utility.yul\":24964:24978   */\n      add\n        /* \"#utility.yul\":24960:24983   */\n      div\n        /* \"#utility.yul\":24950:24983   */\n      swap1\n      pop\n        /* \"#utility.yul\":24896:24989   */\n      swap2\n      swap1\n      pop\n      jump\t// out\n        /* \"#utility.yul\":24995:25102   */\n    tag_300:\n        /* \"#utility.yul\":25039:25047   */\n      0x00\n        /* \"#utility.yul\":25089:25094   */\n      dup3\n        /* \"#utility.yul\":25083:25087   */\n      dup3\n        /* \"#utility.yul\":25079:25095   */\n      shl\n        /* \"#utility.yul\":25058:25095   */\n      swap1\n      pop\n        /* \"#utility.yul\":24995:25102   */\n      swap3\n      swap2\n      pop\n      pop\n      jump\t// out\n        /* \"#utility.yul\":25108:25501   */\n    tag_301:\n        /* \"#utility.yul\":25177:25183   */\n      0x00\n        /* \"#utility.yul\":25227:25228   */\n      0x08\n        /* \"#utility.yul\":25215:25225   */\n      dup4\n        /* \"#utility.yul\":25211:25229   */\n      mul\n        /* \"#utility.yul\":25250:25347   */\n      tag_542\n        /* \"#utility.yul\":25280:25346   */\n      0xffffffffffffffffffffffffffffffffffffffffffffffffffffffffffffffff\n        /* \"#utility.yul\":25269:25278   */\n      dup3\n        /* \"#utility.yul\":25250:25347   */\n      tag_300\n      jump\t// in\n    tag_542:\n        /* \"#utility.yul\":25368:25407   */\n      tag_543\n        /* \"#utility.yul\":25398:25406   */\n      dup7\n        /* \"#utility.yul\":25387:25396   */\n      dup4\n        /* \"#utility.yul\":25368:25407   */\n      tag_300\n      jump\t// in\n    tag_543:\n        /* \"#utility.yul\":25356:25407   */\n      swap6\n      pop\n        /* \"#utility.yul\":25440:25444   */\n      dup1\n        /* \"#utility.yul\":25436:25445   */\n      not\n        /* \"#utility.yul\":25429:25434   */\n      dup5\n        /* \"#utility.yul\":25425:25446   */\n      and\n        /* \"#utility.yul\":25416:25446   */\n      swap4\n      pop\n        /* \"#utility.yul\":25489:25493   */\n      dup1\n        /* \"#utility.yul\":25479:25487   */\n      dup7\n        /* \"#utility.yul\":25475:25494   */\n      and\n        /* \"#utility.yul\":25468:25473   */\n      dup5\n        /* \"#utility.yul\":25465:25495   */\n      or\n        /* \"#utility.yul\":25455:25495   */\n      swap3\n      pop\n        /* \"#utility.yul\":25184:25501   */\n      pop\n      pop\n        /* \"#utility.yul\":25108:25501   */\n      swap4\n      swap3\n      pop\n      pop\n      pop\n      jump\t// out\n        /* \"#utility.yul\":25507:25567   */\n    tag_302:\n        /* \"#utility.yul\":25535:25538   */\n      0x00\n        /* \"#utility.yul\":25556:25561   */\n      dup2\n        /* \"#utility.yul\":25549:25561   */\n      swap1\n      pop\n        /* \"#utility.yul\":25507:25567   */\n      swap2\n      swap1\n      pop\n      jump\t// out\n        /* \"#utility.yul\":25573:25715   */\n    tag_303:\n        /* \"#utility.yul\":25623:25632   */\n      0x00\n        /* \"#utility.yul\":25656:25709   */\n      tag_546\n        /* \"#utility.yul\":25674:25708   */\n      tag_547\n        /* \"#utility.yul\":25683:25707   */\n      tag_548\n        /* \"#utility.yul\":25701:25706   */\n      dup5\n        /* \"#utility.yul\":25683:25707   */\n      tag_241\n      jump\t// in\n    tag_548:\n        /* \"#utility.yul\":25674:25708   */\n      tag_302\n      jump\t// in\n    tag_547:\n        /* \"#utility.yul\":25656:25709   */\n      tag_241\n      jump\t// in\n    tag_546:\n        /* \"#utility.yul\":25643:25709   */\n      swap1\n      pop\n        /* \"#utility.yul\":25573:25715   */\n      swap2\n      swap1\n      pop\n      jump\t// out\n        /* \"#utility.yul\":25721:25796   */\n    tag_304:\n        /* \"#utility.yul\":25764:25767   */\n      0x00\n        /* \"#utility.yul\":25785:25790   */\n      dup2\n        /* \"#utility.yul\":25778:25790   */\n      swap1\n      pop\n        /* \"#utility.yul\":25721:25796   */\n      swap2\n      swap1\n      pop\n      jump\t// out\n        /* \"#utility.yul\":25802:26071   */\n    tag_305:\n        /* \"#utility.yul\":25912:25951   */\n      tag_551\n        /* \"#utility.yul\":25943:25950   */\n      dup4\n        /* \"#utility.yul\":25912:25951   */\n      tag_303\n      jump\t// in\n    tag_551:\n        /* \"#utility.yul\":25973:26064   */\n      tag_552\n        /* \"#utility.yul\":26022:26063   */\n      tag_553\n        /* \"#utility.yul\":26046:26062   */\n      dup3\n        /* \"#utility.yul\":26022:26063   */\n      tag_304\n      jump\t// in\n    tag_553:\n        /* \"#utility.yul\":26014:26020   */\n      dup5\n        /* \"#utility.yul\":26007:26011   */\n      dup5\n        /* \"#utility.yul\":26001:26012   */\n      sload\n        /* \"#utility.yul\":25973:26064   */\n      tag_301\n      jump\t// in\n    tag_552:\n        /* \"#utility.yul\":25967:25971   */\n      dup3\n        /* \"#utility.yul\":25960:26065   */\n      sstore\n        /* \"#utility.yul\":25878:26071   */\n      pop\n        /* \"#utility.yul\":25802:26071   */\n      pop\n      pop\n      pop\n      jump\t// out\n        /* \"#utility.yul\":26077:26150   */\n    tag_306:\n        /* \"#utility.yul\":26122:26125   */\n      0x00\n        /* \"#utility.yul\":26077:26150   */\n      swap1\n      jump\t// out\n        /* \"#utility.yul\":26156:26345   */\n    tag_307:\n        /* \"#utility.yul\":26233:26265   */\n      tag_556\n      tag_306\n      jump\t// in\n    tag_556:\n        /* \"#utility.yul\":26274:26339   */\n      tag_557\n        /* \"#utility.yul\":26332:26338   */\n      dup2\n        /* \"#utility.yul\":26324:26330   */\n      dup5\n        /* \"#utility.yul\":26318:26322   */\n      dup5\n        /* \"#utility.yul\":26274:26339   */\n      tag_305\n      jump\t// in\n    tag_557:\n        /* \"#utility.yul\":26209:26345   */\n      pop\n        /* \"#utility.yul\":26156:26345   */\n      pop\n      pop\n      jump\t// out\n        /* \"#utility.yul\":26351:26537   */\n    tag_308:\n        /* \"#utility.yul\":26411:26531   */\n    tag_559:\n        /* \"#utility.yul\":26428:26431   */\n      dup2\n        /* \"#utility.yul\":26421:26426   */\n      dup2\n        /* \"#utility.yul\":26418:26432   */\n      lt\n        /* \"#utility.yul\":26411:26531   */\n      iszero\n      tag_561\n      jumpi\n        /* \"#utility.yul\":26482:26521   */\n      tag_562\n        /* \"#utility.yul\":26519:26520   */\n      0x00\n        /* \"#utility.yul\":26512:26517   */\n      dup3\n        /* \"#utility.yul\":26482:26521   */\n      tag_307\n      jump\t// in\n    tag_562:\n        /* \"#utility.yul\":26455:26456   */\n      0x01\n        /* \"#utility.yul\":26448:26453   */\n      dup2\n        /* \"#utility.yul\":26444:26457   */\n      add\n        /* \"#utility.yul\":26435:26457   */\n      swap1\n      pop\n        /* \"#utility.yul\":26411:26531   */\n      jump(tag_559)\n    tag_561:\n        /* \"#utility.yul\":26351:26537   */\n      pop\n      pop\n      jump\t// out\n        /* \"#utility.yul\":26543:27086   */\n    tag_309:\n        /* \"#utility.yul\":26644:26646   */\n      0x1f\n        /* \"#utility.yul\":26639:26642   */\n      dup3\n        /* \"#utility.yul\":26636:26647   */\n      gt\n        /* \"#utility.yul\":26633:27079   */\n      iszero\n      tag_564\n      jumpi\n        /* \"#utility.yul\":26678:26716   */\n      tag_565\n        /* \"#utility.yul\":26710:26715   */\n      dup2\n        /* \"#utility.yul\":26678:26716   */\n      tag_298\n      jump\t// in\n    tag_565:\n        /* \"#utility.yul\":26762:26791   */\n      tag_566\n        /* \"#utility.yul\":26780:26790   */\n      dup5\n        /* \"#utility.yul\":26762:26791   */\n      tag_299\n      jump\t// in\n    tag_566:\n        /* \"#utility.yul\":26752:26760   */\n      dup2\n        /* \"#utility.yul\":26748:26792   */\n      add\n        /* \"#utility.yul\":26945:26947   */\n      0x20\n        /* \"#utility.yul\":26933:26943   */\n      dup6\n        /* \"#utility.yul\":26930:26948   */\n      lt\n        /* \"#utility.yul\":26927:26976   */\n      iszero\n      tag_567\n      jumpi\n        /* \"#utility.yul\":26966:26974   */\n      dup2\n        /* \"#utility.yul\":26951:26974   */\n      swap1\n      pop\n        /* \"#utility.yul\":26927:26976   */\n    tag_567:\n        /* \"#utility.yul\":26989:27069   */\n      tag_568\n        /* \"#utility.yul\":27045:27067   */\n      tag_569\n        /* \"#utility.yul\":27063:27066   */\n      dup6\n        /* \"#utility.yul\":27045:27067   */\n      tag_299\n      jump\t// in\n    tag_569:\n        /* \"#utility.yul\":27035:27043   */\n      dup4\n        /* \"#utility.yul\":27031:27068   */\n      add\n        /* \"#utility.yul\":27018:27029   */\n      dup3\n        /* \"#utility.yul\":26989:27069   */\n      tag_308\n      jump\t// in\n    tag_568:\n        /* \"#utility.yul\":26648:27079   */\n      pop\n      pop\n        /* \"#utility.yul\":26633:27079   */\n    tag_564:\n        /* \"#utility.yul\":26543:27086   */\n      pop\n      pop\n      pop\n      jump\t// out\n        /* \"#utility.yul\":27092:27209   */\n    tag_310:\n        /* \"#utility.yul\":27146:27154   */\n      0x00\n        /* \"#utility.yul\":27196:27201   */\n      dup3\n        /* \"#utility.yul\":27190:27194   */\n      dup3\n        /* \"#utility.yul\":27186:27202   */\n      shr\n        /* \"#utility.yul\":27165:27202   */\n      swap1\n      pop\n        /* \"#utility.yul\":27092:27209   */\n      swap3\n      swap2\n      pop\n      pop\n      jump\t// out\n        /* \"#utility.yul\":27215:27384   */\n    tag_311:\n        /* \"#utility.yul\":27259:27265   */\n      0x00\n        /* \"#utility.yul\":27292:27343   */\n      tag_572\n        /* \"#utility.yul\":27340:27341   */\n      0x00\n        /* \"#utility.yul\":27336:27342   */\n      not\n        /* \"#utility.yul\":27328:27333   */\n      dup5\n        /* \"#utility.yul\":27325:27326   */\n      0x08\n        /* \"#utility.yul\":27321:27334   */\n      mul\n        /* \"#utility.yul\":27292:27343   */\n      tag_310\n      jump\t// in\n    tag_572:\n        /* \"#utility.yul\":27288:27344   */\n      not\n        /* \"#utility.yul\":27373:27377   */\n      dup1\n        /* \"#utility.yul\":27367:27371   */\n      dup4\n        /* \"#utility.yul\":27363:27378   */\n      and\n        /* \"#utility.yul\":27353:27378   */\n      swap2\n      pop\n        /* \"#utility.yul\":27266:27384   */\n      pop\n        /* \"#utility.yul\":27215:27384   */\n      swap3\n      swap2\n      pop\n      pop\n      jump\t// out\n        /* \"#utility.yul\":27389:27684   */\n    tag_312:\n        /* \"#utility.yul\":27465:27469   */\n      0x00\n        /* \"#utility.yul\":27611:27640   */\n      tag_574\n        /* \"#utility.yul\":27636:27639   */\n      dup4\n        /* \"#utility.yul\":27630:27634   */\n      dup4\n        /* \"#utility.yul\":27611:27640   */\n      tag_311\n      jump\t// in\n    tag_574:\n        /* \"#utility.yul\":27603:27640   */\n      swap2\n      pop\n        /* \"#utility.yul\":27673:27676   */\n      dup3\n        /* \"#utility.yul\":27670:27671   */\n      0x02\n        /* \"#utility.yul\":27666:27677   */\n      mul\n        /* \"#utility.yul\":27660:27664   */\n      dup3\n        /* \"#utility.yul\":27657:27678   */\n      or\n        /* \"#utility.yul\":27649:27678   */\n      swap1\n      pop\n        /* \"#utility.yul\":27389:27684   */\n      swap3\n      swap2\n      pop\n      pop\n      jump\t// out\n        /* \"#utility.yul\":27689:29084   */\n    tag_209:\n        /* \"#utility.yul\":27806:27843   */\n      tag_576\n        /* \"#utility.yul\":27839:27842   */\n      dup3\n        /* \"#utility.yul\":27806:27843   */\n      tag_245\n      jump\t// in\n    tag_576:\n        /* \"#utility.yul\":27908:27926   */\n      0xffffffffffffffff\n        /* \"#utility.yul\":27900:27906   */\n      dup2\n        /* \"#utility.yul\":27897:27927   */\n      gt\n        /* \"#utility.yul\":27894:27950   */\n      iszero\n      tag_577\n      jumpi\n        /* \"#utility.yul\":27930:27948   */\n      tag_578\n      tag_185\n      jump\t// in\n    tag_578:\n        /* \"#utility.yul\":27894:27950   */\n    tag_577:\n        /* \"#utility.yul\":27974:28012   */\n      tag_579\n        /* \"#utility.yul\":28006:28010   */\n      dup3\n        /* \"#utility.yul\":28000:28011   */\n      sload\n        /* \"#utility.yul\":27974:28012   */\n      tag_115\n      jump\t// in\n    tag_579:\n        /* \"#utility.yul\":28059:28126   */\n      tag_580\n        /* \"#utility.yul\":28119:28125   */\n      dup3\n        /* \"#utility.yul\":28111:28117   */\n      dup3\n        /* \"#utility.yul\":28105:28109   */\n      dup6\n        /* \"#utility.yul\":28059:28126   */\n      tag_309\n      jump\t// in\n    tag_580:\n        /* \"#utility.yul\":28153:28154   */\n      0x00\n        /* \"#utility.yul\":28177:28181   */\n      0x20\n        /* \"#utility.yul\":28164:28181   */\n      swap1\n      pop\n        /* \"#utility.yul\":28209:28211   */\n      0x1f\n        /* \"#utility.yul\":28201:28207   */\n      dup4\n        /* \"#utility.yul\":28198:28212   */\n      gt\n        /* \"#utility.yul\":28226:28227   */\n      0x01\n        /* \"#utility.yul\":28221:28839   */\n      dup2\n      eq\n      tag_582\n      jumpi\n        /* \"#utility.yul\":28883:28884   */\n      0x00\n        /* \"#utility.yul\":28900:28906   */\n      dup5\n        /* \"#utility.yul\":28897:28974   */\n      iszero\n      tag_583\n      jumpi\n        /* \"#utility.yul\":28949:28958   */\n      dup3\n        /* \"#utility.yul\":28944:28947   */\n      dup8\n        /* \"#utility.yul\":28940:28959   */\n      add\n        /* \"#utility.yul\":28934:28960   */\n      mload\n        /* \"#utility.yul\":28925:28960   */\n      swap1\n      pop\n        /* \"#utility.yul\":28897:28974   */\n    tag_583:\n        /* \"#utility.yul\":29000:29067   */\n      tag_584\n        /* \"#utility.yul\":29060:29066   */\n      dup6\n        /* \"#utility.yul\":29053:29058   */\n      dup3\n        /* \"#utility.yul\":29000:29067   */\n      tag_312\n      jump\t// in\n    tag_584:\n        /* \"#utility.yul\":28994:28998   */\n      dup7\n        /* \"#utility.yul\":28987:29068   */\n      sstore\n        /* \"#utility.yul\":28856:29078   */\n      pop\n        /* \"#utility.yul\":28191:29078   */\n      jump(tag_581)\n        /* \"#utility.yul\":28221:28839   */\n    tag_582:\n        /* \"#utility.yul\":28273:28277   */\n      0x1f\n        /* \"#utility.yul\":28269:28278   */\n      not\n        /* \"#utility.yul\":28261:28267   */\n      dup5\n        /* \"#utility.yul\":28257:28279   */\n      and\n        /* \"#utility.yul\":28307:28344   */\n      tag_585\n        /* \"#utility.yul\":28339:28343   */\n      dup7\n        /* \"#utility.yul\":28307:28344   */\n      tag_298\n      jump\t// in\n    tag_585:\n        /* \"#utility.yul\":28366:28367   */\n      0x00\n        /* \"#utility.yul\":28380:28588   */\n    tag_586:\n        /* \"#utility.yul\":28394:28401   */\n      dup3\n        /* \"#utility.yul\":28391:28392   */\n      dup2\n        /* \"#utility.yul\":28388:28402   */\n      lt\n        /* \"#utility.yul\":28380:28588   */\n      iszero\n      tag_588\n      jumpi\n        /* \"#utility.yul\":28473:28482   */\n      dup5\n        /* \"#utility.yul\":28468:28471   */\n      dup10\n        /* \"#utility.yul\":28464:28483   */\n      add\n        /* \"#utility.yul\":28458:28484   */\n      mload\n        /* \"#utility.yul\":28450:28456   */\n      dup3\n        /* \"#utility.yul\":28443:28485   */\n      sstore\n        /* \"#utility.yul\":28524:28525   */\n      0x01\n        /* \"#utility.yul\":28516:28522   */\n      dup3\n        /* \"#utility.yul\":28512:28526   */\n      add\n        /* \"#utility.yul\":28502:28526   */\n      swap2\n      pop\n        /* \"#utility.yul\":28571:28573   */\n      0x20\n        /* \"#utility.yul\":28560:28569   */\n      dup6\n        /* \"#utility.yul\":28556:28574   */\n      add\n        /* \"#utility.yul\":28543:28574   */\n      swap5\n      pop\n        /* \"#utility.yul\":28417:28421   */\n      0x20\n        /* \"#utility.yul\":28414:28415   */\n      dup2\n        /* \"#utility.yul\":28410:28422   */\n      add\n        /* \"#utility.yul\":28405:28422   */\n      swap1\n      pop\n        /* \"#utility.yul\":28380:28588   */\n      jump(tag_586)\n    tag_588:\n        /* \"#utility.yul\":28616:28622   */\n      dup7\n        /* \"#utility.yul\":28607:28614   */\n      dup4\n        /* \"#utility.yul\":28604:28623   */\n      lt\n        /* \"#utility.yul\":28601:28780   */\n      iszero\n      tag_589\n      jumpi\n        /* \"#utility.yul\":28674:28683   */\n      dup5\n        /* \"#utility.yul\":28669:28672   */\n      dup10\n        /* \"#utility.yul\":28665:28684   */\n      add\n        /* \"#utility.yul\":28659:28685   */\n      mload\n        /* \"#utility.yul\":28717:28765   */\n      tag_590\n        /* \"#utility.yul\":28759:28763   */\n      0x1f\n        /* \"#utility.yul\":28751:28757   */\n      dup10\n        /* \"#utility.yul\":28747:28764   */\n      and\n        /* \"#utility.yul\":28736:28745   */\n      dup3\n        /* \"#utility.yul\":28717:28765   */\n      tag_311\n      jump\t// in\n    tag_590:\n        /* \"#utility.yul\":28709:28715   */\n      dup4\n        /* \"#utility.yul\":28702:28766   */\n      sstore\n        /* \"#utility.yul\":28624:28780   */\n      pop\n        /* \"#utility.yul\":28601:28780   */\n    tag_589:\n        /* \"#utility.yul\":28826:28827   */\n      0x01\n        /* \"#utility.yul\":28822:28823   */\n      0x02\n        /* \"#utility.yul\":28814:28820   */\n      dup9\n        /* \"#utility.yul\":28810:28824   */\n      mul\n        /* \"#utility.yul\":28806:28828   */\n      add\n        /* \"#utility.yul\":28800:28804   */\n      dup9\n        /* \"#utility.yul\":28793:28829   */\n      sstore\n        /* \"#utility.yul\":28228:28839   */\n      pop\n      pop\n      pop\n        /* \"#utility.yul\":28191:29078   */\n    tag_581:\n      pop\n        /* \"#utility.yul\":27781:29084   */\n      pop\n      pop\n      pop\n        /* \"#utility.yul\":27689:29084   */\n      pop\n      pop\n      jump\t// out\n        /* \"#utility.yul\":29090:29323   */\n    tag_211:\n        /* \"#utility.yul\":29129:29132   */\n      0x00\n        /* \"#utility.yul\":29152:29176   */\n      tag_592\n        /* \"#utility.yul\":29170:29175   */\n      dup3\n        /* \"#utility.yul\":29152:29176   */\n      tag_241\n      jump\t// in\n    tag_592:\n        /* \"#utility.yul\":29143:29176   */\n      swap2\n      pop\n        /* \"#utility.yul\":29198:29264   */\n      0xffffffffffffffffffffffffffffffffffffffffffffffffffffffffffffffff\n        /* \"#utility.yul\":29191:29196   */\n      dup3\n        /* \"#utility.yul\":29188:29265   */\n      sub\n        /* \"#utility.yul\":29185:29288   */\n      tag_593\n      jumpi\n        /* \"#utility.yul\":29268:29286   */\n      tag_594\n      tag_284\n      jump\t// in\n    tag_594:\n        /* \"#utility.yul\":29185:29288   */\n    tag_593:\n        /* \"#utility.yul\":29315:29316   */\n      0x01\n        /* \"#utility.yul\":29308:29313   */\n      dup3\n        /* \"#utility.yul\":29304:29317   */\n      add\n        /* \"#utility.yul\":29297:29317   */\n      swap1\n      pop\n        /* \"#utility.yul\":29090:29323   */\n      swap2\n      swap1\n      pop\n      jump\t// out\n        /* \"#utility.yul\":29329:29492   */\n    tag_313:\n        /* \"#utility.yul\":29469:29484   */\n      0x416c726561647920566f74656400000000000000000000000000000000000000\n        /* \"#utility.yul\":29465:29466   */\n      0x00\n        /* \"#utility.yul\":29457:29463   */\n      dup3\n        /* \"#utility.yul\":29453:29467   */\n      add\n        /* \"#utility.yul\":29446:29485   */\n      mstore\n        /* \"#utility.yul\":29329:29492   */\n      pop\n      jump\t// out\n        /* \"#utility.yul\":29498:29864   */\n    tag_314:\n        /* \"#utility.yul\":29640:29643   */\n      0x00\n        /* \"#utility.yul\":29661:29728   */\n      tag_597\n        /* \"#utility.yul\":29725:29727   */\n      0x0d\n        /* \"#utility.yul\":29720:29723   */\n      dup4\n        /* \"#utility.yul\":29661:29728   */\n      tag_246\n      jump\t// in\n    tag_597:\n        /* \"#utility.yul\":29654:29728   */\n      swap2\n      pop\n        /* \"#utility.yul\":29737:29830   */\n      tag_598\n        /* \"#utility.yul\":29826:29829   */\n      dup3\n        /* \"#utility.yul\":29737:29830   */\n      tag_313\n      jump\t// in\n    tag_598:\n        /* \"#utility.yul\":29855:29857   */\n      0x20\n        /* \"#utility.yul\":29850:29853   */\n      dup3\n        /* \"#utility.yul\":29846:29858   */\n      add\n        /* \"#utility.yul\":29839:29858   */\n      swap1\n      pop\n        /* \"#utility.yul\":29498:29864   */\n      swap2\n      swap1\n      pop\n      jump\t// out\n        /* \"#utility.yul\":29870:30289   */\n    tag_221:\n        /* \"#utility.yul\":30036:30040   */\n      0x00\n        /* \"#utility.yul\":30074:30076   */\n      0x20\n        /* \"#utility.yul\":30063:30072   */\n      dup3\n        /* \"#utility.yul\":30059:30077   */\n      add\n        /* \"#utility.yul\":30051:30077   */\n      swap1\n      pop\n        /* \"#utility.yul\":30123:30132   */\n      dup2\n        /* \"#utility.yul\":30117:30121   */\n      dup2\n        /* \"#utility.yul\":30113:30133   */\n      sub\n        /* \"#utility.yul\":30109:30110   */\n      0x00\n        /* \"#utility.yul\":30098:30107   */\n      dup4\n        /* \"#utility.yul\":30094:30111   */\n      add\n        /* \"#utility.yul\":30087:30134   */\n      mstore\n        /* \"#utility.yul\":30151:30282   */\n      tag_600\n        /* \"#utility.yul\":30277:30281   */\n      dup2\n        /* \"#utility.yul\":30151:30282   */\n      tag_314\n      jump\t// in\n    tag_600:\n        /* \"#utility.yul\":30143:30282   */\n      swap1\n      pop\n        /* \"#utility.yul\":29870:30289   */\n      swap2\n      swap1\n      pop\n      jump\t// out\n        /* \"#utility.yul\":30295:30463   */\n    tag_315:\n        /* \"#utility.yul\":30435:30455   */\n      0x566f74696e6720706572696f64204f7665720000000000000000000000000000\n        /* \"#utility.yul\":30431:30432   */\n      0x00\n        /* \"#utility.yul\":30423:30429   */\n      dup3\n        /* \"#utility.yul\":30419:30433   */\n      add\n        /* \"#utility.yul\":30412:30456   */\n      mstore\n        /* \"#utility.yul\":30295:30463   */\n      pop\n      jump\t// out\n        /* \"#utility.yul\":30469:30835   */\n    tag_316:\n        /* \"#utility.yul\":30611:30614   */\n      0x00\n        /* \"#utility.yul\":30632:30699   */\n      tag_603\n        /* \"#utility.yul\":30696:30698   */\n      0x12\n        /* \"#utility.yul\":30691:30694   */\n      dup4\n        /* \"#utility.yul\":30632:30699   */\n      tag_246\n      jump\t// in\n    tag_603:\n        /* \"#utility.yul\":30625:30699   */\n      swap2\n      pop\n        /* \"#utility.yul\":30708:30801   */\n      tag_604\n        /* \"#utility.yul\":30797:30800   */\n      dup3\n        /* \"#utility.yul\":30708:30801   */\n      tag_315\n      jump\t// in\n    tag_604:\n        /* \"#utility.yul\":30826:30828   */\n      0x20\n        /* \"#utility.yul\":30821:30824   */\n      dup3\n        /* \"#utility.yul\":30817:30829   */\n      add\n        /* \"#utility.yul\":30810:30829   */\n      swap1\n      pop\n        /* \"#utility.yul\":30469:30835   */\n      swap2\n      swap1\n      pop\n      jump\t// out\n        /* \"#utility.yul\":30841:31260   */\n    tag_224:\n        /* \"#utility.yul\":31007:31011   */\n      0x00\n        /* \"#utility.yul\":31045:31047   */\n      0x20\n        /* \"#utility.yul\":31034:31043   */\n      dup3\n        /* \"#utility.yul\":31030:31048   */\n      add\n        /* \"#utility.yul\":31022:31048   */\n      swap1\n      pop\n        /* \"#utility.yul\":31094:31103   */\n      dup2\n        /* \"#utility.yul\":31088:31092   */\n      dup2\n        /* \"#utility.yul\":31084:31104   */\n      sub\n        /* \"#utility.yul\":31080:31081   */\n      0x00\n        /* \"#utility.yul\":31069:31078   */\n      dup4\n        /* \"#utility.yul\":31065:31082   */\n      add\n        /* \"#utility.yul\":31058:31105   */\n      mstore\n        /* \"#utility.yul\":31122:31253   */\n      tag_606\n        /* \"#utility.yul\":31248:31252   */\n      dup2\n        /* \"#utility.yul\":31122:31253   */\n      tag_316\n      jump\t// in\n    tag_606:\n        /* \"#utility.yul\":31114:31253   */\n      swap1\n      pop\n        /* \"#utility.yul\":30841:31260   */\n      swap2\n      swap1\n      pop\n      jump\t// out\n        /* \"#utility.yul\":31266:31439   */\n    tag_317:\n        /* \"#utility.yul\":31406:31431   */\n      0x436f6e747269627574696f6e2054696d6520656e646564000000000000000000\n        /* \"#utility.yul\":31402:31403   */\n      0x00\n        /* \"#utility.yul\":31394:31400   */\n      dup3\n        /* \"#utility.yul\":31390:31404   */\n      add\n        /* \"#utility.yul\":31383:31432   */\n      mstore\n        /* \"#utility.yul\":31266:31439   */\n      pop\n      jump\t// out\n        /* \"#utility.yul\":31445:31811   */\n    tag_318:\n        /* \"#utility.yul\":31587:31590   */\n      0x00\n        /* \"#utility.yul\":31608:31675   */\n      tag_609\n        /* \"#utility.yul\":31672:31674   */\n      0x17\n        /* \"#utility.yul\":31667:31670   */\n      dup4\n        /* \"#utility.yul\":31608:31675   */\n      tag_246\n      jump\t// in\n    tag_609:\n        /* \"#utility.yul\":31601:31675   */\n      swap2\n      pop\n        /* \"#utility.yul\":31684:31777   */\n      tag_610\n        /* \"#utility.yul\":31773:31776   */\n      dup3\n        /* \"#utility.yul\":31684:31777   */\n      tag_317\n      jump\t// in\n    tag_610:\n        /* \"#utility.yul\":31802:31804   */\n      0x20\n        /* \"#utility.yul\":31797:31800   */\n      dup3\n        /* \"#utility.yul\":31793:31805   */\n      add\n        /* \"#utility.yul\":31786:31805   */\n      swap1\n      pop\n        /* \"#utility.yul\":31445:31811   */\n      swap2\n      swap1\n      pop\n      jump\t// out\n        /* \"#utility.yul\":31817:32236   */\n    tag_231:\n        /* \"#utility.yul\":31983:31987   */\n      0x00\n        /* \"#utility.yul\":32021:32023   */\n      0x20\n        /* \"#utility.yul\":32010:32019   */\n      dup3\n        /* \"#utility.yul\":32006:32024   */\n      add\n        /* \"#utility.yul\":31998:32024   */\n      swap1\n      pop\n        /* \"#utility.yul\":32070:32079   */\n      dup2\n        /* \"#utility.yul\":32064:32068   */\n      dup2\n        /* \"#utility.yul\":32060:32080   */\n      sub\n        /* \"#utility.yul\":32056:32057   */\n      0x00\n        /* \"#utility.yul\":32045:32054   */\n      dup4\n        /* \"#utility.yul\":32041:32058   */\n      add\n        /* \"#utility.yul\":32034:32081   */\n      mstore\n        /* \"#utility.yul\":32098:32229   */\n      tag_612\n        /* \"#utility.yul\":32224:32228   */\n      dup2\n        /* \"#utility.yul\":32098:32229   */\n      tag_318\n      jump\t// in\n    tag_612:\n        /* \"#utility.yul\":32090:32229   */\n      swap1\n      pop\n        /* \"#utility.yul\":31817:32236   */\n      swap2\n      swap1\n      pop\n      jump\t// out\n\n    auxdata: 0xa2646970667358221220819bd8ec129bfb214f57a729076e99b7eda659a42e39422b3f165d62e16389a064736f6c634300081a0033\n}\n",
				"bytecode": {
					"linkReferences": {},
					"object": "608060405234801561000f575f80fd5b50604051612a4a380380612a4a8339818101604052810190610031919061011e565b5f811180156100405750606481105b61007f576040517f08c379a0000000000000000000000000000000000000000000000000000000008152600401610076906101c8565b60405180910390fd5b824261008b9190610213565b60088190555081600a8190555080600b8190555033600c5f6101000a81548173ffffffffffffffffffffffffffffffffffffffff021916908373ffffffffffffffffffffffffffffffffffffffff160217905550505050610246565b5f80fd5b5f819050919050565b6100fd816100eb565b8114610107575f80fd5b50565b5f81519050610118816100f4565b92915050565b5f805f60608486031215610135576101346100e7565b5b5f6101428682870161010a565b93505060206101538682870161010a565b92505060406101648682870161010a565b9150509250925092565b5f82825260208201905092915050565b7f4e6f7420612056616c69642000000000000000000000000000000000000000005f82015250565b5f6101b2600c8361016e565b91506101bd8261017e565b602082019050919050565b5f6020820190508181035f8301526101df816101a6565b9050919050565b7f4e487b71000000000000000000000000000000000000000000000000000000005f52601160045260245ffd5b5f61021d826100eb565b9150610228836100eb565b92508282019050808211156102405761023f6101e6565b5b92915050565b6127f7806102535f395ff3fe608060405260043610610113575f3560e01c806346fcff4c1161009f5780638ee36f05116100635780638ee36f0514610395578063afc8275b146103d1578063bcf93dd6146103fb578063dd5fee6f14610425578063fb65e4b11461046157610113565b806346fcff4c146102b5578063481c6a75146102df5780636a907803146103095780636ac1e01f14610345578063807896d51461036d57610113565b80631703a018116100e65780631703a018146101e55780632ab09d141461020f5780633551336f1461023957806339977842146102615780633a98ef391461028b57610113565b8063013cf08b14610117578063039383e6146101595780630d61b5191461018157806312f9b48e146101a9575b5f80fd5b348015610122575f80fd5b5061013d6004803603810190610138919061184a565b61046b565b604051610150979695949392919061194d565b60405180910390f35b348015610164575f80fd5b5061017f600480360381019061017a91906119fc565b61055a565b005b34801561018c575f80fd5b506101a760048036038101906101a2919061184a565b61086f565b005b3480156101b4575f80fd5b506101cf60048036038101906101ca919061184a565b610b01565b6040516101dc9190611a49565b60405180910390f35b3480156101f0575f80fd5b506101f9610b3c565b6040516102069190611a62565b60405180910390f35b34801561021a575f80fd5b50610223610b42565b6040516102309190611a62565b60405180910390f35b348015610244575f80fd5b5061025f600480360381019061025a919061184a565b610b48565b005b34801561026c575f80fd5b50610275610e40565b6040516102829190611c44565b60405180910390f35b348015610296575f80fd5b5061029f611028565b6040516102ac9190611a62565b60405180910390f35b3480156102c0575f80fd5b506102c961102e565b6040516102d69190611a62565b60405180910390f35b3480156102ea575f80fd5b506102f3611034565b6040516103009190611a49565b60405180910390f35b348015610314575f80fd5b5061032f600480360381019061032a9190611c64565b611059565b60405161033c9190611a62565b60405180910390f35b348015610350575f80fd5b5061036b60048036038101906103669190611d1a565b61106e565b005b348015610378575f80fd5b50610393600480360381019061038e919061184a565b6112b3565b005b3480156103a0575f80fd5b506103bb60048036038101906103b69190611d8b565b6115a0565b6040516103c89190611dc9565b60405180910390f35b3480156103dc575f80fd5b506103e56115ca565b6040516103f29190611a62565b60405180910390f35b348015610406575f80fd5b5061040f6115d0565b60405161041c9190611a62565b60405180910390f35b348015610430575f80fd5b5061044b60048036038101906104469190611de2565b6115d6565b6040516104589190611dc9565b60405180910390f35b610469611600565b005b6005602052805f5260405f205f91509050805f01549080600101805461049090611e4d565b80601f01602080910402602001604051908101604052809291908181526020018280546104bc90611e4d565b80156105075780601f106104de57610100808354040283529160200191610507565b820191905f5260205f20905b8154815290600101906020018083116104ea57829003601f168201915b505050505090806002015490806003015f9054906101000a900473ffffffffffffffffffffffffffffffffffffffff1690806004015490806005015490806006015f9054906101000a900460ff16905087565b5f821161059c576040517f08c379a000000000000000000000000000000000000000000000000000000000815260040161059390611ec7565b60405180910390fd5b8160075410156105e1576040517f08c379a00000000000000000000000000000000000000000000000000000000081526004016105d890611f2f565b60405180910390fd5b60015f3373ffffffffffffffffffffffffffffffffffffffff1673ffffffffffffffffffffffffffffffffffffffff1681526020019081526020015f2054821115610661576040517f08c379a000000000000000000000000000000000000000000000000000000000815260040161065890611fbd565b60405180910390fd5b8160065f8282546106729190612008565b925050819055508160015f3373ffffffffffffffffffffffffffffffffffffffff1673ffffffffffffffffffffffffffffffffffffffff1681526020019081526020015f205f8282546106c59190612008565b925050819055508160015f8373ffffffffffffffffffffffffffffffffffffffff1673ffffffffffffffffffffffffffffffffffffffff1681526020019081526020015f205f828254610718919061203b565b925050819055505f60015f3373ffffffffffffffffffffffffffffffffffffffff1673ffffffffffffffffffffffffffffffffffffffff1681526020019081526020015f2054036107b7575f805f3373ffffffffffffffffffffffffffffffffffffffff1673ffffffffffffffffffffffffffffffffffffffff1681526020019081526020015f205f6101000a81548160ff0219169083151502179055505b60015f808373ffffffffffffffffffffffffffffffffffffffff1673ffffffffffffffffffffffffffffffffffffffff1681526020019081526020015f205f6101000a81548160ff021916908315150217905550600481908060018154018082558091505060019003905f5260205f20015f9091909190916101000a81548173ffffffffffffffffffffffffffffffffffffffff021916908373ffffffffffffffffffffffffffffffffffffffff1602179055505050565b600c5f9054906101000a900473ffffffffffffffffffffffffffffffffffffffff1673ffffffffffffffffffffffffffffffffffffffff163373ffffffffffffffffffffffffffffffffffffffff16146108fe576040517f08c379a00000000000000000000000000000000000000000000000000000000081526004016108f5906120b8565b60405180910390fd5b5f811015801561090f575060095481105b61094e576040517f08c379a000000000000000000000000000000000000000000000000000000000815260040161094590612120565b60405180910390fd5b5f60055f8381526020019081526020015f209050603360065460648360040154610978919061213e565b61098291906121ac565b10156109c3576040517f08c379a00000000000000000000000000000000000000000000000000000000081526004016109ba90612226565b60405180910390fd5b5f1515816006015f9054906101000a900460ff16151514610a19576040517f08c379a0000000000000000000000000000000000000000000000000000000008152600401610a109061228e565b60405180910390fd5b80600201546007541015610a62576040517f08c379a0000000000000000000000000000000000000000000000000000000008152600401610a59906122f6565b60405180910390fd5b806003015f9054906101000a900473ffffffffffffffffffffffffffffffffffffffff1673ffffffffffffffffffffffffffffffffffffffff166108fc826002015490811502906040515f60405180830381858888f19350505050158015610acc573d5f803e3d5ffd5b5060011515816006015f9054906101000a90505050806002015460075f828254610af69190612008565b925050819055505050565b60048181548110610b10575f80fd5b905f5260205f20015f915054906101000a900473ffffffffffffffffffffffffffffffffffffffff1681565b600b5481565b60095481565b600115155f803373ffffffffffffffffffffffffffffffffffffffff1673ffffffffffffffffffffffffffffffffffffffff1681526020019081526020015f205f9054906101000a900460ff16151514610bd7576040517f08c379a0000000000000000000000000000000000000000000000000000000008152600401610bce9061235e565b60405180910390fd5b60015f3373ffffffffffffffffffffffffffffffffffffffff1673ffffffffffffffffffffffffffffffffffffffff1681526020019081526020015f2054811115610c57576040517f08c379a0000000000000000000000000000000000000000000000000000000008152600401610c4e90611fbd565b60405180910390fd5b5f8111610c99576040517f08c379a0000000000000000000000000000000000000000000000000000000008152600401610c9090611ec7565b60405180910390fd5b806007541015610cde576040517f08c379a0000000000000000000000000000000000000000000000000000000008152600401610cd590611f2f565b60405180910390fd5b8060065f828254610cef9190612008565b925050819055508060015f3373ffffffffffffffffffffffffffffffffffffffff1673ffffffffffffffffffffffffffffffffffffffff1681526020019081526020015f205f828254610d429190612008565b925050819055505f60015f3373ffffffffffffffffffffffffffffffffffffffff1673ffffffffffffffffffffffffffffffffffffffff1681526020019081526020015f205403610de1575f805f3373ffffffffffffffffffffffffffffffffffffffff1673ffffffffffffffffffffffffffffffffffffffff1681526020019081526020015f205f6101000a81548160ff0219169083151502179055505b8060075f828254610df29190612008565b925050819055503373ffffffffffffffffffffffffffffffffffffffff166108fc8290811502906040515f60405180830381858888f19350505050158015610e3c573d5f803e3d5ffd5b5050565b60605f6001600954610e529190612008565b67ffffffffffffffff811115610e6b57610e6a61237c565b5b604051908082528060200260200182016040528015610ea457816020015b610e916117c0565b815260200190600190039081610e895790505b5090505f5b6009548110156110205760055f8281526020019081526020015f206040518060e00160405290815f8201548152602001600182018054610ee890611e4d565b80601f0160208091040260200160405190810160405280929190818152602001828054610f1490611e4d565b8015610f5f5780601f10610f3657610100808354040283529160200191610f5f565b820191905f5260205f20905b815481529060010190602001808311610f4257829003601f168201915b5050505050815260200160028201548152602001600382015f9054906101000a900473ffffffffffffffffffffffffffffffffffffffff1673ffffffffffffffffffffffffffffffffffffffff1673ffffffffffffffffffffffffffffffffffffffff1681526020016004820154815260200160058201548152602001600682015f9054906101000a900460ff161515151581525050828281518110611008576110076123a9565b5b60200260200101819052508080600101915050610ea9565b508091505090565b60065481565b60075481565b600c5f9054906101000a900473ffffffffffffffffffffffffffffffffffffffff1681565b6001602052805f5260405f205f915090505481565b600c5f9054906101000a900473ffffffffffffffffffffffffffffffffffffffff1673ffffffffffffffffffffffffffffffffffffffff163373ffffffffffffffffffffffffffffffffffffffff16146110fd576040517f08c379a00000000000000000000000000000000000000000000000000000000081526004016110f4906120b8565b60405180910390fd5b816007541015611142576040517f08c379a0000000000000000000000000000000000000000000000000000000008152600401611139906122f6565b60405180910390fd5b6040518060e00160405280600954815260200185858080601f0160208091040260200160405190810160405280939291908181526020018383808284375f81840152601f19601f8201169050808301925050505050505081526020018381526020018273ffffffffffffffffffffffffffffffffffffffff1681526020015f8152602001600a54426111d4919061203b565b81526020015f151581525060055f60095481526020019081526020015f205f820151815f0155602082015181600101908161120f9190612573565b50604082015181600201556060820151816003015f6101000a81548173ffffffffffffffffffffffffffffffffffffffff021916908373ffffffffffffffffffffffffffffffffffffffff1602179055506080820151816004015560a0820151816005015560c0820151816006015f6101000a81548160ff02191690831515021790555090505060095f8154809291906112a890612642565b919050555050505050565b600115155f803373ffffffffffffffffffffffffffffffffffffffff1673ffffffffffffffffffffffffffffffffffffffff1681526020019081526020015f205f9054906101000a900460ff16151514611342576040517f08c379a00000000000000000000000000000000000000000000000000000000081526004016113399061235e565b60405180910390fd5b5f8110158015611353575060095481105b611392576040517f08c379a000000000000000000000000000000000000000000000000000000000815260040161138990612120565b60405180910390fd5b5f151560025f3373ffffffffffffffffffffffffffffffffffffffff1673ffffffffffffffffffffffffffffffffffffffff1681526020019081526020015f205f8381526020019081526020015f205f9054906101000a900460ff16151514611430576040517f08c379a0000000000000000000000000000000000000000000000000000000008152600401611427906126d3565b60405180910390fd5b5f60055f8381526020019081526020015f209050428160050154101561148b576040517f08c379a00000000000000000000000000000000000000000000000000000000081526004016114829061273b565b60405180910390fd5b5f1515816006015f9054906101000a900460ff161515146114e1576040517f08c379a00000000000000000000000000000000000000000000000000000000081526004016114d89061228e565b60405180910390fd5b60015f3373ffffffffffffffffffffffffffffffffffffffff1673ffffffffffffffffffffffffffffffffffffffff1681526020019081526020015f2054816004015f828254611531919061203b565b92505081905550600160025f3373ffffffffffffffffffffffffffffffffffffffff1673ffffffffffffffffffffffffffffffffffffffff1681526020019081526020015f205f8481526020019081526020015f205f6101000a81548160ff0219169083151502179055505050565b6002602052815f5260405f20602052805f5260405f205f915091509054906101000a900460ff1681565b60085481565b600a5481565b6003602052815f5260405f20602052805f5260405f205f915091509054906101000a900460ff1681565b600854421115611645576040517f08c379a000000000000000000000000000000000000000000000000000000000815260040161163c906127a3565b60405180910390fd5b5f3411611687576040517f08c379a000000000000000000000000000000000000000000000000000000000815260040161167e90611ec7565b60405180910390fd5b60015f803373ffffffffffffffffffffffffffffffffffffffff1673ffffffffffffffffffffffffffffffffffffffff1681526020019081526020015f205f6101000a81548160ff0219169083151502179055503460015f3373ffffffffffffffffffffffffffffffffffffffff1673ffffffffffffffffffffffffffffffffffffffff1681526020019081526020015f205f828254611727919061203b565b925050819055503460065f82825461173f919061203b565b925050819055503460075f828254611757919061203b565b92505081905550600433908060018154018082558091505060019003905f5260205f20015f9091909190916101000a81548173ffffffffffffffffffffffffffffffffffffffff021916908373ffffffffffffffffffffffffffffffffffffffff160217905550565b6040518060e001604052805f8152602001606081526020015f81526020015f73ffffffffffffffffffffffffffffffffffffffff1681526020015f81526020015f81526020015f151581525090565b5f80fd5b5f80fd5b5f819050919050565b61182981611817565b8114611833575f80fd5b50565b5f8135905061184481611820565b92915050565b5f6020828403121561185f5761185e61180f565b5b5f61186c84828501611836565b91505092915050565b61187e81611817565b82525050565b5f81519050919050565b5f82825260208201905092915050565b8281835e5f83830152505050565b5f601f19601f8301169050919050565b5f6118c682611884565b6118d0818561188e565b93506118e081856020860161189e565b6118e9816118ac565b840191505092915050565b5f73ffffffffffffffffffffffffffffffffffffffff82169050919050565b5f61191d826118f4565b9050919050565b61192d81611913565b82525050565b5f8115159050919050565b61194781611933565b82525050565b5f60e0820190506119605f83018a611875565b818103602083015261197281896118bc565b90506119816040830188611875565b61198e6060830187611924565b61199b6080830186611875565b6119a860a0830185611875565b6119b560c083018461193e565b98975050505050505050565b5f6119cb826118f4565b9050919050565b6119db816119c1565b81146119e5575f80fd5b50565b5f813590506119f6816119d2565b92915050565b5f8060408385031215611a1257611a1161180f565b5b5f611a1f85828601611836565b9250506020611a30858286016119e8565b9150509250929050565b611a43816119c1565b82525050565b5f602082019050611a5c5f830184611a3a565b92915050565b5f602082019050611a755f830184611875565b92915050565b5f81519050919050565b5f82825260208201905092915050565b5f819050602082019050919050565b611aad81611817565b82525050565b5f82825260208201905092915050565b5f611acd82611884565b611ad78185611ab3565b9350611ae781856020860161189e565b611af0816118ac565b840191505092915050565b611b0481611913565b82525050565b611b1381611933565b82525050565b5f60e083015f830151611b2e5f860182611aa4565b5060208301518482036020860152611b468282611ac3565b9150506040830151611b5b6040860182611aa4565b506060830151611b6e6060860182611afb565b506080830151611b816080860182611aa4565b5060a0830151611b9460a0860182611aa4565b5060c0830151611ba760c0860182611b0a565b508091505092915050565b5f611bbd8383611b19565b905092915050565b5f602082019050919050565b5f611bdb82611a7b565b611be58185611a85565b935083602082028501611bf785611a95565b805f5b85811015611c325784840389528151611c138582611bb2565b9450611c1e83611bc5565b925060208a01995050600181019050611bfa565b50829750879550505050505092915050565b5f6020820190508181035f830152611c5c8184611bd1565b905092915050565b5f60208284031215611c7957611c7861180f565b5b5f611c86848285016119e8565b91505092915050565b5f80fd5b5f80fd5b5f80fd5b5f8083601f840112611cb057611caf611c8f565b5b8235905067ffffffffffffffff811115611ccd57611ccc611c93565b5b602083019150836001820283011115611ce957611ce8611c97565b5b9250929050565b611cf981611913565b8114611d03575f80fd5b50565b5f81359050611d1481611cf0565b92915050565b5f805f8060608587031215611d3257611d3161180f565b5b5f85013567ffffffffffffffff811115611d4f57611d4e611813565b5b611d5b87828801611c9b565b94509450506020611d6e87828801611836565b9250506040611d7f87828801611d06565b91505092959194509250565b5f8060408385031215611da157611da061180f565b5b5f611dae858286016119e8565b9250506020611dbf85828601611836565b9150509250929050565b5f602082019050611ddc5f83018461193e565b92915050565b5f8060408385031215611df857611df761180f565b5b5f611e05858286016119e8565b9250506020611e16858286016119e8565b9150509250929050565b7f4e487b71000000000000000000000000000000000000000000000000000000005f52602260045260245ffd5b5f6002820490506001821680611e6457607f821691505b602082108103611e7757611e76611e20565b5b50919050565b7f53656e64206d6f7265207468656e2030000000000000000000000000000000005f82015250565b5f611eb160108361188e565b9150611ebc82611e7d565b602082019050919050565b5f6020820190508181035f830152611ede81611ea5565b9050919050565b7f4e6f7420656e6f7567682066756e6473000000000000000000000000000000005f82015250565b5f611f1960108361188e565b9150611f2482611ee5565b602082019050919050565b5f6020820190508181035f830152611f4681611f0d565b9050919050565b7f596f752073686172657320617265206c657373207468616e2074686520616d6f5f8201527f756e740000000000000000000000000000000000000000000000000000000000602082015250565b5f611fa760238361188e565b9150611fb282611f4d565b604082019050919050565b5f6020820190508181035f830152611fd481611f9b565b9050919050565b7f4e487b71000000000000000000000000000000000000000000000000000000005f52601160045260245ffd5b5f61201282611817565b915061201d83611817565b925082820390508181111561203557612034611fdb565b5b92915050565b5f61204582611817565b915061205083611817565b925082820190508082111561206857612067611fdb565b5b92915050565b7f596f7520617265206e6f742061206d616e6167657200000000000000000000005f82015250565b5f6120a260158361188e565b91506120ad8261206e565b602082019050919050565b5f6020820190508181035f8301526120cf81612096565b9050919050565b7f496e76616c69642050726f706f73616c206964000000000000000000000000005f82015250565b5f61210a60138361188e565b9150612115826120d6565b602082019050919050565b5f6020820190508181035f830152612137816120fe565b9050919050565b5f61214882611817565b915061215383611817565b925082820261216181611817565b9150828204841483151761217857612177611fdb565b5b5092915050565b7f4e487b71000000000000000000000000000000000000000000000000000000005f52601260045260245ffd5b5f6121b682611817565b91506121c183611817565b9250826121d1576121d061217f565b5b828204905092915050565b7f4e6f204d616a6f7269747920766f7465730000000000000000000000000000005f82015250565b5f61221060118361188e565b915061221b826121dc565b602082019050919050565b5f6020820190508181035f83015261223d81612204565b9050919050565b7f416c7265616479204578656375746564000000000000000000000000000000005f82015250565b5f61227860108361188e565b915061228382612244565b602082019050919050565b5f6020820190508181035f8301526122a58161226c565b9050919050565b7f4e6f7420656e6f7567682066756e64732063757272656e746c790000000000005f82015250565b5f6122e0601a8361188e565b91506122eb826122ac565b602082019050919050565b5f6020820190508181035f83015261230d816122d4565b9050919050565b7f596f7520617265206e6f7420616e20496e766573746f722100000000000000005f82015250565b5f61234860188361188e565b915061235382612314565b602082019050919050565b5f6020820190508181035f8301526123758161233c565b9050919050565b7f4e487b71000000000000000000000000000000000000000000000000000000005f52604160045260245ffd5b7f4e487b71000000000000000000000000000000000000000000000000000000005f52603260045260245ffd5b5f819050815f5260205f209050919050565b5f6020601f8301049050919050565b5f82821b905092915050565b5f600883026124327fffffffffffffffffffffffffffffffffffffffffffffffffffffffffffffffff826123f7565b61243c86836123f7565b95508019841693508086168417925050509392505050565b5f819050919050565b5f61247761247261246d84611817565b612454565b611817565b9050919050565b5f819050919050565b6124908361245d565b6124a461249c8261247e565b848454612403565b825550505050565b5f90565b6124b86124ac565b6124c3818484612487565b505050565b5b818110156124e6576124db5f826124b0565b6001810190506124c9565b5050565b601f82111561252b576124fc816123d6565b612505846123e8565b81016020851015612514578190505b612528612520856123e8565b8301826124c8565b50505b505050565b5f82821c905092915050565b5f61254b5f1984600802612530565b1980831691505092915050565b5f612563838361253c565b9150826002028217905092915050565b61257c82611884565b67ffffffffffffffff8111156125955761259461237c565b5b61259f8254611e4d565b6125aa8282856124ea565b5f60209050601f8311600181146125db575f84156125c9578287015190505b6125d38582612558565b86555061263a565b601f1984166125e9866123d6565b5f5b82811015612610578489015182556001820191506020850194506020810190506125eb565b8683101561262d5784890151612629601f89168261253c565b8355505b6001600288020188555050505b505050505050565b5f61264c82611817565b91507fffffffffffffffffffffffffffffffffffffffffffffffffffffffffffffffff820361267e5761267d611fdb565b5b600182019050919050565b7f416c726561647920566f746564000000000000000000000000000000000000005f82015250565b5f6126bd600d8361188e565b91506126c882612689565b602082019050919050565b5f6020820190508181035f8301526126ea816126b1565b9050919050565b7f566f74696e6720706572696f64204f76657200000000000000000000000000005f82015250565b5f61272560128361188e565b9150612730826126f1565b602082019050919050565b5f6020820190508181035f83015261275281612719565b9050919050565b7f436f6e747269627574696f6e2054696d6520656e6465640000000000000000005f82015250565b5f61278d60178361188e565b915061279882612759565b602082019050919050565b5f6020820190508181035f8301526127ba81612781565b905091905056fea2646970667358221220819bd8ec129bfb214f57a729076e99b7eda659a42e39422b3f165d62e16389a064736f6c634300081a0033",
					"opcodes": "PUSH1 0x80 PUSH1 0x40 MSTORE CALLVALUE DUP1 ISZERO PUSH2 0xF JUMPI PUSH0 DUP1 REVERT JUMPDEST POP PUSH1 0x40 MLOAD PUSH2 0x2A4A CODESIZE SUB DUP1 PUSH2 0x2A4A DUP4 CODECOPY DUP2 DUP2 ADD PUSH1 0x40 MSTORE DUP2 ADD SWAP1 PUSH2 0x31 SWAP2 SWAP1 PUSH2 0x11E JUMP JUMPDEST PUSH0 DUP2 GT DUP1 ISZERO PUSH2 0x40 JUMPI POP PUSH1 0x64 DUP2 LT JUMPDEST PUSH2 0x7F JUMPI PUSH1 0x40 MLOAD PUSH32 0x8C379A000000000000000000000000000000000000000000000000000000000 DUP2 MSTORE PUSH1 0x4 ADD PUSH2 0x76 SWAP1 PUSH2 0x1C8 JUMP JUMPDEST PUSH1 0x40 MLOAD DUP1 SWAP2 SUB SWAP1 REVERT JUMPDEST DUP3 TIMESTAMP PUSH2 0x8B SWAP2 SWAP1 PUSH2 0x213 JUMP JUMPDEST PUSH1 0x8 DUP2 SWAP1 SSTORE POP DUP2 PUSH1 0xA DUP2 SWAP1 SSTORE POP DUP1 PUSH1 0xB DUP2 SWAP1 SSTORE POP CALLER PUSH1 0xC PUSH0 PUSH2 0x100 EXP DUP2 SLOAD DUP2 PUSH20 0xFFFFFFFFFFFFFFFFFFFFFFFFFFFFFFFFFFFFFFFF MUL NOT AND SWAP1 DUP4 PUSH20 0xFFFFFFFFFFFFFFFFFFFFFFFFFFFFFFFFFFFFFFFF AND MUL OR SWAP1 SSTORE POP POP POP POP PUSH2 0x246 JUMP JUMPDEST PUSH0 DUP1 REVERT JUMPDEST PUSH0 DUP2 SWAP1 POP SWAP2 SWAP1 POP JUMP JUMPDEST PUSH2 0xFD DUP2 PUSH2 0xEB JUMP JUMPDEST DUP2 EQ PUSH2 0x107 JUMPI PUSH0 DUP1 REVERT JUMPDEST POP JUMP JUMPDEST PUSH0 DUP2 MLOAD SWAP1 POP PUSH2 0x118 DUP2 PUSH2 0xF4 JUMP JUMPDEST SWAP3 SWAP2 POP POP JUMP JUMPDEST PUSH0 DUP1 PUSH0 PUSH1 0x60 DUP5 DUP7 SUB SLT ISZERO PUSH2 0x135 JUMPI PUSH2 0x134 PUSH2 0xE7 JUMP JUMPDEST JUMPDEST PUSH0 PUSH2 0x142 DUP7 DUP3 DUP8 ADD PUSH2 0x10A JUMP JUMPDEST SWAP4 POP POP PUSH1 0x20 PUSH2 0x153 DUP7 DUP3 DUP8 ADD PUSH2 0x10A JUMP JUMPDEST SWAP3 POP POP PUSH1 0x40 PUSH2 0x164 DUP7 DUP3 DUP8 ADD PUSH2 0x10A JUMP JUMPDEST SWAP2 POP POP SWAP3 POP SWAP3 POP SWAP3 JUMP JUMPDEST PUSH0 DUP3 DUP3 MSTORE PUSH1 0x20 DUP3 ADD SWAP1 POP SWAP3 SWAP2 POP POP JUMP JUMPDEST PUSH32 0x4E6F7420612056616C6964200000000000000000000000000000000000000000 PUSH0 DUP3 ADD MSTORE POP JUMP JUMPDEST PUSH0 PUSH2 0x1B2 PUSH1 0xC DUP4 PUSH2 0x16E JUMP JUMPDEST SWAP2 POP PUSH2 0x1BD DUP3 PUSH2 0x17E JUMP JUMPDEST PUSH1 0x20 DUP3 ADD SWAP1 POP SWAP2 SWAP1 POP JUMP JUMPDEST PUSH0 PUSH1 0x20 DUP3 ADD SWAP1 POP DUP2 DUP2 SUB PUSH0 DUP4 ADD MSTORE PUSH2 0x1DF DUP2 PUSH2 0x1A6 JUMP JUMPDEST SWAP1 POP SWAP2 SWAP1 POP JUMP JUMPDEST PUSH32 0x4E487B7100000000000000000000000000000000000000000000000000000000 PUSH0 MSTORE PUSH1 0x11 PUSH1 0x4 MSTORE PUSH1 0x24 PUSH0 REVERT JUMPDEST PUSH0 PUSH2 0x21D DUP3 PUSH2 0xEB JUMP JUMPDEST SWAP2 POP PUSH2 0x228 DUP4 PUSH2 0xEB JUMP JUMPDEST SWAP3 POP DUP3 DUP3 ADD SWAP1 POP DUP1 DUP3 GT ISZERO PUSH2 0x240 JUMPI PUSH2 0x23F PUSH2 0x1E6 JUMP JUMPDEST JUMPDEST SWAP3 SWAP2 POP POP JUMP JUMPDEST PUSH2 0x27F7 DUP1 PUSH2 0x253 PUSH0 CODECOPY PUSH0 RETURN INVALID PUSH1 0x80 PUSH1 0x40 MSTORE PUSH1 0x4 CALLDATASIZE LT PUSH2 0x113 JUMPI PUSH0 CALLDATALOAD PUSH1 0xE0 SHR DUP1 PUSH4 0x46FCFF4C GT PUSH2 0x9F JUMPI DUP1 PUSH4 0x8EE36F05 GT PUSH2 0x63 JUMPI DUP1 PUSH4 0x8EE36F05 EQ PUSH2 0x395 JUMPI DUP1 PUSH4 0xAFC8275B EQ PUSH2 0x3D1 JUMPI DUP1 PUSH4 0xBCF93DD6 EQ PUSH2 0x3FB JUMPI DUP1 PUSH4 0xDD5FEE6F EQ PUSH2 0x425 JUMPI DUP1 PUSH4 0xFB65E4B1 EQ PUSH2 0x461 JUMPI PUSH2 0x113 JUMP JUMPDEST DUP1 PUSH4 0x46FCFF4C EQ PUSH2 0x2B5 JUMPI DUP1 PUSH4 0x481C6A75 EQ PUSH2 0x2DF JUMPI DUP1 PUSH4 0x6A907803 EQ PUSH2 0x309 JUMPI DUP1 PUSH4 0x6AC1E01F EQ PUSH2 0x345 JUMPI DUP1 PUSH4 0x807896D5 EQ PUSH2 0x36D JUMPI PUSH2 0x113 JUMP JUMPDEST DUP1 PUSH4 0x1703A018 GT PUSH2 0xE6 JUMPI DUP1 PUSH4 0x1703A018 EQ PUSH2 0x1E5 JUMPI DUP1 PUSH4 0x2AB09D14 EQ PUSH2 0x20F JUMPI DUP1 PUSH4 0x3551336F EQ PUSH2 0x239 JUMPI DUP1 PUSH4 0x39977842 EQ PUSH2 0x261 JUMPI DUP1 PUSH4 0x3A98EF39 EQ PUSH2 0x28B JUMPI PUSH2 0x113 JUMP JUMPDEST DUP1 PUSH4 0x13CF08B EQ PUSH2 0x117 JUMPI DUP1 PUSH4 0x39383E6 EQ PUSH2 0x159 JUMPI DUP1 PUSH4 0xD61B519 EQ PUSH2 0x181 JUMPI DUP1 PUSH4 0x12F9B48E EQ PUSH2 0x1A9 JUMPI JUMPDEST PUSH0 DUP1 REVERT JUMPDEST CALLVALUE DUP1 ISZERO PUSH2 0x122 JUMPI PUSH0 DUP1 REVERT JUMPDEST POP PUSH2 0x13D PUSH1 0x4 DUP1 CALLDATASIZE SUB DUP2 ADD SWAP1 PUSH2 0x138 SWAP2 SWAP1 PUSH2 0x184A JUMP JUMPDEST PUSH2 0x46B JUMP JUMPDEST PUSH1 0x40 MLOAD PUSH2 0x150 SWAP8 SWAP7 SWAP6 SWAP5 SWAP4 SWAP3 SWAP2 SWAP1 PUSH2 0x194D JUMP JUMPDEST PUSH1 0x40 MLOAD DUP1 SWAP2 SUB SWAP1 RETURN JUMPDEST CALLVALUE DUP1 ISZERO PUSH2 0x164 JUMPI PUSH0 DUP1 REVERT JUMPDEST POP PUSH2 0x17F PUSH1 0x4 DUP1 CALLDATASIZE SUB DUP2 ADD SWAP1 PUSH2 0x17A SWAP2 SWAP1 PUSH2 0x19FC JUMP JUMPDEST PUSH2 0x55A JUMP JUMPDEST STOP JUMPDEST CALLVALUE DUP1 ISZERO PUSH2 0x18C JUMPI PUSH0 DUP1 REVERT JUMPDEST POP PUSH2 0x1A7 PUSH1 0x4 DUP1 CALLDATASIZE SUB DUP2 ADD SWAP1 PUSH2 0x1A2 SWAP2 SWAP1 PUSH2 0x184A JUMP JUMPDEST PUSH2 0x86F JUMP JUMPDEST STOP JUMPDEST CALLVALUE DUP1 ISZERO PUSH2 0x1B4 JUMPI PUSH0 DUP1 REVERT JUMPDEST POP PUSH2 0x1CF PUSH1 0x4 DUP1 CALLDATASIZE SUB DUP2 ADD SWAP1 PUSH2 0x1CA SWAP2 SWAP1 PUSH2 0x184A JUMP JUMPDEST PUSH2 0xB01 JUMP JUMPDEST PUSH1 0x40 MLOAD PUSH2 0x1DC SWAP2 SWAP1 PUSH2 0x1A49 JUMP JUMPDEST PUSH1 0x40 MLOAD DUP1 SWAP2 SUB SWAP1 RETURN JUMPDEST CALLVALUE DUP1 ISZERO PUSH2 0x1F0 JUMPI PUSH0 DUP1 REVERT JUMPDEST POP PUSH2 0x1F9 PUSH2 0xB3C JUMP JUMPDEST PUSH1 0x40 MLOAD PUSH2 0x206 SWAP2 SWAP1 PUSH2 0x1A62 JUMP JUMPDEST PUSH1 0x40 MLOAD DUP1 SWAP2 SUB SWAP1 RETURN JUMPDEST CALLVALUE DUP1 ISZERO PUSH2 0x21A JUMPI PUSH0 DUP1 REVERT JUMPDEST POP PUSH2 0x223 PUSH2 0xB42 JUMP JUMPDEST PUSH1 0x40 MLOAD PUSH2 0x230 SWAP2 SWAP1 PUSH2 0x1A62 JUMP JUMPDEST PUSH1 0x40 MLOAD DUP1 SWAP2 SUB SWAP1 RETURN JUMPDEST CALLVALUE DUP1 ISZERO PUSH2 0x244 JUMPI PUSH0 DUP1 REVERT JUMPDEST POP PUSH2 0x25F PUSH1 0x4 DUP1 CALLDATASIZE SUB DUP2 ADD SWAP1 PUSH2 0x25A SWAP2 SWAP1 PUSH2 0x184A JUMP JUMPDEST PUSH2 0xB48 JUMP JUMPDEST STOP JUMPDEST CALLVALUE DUP1 ISZERO PUSH2 0x26C JUMPI PUSH0 DUP1 REVERT JUMPDEST POP PUSH2 0x275 PUSH2 0xE40 JUMP JUMPDEST PUSH1 0x40 MLOAD PUSH2 0x282 SWAP2 SWAP1 PUSH2 0x1C44 JUMP JUMPDEST PUSH1 0x40 MLOAD DUP1 SWAP2 SUB SWAP1 RETURN JUMPDEST CALLVALUE DUP1 ISZERO PUSH2 0x296 JUMPI PUSH0 DUP1 REVERT JUMPDEST POP PUSH2 0x29F PUSH2 0x1028 JUMP JUMPDEST PUSH1 0x40 MLOAD PUSH2 0x2AC SWAP2 SWAP1 PUSH2 0x1A62 JUMP JUMPDEST PUSH1 0x40 MLOAD DUP1 SWAP2 SUB SWAP1 RETURN JUMPDEST CALLVALUE DUP1 ISZERO PUSH2 0x2C0 JUMPI PUSH0 DUP1 REVERT JUMPDEST POP PUSH2 0x2C9 PUSH2 0x102E JUMP JUMPDEST PUSH1 0x40 MLOAD PUSH2 0x2D6 SWAP2 SWAP1 PUSH2 0x1A62 JUMP JUMPDEST PUSH1 0x40 MLOAD DUP1 SWAP2 SUB SWAP1 RETURN JUMPDEST CALLVALUE DUP1 ISZERO PUSH2 0x2EA JUMPI PUSH0 DUP1 REVERT JUMPDEST POP PUSH2 0x2F3 PUSH2 0x1034 JUMP JUMPDEST PUSH1 0x40 MLOAD PUSH2 0x300 SWAP2 SWAP1 PUSH2 0x1A49 JUMP JUMPDEST PUSH1 0x40 MLOAD DUP1 SWAP2 SUB SWAP1 RETURN JUMPDEST CALLVALUE DUP1 ISZERO PUSH2 0x314 JUMPI PUSH0 DUP1 REVERT JUMPDEST POP PUSH2 0x32F PUSH1 0x4 DUP1 CALLDATASIZE SUB DUP2 ADD SWAP1 PUSH2 0x32A SWAP2 SWAP1 PUSH2 0x1C64 JUMP JUMPDEST PUSH2 0x1059 JUMP JUMPDEST PUSH1 0x40 MLOAD PUSH2 0x33C SWAP2 SWAP1 PUSH2 0x1A62 JUMP JUMPDEST PUSH1 0x40 MLOAD DUP1 SWAP2 SUB SWAP1 RETURN JUMPDEST CALLVALUE DUP1 ISZERO PUSH2 0x350 JUMPI PUSH0 DUP1 REVERT JUMPDEST POP PUSH2 0x36B PUSH1 0x4 DUP1 CALLDATASIZE SUB DUP2 ADD SWAP1 PUSH2 0x366 SWAP2 SWAP1 PUSH2 0x1D1A JUMP JUMPDEST PUSH2 0x106E JUMP JUMPDEST STOP JUMPDEST CALLVALUE DUP1 ISZERO PUSH2 0x378 JUMPI PUSH0 DUP1 REVERT JUMPDEST POP PUSH2 0x393 PUSH1 0x4 DUP1 CALLDATASIZE SUB DUP2 ADD SWAP1 PUSH2 0x38E SWAP2 SWAP1 PUSH2 0x184A JUMP JUMPDEST PUSH2 0x12B3 JUMP JUMPDEST STOP JUMPDEST CALLVALUE DUP1 ISZERO PUSH2 0x3A0 JUMPI PUSH0 DUP1 REVERT JUMPDEST POP PUSH2 0x3BB PUSH1 0x4 DUP1 CALLDATASIZE SUB DUP2 ADD SWAP1 PUSH2 0x3B6 SWAP2 SWAP1 PUSH2 0x1D8B JUMP JUMPDEST PUSH2 0x15A0 JUMP JUMPDEST PUSH1 0x40 MLOAD PUSH2 0x3C8 SWAP2 SWAP1 PUSH2 0x1DC9 JUMP JUMPDEST PUSH1 0x40 MLOAD DUP1 SWAP2 SUB SWAP1 RETURN JUMPDEST CALLVALUE DUP1 ISZERO PUSH2 0x3DC JUMPI PUSH0 DUP1 REVERT JUMPDEST POP PUSH2 0x3E5 PUSH2 0x15CA JUMP JUMPDEST PUSH1 0x40 MLOAD PUSH2 0x3F2 SWAP2 SWAP1 PUSH2 0x1A62 JUMP JUMPDEST PUSH1 0x40 MLOAD DUP1 SWAP2 SUB SWAP1 RETURN JUMPDEST CALLVALUE DUP1 ISZERO PUSH2 0x406 JUMPI PUSH0 DUP1 REVERT JUMPDEST POP PUSH2 0x40F PUSH2 0x15D0 JUMP JUMPDEST PUSH1 0x40 MLOAD PUSH2 0x41C SWAP2 SWAP1 PUSH2 0x1A62 JUMP JUMPDEST PUSH1 0x40 MLOAD DUP1 SWAP2 SUB SWAP1 RETURN JUMPDEST CALLVALUE DUP1 ISZERO PUSH2 0x430 JUMPI PUSH0 DUP1 REVERT JUMPDEST POP PUSH2 0x44B PUSH1 0x4 DUP1 CALLDATASIZE SUB DUP2 ADD SWAP1 PUSH2 0x446 SWAP2 SWAP1 PUSH2 0x1DE2 JUMP JUMPDEST PUSH2 0x15D6 JUMP JUMPDEST PUSH1 0x40 MLOAD PUSH2 0x458 SWAP2 SWAP1 PUSH2 0x1DC9 JUMP JUMPDEST PUSH1 0x40 MLOAD DUP1 SWAP2 SUB SWAP1 RETURN JUMPDEST PUSH2 0x469 PUSH2 0x1600 JUMP JUMPDEST STOP JUMPDEST PUSH1 0x5 PUSH1 0x20 MSTORE DUP1 PUSH0 MSTORE PUSH1 0x40 PUSH0 KECCAK256 PUSH0 SWAP2 POP SWAP1 POP DUP1 PUSH0 ADD SLOAD SWAP1 DUP1 PUSH1 0x1 ADD DUP1 SLOAD PUSH2 0x490 SWAP1 PUSH2 0x1E4D JUMP JUMPDEST DUP1 PUSH1 0x1F ADD PUSH1 0x20 DUP1 SWAP2 DIV MUL PUSH1 0x20 ADD PUSH1 0x40 MLOAD SWAP1 DUP2 ADD PUSH1 0x40 MSTORE DUP1 SWAP3 SWAP2 SWAP1 DUP2 DUP2 MSTORE PUSH1 0x20 ADD DUP3 DUP1 SLOAD PUSH2 0x4BC SWAP1 PUSH2 0x1E4D JUMP JUMPDEST DUP1 ISZERO PUSH2 0x507 JUMPI DUP1 PUSH1 0x1F LT PUSH2 0x4DE JUMPI PUSH2 0x100 DUP1 DUP4 SLOAD DIV MUL DUP4 MSTORE SWAP2 PUSH1 0x20 ADD SWAP2 PUSH2 0x507 JUMP JUMPDEST DUP3 ADD SWAP2 SWAP1 PUSH0 MSTORE PUSH1 0x20 PUSH0 KECCAK256 SWAP1 JUMPDEST DUP2 SLOAD DUP2 MSTORE SWAP1 PUSH1 0x1 ADD SWAP1 PUSH1 0x20 ADD DUP1 DUP4 GT PUSH2 0x4EA JUMPI DUP3 SWAP1 SUB PUSH1 0x1F AND DUP3 ADD SWAP2 JUMPDEST POP POP POP POP POP SWAP1 DUP1 PUSH1 0x2 ADD SLOAD SWAP1 DUP1 PUSH1 0x3 ADD PUSH0 SWAP1 SLOAD SWAP1 PUSH2 0x100 EXP SWAP1 DIV PUSH20 0xFFFFFFFFFFFFFFFFFFFFFFFFFFFFFFFFFFFFFFFF AND SWAP1 DUP1 PUSH1 0x4 ADD SLOAD SWAP1 DUP1 PUSH1 0x5 ADD SLOAD SWAP1 DUP1 PUSH1 0x6 ADD PUSH0 SWAP1 SLOAD SWAP1 PUSH2 0x100 EXP SWAP1 DIV PUSH1 0xFF AND SWAP1 POP DUP8 JUMP JUMPDEST PUSH0 DUP3 GT PUSH2 0x59C JUMPI PUSH1 0x40 MLOAD PUSH32 0x8C379A000000000000000000000000000000000000000000000000000000000 DUP2 MSTORE PUSH1 0x4 ADD PUSH2 0x593 SWAP1 PUSH2 0x1EC7 JUMP JUMPDEST PUSH1 0x40 MLOAD DUP1 SWAP2 SUB SWAP1 REVERT JUMPDEST DUP2 PUSH1 0x7 SLOAD LT ISZERO PUSH2 0x5E1 JUMPI PUSH1 0x40 MLOAD PUSH32 0x8C379A000000000000000000000000000000000000000000000000000000000 DUP2 MSTORE PUSH1 0x4 ADD PUSH2 0x5D8 SWAP1 PUSH2 0x1F2F JUMP JUMPDEST PUSH1 0x40 MLOAD DUP1 SWAP2 SUB SWAP1 REVERT JUMPDEST PUSH1 0x1 PUSH0 CALLER PUSH20 0xFFFFFFFFFFFFFFFFFFFFFFFFFFFFFFFFFFFFFFFF AND PUSH20 0xFFFFFFFFFFFFFFFFFFFFFFFFFFFFFFFFFFFFFFFF AND DUP2 MSTORE PUSH1 0x20 ADD SWAP1 DUP2 MSTORE PUSH1 0x20 ADD PUSH0 KECCAK256 SLOAD DUP3 GT ISZERO PUSH2 0x661 JUMPI PUSH1 0x40 MLOAD PUSH32 0x8C379A000000000000000000000000000000000000000000000000000000000 DUP2 MSTORE PUSH1 0x4 ADD PUSH2 0x658 SWAP1 PUSH2 0x1FBD JUMP JUMPDEST PUSH1 0x40 MLOAD DUP1 SWAP2 SUB SWAP1 REVERT JUMPDEST DUP2 PUSH1 0x6 PUSH0 DUP3 DUP3 SLOAD PUSH2 0x672 SWAP2 SWAP1 PUSH2 0x2008 JUMP JUMPDEST SWAP3 POP POP DUP2 SWAP1 SSTORE POP DUP2 PUSH1 0x1 PUSH0 CALLER PUSH20 0xFFFFFFFFFFFFFFFFFFFFFFFFFFFFFFFFFFFFFFFF AND PUSH20 0xFFFFFFFFFFFFFFFFFFFFFFFFFFFFFFFFFFFFFFFF AND DUP2 MSTORE PUSH1 0x20 ADD SWAP1 DUP2 MSTORE PUSH1 0x20 ADD PUSH0 KECCAK256 PUSH0 DUP3 DUP3 SLOAD PUSH2 0x6C5 SWAP2 SWAP1 PUSH2 0x2008 JUMP JUMPDEST SWAP3 POP POP DUP2 SWAP1 SSTORE POP DUP2 PUSH1 0x1 PUSH0 DUP4 PUSH20 0xFFFFFFFFFFFFFFFFFFFFFFFFFFFFFFFFFFFFFFFF AND PUSH20 0xFFFFFFFFFFFFFFFFFFFFFFFFFFFFFFFFFFFFFFFF AND DUP2 MSTORE PUSH1 0x20 ADD SWAP1 DUP2 MSTORE PUSH1 0x20 ADD PUSH0 KECCAK256 PUSH0 DUP3 DUP3 SLOAD PUSH2 0x718 SWAP2 SWAP1 PUSH2 0x203B JUMP JUMPDEST SWAP3 POP POP DUP2 SWAP1 SSTORE POP PUSH0 PUSH1 0x1 PUSH0 CALLER PUSH20 0xFFFFFFFFFFFFFFFFFFFFFFFFFFFFFFFFFFFFFFFF AND PUSH20 0xFFFFFFFFFFFFFFFFFFFFFFFFFFFFFFFFFFFFFFFF AND DUP2 MSTORE PUSH1 0x20 ADD SWAP1 DUP2 MSTORE PUSH1 0x20 ADD PUSH0 KECCAK256 SLOAD SUB PUSH2 0x7B7 JUMPI PUSH0 DUP1 PUSH0 CALLER PUSH20 0xFFFFFFFFFFFFFFFFFFFFFFFFFFFFFFFFFFFFFFFF AND PUSH20 0xFFFFFFFFFFFFFFFFFFFFFFFFFFFFFFFFFFFFFFFF AND DUP2 MSTORE PUSH1 0x20 ADD SWAP1 DUP2 MSTORE PUSH1 0x20 ADD PUSH0 KECCAK256 PUSH0 PUSH2 0x100 EXP DUP2 SLOAD DUP2 PUSH1 0xFF MUL NOT AND SWAP1 DUP4 ISZERO ISZERO MUL OR SWAP1 SSTORE POP JUMPDEST PUSH1 0x1 PUSH0 DUP1 DUP4 PUSH20 0xFFFFFFFFFFFFFFFFFFFFFFFFFFFFFFFFFFFFFFFF AND PUSH20 0xFFFFFFFFFFFFFFFFFFFFFFFFFFFFFFFFFFFFFFFF AND DUP2 MSTORE PUSH1 0x20 ADD SWAP1 DUP2 MSTORE PUSH1 0x20 ADD PUSH0 KECCAK256 PUSH0 PUSH2 0x100 EXP DUP2 SLOAD DUP2 PUSH1 0xFF MUL NOT AND SWAP1 DUP4 ISZERO ISZERO MUL OR SWAP1 SSTORE POP PUSH1 0x4 DUP2 SWAP1 DUP1 PUSH1 0x1 DUP2 SLOAD ADD DUP1 DUP3 SSTORE DUP1 SWAP2 POP POP PUSH1 0x1 SWAP1 SUB SWAP1 PUSH0 MSTORE PUSH1 0x20 PUSH0 KECCAK256 ADD PUSH0 SWAP1 SWAP2 SWAP1 SWAP2 SWAP1 SWAP2 PUSH2 0x100 EXP DUP2 SLOAD DUP2 PUSH20 0xFFFFFFFFFFFFFFFFFFFFFFFFFFFFFFFFFFFFFFFF MUL NOT AND SWAP1 DUP4 PUSH20 0xFFFFFFFFFFFFFFFFFFFFFFFFFFFFFFFFFFFFFFFF AND MUL OR SWAP1 SSTORE POP POP POP JUMP JUMPDEST PUSH1 0xC PUSH0 SWAP1 SLOAD SWAP1 PUSH2 0x100 EXP SWAP1 DIV PUSH20 0xFFFFFFFFFFFFFFFFFFFFFFFFFFFFFFFFFFFFFFFF AND PUSH20 0xFFFFFFFFFFFFFFFFFFFFFFFFFFFFFFFFFFFFFFFF AND CALLER PUSH20 0xFFFFFFFFFFFFFFFFFFFFFFFFFFFFFFFFFFFFFFFF AND EQ PUSH2 0x8FE JUMPI PUSH1 0x40 MLOAD PUSH32 0x8C379A000000000000000000000000000000000000000000000000000000000 DUP2 MSTORE PUSH1 0x4 ADD PUSH2 0x8F5 SWAP1 PUSH2 0x20B8 JUMP JUMPDEST PUSH1 0x40 MLOAD DUP1 SWAP2 SUB SWAP1 REVERT JUMPDEST PUSH0 DUP2 LT ISZERO DUP1 ISZERO PUSH2 0x90F JUMPI POP PUSH1 0x9 SLOAD DUP2 LT JUMPDEST PUSH2 0x94E JUMPI PUSH1 0x40 MLOAD PUSH32 0x8C379A000000000000000000000000000000000000000000000000000000000 DUP2 MSTORE PUSH1 0x4 ADD PUSH2 0x945 SWAP1 PUSH2 0x2120 JUMP JUMPDEST PUSH1 0x40 MLOAD DUP1 SWAP2 SUB SWAP1 REVERT JUMPDEST PUSH0 PUSH1 0x5 PUSH0 DUP4 DUP2 MSTORE PUSH1 0x20 ADD SWAP1 DUP2 MSTORE PUSH1 0x20 ADD PUSH0 KECCAK256 SWAP1 POP PUSH1 0x33 PUSH1 0x6 SLOAD PUSH1 0x64 DUP4 PUSH1 0x4 ADD SLOAD PUSH2 0x978 SWAP2 SWAP1 PUSH2 0x213E JUMP JUMPDEST PUSH2 0x982 SWAP2 SWAP1 PUSH2 0x21AC JUMP JUMPDEST LT ISZERO PUSH2 0x9C3 JUMPI PUSH1 0x40 MLOAD PUSH32 0x8C379A000000000000000000000000000000000000000000000000000000000 DUP2 MSTORE PUSH1 0x4 ADD PUSH2 0x9BA SWAP1 PUSH2 0x2226 JUMP JUMPDEST PUSH1 0x40 MLOAD DUP1 SWAP2 SUB SWAP1 REVERT JUMPDEST PUSH0 ISZERO ISZERO DUP2 PUSH1 0x6 ADD PUSH0 SWAP1 SLOAD SWAP1 PUSH2 0x100 EXP SWAP1 DIV PUSH1 0xFF AND ISZERO ISZERO EQ PUSH2 0xA19 JUMPI PUSH1 0x40 MLOAD PUSH32 0x8C379A000000000000000000000000000000000000000000000000000000000 DUP2 MSTORE PUSH1 0x4 ADD PUSH2 0xA10 SWAP1 PUSH2 0x228E JUMP JUMPDEST PUSH1 0x40 MLOAD DUP1 SWAP2 SUB SWAP1 REVERT JUMPDEST DUP1 PUSH1 0x2 ADD SLOAD PUSH1 0x7 SLOAD LT ISZERO PUSH2 0xA62 JUMPI PUSH1 0x40 MLOAD PUSH32 0x8C379A000000000000000000000000000000000000000000000000000000000 DUP2 MSTORE PUSH1 0x4 ADD PUSH2 0xA59 SWAP1 PUSH2 0x22F6 JUMP JUMPDEST PUSH1 0x40 MLOAD DUP1 SWAP2 SUB SWAP1 REVERT JUMPDEST DUP1 PUSH1 0x3 ADD PUSH0 SWAP1 SLOAD SWAP1 PUSH2 0x100 EXP SWAP1 DIV PUSH20 0xFFFFFFFFFFFFFFFFFFFFFFFFFFFFFFFFFFFFFFFF AND PUSH20 0xFFFFFFFFFFFFFFFFFFFFFFFFFFFFFFFFFFFFFFFF AND PUSH2 0x8FC DUP3 PUSH1 0x2 ADD SLOAD SWAP1 DUP2 ISZERO MUL SWAP1 PUSH1 0x40 MLOAD PUSH0 PUSH1 0x40 MLOAD DUP1 DUP4 SUB DUP2 DUP6 DUP9 DUP9 CALL SWAP4 POP POP POP POP ISZERO DUP1 ISZERO PUSH2 0xACC JUMPI RETURNDATASIZE PUSH0 DUP1 RETURNDATACOPY RETURNDATASIZE PUSH0 REVERT JUMPDEST POP PUSH1 0x1 ISZERO ISZERO DUP2 PUSH1 0x6 ADD PUSH0 SWAP1 SLOAD SWAP1 PUSH2 0x100 EXP SWAP1 POP POP POP DUP1 PUSH1 0x2 ADD SLOAD PUSH1 0x7 PUSH0 DUP3 DUP3 SLOAD PUSH2 0xAF6 SWAP2 SWAP1 PUSH2 0x2008 JUMP JUMPDEST SWAP3 POP POP DUP2 SWAP1 SSTORE POP POP POP JUMP JUMPDEST PUSH1 0x4 DUP2 DUP2 SLOAD DUP2 LT PUSH2 0xB10 JUMPI PUSH0 DUP1 REVERT JUMPDEST SWAP1 PUSH0 MSTORE PUSH1 0x20 PUSH0 KECCAK256 ADD PUSH0 SWAP2 POP SLOAD SWAP1 PUSH2 0x100 EXP SWAP1 DIV PUSH20 0xFFFFFFFFFFFFFFFFFFFFFFFFFFFFFFFFFFFFFFFF AND DUP2 JUMP JUMPDEST PUSH1 0xB SLOAD DUP2 JUMP JUMPDEST PUSH1 0x9 SLOAD DUP2 JUMP JUMPDEST PUSH1 0x1 ISZERO ISZERO PUSH0 DUP1 CALLER PUSH20 0xFFFFFFFFFFFFFFFFFFFFFFFFFFFFFFFFFFFFFFFF AND PUSH20 0xFFFFFFFFFFFFFFFFFFFFFFFFFFFFFFFFFFFFFFFF AND DUP2 MSTORE PUSH1 0x20 ADD SWAP1 DUP2 MSTORE PUSH1 0x20 ADD PUSH0 KECCAK256 PUSH0 SWAP1 SLOAD SWAP1 PUSH2 0x100 EXP SWAP1 DIV PUSH1 0xFF AND ISZERO ISZERO EQ PUSH2 0xBD7 JUMPI PUSH1 0x40 MLOAD PUSH32 0x8C379A000000000000000000000000000000000000000000000000000000000 DUP2 MSTORE PUSH1 0x4 ADD PUSH2 0xBCE SWAP1 PUSH2 0x235E JUMP JUMPDEST PUSH1 0x40 MLOAD DUP1 SWAP2 SUB SWAP1 REVERT JUMPDEST PUSH1 0x1 PUSH0 CALLER PUSH20 0xFFFFFFFFFFFFFFFFFFFFFFFFFFFFFFFFFFFFFFFF AND PUSH20 0xFFFFFFFFFFFFFFFFFFFFFFFFFFFFFFFFFFFFFFFF AND DUP2 MSTORE PUSH1 0x20 ADD SWAP1 DUP2 MSTORE PUSH1 0x20 ADD PUSH0 KECCAK256 SLOAD DUP2 GT ISZERO PUSH2 0xC57 JUMPI PUSH1 0x40 MLOAD PUSH32 0x8C379A000000000000000000000000000000000000000000000000000000000 DUP2 MSTORE PUSH1 0x4 ADD PUSH2 0xC4E SWAP1 PUSH2 0x1FBD JUMP JUMPDEST PUSH1 0x40 MLOAD DUP1 SWAP2 SUB SWAP1 REVERT JUMPDEST PUSH0 DUP2 GT PUSH2 0xC99 JUMPI PUSH1 0x40 MLOAD PUSH32 0x8C379A000000000000000000000000000000000000000000000000000000000 DUP2 MSTORE PUSH1 0x4 ADD PUSH2 0xC90 SWAP1 PUSH2 0x1EC7 JUMP JUMPDEST PUSH1 0x40 MLOAD DUP1 SWAP2 SUB SWAP1 REVERT JUMPDEST DUP1 PUSH1 0x7 SLOAD LT ISZERO PUSH2 0xCDE JUMPI PUSH1 0x40 MLOAD PUSH32 0x8C379A000000000000000000000000000000000000000000000000000000000 DUP2 MSTORE PUSH1 0x4 ADD PUSH2 0xCD5 SWAP1 PUSH2 0x1F2F JUMP JUMPDEST PUSH1 0x40 MLOAD DUP1 SWAP2 SUB SWAP1 REVERT JUMPDEST DUP1 PUSH1 0x6 PUSH0 DUP3 DUP3 SLOAD PUSH2 0xCEF SWAP2 SWAP1 PUSH2 0x2008 JUMP JUMPDEST SWAP3 POP POP DUP2 SWAP1 SSTORE POP DUP1 PUSH1 0x1 PUSH0 CALLER PUSH20 0xFFFFFFFFFFFFFFFFFFFFFFFFFFFFFFFFFFFFFFFF AND PUSH20 0xFFFFFFFFFFFFFFFFFFFFFFFFFFFFFFFFFFFFFFFF AND DUP2 MSTORE PUSH1 0x20 ADD SWAP1 DUP2 MSTORE PUSH1 0x20 ADD PUSH0 KECCAK256 PUSH0 DUP3 DUP3 SLOAD PUSH2 0xD42 SWAP2 SWAP1 PUSH2 0x2008 JUMP JUMPDEST SWAP3 POP POP DUP2 SWAP1 SSTORE POP PUSH0 PUSH1 0x1 PUSH0 CALLER PUSH20 0xFFFFFFFFFFFFFFFFFFFFFFFFFFFFFFFFFFFFFFFF AND PUSH20 0xFFFFFFFFFFFFFFFFFFFFFFFFFFFFFFFFFFFFFFFF AND DUP2 MSTORE PUSH1 0x20 ADD SWAP1 DUP2 MSTORE PUSH1 0x20 ADD PUSH0 KECCAK256 SLOAD SUB PUSH2 0xDE1 JUMPI PUSH0 DUP1 PUSH0 CALLER PUSH20 0xFFFFFFFFFFFFFFFFFFFFFFFFFFFFFFFFFFFFFFFF AND PUSH20 0xFFFFFFFFFFFFFFFFFFFFFFFFFFFFFFFFFFFFFFFF AND DUP2 MSTORE PUSH1 0x20 ADD SWAP1 DUP2 MSTORE PUSH1 0x20 ADD PUSH0 KECCAK256 PUSH0 PUSH2 0x100 EXP DUP2 SLOAD DUP2 PUSH1 0xFF MUL NOT AND SWAP1 DUP4 ISZERO ISZERO MUL OR SWAP1 SSTORE POP JUMPDEST DUP1 PUSH1 0x7 PUSH0 DUP3 DUP3 SLOAD PUSH2 0xDF2 SWAP2 SWAP1 PUSH2 0x2008 JUMP JUMPDEST SWAP3 POP POP DUP2 SWAP1 SSTORE POP CALLER PUSH20 0xFFFFFFFFFFFFFFFFFFFFFFFFFFFFFFFFFFFFFFFF AND PUSH2 0x8FC DUP3 SWAP1 DUP2 ISZERO MUL SWAP1 PUSH1 0x40 MLOAD PUSH0 PUSH1 0x40 MLOAD DUP1 DUP4 SUB DUP2 DUP6 DUP9 DUP9 CALL SWAP4 POP POP POP POP ISZERO DUP1 ISZERO PUSH2 0xE3C JUMPI RETURNDATASIZE PUSH0 DUP1 RETURNDATACOPY RETURNDATASIZE PUSH0 REVERT JUMPDEST POP POP JUMP JUMPDEST PUSH1 0x60 PUSH0 PUSH1 0x1 PUSH1 0x9 SLOAD PUSH2 0xE52 SWAP2 SWAP1 PUSH2 0x2008 JUMP JUMPDEST PUSH8 0xFFFFFFFFFFFFFFFF DUP2 GT ISZERO PUSH2 0xE6B JUMPI PUSH2 0xE6A PUSH2 0x237C JUMP JUMPDEST JUMPDEST PUSH1 0x40 MLOAD SWAP1 DUP1 DUP3 MSTORE DUP1 PUSH1 0x20 MUL PUSH1 0x20 ADD DUP3 ADD PUSH1 0x40 MSTORE DUP1 ISZERO PUSH2 0xEA4 JUMPI DUP2 PUSH1 0x20 ADD JUMPDEST PUSH2 0xE91 PUSH2 0x17C0 JUMP JUMPDEST DUP2 MSTORE PUSH1 0x20 ADD SWAP1 PUSH1 0x1 SWAP1 SUB SWAP1 DUP2 PUSH2 0xE89 JUMPI SWAP1 POP JUMPDEST POP SWAP1 POP PUSH0 JUMPDEST PUSH1 0x9 SLOAD DUP2 LT ISZERO PUSH2 0x1020 JUMPI PUSH1 0x5 PUSH0 DUP3 DUP2 MSTORE PUSH1 0x20 ADD SWAP1 DUP2 MSTORE PUSH1 0x20 ADD PUSH0 KECCAK256 PUSH1 0x40 MLOAD DUP1 PUSH1 0xE0 ADD PUSH1 0x40 MSTORE SWAP1 DUP2 PUSH0 DUP3 ADD SLOAD DUP2 MSTORE PUSH1 0x20 ADD PUSH1 0x1 DUP3 ADD DUP1 SLOAD PUSH2 0xEE8 SWAP1 PUSH2 0x1E4D JUMP JUMPDEST DUP1 PUSH1 0x1F ADD PUSH1 0x20 DUP1 SWAP2 DIV MUL PUSH1 0x20 ADD PUSH1 0x40 MLOAD SWAP1 DUP2 ADD PUSH1 0x40 MSTORE DUP1 SWAP3 SWAP2 SWAP1 DUP2 DUP2 MSTORE PUSH1 0x20 ADD DUP3 DUP1 SLOAD PUSH2 0xF14 SWAP1 PUSH2 0x1E4D JUMP JUMPDEST DUP1 ISZERO PUSH2 0xF5F JUMPI DUP1 PUSH1 0x1F LT PUSH2 0xF36 JUMPI PUSH2 0x100 DUP1 DUP4 SLOAD DIV MUL DUP4 MSTORE SWAP2 PUSH1 0x20 ADD SWAP2 PUSH2 0xF5F JUMP JUMPDEST DUP3 ADD SWAP2 SWAP1 PUSH0 MSTORE PUSH1 0x20 PUSH0 KECCAK256 SWAP1 JUMPDEST DUP2 SLOAD DUP2 MSTORE SWAP1 PUSH1 0x1 ADD SWAP1 PUSH1 0x20 ADD DUP1 DUP4 GT PUSH2 0xF42 JUMPI DUP3 SWAP1 SUB PUSH1 0x1F AND DUP3 ADD SWAP2 JUMPDEST POP POP POP POP POP DUP2 MSTORE PUSH1 0x20 ADD PUSH1 0x2 DUP3 ADD SLOAD DUP2 MSTORE PUSH1 0x20 ADD PUSH1 0x3 DUP3 ADD PUSH0 SWAP1 SLOAD SWAP1 PUSH2 0x100 EXP SWAP1 DIV PUSH20 0xFFFFFFFFFFFFFFFFFFFFFFFFFFFFFFFFFFFFFFFF AND PUSH20 0xFFFFFFFFFFFFFFFFFFFFFFFFFFFFFFFFFFFFFFFF AND PUSH20 0xFFFFFFFFFFFFFFFFFFFFFFFFFFFFFFFFFFFFFFFF AND DUP2 MSTORE PUSH1 0x20 ADD PUSH1 0x4 DUP3 ADD SLOAD DUP2 MSTORE PUSH1 0x20 ADD PUSH1 0x5 DUP3 ADD SLOAD DUP2 MSTORE PUSH1 0x20 ADD PUSH1 0x6 DUP3 ADD PUSH0 SWAP1 SLOAD SWAP1 PUSH2 0x100 EXP SWAP1 DIV PUSH1 0xFF AND ISZERO ISZERO ISZERO ISZERO DUP2 MSTORE POP POP DUP3 DUP3 DUP2 MLOAD DUP2 LT PUSH2 0x1008 JUMPI PUSH2 0x1007 PUSH2 0x23A9 JUMP JUMPDEST JUMPDEST PUSH1 0x20 MUL PUSH1 0x20 ADD ADD DUP2 SWAP1 MSTORE POP DUP1 DUP1 PUSH1 0x1 ADD SWAP2 POP POP PUSH2 0xEA9 JUMP JUMPDEST POP DUP1 SWAP2 POP POP SWAP1 JUMP JUMPDEST PUSH1 0x6 SLOAD DUP2 JUMP JUMPDEST PUSH1 0x7 SLOAD DUP2 JUMP JUMPDEST PUSH1 0xC PUSH0 SWAP1 SLOAD SWAP1 PUSH2 0x100 EXP SWAP1 DIV PUSH20 0xFFFFFFFFFFFFFFFFFFFFFFFFFFFFFFFFFFFFFFFF AND DUP2 JUMP JUMPDEST PUSH1 0x1 PUSH1 0x20 MSTORE DUP1 PUSH0 MSTORE PUSH1 0x40 PUSH0 KECCAK256 PUSH0 SWAP2 POP SWAP1 POP SLOAD DUP2 JUMP JUMPDEST PUSH1 0xC PUSH0 SWAP1 SLOAD SWAP1 PUSH2 0x100 EXP SWAP1 DIV PUSH20 0xFFFFFFFFFFFFFFFFFFFFFFFFFFFFFFFFFFFFFFFF AND PUSH20 0xFFFFFFFFFFFFFFFFFFFFFFFFFFFFFFFFFFFFFFFF AND CALLER PUSH20 0xFFFFFFFFFFFFFFFFFFFFFFFFFFFFFFFFFFFFFFFF AND EQ PUSH2 0x10FD JUMPI PUSH1 0x40 MLOAD PUSH32 0x8C379A000000000000000000000000000000000000000000000000000000000 DUP2 MSTORE PUSH1 0x4 ADD PUSH2 0x10F4 SWAP1 PUSH2 0x20B8 JUMP JUMPDEST PUSH1 0x40 MLOAD DUP1 SWAP2 SUB SWAP1 REVERT JUMPDEST DUP2 PUSH1 0x7 SLOAD LT ISZERO PUSH2 0x1142 JUMPI PUSH1 0x40 MLOAD PUSH32 0x8C379A000000000000000000000000000000000000000000000000000000000 DUP2 MSTORE PUSH1 0x4 ADD PUSH2 0x1139 SWAP1 PUSH2 0x22F6 JUMP JUMPDEST PUSH1 0x40 MLOAD DUP1 SWAP2 SUB SWAP1 REVERT JUMPDEST PUSH1 0x40 MLOAD DUP1 PUSH1 0xE0 ADD PUSH1 0x40 MSTORE DUP1 PUSH1 0x9 SLOAD DUP2 MSTORE PUSH1 0x20 ADD DUP6 DUP6 DUP1 DUP1 PUSH1 0x1F ADD PUSH1 0x20 DUP1 SWAP2 DIV MUL PUSH1 0x20 ADD PUSH1 0x40 MLOAD SWAP1 DUP2 ADD PUSH1 0x40 MSTORE DUP1 SWAP4 SWAP3 SWAP2 SWAP1 DUP2 DUP2 MSTORE PUSH1 0x20 ADD DUP4 DUP4 DUP1 DUP3 DUP5 CALLDATACOPY PUSH0 DUP2 DUP5 ADD MSTORE PUSH1 0x1F NOT PUSH1 0x1F DUP3 ADD AND SWAP1 POP DUP1 DUP4 ADD SWAP3 POP POP POP POP POP POP POP DUP2 MSTORE PUSH1 0x20 ADD DUP4 DUP2 MSTORE PUSH1 0x20 ADD DUP3 PUSH20 0xFFFFFFFFFFFFFFFFFFFFFFFFFFFFFFFFFFFFFFFF AND DUP2 MSTORE PUSH1 0x20 ADD PUSH0 DUP2 MSTORE PUSH1 0x20 ADD PUSH1 0xA SLOAD TIMESTAMP PUSH2 0x11D4 SWAP2 SWAP1 PUSH2 0x203B JUMP JUMPDEST DUP2 MSTORE PUSH1 0x20 ADD PUSH0 ISZERO ISZERO DUP2 MSTORE POP PUSH1 0x5 PUSH0 PUSH1 0x9 SLOAD DUP2 MSTORE PUSH1 0x20 ADD SWAP1 DUP2 MSTORE PUSH1 0x20 ADD PUSH0 KECCAK256 PUSH0 DUP3 ADD MLOAD DUP2 PUSH0 ADD SSTORE PUSH1 0x20 DUP3 ADD MLOAD DUP2 PUSH1 0x1 ADD SWAP1 DUP2 PUSH2 0x120F SWAP2 SWAP1 PUSH2 0x2573 JUMP JUMPDEST POP PUSH1 0x40 DUP3 ADD MLOAD DUP2 PUSH1 0x2 ADD SSTORE PUSH1 0x60 DUP3 ADD MLOAD DUP2 PUSH1 0x3 ADD PUSH0 PUSH2 0x100 EXP DUP2 SLOAD DUP2 PUSH20 0xFFFFFFFFFFFFFFFFFFFFFFFFFFFFFFFFFFFFFFFF MUL NOT AND SWAP1 DUP4 PUSH20 0xFFFFFFFFFFFFFFFFFFFFFFFFFFFFFFFFFFFFFFFF AND MUL OR SWAP1 SSTORE POP PUSH1 0x80 DUP3 ADD MLOAD DUP2 PUSH1 0x4 ADD SSTORE PUSH1 0xA0 DUP3 ADD MLOAD DUP2 PUSH1 0x5 ADD SSTORE PUSH1 0xC0 DUP3 ADD MLOAD DUP2 PUSH1 0x6 ADD PUSH0 PUSH2 0x100 EXP DUP2 SLOAD DUP2 PUSH1 0xFF MUL NOT AND SWAP1 DUP4 ISZERO ISZERO MUL OR SWAP1 SSTORE POP SWAP1 POP POP PUSH1 0x9 PUSH0 DUP2 SLOAD DUP1 SWAP3 SWAP2 SWAP1 PUSH2 0x12A8 SWAP1 PUSH2 0x2642 JUMP JUMPDEST SWAP2 SWAP1 POP SSTORE POP POP POP POP POP JUMP JUMPDEST PUSH1 0x1 ISZERO ISZERO PUSH0 DUP1 CALLER PUSH20 0xFFFFFFFFFFFFFFFFFFFFFFFFFFFFFFFFFFFFFFFF AND PUSH20 0xFFFFFFFFFFFFFFFFFFFFFFFFFFFFFFFFFFFFFFFF AND DUP2 MSTORE PUSH1 0x20 ADD SWAP1 DUP2 MSTORE PUSH1 0x20 ADD PUSH0 KECCAK256 PUSH0 SWAP1 SLOAD SWAP1 PUSH2 0x100 EXP SWAP1 DIV PUSH1 0xFF AND ISZERO ISZERO EQ PUSH2 0x1342 JUMPI PUSH1 0x40 MLOAD PUSH32 0x8C379A000000000000000000000000000000000000000000000000000000000 DUP2 MSTORE PUSH1 0x4 ADD PUSH2 0x1339 SWAP1 PUSH2 0x235E JUMP JUMPDEST PUSH1 0x40 MLOAD DUP1 SWAP2 SUB SWAP1 REVERT JUMPDEST PUSH0 DUP2 LT ISZERO DUP1 ISZERO PUSH2 0x1353 JUMPI POP PUSH1 0x9 SLOAD DUP2 LT JUMPDEST PUSH2 0x1392 JUMPI PUSH1 0x40 MLOAD PUSH32 0x8C379A000000000000000000000000000000000000000000000000000000000 DUP2 MSTORE PUSH1 0x4 ADD PUSH2 0x1389 SWAP1 PUSH2 0x2120 JUMP JUMPDEST PUSH1 0x40 MLOAD DUP1 SWAP2 SUB SWAP1 REVERT JUMPDEST PUSH0 ISZERO ISZERO PUSH1 0x2 PUSH0 CALLER PUSH20 0xFFFFFFFFFFFFFFFFFFFFFFFFFFFFFFFFFFFFFFFF AND PUSH20 0xFFFFFFFFFFFFFFFFFFFFFFFFFFFFFFFFFFFFFFFF AND DUP2 MSTORE PUSH1 0x20 ADD SWAP1 DUP2 MSTORE PUSH1 0x20 ADD PUSH0 KECCAK256 PUSH0 DUP4 DUP2 MSTORE PUSH1 0x20 ADD SWAP1 DUP2 MSTORE PUSH1 0x20 ADD PUSH0 KECCAK256 PUSH0 SWAP1 SLOAD SWAP1 PUSH2 0x100 EXP SWAP1 DIV PUSH1 0xFF AND ISZERO ISZERO EQ PUSH2 0x1430 JUMPI PUSH1 0x40 MLOAD PUSH32 0x8C379A000000000000000000000000000000000000000000000000000000000 DUP2 MSTORE PUSH1 0x4 ADD PUSH2 0x1427 SWAP1 PUSH2 0x26D3 JUMP JUMPDEST PUSH1 0x40 MLOAD DUP1 SWAP2 SUB SWAP1 REVERT JUMPDEST PUSH0 PUSH1 0x5 PUSH0 DUP4 DUP2 MSTORE PUSH1 0x20 ADD SWAP1 DUP2 MSTORE PUSH1 0x20 ADD PUSH0 KECCAK256 SWAP1 POP TIMESTAMP DUP2 PUSH1 0x5 ADD SLOAD LT ISZERO PUSH2 0x148B JUMPI PUSH1 0x40 MLOAD PUSH32 0x8C379A000000000000000000000000000000000000000000000000000000000 DUP2 MSTORE PUSH1 0x4 ADD PUSH2 0x1482 SWAP1 PUSH2 0x273B JUMP JUMPDEST PUSH1 0x40 MLOAD DUP1 SWAP2 SUB SWAP1 REVERT JUMPDEST PUSH0 ISZERO ISZERO DUP2 PUSH1 0x6 ADD PUSH0 SWAP1 SLOAD SWAP1 PUSH2 0x100 EXP SWAP1 DIV PUSH1 0xFF AND ISZERO ISZERO EQ PUSH2 0x14E1 JUMPI PUSH1 0x40 MLOAD PUSH32 0x8C379A000000000000000000000000000000000000000000000000000000000 DUP2 MSTORE PUSH1 0x4 ADD PUSH2 0x14D8 SWAP1 PUSH2 0x228E JUMP JUMPDEST PUSH1 0x40 MLOAD DUP1 SWAP2 SUB SWAP1 REVERT JUMPDEST PUSH1 0x1 PUSH0 CALLER PUSH20 0xFFFFFFFFFFFFFFFFFFFFFFFFFFFFFFFFFFFFFFFF AND PUSH20 0xFFFFFFFFFFFFFFFFFFFFFFFFFFFFFFFFFFFFFFFF AND DUP2 MSTORE PUSH1 0x20 ADD SWAP1 DUP2 MSTORE PUSH1 0x20 ADD PUSH0 KECCAK256 SLOAD DUP2 PUSH1 0x4 ADD PUSH0 DUP3 DUP3 SLOAD PUSH2 0x1531 SWAP2 SWAP1 PUSH2 0x203B JUMP JUMPDEST SWAP3 POP POP DUP2 SWAP1 SSTORE POP PUSH1 0x1 PUSH1 0x2 PUSH0 CALLER PUSH20 0xFFFFFFFFFFFFFFFFFFFFFFFFFFFFFFFFFFFFFFFF AND PUSH20 0xFFFFFFFFFFFFFFFFFFFFFFFFFFFFFFFFFFFFFFFF AND DUP2 MSTORE PUSH1 0x20 ADD SWAP1 DUP2 MSTORE PUSH1 0x20 ADD PUSH0 KECCAK256 PUSH0 DUP5 DUP2 MSTORE PUSH1 0x20 ADD SWAP1 DUP2 MSTORE PUSH1 0x20 ADD PUSH0 KECCAK256 PUSH0 PUSH2 0x100 EXP DUP2 SLOAD DUP2 PUSH1 0xFF MUL NOT AND SWAP1 DUP4 ISZERO ISZERO MUL OR SWAP1 SSTORE POP POP POP JUMP JUMPDEST PUSH1 0x2 PUSH1 0x20 MSTORE DUP2 PUSH0 MSTORE PUSH1 0x40 PUSH0 KECCAK256 PUSH1 0x20 MSTORE DUP1 PUSH0 MSTORE PUSH1 0x40 PUSH0 KECCAK256 PUSH0 SWAP2 POP SWAP2 POP SWAP1 SLOAD SWAP1 PUSH2 0x100 EXP SWAP1 DIV PUSH1 0xFF AND DUP2 JUMP JUMPDEST PUSH1 0x8 SLOAD DUP2 JUMP JUMPDEST PUSH1 0xA SLOAD DUP2 JUMP JUMPDEST PUSH1 0x3 PUSH1 0x20 MSTORE DUP2 PUSH0 MSTORE PUSH1 0x40 PUSH0 KECCAK256 PUSH1 0x20 MSTORE DUP1 PUSH0 MSTORE PUSH1 0x40 PUSH0 KECCAK256 PUSH0 SWAP2 POP SWAP2 POP SWAP1 SLOAD SWAP1 PUSH2 0x100 EXP SWAP1 DIV PUSH1 0xFF AND DUP2 JUMP JUMPDEST PUSH1 0x8 SLOAD TIMESTAMP GT ISZERO PUSH2 0x1645 JUMPI PUSH1 0x40 MLOAD PUSH32 0x8C379A000000000000000000000000000000000000000000000000000000000 DUP2 MSTORE PUSH1 0x4 ADD PUSH2 0x163C SWAP1 PUSH2 0x27A3 JUMP JUMPDEST PUSH1 0x40 MLOAD DUP1 SWAP2 SUB SWAP1 REVERT JUMPDEST PUSH0 CALLVALUE GT PUSH2 0x1687 JUMPI PUSH1 0x40 MLOAD PUSH32 0x8C379A000000000000000000000000000000000000000000000000000000000 DUP2 MSTORE PUSH1 0x4 ADD PUSH2 0x167E SWAP1 PUSH2 0x1EC7 JUMP JUMPDEST PUSH1 0x40 MLOAD DUP1 SWAP2 SUB SWAP1 REVERT JUMPDEST PUSH1 0x1 PUSH0 DUP1 CALLER PUSH20 0xFFFFFFFFFFFFFFFFFFFFFFFFFFFFFFFFFFFFFFFF AND PUSH20 0xFFFFFFFFFFFFFFFFFFFFFFFFFFFFFFFFFFFFFFFF AND DUP2 MSTORE PUSH1 0x20 ADD SWAP1 DUP2 MSTORE PUSH1 0x20 ADD PUSH0 KECCAK256 PUSH0 PUSH2 0x100 EXP DUP2 SLOAD DUP2 PUSH1 0xFF MUL NOT AND SWAP1 DUP4 ISZERO ISZERO MUL OR SWAP1 SSTORE POP CALLVALUE PUSH1 0x1 PUSH0 CALLER PUSH20 0xFFFFFFFFFFFFFFFFFFFFFFFFFFFFFFFFFFFFFFFF AND PUSH20 0xFFFFFFFFFFFFFFFFFFFFFFFFFFFFFFFFFFFFFFFF AND DUP2 MSTORE PUSH1 0x20 ADD SWAP1 DUP2 MSTORE PUSH1 0x20 ADD PUSH0 KECCAK256 PUSH0 DUP3 DUP3 SLOAD PUSH2 0x1727 SWAP2 SWAP1 PUSH2 0x203B JUMP JUMPDEST SWAP3 POP POP DUP2 SWAP1 SSTORE POP CALLVALUE PUSH1 0x6 PUSH0 DUP3 DUP3 SLOAD PUSH2 0x173F SWAP2 SWAP1 PUSH2 0x203B JUMP JUMPDEST SWAP3 POP POP DUP2 SWAP1 SSTORE POP CALLVALUE PUSH1 0x7 PUSH0 DUP3 DUP3 SLOAD PUSH2 0x1757 SWAP2 SWAP1 PUSH2 0x203B JUMP JUMPDEST SWAP3 POP POP DUP2 SWAP1 SSTORE POP PUSH1 0x4 CALLER SWAP1 DUP1 PUSH1 0x1 DUP2 SLOAD ADD DUP1 DUP3 SSTORE DUP1 SWAP2 POP POP PUSH1 0x1 SWAP1 SUB SWAP1 PUSH0 MSTORE PUSH1 0x20 PUSH0 KECCAK256 ADD PUSH0 SWAP1 SWAP2 SWAP1 SWAP2 SWAP1 SWAP2 PUSH2 0x100 EXP DUP2 SLOAD DUP2 PUSH20 0xFFFFFFFFFFFFFFFFFFFFFFFFFFFFFFFFFFFFFFFF MUL NOT AND SWAP1 DUP4 PUSH20 0xFFFFFFFFFFFFFFFFFFFFFFFFFFFFFFFFFFFFFFFF AND MUL OR SWAP1 SSTORE POP JUMP JUMPDEST PUSH1 0x40 MLOAD DUP1 PUSH1 0xE0 ADD PUSH1 0x40 MSTORE DUP1 PUSH0 DUP2 MSTORE PUSH1 0x20 ADD PUSH1 0x60 DUP2 MSTORE PUSH1 0x20 ADD PUSH0 DUP2 MSTORE PUSH1 0x20 ADD PUSH0 PUSH20 0xFFFFFFFFFFFFFFFFFFFFFFFFFFFFFFFFFFFFFFFF AND DUP2 MSTORE PUSH1 0x20 ADD PUSH0 DUP2 MSTORE PUSH1 0x20 ADD PUSH0 DUP2 MSTORE PUSH1 0x20 ADD PUSH0 ISZERO ISZERO DUP2 MSTORE POP SWAP1 JUMP JUMPDEST PUSH0 DUP1 REVERT JUMPDEST PUSH0 DUP1 REVERT JUMPDEST PUSH0 DUP2 SWAP1 POP SWAP2 SWAP1 POP JUMP JUMPDEST PUSH2 0x1829 DUP2 PUSH2 0x1817 JUMP JUMPDEST DUP2 EQ PUSH2 0x1833 JUMPI PUSH0 DUP1 REVERT JUMPDEST POP JUMP JUMPDEST PUSH0 DUP2 CALLDATALOAD SWAP1 POP PUSH2 0x1844 DUP2 PUSH2 0x1820 JUMP JUMPDEST SWAP3 SWAP2 POP POP JUMP JUMPDEST PUSH0 PUSH1 0x20 DUP3 DUP5 SUB SLT ISZERO PUSH2 0x185F JUMPI PUSH2 0x185E PUSH2 0x180F JUMP JUMPDEST JUMPDEST PUSH0 PUSH2 0x186C DUP5 DUP3 DUP6 ADD PUSH2 0x1836 JUMP JUMPDEST SWAP2 POP POP SWAP3 SWAP2 POP POP JUMP JUMPDEST PUSH2 0x187E DUP2 PUSH2 0x1817 JUMP JUMPDEST DUP3 MSTORE POP POP JUMP JUMPDEST PUSH0 DUP2 MLOAD SWAP1 POP SWAP2 SWAP1 POP JUMP JUMPDEST PUSH0 DUP3 DUP3 MSTORE PUSH1 0x20 DUP3 ADD SWAP1 POP SWAP3 SWAP2 POP POP JUMP JUMPDEST DUP3 DUP2 DUP4 MCOPY PUSH0 DUP4 DUP4 ADD MSTORE POP POP POP JUMP JUMPDEST PUSH0 PUSH1 0x1F NOT PUSH1 0x1F DUP4 ADD AND SWAP1 POP SWAP2 SWAP1 POP JUMP JUMPDEST PUSH0 PUSH2 0x18C6 DUP3 PUSH2 0x1884 JUMP JUMPDEST PUSH2 0x18D0 DUP2 DUP6 PUSH2 0x188E JUMP JUMPDEST SWAP4 POP PUSH2 0x18E0 DUP2 DUP6 PUSH1 0x20 DUP7 ADD PUSH2 0x189E JUMP JUMPDEST PUSH2 0x18E9 DUP2 PUSH2 0x18AC JUMP JUMPDEST DUP5 ADD SWAP2 POP POP SWAP3 SWAP2 POP POP JUMP JUMPDEST PUSH0 PUSH20 0xFFFFFFFFFFFFFFFFFFFFFFFFFFFFFFFFFFFFFFFF DUP3 AND SWAP1 POP SWAP2 SWAP1 POP JUMP JUMPDEST PUSH0 PUSH2 0x191D DUP3 PUSH2 0x18F4 JUMP JUMPDEST SWAP1 POP SWAP2 SWAP1 POP JUMP JUMPDEST PUSH2 0x192D DUP2 PUSH2 0x1913 JUMP JUMPDEST DUP3 MSTORE POP POP JUMP JUMPDEST PUSH0 DUP2 ISZERO ISZERO SWAP1 POP SWAP2 SWAP1 POP JUMP JUMPDEST PUSH2 0x1947 DUP2 PUSH2 0x1933 JUMP JUMPDEST DUP3 MSTORE POP POP JUMP JUMPDEST PUSH0 PUSH1 0xE0 DUP3 ADD SWAP1 POP PUSH2 0x1960 PUSH0 DUP4 ADD DUP11 PUSH2 0x1875 JUMP JUMPDEST DUP2 DUP2 SUB PUSH1 0x20 DUP4 ADD MSTORE PUSH2 0x1972 DUP2 DUP10 PUSH2 0x18BC JUMP JUMPDEST SWAP1 POP PUSH2 0x1981 PUSH1 0x40 DUP4 ADD DUP9 PUSH2 0x1875 JUMP JUMPDEST PUSH2 0x198E PUSH1 0x60 DUP4 ADD DUP8 PUSH2 0x1924 JUMP JUMPDEST PUSH2 0x199B PUSH1 0x80 DUP4 ADD DUP7 PUSH2 0x1875 JUMP JUMPDEST PUSH2 0x19A8 PUSH1 0xA0 DUP4 ADD DUP6 PUSH2 0x1875 JUMP JUMPDEST PUSH2 0x19B5 PUSH1 0xC0 DUP4 ADD DUP5 PUSH2 0x193E JUMP JUMPDEST SWAP9 SWAP8 POP POP POP POP POP POP POP POP JUMP JUMPDEST PUSH0 PUSH2 0x19CB DUP3 PUSH2 0x18F4 JUMP JUMPDEST SWAP1 POP SWAP2 SWAP1 POP JUMP JUMPDEST PUSH2 0x19DB DUP2 PUSH2 0x19C1 JUMP JUMPDEST DUP2 EQ PUSH2 0x19E5 JUMPI PUSH0 DUP1 REVERT JUMPDEST POP JUMP JUMPDEST PUSH0 DUP2 CALLDATALOAD SWAP1 POP PUSH2 0x19F6 DUP2 PUSH2 0x19D2 JUMP JUMPDEST SWAP3 SWAP2 POP POP JUMP JUMPDEST PUSH0 DUP1 PUSH1 0x40 DUP4 DUP6 SUB SLT ISZERO PUSH2 0x1A12 JUMPI PUSH2 0x1A11 PUSH2 0x180F JUMP JUMPDEST JUMPDEST PUSH0 PUSH2 0x1A1F DUP6 DUP3 DUP7 ADD PUSH2 0x1836 JUMP JUMPDEST SWAP3 POP POP PUSH1 0x20 PUSH2 0x1A30 DUP6 DUP3 DUP7 ADD PUSH2 0x19E8 JUMP JUMPDEST SWAP2 POP POP SWAP3 POP SWAP3 SWAP1 POP JUMP JUMPDEST PUSH2 0x1A43 DUP2 PUSH2 0x19C1 JUMP JUMPDEST DUP3 MSTORE POP POP JUMP JUMPDEST PUSH0 PUSH1 0x20 DUP3 ADD SWAP1 POP PUSH2 0x1A5C PUSH0 DUP4 ADD DUP5 PUSH2 0x1A3A JUMP JUMPDEST SWAP3 SWAP2 POP POP JUMP JUMPDEST PUSH0 PUSH1 0x20 DUP3 ADD SWAP1 POP PUSH2 0x1A75 PUSH0 DUP4 ADD DUP5 PUSH2 0x1875 JUMP JUMPDEST SWAP3 SWAP2 POP POP JUMP JUMPDEST PUSH0 DUP2 MLOAD SWAP1 POP SWAP2 SWAP1 POP JUMP JUMPDEST PUSH0 DUP3 DUP3 MSTORE PUSH1 0x20 DUP3 ADD SWAP1 POP SWAP3 SWAP2 POP POP JUMP JUMPDEST PUSH0 DUP2 SWAP1 POP PUSH1 0x20 DUP3 ADD SWAP1 POP SWAP2 SWAP1 POP JUMP JUMPDEST PUSH2 0x1AAD DUP2 PUSH2 0x1817 JUMP JUMPDEST DUP3 MSTORE POP POP JUMP JUMPDEST PUSH0 DUP3 DUP3 MSTORE PUSH1 0x20 DUP3 ADD SWAP1 POP SWAP3 SWAP2 POP POP JUMP JUMPDEST PUSH0 PUSH2 0x1ACD DUP3 PUSH2 0x1884 JUMP JUMPDEST PUSH2 0x1AD7 DUP2 DUP6 PUSH2 0x1AB3 JUMP JUMPDEST SWAP4 POP PUSH2 0x1AE7 DUP2 DUP6 PUSH1 0x20 DUP7 ADD PUSH2 0x189E JUMP JUMPDEST PUSH2 0x1AF0 DUP2 PUSH2 0x18AC JUMP JUMPDEST DUP5 ADD SWAP2 POP POP SWAP3 SWAP2 POP POP JUMP JUMPDEST PUSH2 0x1B04 DUP2 PUSH2 0x1913 JUMP JUMPDEST DUP3 MSTORE POP POP JUMP JUMPDEST PUSH2 0x1B13 DUP2 PUSH2 0x1933 JUMP JUMPDEST DUP3 MSTORE POP POP JUMP JUMPDEST PUSH0 PUSH1 0xE0 DUP4 ADD PUSH0 DUP4 ADD MLOAD PUSH2 0x1B2E PUSH0 DUP7 ADD DUP3 PUSH2 0x1AA4 JUMP JUMPDEST POP PUSH1 0x20 DUP4 ADD MLOAD DUP5 DUP3 SUB PUSH1 0x20 DUP7 ADD MSTORE PUSH2 0x1B46 DUP3 DUP3 PUSH2 0x1AC3 JUMP JUMPDEST SWAP2 POP POP PUSH1 0x40 DUP4 ADD MLOAD PUSH2 0x1B5B PUSH1 0x40 DUP7 ADD DUP3 PUSH2 0x1AA4 JUMP JUMPDEST POP PUSH1 0x60 DUP4 ADD MLOAD PUSH2 0x1B6E PUSH1 0x60 DUP7 ADD DUP3 PUSH2 0x1AFB JUMP JUMPDEST POP PUSH1 0x80 DUP4 ADD MLOAD PUSH2 0x1B81 PUSH1 0x80 DUP7 ADD DUP3 PUSH2 0x1AA4 JUMP JUMPDEST POP PUSH1 0xA0 DUP4 ADD MLOAD PUSH2 0x1B94 PUSH1 0xA0 DUP7 ADD DUP3 PUSH2 0x1AA4 JUMP JUMPDEST POP PUSH1 0xC0 DUP4 ADD MLOAD PUSH2 0x1BA7 PUSH1 0xC0 DUP7 ADD DUP3 PUSH2 0x1B0A JUMP JUMPDEST POP DUP1 SWAP2 POP POP SWAP3 SWAP2 POP POP JUMP JUMPDEST PUSH0 PUSH2 0x1BBD DUP4 DUP4 PUSH2 0x1B19 JUMP JUMPDEST SWAP1 POP SWAP3 SWAP2 POP POP JUMP JUMPDEST PUSH0 PUSH1 0x20 DUP3 ADD SWAP1 POP SWAP2 SWAP1 POP JUMP JUMPDEST PUSH0 PUSH2 0x1BDB DUP3 PUSH2 0x1A7B JUMP JUMPDEST PUSH2 0x1BE5 DUP2 DUP6 PUSH2 0x1A85 JUMP JUMPDEST SWAP4 POP DUP4 PUSH1 0x20 DUP3 MUL DUP6 ADD PUSH2 0x1BF7 DUP6 PUSH2 0x1A95 JUMP JUMPDEST DUP1 PUSH0 JUMPDEST DUP6 DUP2 LT ISZERO PUSH2 0x1C32 JUMPI DUP5 DUP5 SUB DUP10 MSTORE DUP2 MLOAD PUSH2 0x1C13 DUP6 DUP3 PUSH2 0x1BB2 JUMP JUMPDEST SWAP5 POP PUSH2 0x1C1E DUP4 PUSH2 0x1BC5 JUMP JUMPDEST SWAP3 POP PUSH1 0x20 DUP11 ADD SWAP10 POP POP PUSH1 0x1 DUP2 ADD SWAP1 POP PUSH2 0x1BFA JUMP JUMPDEST POP DUP3 SWAP8 POP DUP8 SWAP6 POP POP POP POP POP POP SWAP3 SWAP2 POP POP JUMP JUMPDEST PUSH0 PUSH1 0x20 DUP3 ADD SWAP1 POP DUP2 DUP2 SUB PUSH0 DUP4 ADD MSTORE PUSH2 0x1C5C DUP2 DUP5 PUSH2 0x1BD1 JUMP JUMPDEST SWAP1 POP SWAP3 SWAP2 POP POP JUMP JUMPDEST PUSH0 PUSH1 0x20 DUP3 DUP5 SUB SLT ISZERO PUSH2 0x1C79 JUMPI PUSH2 0x1C78 PUSH2 0x180F JUMP JUMPDEST JUMPDEST PUSH0 PUSH2 0x1C86 DUP5 DUP3 DUP6 ADD PUSH2 0x19E8 JUMP JUMPDEST SWAP2 POP POP SWAP3 SWAP2 POP POP JUMP JUMPDEST PUSH0 DUP1 REVERT JUMPDEST PUSH0 DUP1 REVERT JUMPDEST PUSH0 DUP1 REVERT JUMPDEST PUSH0 DUP1 DUP4 PUSH1 0x1F DUP5 ADD SLT PUSH2 0x1CB0 JUMPI PUSH2 0x1CAF PUSH2 0x1C8F JUMP JUMPDEST JUMPDEST DUP3 CALLDATALOAD SWAP1 POP PUSH8 0xFFFFFFFFFFFFFFFF DUP2 GT ISZERO PUSH2 0x1CCD JUMPI PUSH2 0x1CCC PUSH2 0x1C93 JUMP JUMPDEST JUMPDEST PUSH1 0x20 DUP4 ADD SWAP2 POP DUP4 PUSH1 0x1 DUP3 MUL DUP4 ADD GT ISZERO PUSH2 0x1CE9 JUMPI PUSH2 0x1CE8 PUSH2 0x1C97 JUMP JUMPDEST JUMPDEST SWAP3 POP SWAP3 SWAP1 POP JUMP JUMPDEST PUSH2 0x1CF9 DUP2 PUSH2 0x1913 JUMP JUMPDEST DUP2 EQ PUSH2 0x1D03 JUMPI PUSH0 DUP1 REVERT JUMPDEST POP JUMP JUMPDEST PUSH0 DUP2 CALLDATALOAD SWAP1 POP PUSH2 0x1D14 DUP2 PUSH2 0x1CF0 JUMP JUMPDEST SWAP3 SWAP2 POP POP JUMP JUMPDEST PUSH0 DUP1 PUSH0 DUP1 PUSH1 0x60 DUP6 DUP8 SUB SLT ISZERO PUSH2 0x1D32 JUMPI PUSH2 0x1D31 PUSH2 0x180F JUMP JUMPDEST JUMPDEST PUSH0 DUP6 ADD CALLDATALOAD PUSH8 0xFFFFFFFFFFFFFFFF DUP2 GT ISZERO PUSH2 0x1D4F JUMPI PUSH2 0x1D4E PUSH2 0x1813 JUMP JUMPDEST JUMPDEST PUSH2 0x1D5B DUP8 DUP3 DUP9 ADD PUSH2 0x1C9B JUMP JUMPDEST SWAP5 POP SWAP5 POP POP PUSH1 0x20 PUSH2 0x1D6E DUP8 DUP3 DUP9 ADD PUSH2 0x1836 JUMP JUMPDEST SWAP3 POP POP PUSH1 0x40 PUSH2 0x1D7F DUP8 DUP3 DUP9 ADD PUSH2 0x1D06 JUMP JUMPDEST SWAP2 POP POP SWAP3 SWAP6 SWAP2 SWAP5 POP SWAP3 POP JUMP JUMPDEST PUSH0 DUP1 PUSH1 0x40 DUP4 DUP6 SUB SLT ISZERO PUSH2 0x1DA1 JUMPI PUSH2 0x1DA0 PUSH2 0x180F JUMP JUMPDEST JUMPDEST PUSH0 PUSH2 0x1DAE DUP6 DUP3 DUP7 ADD PUSH2 0x19E8 JUMP JUMPDEST SWAP3 POP POP PUSH1 0x20 PUSH2 0x1DBF DUP6 DUP3 DUP7 ADD PUSH2 0x1836 JUMP JUMPDEST SWAP2 POP POP SWAP3 POP SWAP3 SWAP1 POP JUMP JUMPDEST PUSH0 PUSH1 0x20 DUP3 ADD SWAP1 POP PUSH2 0x1DDC PUSH0 DUP4 ADD DUP5 PUSH2 0x193E JUMP JUMPDEST SWAP3 SWAP2 POP POP JUMP JUMPDEST PUSH0 DUP1 PUSH1 0x40 DUP4 DUP6 SUB SLT ISZERO PUSH2 0x1DF8 JUMPI PUSH2 0x1DF7 PUSH2 0x180F JUMP JUMPDEST JUMPDEST PUSH0 PUSH2 0x1E05 DUP6 DUP3 DUP7 ADD PUSH2 0x19E8 JUMP JUMPDEST SWAP3 POP POP PUSH1 0x20 PUSH2 0x1E16 DUP6 DUP3 DUP7 ADD PUSH2 0x19E8 JUMP JUMPDEST SWAP2 POP POP SWAP3 POP SWAP3 SWAP1 POP JUMP JUMPDEST PUSH32 0x4E487B7100000000000000000000000000000000000000000000000000000000 PUSH0 MSTORE PUSH1 0x22 PUSH1 0x4 MSTORE PUSH1 0x24 PUSH0 REVERT JUMPDEST PUSH0 PUSH1 0x2 DUP3 DIV SWAP1 POP PUSH1 0x1 DUP3 AND DUP1 PUSH2 0x1E64 JUMPI PUSH1 0x7F DUP3 AND SWAP2 POP JUMPDEST PUSH1 0x20 DUP3 LT DUP2 SUB PUSH2 0x1E77 JUMPI PUSH2 0x1E76 PUSH2 0x1E20 JUMP JUMPDEST JUMPDEST POP SWAP2 SWAP1 POP JUMP JUMPDEST PUSH32 0x53656E64206D6F7265207468656E203000000000000000000000000000000000 PUSH0 DUP3 ADD MSTORE POP JUMP JUMPDEST PUSH0 PUSH2 0x1EB1 PUSH1 0x10 DUP4 PUSH2 0x188E JUMP JUMPDEST SWAP2 POP PUSH2 0x1EBC DUP3 PUSH2 0x1E7D JUMP JUMPDEST PUSH1 0x20 DUP3 ADD SWAP1 POP SWAP2 SWAP1 POP JUMP JUMPDEST PUSH0 PUSH1 0x20 DUP3 ADD SWAP1 POP DUP2 DUP2 SUB PUSH0 DUP4 ADD MSTORE PUSH2 0x1EDE DUP2 PUSH2 0x1EA5 JUMP JUMPDEST SWAP1 POP SWAP2 SWAP1 POP JUMP JUMPDEST PUSH32 0x4E6F7420656E6F7567682066756E647300000000000000000000000000000000 PUSH0 DUP3 ADD MSTORE POP JUMP JUMPDEST PUSH0 PUSH2 0x1F19 PUSH1 0x10 DUP4 PUSH2 0x188E JUMP JUMPDEST SWAP2 POP PUSH2 0x1F24 DUP3 PUSH2 0x1EE5 JUMP JUMPDEST PUSH1 0x20 DUP3 ADD SWAP1 POP SWAP2 SWAP1 POP JUMP JUMPDEST PUSH0 PUSH1 0x20 DUP3 ADD SWAP1 POP DUP2 DUP2 SUB PUSH0 DUP4 ADD MSTORE PUSH2 0x1F46 DUP2 PUSH2 0x1F0D JUMP JUMPDEST SWAP1 POP SWAP2 SWAP1 POP JUMP JUMPDEST PUSH32 0x596F752073686172657320617265206C657373207468616E2074686520616D6F PUSH0 DUP3 ADD MSTORE PUSH32 0x756E740000000000000000000000000000000000000000000000000000000000 PUSH1 0x20 DUP3 ADD MSTORE POP JUMP JUMPDEST PUSH0 PUSH2 0x1FA7 PUSH1 0x23 DUP4 PUSH2 0x188E JUMP JUMPDEST SWAP2 POP PUSH2 0x1FB2 DUP3 PUSH2 0x1F4D JUMP JUMPDEST PUSH1 0x40 DUP3 ADD SWAP1 POP SWAP2 SWAP1 POP JUMP JUMPDEST PUSH0 PUSH1 0x20 DUP3 ADD SWAP1 POP DUP2 DUP2 SUB PUSH0 DUP4 ADD MSTORE PUSH2 0x1FD4 DUP2 PUSH2 0x1F9B JUMP JUMPDEST SWAP1 POP SWAP2 SWAP1 POP JUMP JUMPDEST PUSH32 0x4E487B7100000000000000000000000000000000000000000000000000000000 PUSH0 MSTORE PUSH1 0x11 PUSH1 0x4 MSTORE PUSH1 0x24 PUSH0 REVERT JUMPDEST PUSH0 PUSH2 0x2012 DUP3 PUSH2 0x1817 JUMP JUMPDEST SWAP2 POP PUSH2 0x201D DUP4 PUSH2 0x1817 JUMP JUMPDEST SWAP3 POP DUP3 DUP3 SUB SWAP1 POP DUP2 DUP2 GT ISZERO PUSH2 0x2035 JUMPI PUSH2 0x2034 PUSH2 0x1FDB JUMP JUMPDEST JUMPDEST SWAP3 SWAP2 POP POP JUMP JUMPDEST PUSH0 PUSH2 0x2045 DUP3 PUSH2 0x1817 JUMP JUMPDEST SWAP2 POP PUSH2 0x2050 DUP4 PUSH2 0x1817 JUMP JUMPDEST SWAP3 POP DUP3 DUP3 ADD SWAP1 POP DUP1 DUP3 GT ISZERO PUSH2 0x2068 JUMPI PUSH2 0x2067 PUSH2 0x1FDB JUMP JUMPDEST JUMPDEST SWAP3 SWAP2 POP POP JUMP JUMPDEST PUSH32 0x596F7520617265206E6F742061206D616E616765720000000000000000000000 PUSH0 DUP3 ADD MSTORE POP JUMP JUMPDEST PUSH0 PUSH2 0x20A2 PUSH1 0x15 DUP4 PUSH2 0x188E JUMP JUMPDEST SWAP2 POP PUSH2 0x20AD DUP3 PUSH2 0x206E JUMP JUMPDEST PUSH1 0x20 DUP3 ADD SWAP1 POP SWAP2 SWAP1 POP JUMP JUMPDEST PUSH0 PUSH1 0x20 DUP3 ADD SWAP1 POP DUP2 DUP2 SUB PUSH0 DUP4 ADD MSTORE PUSH2 0x20CF DUP2 PUSH2 0x2096 JUMP JUMPDEST SWAP1 POP SWAP2 SWAP1 POP JUMP JUMPDEST PUSH32 0x496E76616C69642050726F706F73616C20696400000000000000000000000000 PUSH0 DUP3 ADD MSTORE POP JUMP JUMPDEST PUSH0 PUSH2 0x210A PUSH1 0x13 DUP4 PUSH2 0x188E JUMP JUMPDEST SWAP2 POP PUSH2 0x2115 DUP3 PUSH2 0x20D6 JUMP JUMPDEST PUSH1 0x20 DUP3 ADD SWAP1 POP SWAP2 SWAP1 POP JUMP JUMPDEST PUSH0 PUSH1 0x20 DUP3 ADD SWAP1 POP DUP2 DUP2 SUB PUSH0 DUP4 ADD MSTORE PUSH2 0x2137 DUP2 PUSH2 0x20FE JUMP JUMPDEST SWAP1 POP SWAP2 SWAP1 POP JUMP JUMPDEST PUSH0 PUSH2 0x2148 DUP3 PUSH2 0x1817 JUMP JUMPDEST SWAP2 POP PUSH2 0x2153 DUP4 PUSH2 0x1817 JUMP JUMPDEST SWAP3 POP DUP3 DUP3 MUL PUSH2 0x2161 DUP2 PUSH2 0x1817 JUMP JUMPDEST SWAP2 POP DUP3 DUP3 DIV DUP5 EQ DUP4 ISZERO OR PUSH2 0x2178 JUMPI PUSH2 0x2177 PUSH2 0x1FDB JUMP JUMPDEST JUMPDEST POP SWAP3 SWAP2 POP POP JUMP JUMPDEST PUSH32 0x4E487B7100000000000000000000000000000000000000000000000000000000 PUSH0 MSTORE PUSH1 0x12 PUSH1 0x4 MSTORE PUSH1 0x24 PUSH0 REVERT JUMPDEST PUSH0 PUSH2 0x21B6 DUP3 PUSH2 0x1817 JUMP JUMPDEST SWAP2 POP PUSH2 0x21C1 DUP4 PUSH2 0x1817 JUMP JUMPDEST SWAP3 POP DUP3 PUSH2 0x21D1 JUMPI PUSH2 0x21D0 PUSH2 0x217F JUMP JUMPDEST JUMPDEST DUP3 DUP3 DIV SWAP1 POP SWAP3 SWAP2 POP POP JUMP JUMPDEST PUSH32 0x4E6F204D616A6F7269747920766F746573000000000000000000000000000000 PUSH0 DUP3 ADD MSTORE POP JUMP JUMPDEST PUSH0 PUSH2 0x2210 PUSH1 0x11 DUP4 PUSH2 0x188E JUMP JUMPDEST SWAP2 POP PUSH2 0x221B DUP3 PUSH2 0x21DC JUMP JUMPDEST PUSH1 0x20 DUP3 ADD SWAP1 POP SWAP2 SWAP1 POP JUMP JUMPDEST PUSH0 PUSH1 0x20 DUP3 ADD SWAP1 POP DUP2 DUP2 SUB PUSH0 DUP4 ADD MSTORE PUSH2 0x223D DUP2 PUSH2 0x2204 JUMP JUMPDEST SWAP1 POP SWAP2 SWAP1 POP JUMP JUMPDEST PUSH32 0x416C726561647920457865637574656400000000000000000000000000000000 PUSH0 DUP3 ADD MSTORE POP JUMP JUMPDEST PUSH0 PUSH2 0x2278 PUSH1 0x10 DUP4 PUSH2 0x188E JUMP JUMPDEST SWAP2 POP PUSH2 0x2283 DUP3 PUSH2 0x2244 JUMP JUMPDEST PUSH1 0x20 DUP3 ADD SWAP1 POP SWAP2 SWAP1 POP JUMP JUMPDEST PUSH0 PUSH1 0x20 DUP3 ADD SWAP1 POP DUP2 DUP2 SUB PUSH0 DUP4 ADD MSTORE PUSH2 0x22A5 DUP2 PUSH2 0x226C JUMP JUMPDEST SWAP1 POP SWAP2 SWAP1 POP JUMP JUMPDEST PUSH32 0x4E6F7420656E6F7567682066756E64732063757272656E746C79000000000000 PUSH0 DUP3 ADD MSTORE POP JUMP JUMPDEST PUSH0 PUSH2 0x22E0 PUSH1 0x1A DUP4 PUSH2 0x188E JUMP JUMPDEST SWAP2 POP PUSH2 0x22EB DUP3 PUSH2 0x22AC JUMP JUMPDEST PUSH1 0x20 DUP3 ADD SWAP1 POP SWAP2 SWAP1 POP JUMP JUMPDEST PUSH0 PUSH1 0x20 DUP3 ADD SWAP1 POP DUP2 DUP2 SUB PUSH0 DUP4 ADD MSTORE PUSH2 0x230D DUP2 PUSH2 0x22D4 JUMP JUMPDEST SWAP1 POP SWAP2 SWAP1 POP JUMP JUMPDEST PUSH32 0x596F7520617265206E6F7420616E20496E766573746F72210000000000000000 PUSH0 DUP3 ADD MSTORE POP JUMP JUMPDEST PUSH0 PUSH2 0x2348 PUSH1 0x18 DUP4 PUSH2 0x188E JUMP JUMPDEST SWAP2 POP PUSH2 0x2353 DUP3 PUSH2 0x2314 JUMP JUMPDEST PUSH1 0x20 DUP3 ADD SWAP1 POP SWAP2 SWAP1 POP JUMP JUMPDEST PUSH0 PUSH1 0x20 DUP3 ADD SWAP1 POP DUP2 DUP2 SUB PUSH0 DUP4 ADD MSTORE PUSH2 0x2375 DUP2 PUSH2 0x233C JUMP JUMPDEST SWAP1 POP SWAP2 SWAP1 POP JUMP JUMPDEST PUSH32 0x4E487B7100000000000000000000000000000000000000000000000000000000 PUSH0 MSTORE PUSH1 0x41 PUSH1 0x4 MSTORE PUSH1 0x24 PUSH0 REVERT JUMPDEST PUSH32 0x4E487B7100000000000000000000000000000000000000000000000000000000 PUSH0 MSTORE PUSH1 0x32 PUSH1 0x4 MSTORE PUSH1 0x24 PUSH0 REVERT JUMPDEST PUSH0 DUP2 SWAP1 POP DUP2 PUSH0 MSTORE PUSH1 0x20 PUSH0 KECCAK256 SWAP1 POP SWAP2 SWAP1 POP JUMP JUMPDEST PUSH0 PUSH1 0x20 PUSH1 0x1F DUP4 ADD DIV SWAP1 POP SWAP2 SWAP1 POP JUMP JUMPDEST PUSH0 DUP3 DUP3 SHL SWAP1 POP SWAP3 SWAP2 POP POP JUMP JUMPDEST PUSH0 PUSH1 0x8 DUP4 MUL PUSH2 0x2432 PUSH32 0xFFFFFFFFFFFFFFFFFFFFFFFFFFFFFFFFFFFFFFFFFFFFFFFFFFFFFFFFFFFFFFFF DUP3 PUSH2 0x23F7 JUMP JUMPDEST PUSH2 0x243C DUP7 DUP4 PUSH2 0x23F7 JUMP JUMPDEST SWAP6 POP DUP1 NOT DUP5 AND SWAP4 POP DUP1 DUP7 AND DUP5 OR SWAP3 POP POP POP SWAP4 SWAP3 POP POP POP JUMP JUMPDEST PUSH0 DUP2 SWAP1 POP SWAP2 SWAP1 POP JUMP JUMPDEST PUSH0 PUSH2 0x2477 PUSH2 0x2472 PUSH2 0x246D DUP5 PUSH2 0x1817 JUMP JUMPDEST PUSH2 0x2454 JUMP JUMPDEST PUSH2 0x1817 JUMP JUMPDEST SWAP1 POP SWAP2 SWAP1 POP JUMP JUMPDEST PUSH0 DUP2 SWAP1 POP SWAP2 SWAP1 POP JUMP JUMPDEST PUSH2 0x2490 DUP4 PUSH2 0x245D JUMP JUMPDEST PUSH2 0x24A4 PUSH2 0x249C DUP3 PUSH2 0x247E JUMP JUMPDEST DUP5 DUP5 SLOAD PUSH2 0x2403 JUMP JUMPDEST DUP3 SSTORE POP POP POP POP JUMP JUMPDEST PUSH0 SWAP1 JUMP JUMPDEST PUSH2 0x24B8 PUSH2 0x24AC JUMP JUMPDEST PUSH2 0x24C3 DUP2 DUP5 DUP5 PUSH2 0x2487 JUMP JUMPDEST POP POP POP JUMP JUMPDEST JUMPDEST DUP2 DUP2 LT ISZERO PUSH2 0x24E6 JUMPI PUSH2 0x24DB PUSH0 DUP3 PUSH2 0x24B0 JUMP JUMPDEST PUSH1 0x1 DUP2 ADD SWAP1 POP PUSH2 0x24C9 JUMP JUMPDEST POP POP JUMP JUMPDEST PUSH1 0x1F DUP3 GT ISZERO PUSH2 0x252B JUMPI PUSH2 0x24FC DUP2 PUSH2 0x23D6 JUMP JUMPDEST PUSH2 0x2505 DUP5 PUSH2 0x23E8 JUMP JUMPDEST DUP2 ADD PUSH1 0x20 DUP6 LT ISZERO PUSH2 0x2514 JUMPI DUP2 SWAP1 POP JUMPDEST PUSH2 0x2528 PUSH2 0x2520 DUP6 PUSH2 0x23E8 JUMP JUMPDEST DUP4 ADD DUP3 PUSH2 0x24C8 JUMP JUMPDEST POP POP JUMPDEST POP POP POP JUMP JUMPDEST PUSH0 DUP3 DUP3 SHR SWAP1 POP SWAP3 SWAP2 POP POP JUMP JUMPDEST PUSH0 PUSH2 0x254B PUSH0 NOT DUP5 PUSH1 0x8 MUL PUSH2 0x2530 JUMP JUMPDEST NOT DUP1 DUP4 AND SWAP2 POP POP SWAP3 SWAP2 POP POP JUMP JUMPDEST PUSH0 PUSH2 0x2563 DUP4 DUP4 PUSH2 0x253C JUMP JUMPDEST SWAP2 POP DUP3 PUSH1 0x2 MUL DUP3 OR SWAP1 POP SWAP3 SWAP2 POP POP JUMP JUMPDEST PUSH2 0x257C DUP3 PUSH2 0x1884 JUMP JUMPDEST PUSH8 0xFFFFFFFFFFFFFFFF DUP2 GT ISZERO PUSH2 0x2595 JUMPI PUSH2 0x2594 PUSH2 0x237C JUMP JUMPDEST JUMPDEST PUSH2 0x259F DUP3 SLOAD PUSH2 0x1E4D JUMP JUMPDEST PUSH2 0x25AA DUP3 DUP3 DUP6 PUSH2 0x24EA JUMP JUMPDEST PUSH0 PUSH1 0x20 SWAP1 POP PUSH1 0x1F DUP4 GT PUSH1 0x1 DUP2 EQ PUSH2 0x25DB JUMPI PUSH0 DUP5 ISZERO PUSH2 0x25C9 JUMPI DUP3 DUP8 ADD MLOAD SWAP1 POP JUMPDEST PUSH2 0x25D3 DUP6 DUP3 PUSH2 0x2558 JUMP JUMPDEST DUP7 SSTORE POP PUSH2 0x263A JUMP JUMPDEST PUSH1 0x1F NOT DUP5 AND PUSH2 0x25E9 DUP7 PUSH2 0x23D6 JUMP JUMPDEST PUSH0 JUMPDEST DUP3 DUP2 LT ISZERO PUSH2 0x2610 JUMPI DUP5 DUP10 ADD MLOAD DUP3 SSTORE PUSH1 0x1 DUP3 ADD SWAP2 POP PUSH1 0x20 DUP6 ADD SWAP5 POP PUSH1 0x20 DUP2 ADD SWAP1 POP PUSH2 0x25EB JUMP JUMPDEST DUP7 DUP4 LT ISZERO PUSH2 0x262D JUMPI DUP5 DUP10 ADD MLOAD PUSH2 0x2629 PUSH1 0x1F DUP10 AND DUP3 PUSH2 0x253C JUMP JUMPDEST DUP4 SSTORE POP JUMPDEST PUSH1 0x1 PUSH1 0x2 DUP9 MUL ADD DUP9 SSTORE POP POP POP JUMPDEST POP POP POP POP POP POP JUMP JUMPDEST PUSH0 PUSH2 0x264C DUP3 PUSH2 0x1817 JUMP JUMPDEST SWAP2 POP PUSH32 0xFFFFFFFFFFFFFFFFFFFFFFFFFFFFFFFFFFFFFFFFFFFFFFFFFFFFFFFFFFFFFFFF DUP3 SUB PUSH2 0x267E JUMPI PUSH2 0x267D PUSH2 0x1FDB JUMP JUMPDEST JUMPDEST PUSH1 0x1 DUP3 ADD SWAP1 POP SWAP2 SWAP1 POP JUMP JUMPDEST PUSH32 0x416C726561647920566F74656400000000000000000000000000000000000000 PUSH0 DUP3 ADD MSTORE POP JUMP JUMPDEST PUSH0 PUSH2 0x26BD PUSH1 0xD DUP4 PUSH2 0x188E JUMP JUMPDEST SWAP2 POP PUSH2 0x26C8 DUP3 PUSH2 0x2689 JUMP JUMPDEST PUSH1 0x20 DUP3 ADD SWAP1 POP SWAP2 SWAP1 POP JUMP JUMPDEST PUSH0 PUSH1 0x20 DUP3 ADD SWAP1 POP DUP2 DUP2 SUB PUSH0 DUP4 ADD MSTORE PUSH2 0x26EA DUP2 PUSH2 0x26B1 JUMP JUMPDEST SWAP1 POP SWAP2 SWAP1 POP JUMP JUMPDEST PUSH32 0x566F74696E6720706572696F64204F7665720000000000000000000000000000 PUSH0 DUP3 ADD MSTORE POP JUMP JUMPDEST PUSH0 PUSH2 0x2725 PUSH1 0x12 DUP4 PUSH2 0x188E JUMP JUMPDEST SWAP2 POP PUSH2 0x2730 DUP3 PUSH2 0x26F1 JUMP JUMPDEST PUSH1 0x20 DUP3 ADD SWAP1 POP SWAP2 SWAP1 POP JUMP JUMPDEST PUSH0 PUSH1 0x20 DUP3 ADD SWAP1 POP DUP2 DUP2 SUB PUSH0 DUP4 ADD MSTORE PUSH2 0x2752 DUP2 PUSH2 0x2719 JUMP JUMPDEST SWAP1 POP SWAP2 SWAP1 POP JUMP JUMPDEST PUSH32 0x436F6E747269627574696F6E2054696D6520656E646564000000000000000000 PUSH0 DUP3 ADD MSTORE POP JUMP JUMPDEST PUSH0 PUSH2 0x278D PUSH1 0x17 DUP4 PUSH2 0x188E JUMP JUMPDEST SWAP2 POP PUSH2 0x2798 DUP3 PUSH2 0x2759 JUMP JUMPDEST PUSH1 0x20 DUP3 ADD SWAP1 POP SWAP2 SWAP1 POP JUMP JUMPDEST PUSH0 PUSH1 0x20 DUP3 ADD SWAP1 POP DUP2 DUP2 SUB PUSH0 DUP4 ADD MSTORE PUSH2 0x27BA DUP2 PUSH2 0x2781 JUMP JUMPDEST SWAP1 POP SWAP2 SWAP1 POP JUMP INVALID LOG2 PUSH5 0x6970667358 0x22 SLT KECCAK256 DUP2 SWAP12 0xD8 0xEC SLT SWAP12 0xFB 0x21 0x4F JUMPI 0xA7 0x29 SMOD PUSH15 0x99B7EDA659A42E39422B3F165D62E1 PUSH4 0x89A06473 PUSH16 0x6C634300081A00330000000000000000 "
				},
				"gasEstimates": {
					"creation": {
						"codeDepositCost": "2046200",
						"executionCost": "infinite",
						"totalCost": "infinite"
					},
					"external": {
						"Contribution()": "infinite",
						"PoposalList()": "infinite",
						"availableFunds()": "2448",
						"contributionTimeEnd()": "2469",
						"createProposal(string,uint256,address)": "infinite",
						"executeProposal(uint256)": "infinite",
						"investorList(uint256)": "5034",
						"isVoted(address,uint256)": "3093",
						"manager()": "2553",
						"nextProposalId()": "2470",
						"numOfShares(address)": "2869",
						"proposals(uint256)": "infinite",
						"quorum()": "2448",
						"redeemshare(uint256)": "infinite",
						"totalShares()": "2536",
						"transferShare(uint256,address)": "infinite",
						"voteProposal(uint256)": "infinite",
						"voteTime()": "2491",
						"withdrawlStatus(address,address)": "infinite"
					}
				},
				"methodIdentifiers": {
					"Contribution()": "fb65e4b1",
					"PoposalList()": "39977842",
					"availableFunds()": "46fcff4c",
					"contributionTimeEnd()": "afc8275b",
					"createProposal(string,uint256,address)": "6ac1e01f",
					"executeProposal(uint256)": "0d61b519",
					"investorList(uint256)": "12f9b48e",
					"isVoted(address,uint256)": "8ee36f05",
					"manager()": "481c6a75",
					"nextProposalId()": "2ab09d14",
					"numOfShares(address)": "6a907803",
					"proposals(uint256)": "013cf08b",
					"quorum()": "1703a018",
					"redeemshare(uint256)": "3551336f",
					"totalShares()": "3a98ef39",
					"transferShare(uint256,address)": "039383e6",
					"voteProposal(uint256)": "807896d5",
					"voteTime()": "bcf93dd6",
					"withdrawlStatus(address,address)": "dd5fee6f"
				}
			},
			"storageLayout": {
				"storage": [
					{
						"astId": 20,
						"contract": "contracts/dao.sol:DAO",
						"label": "isInvestor",
						"offset": 0,
						"slot": "0",
						"type": "t_mapping(t_address,t_bool)"
					},
					{
						"astId": 24,
						"contract": "contracts/dao.sol:DAO",
						"label": "numOfShares",
						"offset": 0,
						"slot": "1",
						"type": "t_mapping(t_address,t_uint256)"
					},
					{
						"astId": 30,
						"contract": "contracts/dao.sol:DAO",
						"label": "isVoted",
						"offset": 0,
						"slot": "2",
						"type": "t_mapping(t_address,t_mapping(t_uint256,t_bool))"
					},
					{
						"astId": 36,
						"contract": "contracts/dao.sol:DAO",
						"label": "withdrawlStatus",
						"offset": 0,
						"slot": "3",
						"type": "t_mapping(t_address,t_mapping(t_address,t_bool))"
					},
					{
						"astId": 39,
						"contract": "contracts/dao.sol:DAO",
						"label": "investorList",
						"offset": 0,
						"slot": "4",
						"type": "t_array(t_address)dyn_storage"
					},
					{
						"astId": 44,
						"contract": "contracts/dao.sol:DAO",
						"label": "proposals",
						"offset": 0,
						"slot": "5",
						"type": "t_mapping(t_uint256,t_struct(Proposal)16_storage)"
					},
					{
						"astId": 46,
						"contract": "contracts/dao.sol:DAO",
						"label": "totalShares",
						"offset": 0,
						"slot": "6",
						"type": "t_uint256"
					},
					{
						"astId": 48,
						"contract": "contracts/dao.sol:DAO",
						"label": "availableFunds",
						"offset": 0,
						"slot": "7",
						"type": "t_uint256"
					},
					{
						"astId": 50,
						"contract": "contracts/dao.sol:DAO",
						"label": "contributionTimeEnd",
						"offset": 0,
						"slot": "8",
						"type": "t_uint256"
					},
					{
						"astId": 52,
						"contract": "contracts/dao.sol:DAO",
						"label": "nextProposalId",
						"offset": 0,
						"slot": "9",
						"type": "t_uint256"
					},
					{
						"astId": 54,
						"contract": "contracts/dao.sol:DAO",
						"label": "voteTime",
						"offset": 0,
						"slot": "10",
						"type": "t_uint256"
					},
					{
						"astId": 56,
						"contract": "contracts/dao.sol:DAO",
						"label": "quorum",
						"offset": 0,
						"slot": "11",
						"type": "t_uint256"
					},
					{
						"astId": 58,
						"contract": "contracts/dao.sol:DAO",
						"label": "manager",
						"offset": 0,
						"slot": "12",
						"type": "t_address"
					}
				],
				"types": {
					"t_address": {
						"encoding": "inplace",
						"label": "address",
						"numberOfBytes": "20"
					},
					"t_address_payable": {
						"encoding": "inplace",
						"label": "address payable",
						"numberOfBytes": "20"
					},
					"t_array(t_address)dyn_storage": {
						"base": "t_address",
						"encoding": "dynamic_array",
						"label": "address[]",
						"numberOfBytes": "32"
					},
					"t_bool": {
						"encoding": "inplace",
						"label": "bool",
						"numberOfBytes": "1"
					},
					"t_mapping(t_address,t_bool)": {
						"encoding": "mapping",
						"key": "t_address",
						"label": "mapping(address => bool)",
						"numberOfBytes": "32",
						"value": "t_bool"
					},
					"t_mapping(t_address,t_mapping(t_address,t_bool))": {
						"encoding": "mapping",
						"key": "t_address",
						"label": "mapping(address => mapping(address => bool))",
						"numberOfBytes": "32",
						"value": "t_mapping(t_address,t_bool)"
					},
					"t_mapping(t_address,t_mapping(t_uint256,t_bool))": {
						"encoding": "mapping",
						"key": "t_address",
						"label": "mapping(address => mapping(uint256 => bool))",
						"numberOfBytes": "32",
						"value": "t_mapping(t_uint256,t_bool)"
					},
					"t_mapping(t_address,t_uint256)": {
						"encoding": "mapping",
						"key": "t_address",
						"label": "mapping(address => uint256)",
						"numberOfBytes": "32",
						"value": "t_uint256"
					},
					"t_mapping(t_uint256,t_bool)": {
						"encoding": "mapping",
						"key": "t_uint256",
						"label": "mapping(uint256 => bool)",
						"numberOfBytes": "32",
						"value": "t_bool"
					},
					"t_mapping(t_uint256,t_struct(Proposal)16_storage)": {
						"encoding": "mapping",
						"key": "t_uint256",
						"label": "mapping(uint256 => struct DAO.Proposal)",
						"numberOfBytes": "32",
						"value": "t_struct(Proposal)16_storage"
					},
					"t_string_storage": {
						"encoding": "bytes",
						"label": "string",
						"numberOfBytes": "32"
					},
					"t_struct(Proposal)16_storage": {
						"encoding": "inplace",
						"label": "struct DAO.Proposal",
						"members": [
							{
								"astId": 3,
								"contract": "contracts/dao.sol:DAO",
								"label": "id",
								"offset": 0,
								"slot": "0",
								"type": "t_uint256"
							},
							{
								"astId": 5,
								"contract": "contracts/dao.sol:DAO",
								"label": "desc",
								"offset": 0,
								"slot": "1",
								"type": "t_string_storage"
							},
							{
								"astId": 7,
								"contract": "contracts/dao.sol:DAO",
								"label": "amt",
								"offset": 0,
								"slot": "2",
								"type": "t_uint256"
							},
							{
								"astId": 9,
								"contract": "contracts/dao.sol:DAO",
								"label": "recepient",
								"offset": 0,
								"slot": "3",
								"type": "t_address_payable"
							},
							{
								"astId": 11,
								"contract": "contracts/dao.sol:DAO",
								"label": "votes",
								"offset": 0,
								"slot": "4",
								"type": "t_uint256"
							},
							{
								"astId": 13,
								"contract": "contracts/dao.sol:DAO",
								"label": "end",
								"offset": 0,
								"slot": "5",
								"type": "t_uint256"
							},
							{
								"astId": 15,
								"contract": "contracts/dao.sol:DAO",
								"label": "isExecuted",
								"offset": 0,
								"slot": "6",
								"type": "t_bool"
							}
						],
						"numberOfBytes": "224"
					},
					"t_uint256": {
						"encoding": "inplace",
						"label": "uint256",
						"numberOfBytes": "32"
					}
				}
			},
			"userdoc": {
				"kind": "user",
				"methods": {},
				"version": 1
			}
		}
	}
}