{
	"data": {
		"bytecode": {
			"linkReferences": {},
			"object": "6080604052348015600e575f80fd5b50610f8c8061001c5f395ff3fe608060405234801561000f575f80fd5b5060043610610091575f3560e01c80635a1692b6116100645780635a1692b6146101455780639139cda514610161578063e8d857b014610191578063fb46d4c5146101c4578063fd33c98f146101e057610091565b80632637588e146100955780633befea09146100c55780634fac1bb3146100f9578063517223b514610115575b5f80fd5b6100af60048036038101906100aa9190610771565b6101fc565b6040516100bc91906107c9565b60405180910390f35b6100df60048036038101906100da9190610815565b610226565b6040516100f09594939291906108e1565b60405180910390f35b610113600480360381019061010e9190610a65565b610336565b005b61012f600480360381019061012a9190610815565b610345565b60405161013c9190610abf565b60405180910390f35b61015f600480360381019061015a9190610ad8565b610370565b005b61017b60048036038101906101769190610815565b6104fa565b6040516101889190610b44565b60405180910390f35b6101ab60048036038101906101a69190610b5d565b610542565b6040516101bb9493929190610b88565b60405180910390f35b6101de60048036038101906101d99190610bd2565b610612565b005b6101fa60048036038101906101f59190610ad8565b61061f565b005b6003602052815f5260405f20602052805f5260405f205f915091509054906101000a900460ff1681565b6002602052815f5260405f20818154811061023f575f80fd5b905f5260205f2090600502015f9150915050805f015490806001015f9054906101000a900473ffffffffffffffffffffffffffffffffffffffff1690806002015f9054906101000a900473ffffffffffffffffffffffffffffffffffffffff16908060030180546102af90610c46565b80601f01602080910402602001604051908101604052809291908181526020018280546102db90610c46565b80156103265780601f106102fd57610100808354040283529160200191610326565b820191905f5260205f20905b81548152906001019060200180831161030957829003601f168201915b5050505050908060040154905085565b610341338383610370565b5050565b6001602052815f5260405f20818154811061035e575f80fd5b905f5260205f20015f91509150505481565b60025f8473ffffffffffffffffffffffffffffffffffffffff1673ffffffffffffffffffffffffffffffffffffffff1681526020019081526020015f206040518060a0016040528060065481526020018573ffffffffffffffffffffffffffffffffffffffff1681526020018473ffffffffffffffffffffffffffffffffffffffff16815260200183815260200142815250908060018154018082558091505060019003905f5260205f2090600502015f909190919091505f820151815f01556020820151816001015f6101000a81548173ffffffffffffffffffffffffffffffffffffffff021916908373ffffffffffffffffffffffffffffffffffffffff1602179055506040820151816002015f6101000a81548173ffffffffffffffffffffffffffffffffffffffff021916908373ffffffffffffffffffffffffffffffffffffffff16021790555060608201518160030190816104d19190610e13565b5060808201518160040155505060065f8154809291906104f090610f0f565b9190505550505050565b6004602052815f5260405f208181548110610513575f80fd5b905f5260205f20015f915091509054906101000a900473ffffffffffffffffffffffffffffffffffffffff1681565b5f602052805f5260405f205f91509050805f015490806001015f9054906101000a900473ffffffffffffffffffffffffffffffffffffffff169080600201805461058b90610c46565b80601f01602080910402602001604051908101604052809291908181526020018280546105b790610c46565b80156106025780601f106105d957610100808354040283529160200191610602565b820191905f5260205f20905b8154815290600101906020018083116105e557829003601f168201915b5050505050908060030154905084565b61061c338261062f565b50565b61062a838383610370565b505050565b604051806080016040528060055481526020018373ffffffffffffffffffffffffffffffffffffffff168152602001828152602001428152505f8060055481526020019081526020015f205f820151815f01556020820151816001015f6101000a81548173ffffffffffffffffffffffffffffffffffffffff021916908373ffffffffffffffffffffffffffffffffffffffff16021790555060408201518160020190816106dd9190610e13565b506060820151816003015590505060055f8154809291906106fd90610f0f565b91905055505050565b5f604051905090565b5f80fd5b5f80fd5b5f73ffffffffffffffffffffffffffffffffffffffff82169050919050565b5f61074082610717565b9050919050565b61075081610736565b811461075a575f80fd5b50565b5f8135905061076b81610747565b92915050565b5f80604083850312156107875761078661070f565b5b5f6107948582860161075d565b92505060206107a58582860161075d565b9150509250929050565b5f8115159050919050565b6107c3816107af565b82525050565b5f6020820190506107dc5f8301846107ba565b92915050565b5f819050919050565b6107f4816107e2565b81146107fe575f80fd5b50565b5f8135905061080f816107eb565b92915050565b5f806040838503121561082b5761082a61070f565b5b5f6108388582860161075d565b925050602061084985828601610801565b9150509250929050565b61085c816107e2565b82525050565b61086b81610736565b82525050565b5f81519050919050565b5f82825260208201905092915050565b8281835e5f83830152505050565b5f601f19601f8301169050919050565b5f6108b382610871565b6108bd818561087b565b93506108cd81856020860161088b565b6108d681610899565b840191505092915050565b5f60a0820190506108f45f830188610853565b6109016020830187610862565b61090e6040830186610862565b818103606083015261092081856108a9565b905061092f6080830184610853565b9695505050505050565b5f80fd5b5f80fd5b7f4e487b71000000000000000000000000000000000000000000000000000000005f52604160045260245ffd5b61097782610899565b810181811067ffffffffffffffff8211171561099657610995610941565b5b80604052505050565b5f6109a8610706565b90506109b4828261096e565b919050565b5f67ffffffffffffffff8211156109d3576109d2610941565b5b6109dc82610899565b9050602081019050919050565b828183375f83830152505050565b5f610a09610a04846109b9565b61099f565b905082815260208101848484011115610a2557610a2461093d565b5b610a308482856109e9565b509392505050565b5f82601f830112610a4c57610a4b610939565b5b8135610a5c8482602086016109f7565b91505092915050565b5f8060408385031215610a7b57610a7a61070f565b5b5f610a888582860161075d565b925050602083013567ffffffffffffffff811115610aa957610aa8610713565b5b610ab585828601610a38565b9150509250929050565b5f602082019050610ad25f830184610853565b92915050565b5f805f60608486031215610aef57610aee61070f565b5b5f610afc8682870161075d565b9350506020610b0d8682870161075d565b925050604084013567ffffffffffffffff811115610b2e57610b2d610713565b5b610b3a86828701610a38565b9150509250925092565b5f602082019050610b575f830184610862565b92915050565b5f60208284031215610b7257610b7161070f565b5b5f610b7f84828501610801565b91505092915050565b5f608082019050610b9b5f830187610853565b610ba86020830186610862565b8181036040830152610bba81856108a9565b9050610bc96060830184610853565b95945050505050565b5f60208284031215610be757610be661070f565b5b5f82013567ffffffffffffffff811115610c0457610c03610713565b5b610c1084828501610a38565b91505092915050565b7f4e487b71000000000000000000000000000000000000000000000000000000005f52602260045260245ffd5b5f6002820490506001821680610c5d57607f821691505b602082108103610c7057610c6f610c19565b5b50919050565b5f819050815f5260205f209050919050565b5f6020601f8301049050919050565b5f82821b905092915050565b5f60088302610cd27fffffffffffffffffffffffffffffffffffffffffffffffffffffffffffffffff82610c97565b610cdc8683610c97565b95508019841693508086168417925050509392505050565b5f819050919050565b5f610d17610d12610d0d846107e2565b610cf4565b6107e2565b9050919050565b5f819050919050565b610d3083610cfd565b610d44610d3c82610d1e565b848454610ca3565b825550505050565b5f90565b610d58610d4c565b610d63818484610d27565b505050565b5b81811015610d8657610d7b5f82610d50565b600181019050610d69565b5050565b601f821115610dcb57610d9c81610c76565b610da584610c88565b81016020851015610db4578190505b610dc8610dc085610c88565b830182610d68565b50505b505050565b5f82821c905092915050565b5f610deb5f1984600802610dd0565b1980831691505092915050565b5f610e038383610ddc565b9150826002028217905092915050565b610e1c82610871565b67ffffffffffffffff811115610e3557610e34610941565b5b610e3f8254610c46565b610e4a828285610d8a565b5f60209050601f831160018114610e7b575f8415610e69578287015190505b610e738582610df8565b865550610eda565b601f198416610e8986610c76565b5f5b82811015610eb057848901518255600182019150602085019450602081019050610e8b565b86831015610ecd5784890151610ec9601f891682610ddc565b8355505b6001600288020188555050505b505050505050565b7f4e487b71000000000000000000000000000000000000000000000000000000005f52601160045260245ffd5b5f610f19826107e2565b91507fffffffffffffffffffffffffffffffffffffffffffffffffffffffffffffffff8203610f4b57610f4a610ee2565b5b60018201905091905056fea2646970667358221220f78a7ddfdc2421bcee85e4fb803ad78b842b209aead68a7442cf66189c85c12764736f6c634300081a0033",
			"opcodes": "PUSH1 0x80 PUSH1 0x40 MSTORE CALLVALUE DUP1 ISZERO PUSH1 0xE JUMPI PUSH0 DUP1 REVERT JUMPDEST POP PUSH2 0xF8C DUP1 PUSH2 0x1C PUSH0 CODECOPY PUSH0 RETURN INVALID PUSH1 0x80 PUSH1 0x40 MSTORE CALLVALUE DUP1 ISZERO PUSH2 0xF JUMPI PUSH0 DUP1 REVERT JUMPDEST POP PUSH1 0x4 CALLDATASIZE LT PUSH2 0x91 JUMPI PUSH0 CALLDATALOAD PUSH1 0xE0 SHR DUP1 PUSH4 0x5A1692B6 GT PUSH2 0x64 JUMPI DUP1 PUSH4 0x5A1692B6 EQ PUSH2 0x145 JUMPI DUP1 PUSH4 0x9139CDA5 EQ PUSH2 0x161 JUMPI DUP1 PUSH4 0xE8D857B0 EQ PUSH2 0x191 JUMPI DUP1 PUSH4 0xFB46D4C5 EQ PUSH2 0x1C4 JUMPI DUP1 PUSH4 0xFD33C98F EQ PUSH2 0x1E0 JUMPI PUSH2 0x91 JUMP JUMPDEST DUP1 PUSH4 0x2637588E EQ PUSH2 0x95 JUMPI DUP1 PUSH4 0x3BEFEA09 EQ PUSH2 0xC5 JUMPI DUP1 PUSH4 0x4FAC1BB3 EQ PUSH2 0xF9 JUMPI DUP1 PUSH4 0x517223B5 EQ PUSH2 0x115 JUMPI JUMPDEST PUSH0 DUP1 REVERT JUMPDEST PUSH2 0xAF PUSH1 0x4 DUP1 CALLDATASIZE SUB DUP2 ADD SWAP1 PUSH2 0xAA SWAP2 SWAP1 PUSH2 0x771 JUMP JUMPDEST PUSH2 0x1FC JUMP JUMPDEST PUSH1 0x40 MLOAD PUSH2 0xBC SWAP2 SWAP1 PUSH2 0x7C9 JUMP JUMPDEST PUSH1 0x40 MLOAD DUP1 SWAP2 SUB SWAP1 RETURN JUMPDEST PUSH2 0xDF PUSH1 0x4 DUP1 CALLDATASIZE SUB DUP2 ADD SWAP1 PUSH2 0xDA SWAP2 SWAP1 PUSH2 0x815 JUMP JUMPDEST PUSH2 0x226 JUMP JUMPDEST PUSH1 0x40 MLOAD PUSH2 0xF0 SWAP6 SWAP5 SWAP4 SWAP3 SWAP2 SWAP1 PUSH2 0x8E1 JUMP JUMPDEST PUSH1 0x40 MLOAD DUP1 SWAP2 SUB SWAP1 RETURN JUMPDEST PUSH2 0x113 PUSH1 0x4 DUP1 CALLDATASIZE SUB DUP2 ADD SWAP1 PUSH2 0x10E SWAP2 SWAP1 PUSH2 0xA65 JUMP JUMPDEST PUSH2 0x336 JUMP JUMPDEST STOP JUMPDEST PUSH2 0x12F PUSH1 0x4 DUP1 CALLDATASIZE SUB DUP2 ADD SWAP1 PUSH2 0x12A SWAP2 SWAP1 PUSH2 0x815 JUMP JUMPDEST PUSH2 0x345 JUMP JUMPDEST PUSH1 0x40 MLOAD PUSH2 0x13C SWAP2 SWAP1 PUSH2 0xABF JUMP JUMPDEST PUSH1 0x40 MLOAD DUP1 SWAP2 SUB SWAP1 RETURN JUMPDEST PUSH2 0x15F PUSH1 0x4 DUP1 CALLDATASIZE SUB DUP2 ADD SWAP1 PUSH2 0x15A SWAP2 SWAP1 PUSH2 0xAD8 JUMP JUMPDEST PUSH2 0x370 JUMP JUMPDEST STOP JUMPDEST PUSH2 0x17B PUSH1 0x4 DUP1 CALLDATASIZE SUB DUP2 ADD SWAP1 PUSH2 0x176 SWAP2 SWAP1 PUSH2 0x815 JUMP JUMPDEST PUSH2 0x4FA JUMP JUMPDEST PUSH1 0x40 MLOAD PUSH2 0x188 SWAP2 SWAP1 PUSH2 0xB44 JUMP JUMPDEST PUSH1 0x40 MLOAD DUP1 SWAP2 SUB SWAP1 RETURN JUMPDEST PUSH2 0x1AB PUSH1 0x4 DUP1 CALLDATASIZE SUB DUP2 ADD SWAP1 PUSH2 0x1A6 SWAP2 SWAP1 PUSH2 0xB5D JUMP JUMPDEST PUSH2 0x542 JUMP JUMPDEST PUSH1 0x40 MLOAD PUSH2 0x1BB SWAP5 SWAP4 SWAP3 SWAP2 SWAP1 PUSH2 0xB88 JUMP JUMPDEST PUSH1 0x40 MLOAD DUP1 SWAP2 SUB SWAP1 RETURN JUMPDEST PUSH2 0x1DE PUSH1 0x4 DUP1 CALLDATASIZE SUB DUP2 ADD SWAP1 PUSH2 0x1D9 SWAP2 SWAP1 PUSH2 0xBD2 JUMP JUMPDEST PUSH2 0x612 JUMP JUMPDEST STOP JUMPDEST PUSH2 0x1FA PUSH1 0x4 DUP1 CALLDATASIZE SUB DUP2 ADD SWAP1 PUSH2 0x1F5 SWAP2 SWAP1 PUSH2 0xAD8 JUMP JUMPDEST PUSH2 0x61F JUMP JUMPDEST STOP JUMPDEST PUSH1 0x3 PUSH1 0x20 MSTORE DUP2 PUSH0 MSTORE PUSH1 0x40 PUSH0 KECCAK256 PUSH1 0x20 MSTORE DUP1 PUSH0 MSTORE PUSH1 0x40 PUSH0 KECCAK256 PUSH0 SWAP2 POP SWAP2 POP SWAP1 SLOAD SWAP1 PUSH2 0x100 EXP SWAP1 DIV PUSH1 0xFF AND DUP2 JUMP JUMPDEST PUSH1 0x2 PUSH1 0x20 MSTORE DUP2 PUSH0 MSTORE PUSH1 0x40 PUSH0 KECCAK256 DUP2 DUP2 SLOAD DUP2 LT PUSH2 0x23F JUMPI PUSH0 DUP1 REVERT JUMPDEST SWAP1 PUSH0 MSTORE PUSH1 0x20 PUSH0 KECCAK256 SWAP1 PUSH1 0x5 MUL ADD PUSH0 SWAP2 POP SWAP2 POP POP DUP1 PUSH0 ADD SLOAD SWAP1 DUP1 PUSH1 0x1 ADD PUSH0 SWAP1 SLOAD SWAP1 PUSH2 0x100 EXP SWAP1 DIV PUSH20 0xFFFFFFFFFFFFFFFFFFFFFFFFFFFFFFFFFFFFFFFF AND SWAP1 DUP1 PUSH1 0x2 ADD PUSH0 SWAP1 SLOAD SWAP1 PUSH2 0x100 EXP SWAP1 DIV PUSH20 0xFFFFFFFFFFFFFFFFFFFFFFFFFFFFFFFFFFFFFFFF AND SWAP1 DUP1 PUSH1 0x3 ADD DUP1 SLOAD PUSH2 0x2AF SWAP1 PUSH2 0xC46 JUMP JUMPDEST DUP1 PUSH1 0x1F ADD PUSH1 0x20 DUP1 SWAP2 DIV MUL PUSH1 0x20 ADD PUSH1 0x40 MLOAD SWAP1 DUP2 ADD PUSH1 0x40 MSTORE DUP1 SWAP3 SWAP2 SWAP1 DUP2 DUP2 MSTORE PUSH1 0x20 ADD DUP3 DUP1 SLOAD PUSH2 0x2DB SWAP1 PUSH2 0xC46 JUMP JUMPDEST DUP1 ISZERO PUSH2 0x326 JUMPI DUP1 PUSH1 0x1F LT PUSH2 0x2FD JUMPI PUSH2 0x100 DUP1 DUP4 SLOAD DIV MUL DUP4 MSTORE SWAP2 PUSH1 0x20 ADD SWAP2 PUSH2 0x326 JUMP JUMPDEST DUP3 ADD SWAP2 SWAP1 PUSH0 MSTORE PUSH1 0x20 PUSH0 KECCAK256 SWAP1 JUMPDEST DUP2 SLOAD DUP2 MSTORE SWAP1 PUSH1 0x1 ADD SWAP1 PUSH1 0x20 ADD DUP1 DUP4 GT PUSH2 0x309 JUMPI DUP3 SWAP1 SUB PUSH1 0x1F AND DUP3 ADD SWAP2 JUMPDEST POP POP POP POP POP SWAP1 DUP1 PUSH1 0x4 ADD SLOAD SWAP1 POP DUP6 JUMP JUMPDEST PUSH2 0x341 CALLER DUP4 DUP4 PUSH2 0x370 JUMP JUMPDEST POP POP JUMP JUMPDEST PUSH1 0x1 PUSH1 0x20 MSTORE DUP2 PUSH0 MSTORE PUSH1 0x40 PUSH0 KECCAK256 DUP2 DUP2 SLOAD DUP2 LT PUSH2 0x35E JUMPI PUSH0 DUP1 REVERT JUMPDEST SWAP1 PUSH0 MSTORE PUSH1 0x20 PUSH0 KECCAK256 ADD PUSH0 SWAP2 POP SWAP2 POP POP SLOAD DUP2 JUMP JUMPDEST PUSH1 0x2 PUSH0 DUP5 PUSH20 0xFFFFFFFFFFFFFFFFFFFFFFFFFFFFFFFFFFFFFFFF AND PUSH20 0xFFFFFFFFFFFFFFFFFFFFFFFFFFFFFFFFFFFFFFFF AND DUP2 MSTORE PUSH1 0x20 ADD SWAP1 DUP2 MSTORE PUSH1 0x20 ADD PUSH0 KECCAK256 PUSH1 0x40 MLOAD DUP1 PUSH1 0xA0 ADD PUSH1 0x40 MSTORE DUP1 PUSH1 0x6 SLOAD DUP2 MSTORE PUSH1 0x20 ADD DUP6 PUSH20 0xFFFFFFFFFFFFFFFFFFFFFFFFFFFFFFFFFFFFFFFF AND DUP2 MSTORE PUSH1 0x20 ADD DUP5 PUSH20 0xFFFFFFFFFFFFFFFFFFFFFFFFFFFFFFFFFFFFFFFF AND DUP2 MSTORE PUSH1 0x20 ADD DUP4 DUP2 MSTORE PUSH1 0x20 ADD TIMESTAMP DUP2 MSTORE POP SWAP1 DUP1 PUSH1 0x1 DUP2 SLOAD ADD DUP1 DUP3 SSTORE DUP1 SWAP2 POP POP PUSH1 0x1 SWAP1 SUB SWAP1 PUSH0 MSTORE PUSH1 0x20 PUSH0 KECCAK256 SWAP1 PUSH1 0x5 MUL ADD PUSH0 SWAP1 SWAP2 SWAP1 SWAP2 SWAP1 SWAP2 POP PUSH0 DUP3 ADD MLOAD DUP2 PUSH0 ADD SSTORE PUSH1 0x20 DUP3 ADD MLOAD DUP2 PUSH1 0x1 ADD PUSH0 PUSH2 0x100 EXP DUP2 SLOAD DUP2 PUSH20 0xFFFFFFFFFFFFFFFFFFFFFFFFFFFFFFFFFFFFFFFF MUL NOT AND SWAP1 DUP4 PUSH20 0xFFFFFFFFFFFFFFFFFFFFFFFFFFFFFFFFFFFFFFFF AND MUL OR SWAP1 SSTORE POP PUSH1 0x40 DUP3 ADD MLOAD DUP2 PUSH1 0x2 ADD PUSH0 PUSH2 0x100 EXP DUP2 SLOAD DUP2 PUSH20 0xFFFFFFFFFFFFFFFFFFFFFFFFFFFFFFFFFFFFFFFF MUL NOT AND SWAP1 DUP4 PUSH20 0xFFFFFFFFFFFFFFFFFFFFFFFFFFFFFFFFFFFFFFFF AND MUL OR SWAP1 SSTORE POP PUSH1 0x60 DUP3 ADD MLOAD DUP2 PUSH1 0x3 ADD SWAP1 DUP2 PUSH2 0x4D1 SWAP2 SWAP1 PUSH2 0xE13 JUMP JUMPDEST POP PUSH1 0x80 DUP3 ADD MLOAD DUP2 PUSH1 0x4 ADD SSTORE POP POP PUSH1 0x6 PUSH0 DUP2 SLOAD DUP1 SWAP3 SWAP2 SWAP1 PUSH2 0x4F0 SWAP1 PUSH2 0xF0F JUMP JUMPDEST SWAP2 SWAP1 POP SSTORE POP POP POP POP JUMP JUMPDEST PUSH1 0x4 PUSH1 0x20 MSTORE DUP2 PUSH0 MSTORE PUSH1 0x40 PUSH0 KECCAK256 DUP2 DUP2 SLOAD DUP2 LT PUSH2 0x513 JUMPI PUSH0 DUP1 REVERT JUMPDEST SWAP1 PUSH0 MSTORE PUSH1 0x20 PUSH0 KECCAK256 ADD PUSH0 SWAP2 POP SWAP2 POP SWAP1 SLOAD SWAP1 PUSH2 0x100 EXP SWAP1 DIV PUSH20 0xFFFFFFFFFFFFFFFFFFFFFFFFFFFFFFFFFFFFFFFF AND DUP2 JUMP JUMPDEST PUSH0 PUSH1 0x20 MSTORE DUP1 PUSH0 MSTORE PUSH1 0x40 PUSH0 KECCAK256 PUSH0 SWAP2 POP SWAP1 POP DUP1 PUSH0 ADD SLOAD SWAP1 DUP1 PUSH1 0x1 ADD PUSH0 SWAP1 SLOAD SWAP1 PUSH2 0x100 EXP SWAP1 DIV PUSH20 0xFFFFFFFFFFFFFFFFFFFFFFFFFFFFFFFFFFFFFFFF AND SWAP1 DUP1 PUSH1 0x2 ADD DUP1 SLOAD PUSH2 0x58B SWAP1 PUSH2 0xC46 JUMP JUMPDEST DUP1 PUSH1 0x1F ADD PUSH1 0x20 DUP1 SWAP2 DIV MUL PUSH1 0x20 ADD PUSH1 0x40 MLOAD SWAP1 DUP2 ADD PUSH1 0x40 MSTORE DUP1 SWAP3 SWAP2 SWAP1 DUP2 DUP2 MSTORE PUSH1 0x20 ADD DUP3 DUP1 SLOAD PUSH2 0x5B7 SWAP1 PUSH2 0xC46 JUMP JUMPDEST DUP1 ISZERO PUSH2 0x602 JUMPI DUP1 PUSH1 0x1F LT PUSH2 0x5D9 JUMPI PUSH2 0x100 DUP1 DUP4 SLOAD DIV MUL DUP4 MSTORE SWAP2 PUSH1 0x20 ADD SWAP2 PUSH2 0x602 JUMP JUMPDEST DUP3 ADD SWAP2 SWAP1 PUSH0 MSTORE PUSH1 0x20 PUSH0 KECCAK256 SWAP1 JUMPDEST DUP2 SLOAD DUP2 MSTORE SWAP1 PUSH1 0x1 ADD SWAP1 PUSH1 0x20 ADD DUP1 DUP4 GT PUSH2 0x5E5 JUMPI DUP3 SWAP1 SUB PUSH1 0x1F AND DUP3 ADD SWAP2 JUMPDEST POP POP POP POP POP SWAP1 DUP1 PUSH1 0x3 ADD SLOAD SWAP1 POP DUP5 JUMP JUMPDEST PUSH2 0x61C CALLER DUP3 PUSH2 0x62F JUMP JUMPDEST POP JUMP JUMPDEST PUSH2 0x62A DUP4 DUP4 DUP4 PUSH2 0x370 JUMP JUMPDEST POP POP POP JUMP JUMPDEST PUSH1 0x40 MLOAD DUP1 PUSH1 0x80 ADD PUSH1 0x40 MSTORE DUP1 PUSH1 0x5 SLOAD DUP2 MSTORE PUSH1 0x20 ADD DUP4 PUSH20 0xFFFFFFFFFFFFFFFFFFFFFFFFFFFFFFFFFFFFFFFF AND DUP2 MSTORE PUSH1 0x20 ADD DUP3 DUP2 MSTORE PUSH1 0x20 ADD TIMESTAMP DUP2 MSTORE POP PUSH0 DUP1 PUSH1 0x5 SLOAD DUP2 MSTORE PUSH1 0x20 ADD SWAP1 DUP2 MSTORE PUSH1 0x20 ADD PUSH0 KECCAK256 PUSH0 DUP3 ADD MLOAD DUP2 PUSH0 ADD SSTORE PUSH1 0x20 DUP3 ADD MLOAD DUP2 PUSH1 0x1 ADD PUSH0 PUSH2 0x100 EXP DUP2 SLOAD DUP2 PUSH20 0xFFFFFFFFFFFFFFFFFFFFFFFFFFFFFFFFFFFFFFFF MUL NOT AND SWAP1 DUP4 PUSH20 0xFFFFFFFFFFFFFFFFFFFFFFFFFFFFFFFFFFFFFFFF AND MUL OR SWAP1 SSTORE POP PUSH1 0x40 DUP3 ADD MLOAD DUP2 PUSH1 0x2 ADD SWAP1 DUP2 PUSH2 0x6DD SWAP2 SWAP1 PUSH2 0xE13 JUMP JUMPDEST POP PUSH1 0x60 DUP3 ADD MLOAD DUP2 PUSH1 0x3 ADD SSTORE SWAP1 POP POP PUSH1 0x5 PUSH0 DUP2 SLOAD DUP1 SWAP3 SWAP2 SWAP1 PUSH2 0x6FD SWAP1 PUSH2 0xF0F JUMP JUMPDEST SWAP2 SWAP1 POP SSTORE POP POP POP JUMP JUMPDEST PUSH0 PUSH1 0x40 MLOAD SWAP1 POP SWAP1 JUMP JUMPDEST PUSH0 DUP1 REVERT JUMPDEST PUSH0 DUP1 REVERT JUMPDEST PUSH0 PUSH20 0xFFFFFFFFFFFFFFFFFFFFFFFFFFFFFFFFFFFFFFFF DUP3 AND SWAP1 POP SWAP2 SWAP1 POP JUMP JUMPDEST PUSH0 PUSH2 0x740 DUP3 PUSH2 0x717 JUMP JUMPDEST SWAP1 POP SWAP2 SWAP1 POP JUMP JUMPDEST PUSH2 0x750 DUP2 PUSH2 0x736 JUMP JUMPDEST DUP2 EQ PUSH2 0x75A JUMPI PUSH0 DUP1 REVERT JUMPDEST POP JUMP JUMPDEST PUSH0 DUP2 CALLDATALOAD SWAP1 POP PUSH2 0x76B DUP2 PUSH2 0x747 JUMP JUMPDEST SWAP3 SWAP2 POP POP JUMP JUMPDEST PUSH0 DUP1 PUSH1 0x40 DUP4 DUP6 SUB SLT ISZERO PUSH2 0x787 JUMPI PUSH2 0x786 PUSH2 0x70F JUMP JUMPDEST JUMPDEST PUSH0 PUSH2 0x794 DUP6 DUP3 DUP7 ADD PUSH2 0x75D JUMP JUMPDEST SWAP3 POP POP PUSH1 0x20 PUSH2 0x7A5 DUP6 DUP3 DUP7 ADD PUSH2 0x75D JUMP JUMPDEST SWAP2 POP POP SWAP3 POP SWAP3 SWAP1 POP JUMP JUMPDEST PUSH0 DUP2 ISZERO ISZERO SWAP1 POP SWAP2 SWAP1 POP JUMP JUMPDEST PUSH2 0x7C3 DUP2 PUSH2 0x7AF JUMP JUMPDEST DUP3 MSTORE POP POP JUMP JUMPDEST PUSH0 PUSH1 0x20 DUP3 ADD SWAP1 POP PUSH2 0x7DC PUSH0 DUP4 ADD DUP5 PUSH2 0x7BA JUMP JUMPDEST SWAP3 SWAP2 POP POP JUMP JUMPDEST PUSH0 DUP2 SWAP1 POP SWAP2 SWAP1 POP JUMP JUMPDEST PUSH2 0x7F4 DUP2 PUSH2 0x7E2 JUMP JUMPDEST DUP2 EQ PUSH2 0x7FE JUMPI PUSH0 DUP1 REVERT JUMPDEST POP JUMP JUMPDEST PUSH0 DUP2 CALLDATALOAD SWAP1 POP PUSH2 0x80F DUP2 PUSH2 0x7EB JUMP JUMPDEST SWAP3 SWAP2 POP POP JUMP JUMPDEST PUSH0 DUP1 PUSH1 0x40 DUP4 DUP6 SUB SLT ISZERO PUSH2 0x82B JUMPI PUSH2 0x82A PUSH2 0x70F JUMP JUMPDEST JUMPDEST PUSH0 PUSH2 0x838 DUP6 DUP3 DUP7 ADD PUSH2 0x75D JUMP JUMPDEST SWAP3 POP POP PUSH1 0x20 PUSH2 0x849 DUP6 DUP3 DUP7 ADD PUSH2 0x801 JUMP JUMPDEST SWAP2 POP POP SWAP3 POP SWAP3 SWAP1 POP JUMP JUMPDEST PUSH2 0x85C DUP2 PUSH2 0x7E2 JUMP JUMPDEST DUP3 MSTORE POP POP JUMP JUMPDEST PUSH2 0x86B DUP2 PUSH2 0x736 JUMP JUMPDEST DUP3 MSTORE POP POP JUMP JUMPDEST PUSH0 DUP2 MLOAD SWAP1 POP SWAP2 SWAP1 POP JUMP JUMPDEST PUSH0 DUP3 DUP3 MSTORE PUSH1 0x20 DUP3 ADD SWAP1 POP SWAP3 SWAP2 POP POP JUMP JUMPDEST DUP3 DUP2 DUP4 MCOPY PUSH0 DUP4 DUP4 ADD MSTORE POP POP POP JUMP JUMPDEST PUSH0 PUSH1 0x1F NOT PUSH1 0x1F DUP4 ADD AND SWAP1 POP SWAP2 SWAP1 POP JUMP JUMPDEST PUSH0 PUSH2 0x8B3 DUP3 PUSH2 0x871 JUMP JUMPDEST PUSH2 0x8BD DUP2 DUP6 PUSH2 0x87B JUMP JUMPDEST SWAP4 POP PUSH2 0x8CD DUP2 DUP6 PUSH1 0x20 DUP7 ADD PUSH2 0x88B JUMP JUMPDEST PUSH2 0x8D6 DUP2 PUSH2 0x899 JUMP JUMPDEST DUP5 ADD SWAP2 POP POP SWAP3 SWAP2 POP POP JUMP JUMPDEST PUSH0 PUSH1 0xA0 DUP3 ADD SWAP1 POP PUSH2 0x8F4 PUSH0 DUP4 ADD DUP9 PUSH2 0x853 JUMP JUMPDEST PUSH2 0x901 PUSH1 0x20 DUP4 ADD DUP8 PUSH2 0x862 JUMP JUMPDEST PUSH2 0x90E PUSH1 0x40 DUP4 ADD DUP7 PUSH2 0x862 JUMP JUMPDEST DUP2 DUP2 SUB PUSH1 0x60 DUP4 ADD MSTORE PUSH2 0x920 DUP2 DUP6 PUSH2 0x8A9 JUMP JUMPDEST SWAP1 POP PUSH2 0x92F PUSH1 0x80 DUP4 ADD DUP5 PUSH2 0x853 JUMP JUMPDEST SWAP7 SWAP6 POP POP POP POP POP POP JUMP JUMPDEST PUSH0 DUP1 REVERT JUMPDEST PUSH0 DUP1 REVERT JUMPDEST PUSH32 0x4E487B7100000000000000000000000000000000000000000000000000000000 PUSH0 MSTORE PUSH1 0x41 PUSH1 0x4 MSTORE PUSH1 0x24 PUSH0 REVERT JUMPDEST PUSH2 0x977 DUP3 PUSH2 0x899 JUMP JUMPDEST DUP2 ADD DUP2 DUP2 LT PUSH8 0xFFFFFFFFFFFFFFFF DUP3 GT OR ISZERO PUSH2 0x996 JUMPI PUSH2 0x995 PUSH2 0x941 JUMP JUMPDEST JUMPDEST DUP1 PUSH1 0x40 MSTORE POP POP POP JUMP JUMPDEST PUSH0 PUSH2 0x9A8 PUSH2 0x706 JUMP JUMPDEST SWAP1 POP PUSH2 0x9B4 DUP3 DUP3 PUSH2 0x96E JUMP JUMPDEST SWAP2 SWAP1 POP JUMP JUMPDEST PUSH0 PUSH8 0xFFFFFFFFFFFFFFFF DUP3 GT ISZERO PUSH2 0x9D3 JUMPI PUSH2 0x9D2 PUSH2 0x941 JUMP JUMPDEST JUMPDEST PUSH2 0x9DC DUP3 PUSH2 0x899 JUMP JUMPDEST SWAP1 POP PUSH1 0x20 DUP2 ADD SWAP1 POP SWAP2 SWAP1 POP JUMP JUMPDEST DUP3 DUP2 DUP4 CALLDATACOPY PUSH0 DUP4 DUP4 ADD MSTORE POP POP POP JUMP JUMPDEST PUSH0 PUSH2 0xA09 PUSH2 0xA04 DUP5 PUSH2 0x9B9 JUMP JUMPDEST PUSH2 0x99F JUMP JUMPDEST SWAP1 POP DUP3 DUP2 MSTORE PUSH1 0x20 DUP2 ADD DUP5 DUP5 DUP5 ADD GT ISZERO PUSH2 0xA25 JUMPI PUSH2 0xA24 PUSH2 0x93D JUMP JUMPDEST JUMPDEST PUSH2 0xA30 DUP5 DUP3 DUP6 PUSH2 0x9E9 JUMP JUMPDEST POP SWAP4 SWAP3 POP POP POP JUMP JUMPDEST PUSH0 DUP3 PUSH1 0x1F DUP4 ADD SLT PUSH2 0xA4C JUMPI PUSH2 0xA4B PUSH2 0x939 JUMP JUMPDEST JUMPDEST DUP2 CALLDATALOAD PUSH2 0xA5C DUP5 DUP3 PUSH1 0x20 DUP7 ADD PUSH2 0x9F7 JUMP JUMPDEST SWAP2 POP POP SWAP3 SWAP2 POP POP JUMP JUMPDEST PUSH0 DUP1 PUSH1 0x40 DUP4 DUP6 SUB SLT ISZERO PUSH2 0xA7B JUMPI PUSH2 0xA7A PUSH2 0x70F JUMP JUMPDEST JUMPDEST PUSH0 PUSH2 0xA88 DUP6 DUP3 DUP7 ADD PUSH2 0x75D JUMP JUMPDEST SWAP3 POP POP PUSH1 0x20 DUP4 ADD CALLDATALOAD PUSH8 0xFFFFFFFFFFFFFFFF DUP2 GT ISZERO PUSH2 0xAA9 JUMPI PUSH2 0xAA8 PUSH2 0x713 JUMP JUMPDEST JUMPDEST PUSH2 0xAB5 DUP6 DUP3 DUP7 ADD PUSH2 0xA38 JUMP JUMPDEST SWAP2 POP POP SWAP3 POP SWAP3 SWAP1 POP JUMP JUMPDEST PUSH0 PUSH1 0x20 DUP3 ADD SWAP1 POP PUSH2 0xAD2 PUSH0 DUP4 ADD DUP5 PUSH2 0x853 JUMP JUMPDEST SWAP3 SWAP2 POP POP JUMP JUMPDEST PUSH0 DUP1 PUSH0 PUSH1 0x60 DUP5 DUP7 SUB SLT ISZERO PUSH2 0xAEF JUMPI PUSH2 0xAEE PUSH2 0x70F JUMP JUMPDEST JUMPDEST PUSH0 PUSH2 0xAFC DUP7 DUP3 DUP8 ADD PUSH2 0x75D JUMP JUMPDEST SWAP4 POP POP PUSH1 0x20 PUSH2 0xB0D DUP7 DUP3 DUP8 ADD PUSH2 0x75D JUMP JUMPDEST SWAP3 POP POP PUSH1 0x40 DUP5 ADD CALLDATALOAD PUSH8 0xFFFFFFFFFFFFFFFF DUP2 GT ISZERO PUSH2 0xB2E JUMPI PUSH2 0xB2D PUSH2 0x713 JUMP JUMPDEST JUMPDEST PUSH2 0xB3A DUP7 DUP3 DUP8 ADD PUSH2 0xA38 JUMP JUMPDEST SWAP2 POP POP SWAP3 POP SWAP3 POP SWAP3 JUMP JUMPDEST PUSH0 PUSH1 0x20 DUP3 ADD SWAP1 POP PUSH2 0xB57 PUSH0 DUP4 ADD DUP5 PUSH2 0x862 JUMP JUMPDEST SWAP3 SWAP2 POP POP JUMP JUMPDEST PUSH0 PUSH1 0x20 DUP3 DUP5 SUB SLT ISZERO PUSH2 0xB72 JUMPI PUSH2 0xB71 PUSH2 0x70F JUMP JUMPDEST JUMPDEST PUSH0 PUSH2 0xB7F DUP5 DUP3 DUP6 ADD PUSH2 0x801 JUMP JUMPDEST SWAP2 POP POP SWAP3 SWAP2 POP POP JUMP JUMPDEST PUSH0 PUSH1 0x80 DUP3 ADD SWAP1 POP PUSH2 0xB9B PUSH0 DUP4 ADD DUP8 PUSH2 0x853 JUMP JUMPDEST PUSH2 0xBA8 PUSH1 0x20 DUP4 ADD DUP7 PUSH2 0x862 JUMP JUMPDEST DUP2 DUP2 SUB PUSH1 0x40 DUP4 ADD MSTORE PUSH2 0xBBA DUP2 DUP6 PUSH2 0x8A9 JUMP JUMPDEST SWAP1 POP PUSH2 0xBC9 PUSH1 0x60 DUP4 ADD DUP5 PUSH2 0x853 JUMP JUMPDEST SWAP6 SWAP5 POP POP POP POP POP JUMP JUMPDEST PUSH0 PUSH1 0x20 DUP3 DUP5 SUB SLT ISZERO PUSH2 0xBE7 JUMPI PUSH2 0xBE6 PUSH2 0x70F JUMP JUMPDEST JUMPDEST PUSH0 DUP3 ADD CALLDATALOAD PUSH8 0xFFFFFFFFFFFFFFFF DUP2 GT ISZERO PUSH2 0xC04 JUMPI PUSH2 0xC03 PUSH2 0x713 JUMP JUMPDEST JUMPDEST PUSH2 0xC10 DUP5 DUP3 DUP6 ADD PUSH2 0xA38 JUMP JUMPDEST SWAP2 POP POP SWAP3 SWAP2 POP POP JUMP JUMPDEST PUSH32 0x4E487B7100000000000000000000000000000000000000000000000000000000 PUSH0 MSTORE PUSH1 0x22 PUSH1 0x4 MSTORE PUSH1 0x24 PUSH0 REVERT JUMPDEST PUSH0 PUSH1 0x2 DUP3 DIV SWAP1 POP PUSH1 0x1 DUP3 AND DUP1 PUSH2 0xC5D JUMPI PUSH1 0x7F DUP3 AND SWAP2 POP JUMPDEST PUSH1 0x20 DUP3 LT DUP2 SUB PUSH2 0xC70 JUMPI PUSH2 0xC6F PUSH2 0xC19 JUMP JUMPDEST JUMPDEST POP SWAP2 SWAP1 POP JUMP JUMPDEST PUSH0 DUP2 SWAP1 POP DUP2 PUSH0 MSTORE PUSH1 0x20 PUSH0 KECCAK256 SWAP1 POP SWAP2 SWAP1 POP JUMP JUMPDEST PUSH0 PUSH1 0x20 PUSH1 0x1F DUP4 ADD DIV SWAP1 POP SWAP2 SWAP1 POP JUMP JUMPDEST PUSH0 DUP3 DUP3 SHL SWAP1 POP SWAP3 SWAP2 POP POP JUMP JUMPDEST PUSH0 PUSH1 0x8 DUP4 MUL PUSH2 0xCD2 PUSH32 0xFFFFFFFFFFFFFFFFFFFFFFFFFFFFFFFFFFFFFFFFFFFFFFFFFFFFFFFFFFFFFFFF DUP3 PUSH2 0xC97 JUMP JUMPDEST PUSH2 0xCDC DUP7 DUP4 PUSH2 0xC97 JUMP JUMPDEST SWAP6 POP DUP1 NOT DUP5 AND SWAP4 POP DUP1 DUP7 AND DUP5 OR SWAP3 POP POP POP SWAP4 SWAP3 POP POP POP JUMP JUMPDEST PUSH0 DUP2 SWAP1 POP SWAP2 SWAP1 POP JUMP JUMPDEST PUSH0 PUSH2 0xD17 PUSH2 0xD12 PUSH2 0xD0D DUP5 PUSH2 0x7E2 JUMP JUMPDEST PUSH2 0xCF4 JUMP JUMPDEST PUSH2 0x7E2 JUMP JUMPDEST SWAP1 POP SWAP2 SWAP1 POP JUMP JUMPDEST PUSH0 DUP2 SWAP1 POP SWAP2 SWAP1 POP JUMP JUMPDEST PUSH2 0xD30 DUP4 PUSH2 0xCFD JUMP JUMPDEST PUSH2 0xD44 PUSH2 0xD3C DUP3 PUSH2 0xD1E JUMP JUMPDEST DUP5 DUP5 SLOAD PUSH2 0xCA3 JUMP JUMPDEST DUP3 SSTORE POP POP POP POP JUMP JUMPDEST PUSH0 SWAP1 JUMP JUMPDEST PUSH2 0xD58 PUSH2 0xD4C JUMP JUMPDEST PUSH2 0xD63 DUP2 DUP5 DUP5 PUSH2 0xD27 JUMP JUMPDEST POP POP POP JUMP JUMPDEST JUMPDEST DUP2 DUP2 LT ISZERO PUSH2 0xD86 JUMPI PUSH2 0xD7B PUSH0 DUP3 PUSH2 0xD50 JUMP JUMPDEST PUSH1 0x1 DUP2 ADD SWAP1 POP PUSH2 0xD69 JUMP JUMPDEST POP POP JUMP JUMPDEST PUSH1 0x1F DUP3 GT ISZERO PUSH2 0xDCB JUMPI PUSH2 0xD9C DUP2 PUSH2 0xC76 JUMP JUMPDEST PUSH2 0xDA5 DUP5 PUSH2 0xC88 JUMP JUMPDEST DUP2 ADD PUSH1 0x20 DUP6 LT ISZERO PUSH2 0xDB4 JUMPI DUP2 SWAP1 POP JUMPDEST PUSH2 0xDC8 PUSH2 0xDC0 DUP6 PUSH2 0xC88 JUMP JUMPDEST DUP4 ADD DUP3 PUSH2 0xD68 JUMP JUMPDEST POP POP JUMPDEST POP POP POP JUMP JUMPDEST PUSH0 DUP3 DUP3 SHR SWAP1 POP SWAP3 SWAP2 POP POP JUMP JUMPDEST PUSH0 PUSH2 0xDEB PUSH0 NOT DUP5 PUSH1 0x8 MUL PUSH2 0xDD0 JUMP JUMPDEST NOT DUP1 DUP4 AND SWAP2 POP POP SWAP3 SWAP2 POP POP JUMP JUMPDEST PUSH0 PUSH2 0xE03 DUP4 DUP4 PUSH2 0xDDC JUMP JUMPDEST SWAP2 POP DUP3 PUSH1 0x2 MUL DUP3 OR SWAP1 POP SWAP3 SWAP2 POP POP JUMP JUMPDEST PUSH2 0xE1C DUP3 PUSH2 0x871 JUMP JUMPDEST PUSH8 0xFFFFFFFFFFFFFFFF DUP2 GT ISZERO PUSH2 0xE35 JUMPI PUSH2 0xE34 PUSH2 0x941 JUMP JUMPDEST JUMPDEST PUSH2 0xE3F DUP3 SLOAD PUSH2 0xC46 JUMP JUMPDEST PUSH2 0xE4A DUP3 DUP3 DUP6 PUSH2 0xD8A JUMP JUMPDEST PUSH0 PUSH1 0x20 SWAP1 POP PUSH1 0x1F DUP4 GT PUSH1 0x1 DUP2 EQ PUSH2 0xE7B JUMPI PUSH0 DUP5 ISZERO PUSH2 0xE69 JUMPI DUP3 DUP8 ADD MLOAD SWAP1 POP JUMPDEST PUSH2 0xE73 DUP6 DUP3 PUSH2 0xDF8 JUMP JUMPDEST DUP7 SSTORE POP PUSH2 0xEDA JUMP JUMPDEST PUSH1 0x1F NOT DUP5 AND PUSH2 0xE89 DUP7 PUSH2 0xC76 JUMP JUMPDEST PUSH0 JUMPDEST DUP3 DUP2 LT ISZERO PUSH2 0xEB0 JUMPI DUP5 DUP10 ADD MLOAD DUP3 SSTORE PUSH1 0x1 DUP3 ADD SWAP2 POP PUSH1 0x20 DUP6 ADD SWAP5 POP PUSH1 0x20 DUP2 ADD SWAP1 POP PUSH2 0xE8B JUMP JUMPDEST DUP7 DUP4 LT ISZERO PUSH2 0xECD JUMPI DUP5 DUP10 ADD MLOAD PUSH2 0xEC9 PUSH1 0x1F DUP10 AND DUP3 PUSH2 0xDDC JUMP JUMPDEST DUP4 SSTORE POP JUMPDEST PUSH1 0x1 PUSH1 0x2 DUP9 MUL ADD DUP9 SSTORE POP POP POP JUMPDEST POP POP POP POP POP POP JUMP JUMPDEST PUSH32 0x4E487B7100000000000000000000000000000000000000000000000000000000 PUSH0 MSTORE PUSH1 0x11 PUSH1 0x4 MSTORE PUSH1 0x24 PUSH0 REVERT JUMPDEST PUSH0 PUSH2 0xF19 DUP3 PUSH2 0x7E2 JUMP JUMPDEST SWAP2 POP PUSH32 0xFFFFFFFFFFFFFFFFFFFFFFFFFFFFFFFFFFFFFFFFFFFFFFFFFFFFFFFFFFFFFFFF DUP3 SUB PUSH2 0xF4B JUMPI PUSH2 0xF4A PUSH2 0xEE2 JUMP JUMPDEST JUMPDEST PUSH1 0x1 DUP3 ADD SWAP1 POP SWAP2 SWAP1 POP JUMP INVALID LOG2 PUSH5 0x6970667358 0x22 SLT KECCAK256 0xF7 DUP11 PUSH30 0xDFDC2421BCEE85E4FB803AD78B842B209AEAD68A7442CF66189C85C12764 PUSH20 0x6F6C634300081A00330000000000000000000000 "
		},
		"gasEstimates": {
			"creation": {
				"codeDepositCost": "796000",
				"executionCost": "829",
				"totalCost": "796829"
			},
			"external": {
				"_message(address,address,string)": "infinite",
				"conversations(address,uint256)": "infinite",
				"following(address,uint256)": "infinite",
				"message(address,address,string)": "infinite",
				"message(address,string)": "infinite",
				"operators(address,address)": "infinite",
				"tweet(string)": "infinite",
				"tweets(uint256)": "infinite",
				"tweetsof(address,uint256)": "infinite"
			},
			"internal": {
				"_tweet(address,string memory)": "infinite",
				"tweet(address,string memory)": "infinite"
			}
		},
		"methodIdentifiers": {
			"_message(address,address,string)": "5a1692b6",
			"conversations(address,uint256)": "3befea09",
			"following(address,uint256)": "9139cda5",
			"message(address,address,string)": "fd33c98f",
			"message(address,string)": "4fac1bb3",
			"operators(address,address)": "2637588e",
			"tweet(string)": "fb46d4c5",
			"tweets(uint256)": "e8d857b0",
			"tweetsof(address,uint256)": "517223b5"
		}
	},
	"abi": [
		{
			"inputs": [
				{
					"internalType": "address",
					"name": "_from",
					"type": "address"
				},
				{
					"internalType": "address",
					"name": "_to",
					"type": "address"
				},
				{
					"internalType": "string",
					"name": "_content",
					"type": "string"
				}
			],
			"name": "_message",
			"outputs": [],
			"stateMutability": "nonpayable",
			"type": "function"
		},
		{
			"inputs": [
				{
					"internalType": "address",
					"name": "",
					"type": "address"
				},
				{
					"internalType": "uint256",
					"name": "",
					"type": "uint256"
				}
			],
			"name": "conversations",
			"outputs": [
				{
					"internalType": "uint256",
					"name": "id",
					"type": "uint256"
				},
				{
					"internalType": "address",
					"name": "from",
					"type": "address"
				},
				{
					"internalType": "address",
					"name": "to",
					"type": "address"
				},
				{
					"internalType": "string",
					"name": "content",
					"type": "string"
				},
				{
					"internalType": "uint256",
					"name": "createdAt",
					"type": "uint256"
				}
			],
			"stateMutability": "view",
			"type": "function"
		},
		{
			"inputs": [
				{
					"internalType": "address",
					"name": "",
					"type": "address"
				},
				{
					"internalType": "uint256",
					"name": "",
					"type": "uint256"
				}
			],
			"name": "following",
			"outputs": [
				{
					"internalType": "address",
					"name": "",
					"type": "address"
				}
			],
			"stateMutability": "view",
			"type": "function"
		},
		{
			"inputs": [
				{
					"internalType": "address",
					"name": "_to",
					"type": "address"
				},
				{
					"internalType": "string",
					"name": "_content",
					"type": "string"
				}
			],
			"name": "message",
			"outputs": [],
			"stateMutability": "nonpayable",
			"type": "function"
		},
		{
			"inputs": [
				{
					"internalType": "address",
					"name": "_from",
					"type": "address"
				},
				{
					"internalType": "address",
					"name": "_to",
					"type": "address"
				},
				{
					"internalType": "string",
					"name": "_content",
					"type": "string"
				}
			],
			"name": "message",
			"outputs": [],
			"stateMutability": "nonpayable",
			"type": "function"
		},
		{
			"inputs": [
				{
					"internalType": "address",
					"name": "",
					"type": "address"
				},
				{
					"internalType": "address",
					"name": "",
					"type": "address"
				}
			],
			"name": "operators",
			"outputs": [
				{
					"internalType": "bool",
					"name": "",
					"type": "bool"
				}
			],
			"stateMutability": "view",
			"type": "function"
		},
		{
			"inputs": [
				{
					"internalType": "string",
					"name": "_content",
					"type": "string"
				}
			],
			"name": "tweet",
			"outputs": [],
			"stateMutability": "nonpayable",
			"type": "function"
		},
		{
			"inputs": [
				{
					"internalType": "uint256",
					"name": "",
					"type": "uint256"
				}
			],
			"name": "tweets",
			"outputs": [
				{
					"internalType": "uint256",
					"name": "id",
					"type": "uint256"
				},
				{
					"internalType": "address",
					"name": "author",
					"type": "address"
				},
				{
					"internalType": "string",
					"name": "content",
					"type": "string"
				},
				{
					"internalType": "uint256",
					"name": "createdAt",
					"type": "uint256"
				}
			],
			"stateMutability": "view",
			"type": "function"
		},
		{
			"inputs": [
				{
					"internalType": "address",
					"name": "",
					"type": "address"
				},
				{
					"internalType": "uint256",
					"name": "",
					"type": "uint256"
				}
			],
			"name": "tweetsof",
			"outputs": [
				{
					"internalType": "uint256",
					"name": "",
					"type": "uint256"
				}
			],
			"stateMutability": "view",
			"type": "function"
		}
	]
}